:100000000C94BD010C94EA010C94EA010C94EA01F1
:100010000C94EA010C94EA010C94EA010C94EA01B4
:100020000C94EA010C94EA010C94EA010C94EA01A4
:100030000C94EA010C94EA010C94EA010C94EA0194
:100040000C94EA010C94EA010C94EA010C94EA0184
:100050000C94E90A0C94EA010C94EA010C948A3499
:100060000C94EA010C94B4370C94FC380C94EA011B
:100070000C94EA010C94BE0A0C94EA010C94EA0177
:100080000C94EA010C94EA010C94EA010C94D00D52
:100090000C94F4370C943B390C94EA010C94DA0676
:1000A0000C94EA010C94EA010C94EA010C94EA0124
:1000B0000C94EA010C94EA010C94EA010C94EA0114
:1000C0000C94EA010C94EA010C94EA010C94343883
:1000D0000C947A390C94EA010C9474380C94B93964
:1000E0000C94EA010D172517AB17C8175918931868
:1000F000AA18D218EE1817192E19351E351E5619C2
:100100009019BC19091A691AC51A2D1B441BA01B8A
:10011000C61B451D981DB91D5B1D771DE01DFD1DEE
:10012000351E351E351E351E351E351E351E351E37
:10013000351E351E351E351E351E351E351E351E27
:10014000351E351E351E351E351E351E351E351E17
:10015000351E351E351E351E351E351E351E351E07
:10016000351E351E351E351E351E351E351E351EF7
:10017000351E351E351E351E351E351E351E351EE7
:10018000351E351E351E351E351E351E0A1C1C1D1E
:1001900001233B237523AF233424E9236E24C92490
:1001A0000F25EC2462253B2565263E2696267027E2
:1001B000F2260F28C82750286B288528A528CF2885
:1001C000A824052928294629632991290800000027
:1001D000BE922449123EABAAAA2ABECDCCCC4C3E3C
:1001E00000000080BEABAAAAAA3E00000000BF002B
:1001F0000000803F0000000000084178D3BB438727
:10020000D1133D190E3CC3BD4282AD2B3E68EC823A
:1002100076BED98FE1A93E4C80EFFFBE01C4FF7FBF
:100220003F000000000007634236B79BD8A71A3989
:10023000685618AEBAAB558C1D3CB7CC5763BD6D34
:10024000EDFD753EF6177231BF000000803F0000E3
:100250002100240027002A002D0030003300010176
:100260000000040107010A01000022002500280007
:100270002B002E00310034000201000005010801AE
:100280000B01000020002300260029002C002F0075
:100290003200000100000301060109010505050502
:1002A000070508080808020202020A0A08080404EE
:1002B000040401010101010101010303030303031C
:1002C0000303040707070C0C0C0C0C0C0C0C0202AB
:1002D000020206060606060606060B0B0B0B0B0BA8
:1002E0000B0B010210202008081020401020408035
:1002F00002010201080402010102040810204080EA
:100300008040201008040201800402018040201077
:1003100008040201080402010102040810204080C0
:1003200001020408102040800000090A02080B0C9A
:100330000D0706030401000000000000000000009B
:1003400000000000000000000000000000000000AD
:100350000000000011100F0000000000000000006D
:1003600000000000000000000000000000001F046A
:100370007205F30AE129293B180411241FBECFEFAF
:10038000D1E2DEBFCDBF00E00CBF14E0A0E0B2E0E0
:10039000E8EAFAE800E00BBF02C007900D92A03C2B
:1003A000B107D9F71BBE11E1A0ECB4E001C01D926A
:1003B000A834B107E1F713E0C8E7D3E004C02297FF
:1003C000FE010E940C45CE36D107C9F70E94D60423
:1003D0000C9447450C940000CF93DF93BC0182300E
:1003E000910510F462E070E0A0914611B0914711C0
:1003F000ED01E0E0F0E040E050E021C0888199812B
:100400008617970769F48A819B81309719F0938347
:10041000828304C09093471180934611FE0134C03B
:100420006817790738F44115510519F084179507B5
:1004300008F4AC01FE018A819B819C01E9012097AF
:10044000E9F641155105A9F1CA01861B970B0497DE
:1004500008F4BA01E0E0F0E02AC08D919C91119778
:1004600084179507F9F46417750781F412968D9136
:100470009C911397309719F09383828304C09093D3
:10048000471180934611FD0132964CC0CA01861B6C
:10049000970BFD01E80FF91F6193719302978D93FC
:1004A0009C9340C0FD01828193819C01D9011097EA
:1004B000A1F68091441190914511892B41F48091CE
:1004C000CF039091D00390934511809344114091B4
:1004D000D1035091D2034115510541F44DB75EB798
:1004E0008091CD039091CE03481B590B209144116C
:1004F00030914511CA01821B930B8617970780F034
:10050000AB014E5F5F4F8417950750F0420F531FAA
:100510005093451140934411F9016193719302C0C6
:10052000E0E0F0E0CF01DF91CF910895CF93DF932A
:10053000009709F450C0EC0122971B821A82A09107
:100540004611B0914711109709F140E050E0AC1707
:10055000BD0708F1BB83AA83FE0121913191E20F0F
:10056000F31FAE17BF0779F48D919C911197280F57
:10057000391F2E5F3F4F3983288312968D919C91AE
:1005800013979B838A834115510571F4D0934711CA
:10059000C093461120C012968D919C911397AD0186
:1005A000009711F0DC01D3CFFA01D383C2832191EC
:1005B0003191E20FF31FCE17DF0769F4888199812B
:1005C000280F391F2E5F3F4FFA01318320838A8124
:1005D0009B8193838283DF91CF910895A0E0B0E067
:1005E000E4EFF2E00C9412456C01009729F4CB0182
:1005F0000E94EC016C01C1C08EEF882E8FEF982E07
:100600008C0C9D1C8601060F171F0815190508F490
:10061000B2C0F401A081B181A617B707B8F0A53028
:10062000B10508F4AAC0CD0104978617970708F40E
:10063000A4C01297A61BB70BF801A193B193D401E4
:100640006D937C93CF010E94960297C07B01EA1ABA
:10065000FB0AEEEFFFEFEE0EFF1E36016A0E7B1E69
:10066000C0914611D091471144245524AA24BB249B
:100670004AC0C615D705E1F5488159814E155F0579
:10068000B8F1CA0104978E159F05B0F41296A40F15
:10069000B51FF401B183A0832A813B814114510429
:1006A00031F0D20113963C932E93129766C030938B
:1006B00047112093461161C08A819B81F801938381
:1006C0008283425050404E195F0951834083411448
:1006D000510431F0D20113961C930E93129704C06B
:1006E0001093471100934611F4017183608345C054
:1006F00088819981A816B90608F45C012E018A81C7
:100700009B819C01E901209709F0B3CF80914411AE
:100710009091451186159705E9F4A616B706D0F411
:100720002091D1033091D2032115310541F42DB729
:100730003EB78091CD039091CE03281B390B021751
:100740001307C8F41093451100934411D4016D931D
:100750007C9313C0CB010E94EC01EC01009759F08F
:10076000F40140815181B6010E94C303C6010E9479
:1007700096026E0102C0CC24DD24C601CDB7DEB7DF
:10078000E0E10C942E45FB01DC0102C001900D92CA
:1007900041505040D8F70895FB01DC0101900D92C3
:1007A0000020E1F70895FB019F01423074F04532CB
:1007B00064F4642F77270E94D444805D8A330CF060
:1007C000895D8193CB010097A1F71082C9010C9438
:1007D000E903DC01FC01672F71917723E1F7329780
:1007E00004C07C916D9370836291AE17BF07C8F30C
:1007F00008958091D3039091D40301969093D403EC
:100800008093D30308958130910541F46F5F7F4F4A
:1008100071F480EC94E00E94661E0895892B39F4EF
:100820006F5F7F4F21F480EC94E00E945D1E08957D
:1008300080E090E06FEF7FEF0E940304089581E075
:1008400090E06FEF7FEF0E940304089583E59EE040
:1008500040E45BE46CE470E00E946A0E83E59EE095
:1008600069EF73E02FEF3FEF4FEF5FEF0E94720EE3
:1008700080EC94E00E947C168CEB90E160E072E0EA
:100880000E94083E6FEF71E2605072408CEB90E185
:100890004AE050E00E94E93D8CEB90E165E072E0B7
:1008A0000E94083E60EC74E0605072408CEB90E176
:1008B0004AE050E00E94E93D8CEB90E16CE072E090
:1008C0000E94083E68E471E1605C74408CEB90E14A
:1008D0004AE050E00E94E93D8CEB90E162E172E079
:1008E0000E94083E60914411709145116115710597
:1008F00019F460E070E002C0685471418CEB90E143
:100900004AE050E00E94E93D8CEB90E168E172E042
:100910000E94083E8DB79EB76FEF71E2681B790B9E
:100920008CEB90E14AE050E00E94E93D8CEB90E1D5
:100930006FE172E00E94083E809144119091451150
:10094000009729F46DB77EB76854714104C06DB744
:100950007EB7681B790B8CEB90E14AE050E00E9477
:10096000E93D089580EC94E00E94CA208091D30371
:100970009091D40369E170E00E94D444892BA9F4DA
:100980008091120D882359F08091130D882329F44A
:1009900080EC94E00E94B61002C01092130D81E02A
:1009A00090E09093D4038093D3030895CF93DF9383
:1009B0000E945B350E942604C3EBD8E30E94B20478
:1009C0002097E1F30E94B338F9CFF999FECF72BDB9
:1009D00061BDF89A80B50895F999FECF1FBA72BD2E
:1009E00061BD40BD0FB6F894FA9AF99A0FBE08950A
:1009F000882319F48CB5806202C08CB58F7D8CBDC4
:100A000008959CB5937F982B9CBD08952CB5382FE5
:100A100033702C7F322B3CBD2DB590E0959587959A
:100A20009595879581702E7F822B8DBD089585E3E6
:100A300061E00E94503785E361E00E949D368CB5ED
:100A400080618CBD8CB580648CBD84E361E00E94C4
:100A50009D3683E361E00E949D36089581E0809396
:100A6000B90D6093960D1092B70D1092B80D0895C0
:100A700081E08093B90D6093960D1092B70D10929E
:100A8000B80D08952091950D30E08091940D281BAC
:100A90003109C90108954091940D8091950D481731
:100AA00018F02FEF3FEF0AC0E42FF0E0EC58F24FC0
:100AB0008081282F30E04F5F4093940DC901089545
:100AC000E091940D8091950DE81718F0EFEFFFEF8E
:100AD00006C0F0E0EC58F24F8081E82FF0E0CF0143
:100AE000089508951092BD0D1092BC0D88EE93E00C
:100AF000A0E0B0E08093BE0D9093BF0DA093C00D19
:100B0000B093C10D89ED93E09093BB0D8093BA0D26
:100B10000895CF92DF92EF92FF920F931F93CF939E
:100B2000DF937C016B018A018091B90D8823A1F0CC
:100B3000C0E0D0E00DC0D701ED91FC91D601AC0F23
:100B4000BD1F0190F081E02DC7016C911995219690
:100B5000C017D10780F304C0CB01642F0E94BF06E9
:100B6000C801DF91CF911F910F91FF90EF90DF901F
:100B7000CF900895DF93CF930F92CDB7DEB7FC01EE
:100B800069838091B90D8823C9F08091B80D8032B6
:100B900038F081E090E09383828320E030E015C05C
:100BA0008091B70DE82FF0E0E956F24F99819083DC
:100BB0008F5F8093B70D8093B80D05C0CE0101966D
:100BC00061E00E94BF0621E030E0C9010F90CF91A3
:100BD000DF9108950F93062F8091960D67E97DE0D0
:100BE0004091B80D21E00E946A061092B70D109254
:100BF000B80D1092B90D0F91089561E00E94EA05B9
:100C00000895413208F040E2862F64E77DE00E94BB
:100C100021061092940D8093950D089521E00E9475
:100C20000106089521E00E94010608951092940D96
:100C30001092950D1092B70D1092B80D0E946F088A
:100C40000895382F413210F040E042C08091C60D27
:100C50008823E1F791E09093C60D2093C80D8FEFA4
:100C60008093330E1092EE0D41504093EF0D4F5F85
:100C70009093C70D8091C70D330F832B8093C70DC1
:100C80008091C90D813041F41092C90D8091C70D3A
:100C90008093BB0085EC01C085EE8093BC00809101
:100CA000C60D8130E1F38091EE0D841710F4409170
:100CB000EE0D20E030E00AC0FB01E20FF31FD90186
:100CC000A253B24F8C9180832F5F3F4F2417A0F324
:100CD000842F08950F931F93582F122F413210F035
:100CE00081E04AC08091C60D8823E1F782E08093BD
:100CF000C60D0093C80D8FEF8093330E1092EE0D4A
:100D00004093EF0DAEECBDE0FB0102C081918D93ED
:100D10008E2F861B8417D0F31092C70D8091C70DBC
:100D2000550F852B8093C70D8091C90D813041F4FB
:100D30001092C90D8091C70D8093BB0085EC01C056
:100D400085EE8093BC00112321F08091C60D823086
:100D5000E1F38091330E8F3F11F480E00DC080915C
:100D6000330E803211F482E007C08091330E80335D
:100D700011F084E001C083E01F910F910895482F86
:100D8000613210F081E008958091C60D843011F039
:100D900082E008956093110EA0EFBDE0842F9C01C6
:100DA000F90102C081918D938E2F841B8617D0F399
:100DB00080E008951F920F920FB60F920BB60F921C
:100DC00011242F933F934F935F936F937F938F9350
:100DD0009F93AF93BF93EF93FF938091B90090E0FF
:100DE000887F90708036910509F4F2C081369105B4
:100DF000CCF58832910509F47BC089329105B4F4B1
:100E00008031910509F46FC0813191053CF4009760
:100E100009F447C1089709F04FC165C088319105B1
:100E200009F466C0809709F047C182C080349105FB
:100E300009F4A4C08134910544F48033910509F488
:100E400082C0C89709F038C189C08035910509F47E
:100E500089C08835910509F496C08834910509F058
:100E60002BC1AEC08839910509F413C189399105A8
:100E7000ECF48837910509F4ABC0893791054CF43F
:100E80008836910509F4A4C08037910509F014C192
:100E90009FC08838910509F4FCC08039910509F498
:100EA0009DC08038910509F007C198C0803B91052D
:100EB00009F4C6C0813B91054CF4803A910509F4D0
:100EC0009FC0883A910509F0F7C0BAC0803C9105EF
:100ED00009F4E3C0883C910509F4DFC0883B910523
:100EE00009F0EAC0C2C08091C70D8093BB00CFC09B
:100EF0009091EE0D8091EF0D981768F49091EE0DA2
:100F0000E92FF0E0E253F24F80818093BB009F5FB6
:100F10009093EE0DBCC08091C80D882309F44BC09E
:100F200085ED8093BC008091BC0084FDFCCFC2C0E5
:100F300080E28093330E85ED8093BC008091BC00ED
:100F400084FDFCCFB7C080E38093330E85ED8093A2
:100F5000BC008091BC0084FDFCCFACC088E38093D2
:100F6000330E9BC08091EE0D9091BB00E82FF0E016
:100F7000E253F24F90838F5F8093EE0D9091EE0DD0
:100F80008091EF0D82C08091EE0D9091BB00E82F13
:100F9000F0E0E253F24F90838F5F8093EE0D8091EB
:100FA000C80D882341F085ED8093BC008091BC0082
:100FB00084FDFCCF7FC081E08093C90D84EA6EC0C0
:100FC00085ED8093BC008091BC0084FDFCCF72C095
:100FD00083E08093C60D1092320E59C08091320E7C
:100FE000803208F056C08091320E9091BB00E82FFD
:100FF000F0E0EE5EF14F90838F5F8093320E47C03A
:101000008091320E803230F4E091320EF0E0EE5EEC
:10101000F14F108285ED8093BC008091BC0084FD6F
:10102000FCCF1092C60D6091320EE091CC0DF09184
:10103000CD0D82E19EE070E019951092320E2DC028
:1010400084E08093C60D1092100E1092110EE09164
:10105000CA0DF091CB0D19958091110E882329F4BA
:1010600081E08093110E1092F00D9091100EE92FF7
:10107000F0E0E051F24F80818093BB009F5F90933E
:10108000100E9091100E8091110E981710F485ECAF
:1010900001C085E88093BC000FC085EC8093BC0044
:1010A00009C01092330E85ED8093BC008091BC0086
:1010B00084FDFCCF1092C60DFF91EF91BF91AF91CF
:1010C0009F918F917F916F915F914F913F912F9160
:1010D0000F900BBE0F900FBE0F901F90189510929F
:1010E000C60D81E08093C80D1092C90D84E161E0C6
:1010F0000E94503785E161E00E945037E9EBF0E053
:1011000080818E7F808380818D7F808388E480933F
:10111000B80085E48093BC000895EAE7F0E0908190
:10112000987F90839081982B9083089520917A00E6
:1011300030E027703070C9010895EF92FF920F934D
:101140001F937B018C0180E18093810010928000CD
:1011500060E074E284E799E4A80197010E941141DC
:1011600020E030E040E051E40E94E7420E947E41EE
:101170009B01AC01203080E0380781E0480780E027
:10118000580728F481E08093520EB90155C02030F1
:1011900080E0380788E0480780E0580768F482E07C
:1011A0008093520EDA01C901E3E0B695A7959795B1
:1011B0008795EA95D1F714C0203080E0380780E4A5
:1011C000480780E0580770F483E08093520EDA01FC
:1011D000C90176E0B695A795979587957A95D1F749
:1011E000BC012AC0203080E0380780E0480781E059
:1011F000580740F484E08093520EBB27A52F942F0C
:10120000832FEECF203080E0380780E0480784E06D
:10121000580768F485E08093520EDA01C9012AE08C
:10122000B695A795979587952A95D1F7D9CF85E05B
:101230008093520E6FEF7FEF70938700609386006C
:1012400091E090936F0080917B00887F80937B007A
:1012500080917B00866080937B0090933C0E809110
:101260007A00806280937A00E092460EF092470EF8
:101270000093480E1093490E1F910F91FF90EF902D
:101280000895882321F080917C00806203C08091C2
:101290007C008F7D80937C00089580933C0E882392
:1012A00021F080917A00806203C080917A008F7D66
:1012B00080937A00089591E09093400E10923E0E34
:1012C00010923D0E1092410E23E13AE03093430E0E
:1012D0002093420E80933F0E90917C00907F9093DC
:1012E0007C0020917C00982F9770922B90937C002B
:1012F000883020F080917B00886003C080917B0063
:10130000877F80937B00089580933F0E90917C00AF
:10131000907F90937C0020917C00982F9770922B67
:1013200090937C00883020F080917B00886003C01F
:1013300080917B00877F80937B0008958091410E90
:101340008F5F8093410E9091400E891711F4109297
:10135000410E8091410EE0913D0EF0913E0EE80F5E
:10136000F11D208120933F0E80917C00807F80932F
:101370007C0090917C00822F8770892B80937C0069
:10138000283020F080917B00886003C080917B0032
:10139000877F80937B005091780040917900209165
:1013A000380E3091390E80913A0E90913B0E2817ED
:1013B0003907C0F580913C0E882329F480917A008A
:1013C000806480937A00942F80E0452F50E0482B72
:1013D000592B80917C0085FF11C08091380E90912F
:1013E000390EE091340EF091350EE80FF91F50835D
:1013F00001969093390E8093380E08958091380E9F
:101400009091390E9C01220F331FE091360EF0911E
:10141000370EE20FF31F5183408301969093390EEC
:101420008093380E08955091780040917900209172
:10143000380E3091390E80913A0E90913B0E28175C
:101440003907C0F580913C0E882329F480917A00F9
:10145000806480937A00942F80E0452F50E0482BE1
:10146000592B80917C0085FF11C08091380E90919E
:10147000390EE091340EF091350EE80FF91F5083CC
:1014800001969093390E8093380E08958091380E0E
:101490009091390E9C01220F331FE091360EF0918E
:1014A000370EE20FF31F5183408301969093390E5C
:1014B0008093380E08955091410E9091400E9230D5
:1014C00050F1852F8F5F8093410E891711F4109290
:1014D000410E8091410EE0913D0EF0913E0EE80FDD
:1014E000F11D208120933F0E80917C00807F8093AE
:1014F0007C0090917C00822F8770892B80937C00E8
:10150000283020F080917B00886003C080917B00B0
:10151000877F80937B0060917800409179002091D3
:10152000380E3091390E80913A0E90913B0E28176B
:10153000390718F580913C0E882329F480917A00B0
:10154000806480937A00942F80E070E0682B792B80
:1015500080917C0085FF02C0672F7727E091440EC1
:10156000F091450E852F19958091380E9091390E86
:1015700001969093390E8093380E08951F920F9222
:101580000FB60F920BB60F9211242F933F934F93E8
:101590005F936F937F938F939F93AF93BF93EF93DB
:1015A000FF93E091420EF091430E1995FF91EF9158
:1015B000BF91AF919F918F917F916F915F914F916B
:1015C0003F912F910F900BBE0F900FBE0F901F9069
:1015D00018951F920F920FB60F9211240F900FBE05
:1015E0000F901F901895ECE7F0E080818F73808357
:1015F00080818064808308950F931F9300917C0005
:1016000010917B0080917C00807E80937C00809193
:101610007C008E6180937C0080917B00877F80932B
:101620007B0063E070E080E090E00E94F8348091FD
:101630007A00806480937A0080917A0086FDFCCFE6
:10164000209178004091790000937C0010937B00FA
:10165000742F60E030E0622B732B882777FD809534
:10166000982F0E94AC419B01AC0160E070E889E8D2
:1016700094E40E9411411F910F910895AF92BF927F
:10168000CF92DF92EF92FF920F931F930E94D2347A
:101690005B016C0180917A00877D80937A00809154
:1016A0007B008770863029F480918100887F809349
:1016B000810060913A0E70913B0E80E090E00E94B4
:1016C000AA4120E034E244E759E40E94E7427B016A
:1016D0008C0180914E0E90914F0EA091500EB091C2
:1016E000510EA81AB90ACA0ADB0AC601B5010E943E
:1016F000AA419B01AC01C801B7010E94114160934E
:101700004A0E70934B0E80934C0E90934D0E1F918A
:101710000F91FF90EF90DF90CF90BF90AF90089522
:101720001092390E1092380E80913C0E882321F0D1
:1017300080917A00806203C080917A008F7D8093CF
:101740007A000E94D23460934E0E70934F0E8093B5
:10175000500E9093510E80917A00886C80937A009D
:1017600080917B008770863081F480918100887F32
:1017700080938100109285001092840080918100F6
:101780009091520E892B809381000895FC0113865D
:101790001586148687E090E012863197009711F045
:1017A0000197FACF0895DF92EF92FF920F931F9364
:1017B000FC01E08001811281F894F80181818E2979
:1017C00081838281DE2CD0948D21828383E090E01E
:1017D0000E945135F80181818D2181838AE090E05A
:1017E0000E945135F8010081789485E390E00E94D1
:1017F000513580E010E0FF240E211F21012B09F05C
:1018000081E01F910F91FF90EF90DF900895EF928C
:10181000FF920F931F93CF93DF937C0101E010E0C1
:10182000C0E0D0E0C7010E94D30B8111102B000F44
:101830002196C830D105B1F7812FDF91CF911F914B
:101840000F91FF90EF9008951F93CF93DF93FC01CA
:101850001081C181D281912F909560FF12C0F894C0
:101860008A8189238A838981812B89838AE090E018
:101870000E9451358A81812B8A83789487E390E096
:1018800011C0F8948A8189238A838981812B898375
:1018900081E490E00E9451358A81812B8A8378947B
:1018A00085E090E00E945135DF91CF911F9108951E
:1018B000CF92DF92EF92FF920F931F93CF93DF931C
:1018C0008C01E42EFF24F394C0E0D0E0C62EDD248A
:1018D00060E08F2D90E08C219D21892B09F061E043
:1018E000C8010E94240CFF0C2196C830D10581F755
:1018F000EE20A9F4F894D8011196ED91FC9112977D
:1019000091818C918095982391831196ED91FC9112
:10191000129792818C918095982392837894DF918D
:10192000CF911F910F91FF90EF90DF90CF9008958E
:10193000EF92FF920F931F93CF93DF938C017B0164
:1019400065E540E00E94580CC0E0D0E0F701EC0FE4
:10195000FD1FC801608140E00E94580C2196C830EC
:10196000D105A1F7DF91CF911F910F91FF90EF90DB
:101970000895DF92EF92FF920F931F93CF93DF931F
:10198000FC010081C181D281F8948981D02ED0944C
:101990008D21898378941DE7E02EFF24115059F1A1
:1019A00082E090E00E945135888190E08E219F2155
:1019B000892BA1F3F8948A818D218A838981802BD8
:1019C0008983789480EE91E00E945135F894898162
:1019D0008D21898386E490E00E945135888110E052
:1019E00090E0E822F922EF2809F411E078948AE9DE
:1019F00091E00E945135812FDF91CF911F910F917E
:101A0000FF90EF90DF900895AF92BF92DF92EF9238
:101A1000FF920F931F93CF93DF93EC015B018D85B2
:101A2000882309F061C0CE010E94B90C882329F4F3
:101A30001B861D861C8690E06BC0CE0160EF40E0E7
:101A40000E94580C01E0DD24EE24FF24F394CE0123
:101A50000E94D30B182FCE010E94D30B113019F422
:101A60008130E1F439C0181709F58B85081770F437
:101A700060E0FE01EE0DF11D838190E02F2D30E03E
:101A800082239323181619064CF003C060E0081750
:101A900029F0093008F04CC00C874AC0FE01EE0D59
:101AA000F11D83818F29838361E009C0612FFE01CD
:101AB000EE0DF11D9F2D9095838189238383CE01A7
:101AC0000E94240C0F5FFF0C19F4E394FF24F3949D
:101AD00087E08E1508F0BBCF013430F0DB86DD20C7
:101AE00011F581E08D871FC01B861D861C8690E046
:101AF000DE0120E030E0F501E20FF31F13968C9138
:101B0000139780832F5F3F4F11962830310599F747
:101B1000892FDF91CF911F910F91FF90EF90DF9070
:101B2000BF90AF9008958B818823F1F291E0E0CFD0
:101B3000D02EBDCFFF920F931F938C01F62E862FD0
:101B400060E00E949D368F2D90E0FC01EE51FD4F2C
:101B5000E491D801EC9384569D4FFC016491E62FEB
:101B6000F0E0EE0FFF1FEE57FD4F85919491129616
:101B70009C938E9311971B961C921B971D961C92FB
:101B80001D971C961C92F80187E090E01286319711
:101B9000009711F00197FACF1F910F91FF900895D0
:101BA0001F920F920FB60F920BB60F9211242F9324
:101BB0003F934F935F936F937F938F939F93AF93D5
:101BC000BF93EF93FF93E091560EF091570E199546
:101BD000FF91EF91BF91AF919F918F917F916F9105
:101BE0005F914F913F912F910F900BBE0F900FBEC1
:101BF0000F901F901895FC01A3E0440F551F661F1E
:101C0000771FAA95D1F7403080E0580781E0680738
:101C100080E0780714F481E010C033E07595679593
:101C2000579547953A95D1F7403080E0580781E0C5
:101C3000680780E078071CF482E0828339C023E0E3
:101C400075956795579547952A95D1F7403080E06F
:101C5000580781E0680780E0780714F483E0EDCF4F
:101C600092E075956795579547959A95D1F74030CD
:101C700080E0580781E0680780E0780714F484E08A
:101C8000DCCF82E075956795579547958A95D1F792
:101C9000403080E0580781E0680780E0780714F45E
:101CA00085E0CBCF85E082834FEF5FEF60E070E0AF
:101CB0005183408350939700409396008091910008
:101CC000887F80939100809191009281892B8093ED
:101CD000910008951092900020E1209391000E94BD
:101CE000FB0D08950F931F93CF93DF93EC018B01AE
:101CF000121613061406150624F4BA01A9010E944F
:101D0000FB0D1C830B8381E080937100789480919C
:101D100091009A81892B80939100DF91CF911F913F
:101D20000F91089585EE93E008958AEF93E008956A
:101D30008EEF93E0089585E194E008958FE294E0BA
:101D400008958BE394E008958CE292E00895CF9299
:101D5000DF92EF92FF920F931F93CF93DF938C014B
:101D600085E6E82E88E0F82EE00EF11E6801C0E05E
:101D7000D0E0F701EC0FFD1FC601CC59DF4FBE01CB
:101D800040810E94BC1FC356D040CE34D10589F794
:101D9000C80160E00E94D50EDF91CF911F910F9195
:101DA000FF90EF90DF90CF900895BF92CF92DF9297
:101DB000EF92FF920F931F93CF93DF93EC01B62E18
:101DC00095E6E92E98E0F92EEC0EFD1E6E0100E07E
:101DD00010E0E881F981B8016C597F4F0088F189E2
:101DE000E02DC6011995F701E00FF11F80830F5F09
:101DF0001F4F0E34110569F7CB59D74F8881998150
:101E0000C556D840892B39F5C959D74F8881998152
:101E1000C756D840892BF9F49E012759374FF9014D
:101E200080819181892BB9F4FE01E256F74FC05AA7
:101E3000D74F88819981AA81BB81C056D8408083C1
:101E40009183A283B38381E090E0F9019183808341
:101E5000CE010E94A70ECB59D74F88819981C556D4
:101E6000D840892BE1F4C959D74F88819981C75649
:101E7000D840892BA1F4FE01E759F74F8081918169
:101E8000019769F4C559D74F80E28883CB56D84073
:101E900082E090E091838083CE010E94A70ECB590F
:101EA000D74F88819981C556D840892B11F5C959DA
:101EB000D74F88819981C756D840892BD1F4FE012C
:101EC000E759F74F80819181029799F4CE55D74F0A
:101ED00080E090E0A0EAB0E488839983AA83BB8382
:101EE000C25AD84083E090E091838083CE010E9463
:101EF000A70ECB59D74F88819981C556D840892BD9
:101F0000D9F4C959D74F88819981C756D840892BB0
:101F100099F4FE01E759F74F80819181039761F4AD
:101F2000CA55D74F1882C65AD84084E090E09183B2
:101F30008083CE010E94A70ECB59D74F888199810B
:101F4000C556D840892B91F5C959D74F88819981B9
:101F5000C756D840892B51F5FE01E759F74F8081CC
:101F60009181049719F5C955D74F80E090E0A8EC0E
:101F7000B2E489939993A993B99380E090E4ACE992
:101F8000B6E489939993A993B99380E090E0A8E48B
:101F9000B3E488839983AA83BB83CF5AD84085E072
:101FA00090E091838083CE010E94A70ECB59D74F3A
:101FB00088819981C556D840892B99F4C959D74F42
:101FC00088819981C756D840892B59F4C759D74F72
:101FD00088819981C956D840059719F4BB2009F426
:101FE0009CC0CB59D74F199219921992199285E03A
:101FF00090E09983888324968CE7888380E78A938E
:10200000229680E09CE7A2E9B8E489939993A9938A
:10201000B99380E092E2A1EAB8E488839983AA8325
:10202000BB832C9680E090E0AAE7B4E4899399936F
:10203000A993B99380E090E4ACE1B6E489939993D5
:10204000A993B99380E090E5A3ECB7E489939993C1
:10205000A993B99380E094E2A4E7B9E488839983D3
:10206000AA83BB83649780E090E0A0E0B0E089930E
:102070009993A993B99388839983AA83BB83649620
:102080008FEF96EEABE5BEE289939993A993B9934E
:1020900089939993A993B99389939993A993B993A0
:1020A00088839983AA83BB83CA59D840FE01E2562C
:1020B000F74FC05AD74F88819981AA81BB8180830D
:1020C0009183A283B3832B9680E28883E79680E096
:1020D00090E0A0EAB0E489939993A993B9931992F7
:1020E00080E090E0A8ECB2E489939993A993B99326
:1020F00080E090E4ACE9B6E489939993A993B9930D
:1021000080E090E0A8E4B3E488839983AA83BB834A
:10211000CF5AD840CE010E94A70EC256D74FE880B2
:10212000F9800A811B81CE59D840C801B70120E04F
:1021300030E040E050E00E940D41FE01EC59F74FC5
:1021400018161CF081E0808307C0C05AD74FE88280
:10215000F9820A831B831082DF91CF911F910F9127
:10216000FF90EF90DF90CF90BF9008950F931F9353
:102170008C0188E061E00E9450370C5A174FF8013B
:1021800010821F910F910895FF920F931F93F62EC7
:10219000142F022F862F60E00E9450371EBD0DB411
:1021A00007FEFDCF8EB50EBD0DB407FEFDCF8EB57B
:1021B0008F2D61E00E9450371F910F91FF9008957D
:1021C000362F242F643010F085E00895209565E3C4
:1021D000432F0E94C41080E00895AF92BF92CF9227
:1021E000DF92EF92FF920F931F93CF93DF93EC0157
:1021F0005A016B01C05AD74FE880F9800A811B81D0
:10220000C056D840CB01BA0120E030E040E050E0B9
:102210000E940D4187FD48C0FE01E155F74FC60100
:10222000B50120813181428153810E949E4218165E
:10223000DCF1C601B501A80197010E9411419B0183
:10224000AC010E94964023EF34E045EB5FE30E942F
:10225000E74220E030E040E85EE30E94E74220E011
:1022600030E04FE753E40E94E7427B018C0120E01D
:1022700030E04FE753E40E949E421816ACF0C85A73
:10228000D74FA882B982CA82DB82C855D840C8011C
:10229000B7010E947E419B01AC01CE0163E0422F59
:1022A0000E94E01080E001C088E0DF91CF911F9193
:1022B0000F91FF90EF90DF90CF90BF90AF90089577
:1022C000FC01E05AF74F4083518362837383389750
:1022D0004081518162817381E855F840CF0120E04F
:1022E0000E94ED1008959F92AF92BF92CF92DF921D
:1022F000EF92FF920F931F93CF93DF93EC015A015C
:102300006B01FC01E955F74F6081718182819381F6
:1023100024EA30E74DE75FE30E94E7429B01AC010E
:10232000C601B5010E949E4288230CF4B7C0FE018D
:10233000E555F74F60817181828193812EEA37E400
:1023400041E85FE30E94E7429B01AC01C601B50191
:102350000E940D4118160CF4A1C0C601B50120E081
:1023600030E048E452E40E94E7427B018C0120E027
:1023700030E04AE754E40E940D4187FD8FC0C80158
:10238000B70120E233EB41E85CE40E949E4218165C
:102390000CF484C0C801B70120E030EE41E854E4F9
:1023A0000E9411410E94A74226EA3BE944E550E41D
:1023B0000E94E7422EE83DE543E150E40E941141CE
:1023C0000E947E41962E70E0665F7F4F882777FDE2
:1023D0008095982F0E94AC419B01AC0160E070E0B9
:1023E00080E090E40E944A439B01AC01CA01B9011C
:1023F00020E030EE41E055EC0E94E742A801970151
:102400000E94114120E030E040E055E40E949640F7
:102410007B018C0120E030E040E050E00E949E42D1
:1024200088234CF0C801B70120E030E040E05FE3D2
:102430000E94964008C0C801B70120E030E040E0AB
:102440005FE30E9495400E9479418B018AEB9DE0F9
:1024500067E10E942E05C80136E0969587953A956A
:10246000E1F7929420EF9222982A8AEB9DE0692D61
:102470000E94BA05602F660F660F62608AEB9DE0CE
:102480000E94BA058AEB9DE00E94FD05C45AD74F11
:10249000A882B982CA82DB8280E001C088E0DF9135
:1024A000CF911F910F91FF90EF90DF90CF90BF9051
:1024B000AF909F9008957F928F929F92AF92BF921C
:1024C000CF92DF92EF92FF920F931F93DF93CF9300
:1024D0000F920F92CDB7DEB75C019B01742ECB013A
:1024E00068E270E00E94D444862EC90168E270E080
:1024F0000E94D4446C0153E0969587955A95E1F774
:10250000982E082D10E04BE6E42E48E0F42EEA0C5D
:10251000FB1CF7018081B801680F711D8AEB9DE0FB
:102520000E943805692D70E0685F7F4F8AEB9DE05F
:102530000E94BA058AEB9DE00E94FD05F7018081AB
:10254000080F111D8AEB9DE0B80141E050E00E94A8
:102550000E068AEB9DE00E944205892B11F481E072
:102560003BC00C2D0770F8E09F0E99828AEB9DE02E
:102570000E944B05282F772071F481E090E0A0E0C5
:10258000B0E004C0880F991FAA1FBB1F0A95D2F79D
:10259000282B2A830EC081E090E0A0E0B0E004C0C8
:1025A000880F991FAA1FBB1F0A95D2F78095822317
:1025B0008A838BE698E0A80EB91EF501608185E953
:1025C00097EFA80EB91E680DC501AE014F5F5F4FB2
:1025D00022E00E94E51F80E00F900F90CF91DF91E5
:1025E0001F910F91FF90EF90DF90CF90BF90AF9031
:1025F0009F908F907F9008954F925F926F927F92FD
:102600008F929F92AF92BF92CF92DF92EF92FF9202
:102610000F931F93DF93CF930F920F92CDB7DEB737
:102620008C012C01EE24F5E58F2EF8E09F2E880E0C
:10263000991EE5E4CE2EE8E0DE2EC80ED91E7BE61C
:10264000A72E78E0B72EA80EB91E3E010894611C93
:10265000711C33C068E0F62E30E040E050E0F60137
:1026600080819181F801E80FF91FE259FF4F208125
:102670000196F6019183808380E090E0222311F49B
:1026800081E090E0042E02C0880F991F0A94E2F7BF
:10269000380F4F5F5F4F4830510509F73A83F50116
:1026A00060816E0DF982C201A30122E00E94E51F44
:1026B000F394FDE0FF1681F6E3942E2D30E0F40153
:1026C0008081918168E270E00E94D4442617370728
:1026D00008F20F900F90CF91DF911F910F91FF9013
:1026E000EF90DF90CF90BF90AF909F908F907F90B2
:1026F0006F905F904F90089588E060E00E9450379F
:1027000064EF71E080E090E00E94F83408952F9229
:102710003F924F925F926F927F928F929F92AF9271
:10272000BF92CF92DF92EF92FF920F931F93DF93AE
:10273000CF93CDB7DEB7E2970FB6F894DEBF0FBEEA
:10274000CDBF7C0184E598E0E80EF91E81E0D70159
:102750008C93ECEAF7EFEE0EFF1EC7010E947C138C
:10276000D701ED91FC910680F781E02DC701199505
:10277000BC018CEB90E10E94083E8CEB90E160E3A1
:1027800072E00E94083ED701ED91FC910484F5852A
:10279000E02DC7011995BC018CEB90E10E94053F2B
:1027A0008CEB90E163E372E00E94083ED701ED916B
:1027B000FC910284F385E02DC7011995BC018CEBD7
:1027C00090E10E94053FE9AAFAAAC7010E940920E8
:1027D0008CEB90E166E472E00E94083EE5E6F8E0EA
:1027E000EE0EFF1ED7016D917D917D018CEB90E186
:1027F0004AE050E00E94383D8CEB90E16DE572E0DC
:102800000E94083EF701619171917F018CEB90E18C
:102810004AE050E00E94383D8CEB90E16DE572E0BB
:102820000E94083ED7016D917C91E7E9F7EFEE0E2B
:10283000FF1E8CEB90E14AE050E00E94493D8CEB9A
:1028400090E16FE572E00E94083EF701E459F74F0E
:102850008CEB90E160814AE050E00E94783D8CEB87
:1028600090E16FE672E00E94083EF701E359F74FEE
:102870008CEB90E160814AE050E00E94783D10E0EE
:1028800073E0272E312C2C0E3D1E61E1462E512C7B
:102890004C0E5D1E5FE1652E712C6C0E7D1E48E1B5
:1028A000842E912C8C0E9D1E36E2A32EB12CAC0EE4
:1028B000BD1ECFC0CE010A9665E772E00E9424409B
:1028C000C101612F4AE00E945740CE010A96B10132
:1028D0000E94ED3F67E772E00E94D13F98AB8FA75F
:1028E000C2016D2D4AE00E9457408FA598A9B20100
:1028F0000E94ED3F6BE872E00E94D13FBC018CEB7F
:1029000090E10E94183FC2010E948940C1010E94CB
:102910008940CE010A960E948F40112339F0113070
:1029200081F040E050E060E070E019C0ED2DF0E093
:10293000EE0FFF1FEE0FFF1FEE0DFF1DE259F74FC9
:102940000AC0ED2DF0E0EE0FFF1FEE0FFF1FEE0DA2
:10295000FF1DE258F74F40815181628173818CEBFA
:1029600090E122E030E00E94F23EC30165E772E0B0
:102970000E942440C401612F4AE00E945740C301D5
:10298000B4010E94ED3F6EE872E00E94D13F9EA725
:102990008DA7C5016D2D4AE00E9457408DA59EA5CB
:1029A000B5010E94ED3F6BE872E00E94D13FBC018F
:1029B0008CEB90E10E94183FC5010E948940C40140
:1029C0000E948940C3010E948F40112339F01130C9
:1029D00081F060E070E080E090E019C0ED2DF0E063
:1029E000EE0FFF1FEE0FFF1FEE0DFF1DEA58F74F12
:1029F0000AC0ED2DF0E0EE0FFF1FEE0FFF1FEE0DF2
:102A0000FF1DE257F74F608171818281938125EA32
:102A100034ED48E653E50E94E742AB01BC018CEB84
:102A200090E122E030E00E94EF3E8CEB90E163EA1F
:102A300072E00E94053FD394112321F0113031F44C
:102A400084E001C082E0D81608F434CF1F5F123052
:102A500011F0DD24F1CF8CEB90E167EA72E00E9487
:102A6000083E1BE6C12E18E0D12ECE0CDF1C8CEBED
:102A700090E1D6016C914AE050E00E94783D8CEBE9
:102A800090E164EC72E00E94083EEEE9F8E0EE0EA0
:102A9000FF1ED7014D915D916D917D917D018CEB74
:102AA00090E122E030E00E94F23E8CEB90E164ED98
:102AB00072E00E94083EF70141915191619171913C
:102AC0007F018CEB90E122E030E00E94F23E8CEB43
:102AD00090E167EE72E00E94083ED7016C918CEBAA
:102AE00090E170E04AE050E00E94E93D8CEB90E11B
:102AF00060E073E00E94083EEEEBFFEFEE0EFF1E7B
:102B0000D7016C918CEB90E170E04AE050E00E94BC
:102B1000E93D8CEB90E16CE173E00E94083EE3E458
:102B2000F0E0EE0EFF1ED7014D915D916D917D910C
:102B30007D018CEB90E122E030E00E94F23E8CEBD4
:102B400090E164E373E00E94083EF70141915191E6
:102B5000619171917F018CEB90E122E030E00E9465
:102B6000F23E8CEB90E16CE473E00E94083ED701EA
:102B70004D915D916D917C91E1E5F7EFEE0EFF1EB9
:102B80008CEB90E122E030E00E94F23EF701EB5A3C
:102B9000F74F11821082AA24BB24B8E28B2E912C0D
:102BA000A8E12A2E33243A943E010894611C711C3A
:102BB0002F011A2D29823A82D6016C916A0D89A9BA
:102BC0009AA9A30122E00E94E51FF60160816A0D27
:102BD00089A99AA9A30121E00E94C61F89818F3F7C
:102BE00009F047C000E0085E098308511A82D60147
:102BF0006C91610F89A99AA9A30122E00E94E51FA7
:102C0000F6016081610F89A99AA9A30121E00E94C0
:102C1000C61F8981882369F5085F09833A82D60136
:102C20006C91610F89A99AA9A30122E00E94E51F76
:102C300007500530C1F68CEB90E162E673E00E942C
:102C4000083E8CEB90E1B5014AE050E00E94D63D91
:102C50008CEB90E16CE673E00E94053F94012852F2
:102C60003040F201808191818217930711F49182A3
:102C700080820894A11CB11C88E290E0880E991E05
:102C800098E0A916B10409F094CFA5E5B8E0EA0EE2
:102C9000FB1EF701608171818BEA97EFE80EF91E48
:102CA0008CEB90E14AE050E00E94383D8CEB90E1E3
:102CB00068E773E00E94053FC70140E050E46CE123
:102CC00076E40E947311E2960FB6F894DEBF0FBE51
:102CD000CDBFCF91DF911F910F91FF90EF90DF90CB
:102CE000CF90BF90AF909F908F907F906F905F90AC
:102CF0004F903F902F900895CF93DF93EC010E9467
:102D0000412085E361E00E949D3689E061E00E94F8
:102D10009D3688E061E00E94503788E061E00E94C3
:102D20009D3689E060E00E945037FE01E359F74F7D
:102D3000CE0161E040810E94E010FE01E459F74FAE
:102D4000CE0162E040810E94E010CE0163E040E0ED
:102D50000E94E010CA55D74F8881C65AD8408823B0
:102D600021F0CE0160E042E003C0CE0160E041E02E
:102D70000E943D34C05AD74F80E090E0A6E9B3E40A
:102D800088839983AA83BB83C056D840CE0160E074
:102D90000E94D50EDF91CF9108952F923F924F92CE
:102DA0005F926F927F928F929F92AF92BF92CF92DB
:102DB000DF92EF92FF920F931F93DF93CF93CDB7E4
:102DC000DEB765970FB6F894DEBF0FBECDBF3C01EE
:102DD0006B8B23E538E0620E731E81E0D3018D9387
:102DE0003D018C91ECEAF7EF6E0E7F1E882319F4FB
:102DF000C3010E948713FB898F2F90E0FC01E05AEA
:102E0000F040E635F10508F030C7EE58FF4FEE0F01
:102E1000FF1F0590F491E02D199420E438E0620E34
:102E2000731ED3018D919C91E0ECF7EF6E0E7F1E27
:102E3000830104591F4F892B09F0DDC6B3016B5A7A
:102E4000774FC30142E050E02DC120E438E0620E2C
:102E5000731ED3018D919C91E0ECF7EF6E0E7F1EF7
:102E6000830104591F4F892B09F0C5C6D8011C9254
:102E70006C8A7D8ACC24E5E58E2EE8E09E2E860CB9
:102E8000971C7BE6272E78E0372E260C371C58013E
:102E900054C068E0D62E2901F1018081B201680F8B
:102EA000711D8AEB9DE00E9438058AEB9DE06D2D37
:102EB0000E94BA058AEB9DE00E94FD05D1018C912C
:102EC000B201680F711D8AEB9DE041E050E00E9465
:102ED0000E068AEB9DE00E944205892B21F18AEBC8
:102EE0009DE00E944B0500E010E0E82EFF24C701A2
:102EF000002E02C0959587950A94E2F7E1E0F0E094
:102F00008E279F27817089838C899D89BE016F5F81
:102F10007F4F41E050E00E94801E0F5F1F4F08303E
:102F2000110529F704C0E1E0D501EC9305C0D39465
:102F3000FDE0DF1609F0B0CFC3942C2D30E0D401B2
:102F40008D919C9168E270E00E94D4442617370767
:102F500008F49FCF8AC6F301E05CF74F25E538E01F
:102F6000620E731E20813181D3018D919C91EBEA19
:102F7000F7EF6E0E7F1E830104591F4F2817390784
:102F800009F039C6C3010E94FC12D8011C926DC61B
:102F900020E438E0620E731ED3018D919C91E0EC29
:102FA000F7EF6E0E7F1E029709F054C6D301AB5B9C
:102FB000B74F8D919C91119782599F4FF301E80F64
:102FC000F91F0190F081E02D8C5690408D939C93D9
:102FD00025E538E0620E731ED3018D919C912BEA9A
:102FE00037EF620E731EE817F90730F04CE650E039
:102FF000640E751E85E033C6CF0168E270E00E9462
:10300000D4446C01CF0168E270E00E94D444062FE2
:1030100010E05BE6E52E58E0F52EE60CF71CD70134
:103020008C91B801680F711D8AEB9DE00E943805F4
:10303000B60143E0769567954A95E1F770E0685FE1
:103040007F4F8AEB9DE00E94BA058AEB9DE00E94CB
:10305000FD05F7018081080F111D8AEB9DE0B80185
:1030600041E050E00E940E068AEB9DE00E9442057E
:10307000830104591F4F892BC1F08AEB9DE00E9408
:103080004B0590E02C2D277002C0959587952A95C9
:10309000E2F7809581708983C301BE016F5F7F4F26
:1030A00041E050E00E94801E70CF81E0F8018083F3
:1030B000DCC520E438E0620E731ED3018D919C9133
:1030C000E0ECF7EF6E0E7F1E039709F0C3C5D30146
:1030D000AB5BB74F8D919C911197FC01E259FF4F6B
:1030E000E60DF71D60817181F301E80FF91FE059CA
:1030F000FF4F408103968D939C9325E538E0620E47
:10310000731ED3018D919C91EBEAF7EF6E0E7F1E3B
:10311000830104591F4F6817790708F09CC2C30147
:103120000E945B1223C520E438E0620E731ED301B7
:103130008D919C91E0ECF7EF6E0E7F1E8301045998
:103140001F4F892B09F057C5D8011C9289E00E94B6
:103150008337AFC420E438E0620E731ED3018D9133
:103160009C91E0ECF7EF6E0E7F1E019709F072C59F
:10317000D301AB5BB74F8D919C911197F301E80F91
:10318000F91FE259FF4F608101968D939C93830153
:1031900004591F4F623020F489E00E945037F5CE69
:1031A00088E084CF20E438E0620E731ED3018D9155
:1031B0009C91E0ECF7EF6E0E7F1E830104591F4FC8
:1031C000892B09F018C5D8011C92B301685A774FB2
:1031D000C30144E050E00E94801E47C520E438E06F
:1031E000620E731ED3018D919C91E0ECF7EF6E0E91
:1031F0007F1E830104591F4F049709F0FCC4D301BB
:10320000AB5BB74F8D919C91119782599F4FF30102
:10321000E80FF91F40815181628173818A56904085
:103220008D939C93C30121E00E94ED109FC420E484
:1032300038E0620E731ED3018D919C91E0ECF7EFA4
:103240006E0E7F1E830104591F4F892B09F0D3C4D2
:10325000D8011C92B301645A774FBACF20E438E00A
:10326000620E731ED3018D919C91E0ECF7EF6E0E10
:103270007F1E830104591F4F049709F0BCC4D3017A
:10328000AB5BB74F8D919C91119782599F4FF30182
:10329000E80FF91F40815181628173818A56904005
:1032A0008D939C93C3010E94731160C420E438E0A5
:1032B000620E731ED3018D919C91E0ECF7EF6E0EC0
:1032C0007F1E019709F0C6C4D301AB5BB74F8D9148
:1032D0009C911197F301E80FF91FE259FF4F2081EC
:1032E00001968D939C93830104591F4F223008F05F
:1032F000B2C130E08BE190E0289FF001299FF00DF2
:10330000389FF00D1124E35AF14F81818983D80150
:103310001C92C301BE016F5F7F4F41E050E05BCF65
:1033200020E438E0620E731ED3018D919C91E0EC95
:10333000F7EF6E0E7F1E830104591F4F029709F0AD
:103340005AC4D301AB5BB74F2D913C911197F30158
:10335000E20FF31FE259FF4F80812F5F3F4FF301D0
:10336000E20FF31FE259FF4F60812F5F3F4F2D9314
:103370003C930E94152EFAC320E438E0620E731EBF
:10338000D3018D919C91E0ECF7EF6E0E7F1E0197BB
:1033900009F060C4D301AB5BB74F8D919C9111973D
:1033A000F301E80FF91FE259FF4F408101968D9319
:1033B0009C93830104591F4F423008F04CC1D8013F
:1033C0001C92242F30E08BE190E0289FF001299F90
:1033D000F00D389FF00D1124E35AF14FE1814423A1
:1033E00021F0413009F0ACC00AC0F0E0EE0FFF1F41
:1033F000EE0FFF1FE60DF71DE259F74FB9C0F0E0E1
:10340000EE0FFF1FEE0FFF1FE60DF71DE258F74FFF
:10341000AFC020E438E0620E731ED3018D919C9101
:10342000E0ECF7EF6E0E7F1E830104591F4F0597E6
:1034300009F09BC3A3014B5B574FDA012D913C91DF
:103440001197F301E20FF31FE259FF4FE0812F5F65
:103450003F4F2D933C9321503040D8011C92EE23D6
:1034600021F0E13009F0F7C01AC0E0915E0EF0E003
:1034700021593F4FD301A20FB31FED90FD900D9145
:103480001C912A563040DA012D933C93EE0FFF1F1A
:10349000EE0FFF1FE60DF71DE259F74FD4C0E09184
:1034A000790EF0E021593F4FD301A20FB31FED90E9
:1034B000FD900D911C912A563040DA012D933C93DA
:1034C000EE0FFF1FEE0FFF1FE60DF71DE258F74F3F
:1034D000BAC0E0E4F8E06E0E7F1ED3018D919C919E
:1034E000E0ECF7EF6E0E7F1E019709F0B3C3D30136
:1034F000AB5BB74F8D919C911197F301E80FF91FCA
:10350000E259FF4F408101968D939C9383010459AA
:103510001F4F423008F09FC0D8011C92242F30E08A
:103520008BE190E0289FF001299FF00D389FF00D6E
:103530001124E35AF14FE181442339F0413079F00D
:1035400080E090E0A0E0B0E017C0F0E0EE0FFF1FD9
:10355000EE0FFF1FE60DF71DEA58F74F09C0F0E028
:10356000EE0FFF1FEE0FFF1FE60DF71DE257F74F9F
:1035700080819181A281B38189839A83AB83BC834B
:10358000C301BE016F5F7F4F24CE20E438E0620E9E
:10359000731ED3018D919C91E0ECF7EF6E0E7F1EB0
:1035A000830104591F4F059709F0DFC2A3014B5B4C
:1035B000574FDA012D913C911197F301E20FF31F60
:1035C000E259FF4FE0812F5F3F4F2D933C932150F5
:1035D0003040D8011C92EE2319F0E130E1F51AC019
:1035E000E0915E0EF0E021593F4FD301A20FB31FCF
:1035F000ED90FD900D911C912A563040DA012D93EB
:103600003C93EE0FFF1FEE0FFF1FE60DF71DEA586C
:10361000F74F19C0E091790EF0E021593F4FD301E7
:10362000A20FB31FED90FD900D911C912A563040D2
:10363000DA012D933C93EE0FFF1FEE0FFF1FE60DF7
:10364000F71DE257F74FE082F18202831383C30133
:103650000E94A70E0AC385E029CDE0E4F8E06E0ED3
:103660007F1ED3018D919C91E0ECF7EF6E0E7F1ED3
:10367000830104591F4F892B09F0BDC2D8011C9248
:10368000B301605A774FA4CD20E438E0620E731E78
:10369000D3018D919C91E0ECF7EF6E0E7F1E0497A5
:1036A00009F0D8C2F301EB5BF74F80819181825919
:1036B0009F4FD301A80FB91FED90FD900D911C9164
:1036C0008A56904091838083C801B70120E030E0A2
:1036D00040E050E00E949E42181664F5F301EC5958
:1036E000F74F8081882379F020E638E0620E731E60
:1036F000D301ED92FD920D931C931397E0EAF7EF3F
:103700006E0E7F1E12C02EE938E0620E731ED301CA
:10371000ED92FD920D931C93139722E637EF620E04
:10372000731E1082C3010E94A70E4CE650E0640E87
:10373000751E8DC22CE630E0620E731E88E08FC2CB
:1037400020E438E0620E731ED3018D919C91E0EC71
:10375000F7EF6E0E7F1E830104591F4F892B09F06E
:103760004AC2D8011C9210E0F301E256F74F608183
:1037700071818281938120E030E040E050E00E943E
:103780000D4118160CF011E01983C3CD20E438E088
:10379000620E731ED3018D919C91E0ECF7EF6E0EDB
:1037A0007F1E019709F056C2D301AB5BB74F8D91D5
:1037B0009C911197F301E80FF91FE259FF4F208107
:1037C00001968D939C93F301E256F74F222349F023
:1037D00080E090E0A0E0B0E080839183A283B38397
:1037E00011C020E638E0620E731ED3012D913D9189
:1037F0004D915C9160EA77EF660E771E20833183EE
:1038000042835383C3010E94A70E8CE690E0680EAA
:10381000791E1DC220E438E0620E731ED3012D9183
:103820003C91E0ECF7EF6E0E7F1E2A30310508F474
:1038300011C2D301AB5BB74F8D919C911197FC01E5
:10384000E259FF4FE60DF71D40815181628173817E
:103850004F87588B698B7A8B049611969C938E9325
:103860000497FC01EE58FF4FE60DF71D6081718152
:103870007E876D87FC01EC58FF4FE60DF71D4081F8
:1038800051816281738149875A876B877C87F301F5
:10389000E80FF91FE858FF4F10810B968D939C930A
:1038A0002B30310581F065E578E0660E771ED30197
:1038B0008D919C91EBEAF7EF6E0E7F1E0B96281709
:1038C000390709F0F5C12D853E852B54314008F0AC
:1038D000ADC06F85788989899A8920E030E04AE710
:1038E00054E40E94114120E030E44CE157E40E948E
:1038F000E74220E030E040E855E40E940D41882393
:103900000CF094C06CE670E0660E771ED3011C923A
:10391000E4E9FFEF6E0E7F1EF301E05CF74F25E553
:1039200038E0620E731ED3018D919C912BEA37EF24
:10393000620E731E0B96208131812817390719F406
:10394000C3010E94FC12A12E0E94D2341B012C0143
:103950004CE558E0640E751ED301CD90DD90ED90DE
:10396000FC90E4EAF7EF6E0E7F1EF0E010FDF1E050
:10397000E0E0A1FCE1E06F85788989899A894D852D
:103980005E8509851A852B853C85AF2E8E2E0E947B
:10399000652E0E94D23462197309840995090E9428
:1039A000AA417B018C012D853E85B90180E090E024
:1039B0000E94AA4120E030E04AE754E40E94E74236
:1039C0009B01AC01C801B7010E94114169837A8350
:1039D0008B839C83C301BE016F5F7F4F44E050E047
:1039E0000E94801EC30164E77EE044E050E00E9434
:1039F000801EC3016FE87EE044E050E00E94801E1C
:103A000040E658E0640E751EF30180819181A28129
:103A1000B38120EA37EF620E731E8D839E83AF83DE
:103A2000B887C301BE016B5F7F4FD3CB4CE650E03C
:103A3000640E751E81E013C120E438E0620E731E2F
:103A4000D3018D919C91E0ECF7EF6E0E7F1E830108
:103A500004591F4F019709F0CEC0D8011C92D30121
:103A6000AB5BB74F8D919C911197F301E80FF91F54
:103A7000E259FF4F208101968D939C9360E02111C4
:103A800061E0C3010E94D50EF0C020E438E0620E70
:103A9000731ED3018D919C91E0ECF7EF6E0E7F1EAB
:103AA000830104591F4F892B09F0A5C0D8011C922E
:103AB00088E089832ECC20E438E0620E731ED301A7
:103AC0008D919C91E0ECF7EF6E0E7F1E83010459FF
:103AD0001F4F892B09F049C0D8011C92E2E5F8E09C
:103AE0006E0E7F1ED3018C91EEEAF7EF3BC0E0E44F
:103AF000F8E06E0E7F1ED3018D919C91E0ECF7EF04
:103B00006E0E7F1E019709F0A5C0D301AB5BB74FC6
:103B10008D919C911197F301E80FF91FE259FF4F26
:103B2000208101968D939C93F301EE5AF74F41C08B
:103B300020E438E0620E731ED3018D919C91E0EC7D
:103B4000F7EF6E0E7F1E830104591F4F892B69F416
:103B5000D8011C92E3E5F8E06E0E7F1ED3018C9134
:103B6000EDEAF7EF6E0E7F1EA4CF86E0D8018C93AE
:103B70007CC0E0E4F8E06E0E7F1ED3018D919C9135
:103B8000E0ECF7EF6E0E7F1E019709F063C0D301E2
:103B9000AB5BB74F8D919C911197F301E80FF91F23
:103BA000E259FF4F208101968D939C93F301ED5ACA
:103BB000F74F222319F081E0808345C0108243C073
:103BC00020E438E0620E731ED3018D919C91E0ECED
:103BD000F7EF6E0E7F1E830104591F4F892B59F496
:103BE000D8011C9288E00E9483371982892B09F042
:103BF00090CB81E05ECF86E059CA20E438E0620EC7
:103C0000731ED3018D919C91E0ECF7EF6E0E7F1E39
:103C1000019701F5D301AB5BB74F8D919C91119743
:103C2000F301E80FF91FE259FF4F208101968D93B0
:103C30009C93222321F0C3010E947C1304C088E0DE
:103C400061E00E9450372CE630E0620E731ED30113
:103C50001C9207C02CE630E0620E731E86E0D30192
:103C60008C93E4E9FFEF6E0E7F1EC3016B890E9407
:103C7000D5222CE630E0620E731ED3018C9165963E
:103C80000FB6F894DEBF0FBECDBFCF91DF911F916D
:103C90000F91FF90EF90DF90CF90BF90AF909F90EB
:103CA0008F907F906F905F904F903F902F900895EE
:103CB000ECE6F0E06E0E7F1ED1CFFC0182E794E0CF
:103CC00091838083CF010E947A1E08950F931F93E2
:103CD0008C0161E00E94E02082E794E0F80191838A
:103CE00080830E5A174FF801119210821F910F9185
:103CF00008950895FC0189E994E0918380830895F3
:103D00000F931F93CF93DF938C0120E030E0EC0101
:103D1000C95BD74F10C0F801E20FF31F888199816A
:103D2000E80FF91FE259FF4FDB01A20FB31F8C917F
:103D300080832F5F3F4F2417350768F3888199816F
:103D4000840F951F99838883DF91CF911F910F91E5
:103D50000895CF93DF93DC01FC01E359FF4F6081AD
:103D6000EC01C459DF4F67FF0EC06058608382E0EA
:103D70008883ED91FC91119760580488F589E02DB6
:103D8000CD0119950EC0FC01E05CF74F8081918157
:103D9000A80FB91FA359BF4F2C9128830197918376
:103DA0008083DF91CF910895CF93DF93EC01FC01E5
:103DB000E75BF74F6D3719F481E08083DAC09081BB
:103DC000992311F080E268276E3749F4992339F47A
:103DD000CD5BD74F19821882C354D840C4C0CD5B85
:103DE000D74F28813981C354D84021153105A1F41A
:103DF000C359DF4F6883C152D84F8881CC54D84013
:103E0000882309F448C0C15BD74F8FEF9FEF998398
:103E10008883CF54D8403FC021303105B1F4DE0152
:103E2000AE5BB74FFE01E05CF74F67FF09C083E070
:103E30008C93862F90E08F779070108281832BC0B7
:103E400082E08C936083118226C02230310589F490
:103E5000CE5BD74F8881C254D840833051F4FE01E5
:103E6000E05CF74F80819181860F911D9183808363
:103E700012C0CE5BD74F8881F901E81BF1099A91F6
:103E80008A91C054D840E817F90728F4EC0FFD1FB9
:103E9000E259FF4F6083C45BD74F8881CC54D84030
:103EA0008823F1F0FE01E15BF74F80819181862745
:103EB000282F22952827022E269526952025022E8A
:103EC000269520252770082E892F2695079427955B
:103ED000902D8227069427959025822791838083B1
:103EE000FE01ED5BF74F408151814F5F5F4F518382
:103EF0004083CE5BD74F88813A912A91280F311D9C
:103F00002C966881CC54D840862F90E0880F991F5A
:103F1000280F391F4217530731F511821082CB5BEE
:103F2000D74F1992199219821882C754D840662324
:103F300041F0C15BD74F88819981CF54D840892BFC
:103F400019F4CE010E94A91EFE01E55BF74F908196
:103F5000992349F0C359DF4F90588881CD56D040FE
:103F6000891709F41082FE01E75BF74F8081811108
:103F70001082DF91CF91089583E79DE00E94EC04C9
:103F8000089583E79DE00E94E50408951F93CF9371
:103F9000DF93EA018AEB9DE0422F0E94120610E0B7
:103FA00009C08AEB9DE00E944B05FE01E10FF11D67
:103FB00080831F5F8AEB9DE00E944205892B89F771
:103FC000812FDF91CF911F910895FF920F931F933F
:103FD000CF93DF93142F052FF22E8AEB9DE00E94E2
:103FE0002E05212F302FC901EC0110E006C08AEB0D
:103FF0009DE069910E94BA051F5F1F15C0F38AEB0F
:104000009DE00E94FD05DF91CF911F910F91FF90E0
:1040100008951F9318E08AEB9DE0612F0E942E0502
:104020008AEB9DE00E94FD05882331F58CEB90E141
:104030006FE873E00E94083E8CEB90E1612F4AE04C
:1040400050E00E94663D8CEB90E163EA73E00E94D1
:10405000083E8CEB90E1612F40E150E00E94663D0C
:104060008CEB90E168EA73E00E94053F61E070E04C
:1040700080E090E00E94F8341F5F183761F61F91CE
:104080000895AF92BF92CF92DF92EF92FF920F937B
:104090001F93DF93CF9300D00F92CDB7DEB77C0193
:1040A0006E010894C11CD11C56010FE010E0D7012D
:1040B000ED91FC910088F189E02DC701B8011995B7
:1040C000F50181935F010F5F1F4F0331110579F7F0
:1040D00089819A81AB81BC818F5F9F4FAF4FBF4F6A
:1040E000D9F480E092ECA1E0B0E089839A83AB83BD
:1040F000BC830FE010E0D701ED91FC910288F389B9
:10410000E02DC701B801D6014D916D0119950F5FE2
:104110001F4F0331110579F749815A816B817C81E9
:104120008CEB90E10E94F8398AEB9DE00E94160624
:104130000E9417050E94FC0A870108591F4FF801C9
:1041400060837183828393838CEB90E16AEA73E0EE
:104150000E94083ED8014D915D916D917C918CEB50
:1041600090E122E030E00E94EF3E8CEB90E16CEBBE
:1041700073E00E94053F0F900F900F900F90CF912A
:10418000DF911F910F91FF90EF90DF90CF90BF9044
:10419000AF900895CF93DF93EC0108C08CEB90E1D2
:1041A0000E94B03A682FCE010E94D41E8CEB90E1A1
:1041B0000E947F3A181619068CF3DF91CF9108956B
:1041C0007F928F929F92AF92BF92CF92DF92EF92A7
:1041D000FF920F931F93CF93DF93FC0189E994E043
:1041E00091838083E45BF74F60833997118210825B
:1041F000369610823997118210823596119211925B
:10420000118210823A961082AA24BB248824992411
:1042100083E79DE0B5010E94E504182FB501695FB1
:104220007F4F83E79DE00E94E504E401EE24FF2434
:10423000C12EDD24C094D094082F10E00095109575
:10424000C633D105B4F4B6010E2C02C0759567953E
:104250000A94E2F761708C2F0E949D36B8010E2CF3
:1042600002C0759567950A94E2F761708C2F0E94E1
:1042700050370894E11CF11C219688E0E816F104FF
:10428000F9F60894A11CB11C88E090E0880E991EF4
:1042900097E0A916B10409F0BBCFDF91CF911F9130
:1042A0000F91FF90EF90DF90CF90BF90AF909F90D5
:1042B0008F907F9008951F93162F862F8D578230F1
:1042C00050F48CEB90E16DE70E94E93A60E26127DF
:1042D0008CEB90E102C08CEB90E10E94E93A1F91D7
:1042E00008958F929F92AF92BF92CF92DF92EF92FA
:1042F000FF920F931F93CF93DF93EC01BEE6EB2E5B
:10430000F12CE80EF91E00E010E0A0E48A2EA8E0EF
:104310009A2E880E991EFCE4AF2EF8E0BF2EA80E50
:10432000B91EEDE4CE2EE8E0DE2EC80ED91E2AC05E
:10433000F50180818823F1F0F7012081F601808169
:1043400091818227282F22952827022E26952695AF
:104350002025022E269520252770082E892F2695A8
:1043600007942795902D82270694279590258227DC
:1043700091838083CE01F70161917F010E945B21CF
:104380000F5F1F4FF401808191810817190708F40E
:10439000CFCFF5018081882369F08E01035B174F31
:1043A000CE01F80160810E945B21F8016181CE019C
:1043B0000E945B21C05CD74F198218822796198210
:1043C0001882DF91CF911F910F91FF90EF90DF90B6
:1043D000CF90BF90AF909F908F9008950F931F93B1
:1043E000CF93DF93EC01062FFC01E05CF74FC95B34
:1043F000D74F88819981918380838CEB90E16EE720
:104400000E94E93A25968881CC54D8408823F9F057
:10441000C35BD74F8FEF9FEF8027282F2295282748
:10442000022E269526952025022E269520252770DA
:10443000082E892F269507942795902D822706947C
:1044400027959025822799838883CD54D840CE0123
:10445000602F0E945B21DE01A05CB74F2D913C9143
:104460001197FE01E45BF74F2038310530F580816C
:104470008823F1F0FE01E35BF74F80819181822771
:10448000282F22952827022E269526952025022EB4
:10449000269520252770082E892F26950794279585
:1044A000902D8227069427959025822791838083DB
:1044B000CE01C05CD74F688149C08081882309F450
:1044C00037C03068FE01E35BF74F8081918183271D
:1044D000282F22952827022E269526952025022E64
:1044E000269520252770082E892F26950794279535
:1044F000902D822706942795902582272C9182273C
:10450000282F22952827022E269526952025022E33
:10451000269520252770082E892F26950794279504
:10452000902D82270694279590258227918380835A
:104530008E01005C174FF801208131813068CE0177
:10454000632F0E945B21CE01F80160810E945B21F4
:10455000DF91CF911F910F9108950F931F93DF93D8
:10456000CF930F92CDB7DEB78C016983DC01A95BD5
:10457000B74F8D919C911197F801E80FF91FE259FF
:10458000FF4F608301968D939C93F801E359FF4F91
:10459000C80160810E94EE21C8010E9471210F9024
:1045A000CF91DF911F910F9108956F927F929F920B
:1045B000AF92BF92CF92DF92EF92FF920F931F9331
:1045C000DF93CF93CDB7DEB76C970FB6F894DEBF0D
:1045D0000FBECDBF7C016DB67EB670E0CB018058BA
:1045E00090408E31910508F0C9C688539F4FD7017E
:1045F000A05CB74FFC01EE0FFF1F0590F491E02D7A
:1046000019948D919C91892B09F0FAC5D701ED91F0
:10461000FC910280F381E02DC70119958C01D7012F
:10462000ED91FC910280F381E02DC7011995DC0129
:104630000D900020E9F7AD0141505040481B590B47
:1046400020E030E0B701695B774F11C0F701E20F5E
:10465000F31FDB018D919C91E80FF91FE259FF4F89
:10466000D801A20FB31F8C9180832F5F3F4F241777
:10467000350760F3E7C08D919C91892B09F0C0C587
:10468000D701ED91FC910480F581E02DC7011995CA
:104690008C01D701ED91FC910480F581E02DC701DB
:1046A0001995DC010D900020E9F7AD014150504013
:1046B000481B590B20E030E0B701695B774F11C010
:1046C000F701E20FF31FDB018D919C91E80FF91FB9
:1046D000E259FF4FD801A20FB31F8C9180832F5F47
:1046E0003F4F2417350760F3ADC08D919C91892B06
:1046F00009F086C5D701ED91FC910680F781E02D88
:10470000C70119958C01D701ED91FC910680F781C5
:10471000E02DC7011995DC010D900020E9F7AD01EE
:1047200041505040481B590B20E030E0B701695B15
:10473000774F11C0F701E20FF31FDB018D919C91C0
:10474000E80FF91FE259FF4FD801A20FB31F8C9158
:1047500080832F5F3F4F2417350760F373C08D911F
:104760009C91892B09F04CC5D701ED91FC910084F7
:10477000F185E02DC70119958C01D701ED91FC91D0
:104780000084F185E02DC7011995DC010D90002012
:10479000E9F7AD0141505040481B590B20E030E093
:1047A000B701695B774F11C0F701E20FF31FDB011F
:1047B0008D919C91E80FF91FE259FF4FD801A20F8C
:1047C000B31F8C9180832F5F3F4F2417350760F311
:1047D00039C08D919C91892B09F012C5D701ED91BB
:1047E000FC910284F385E02DC70119958C01D70156
:1047F000ED91FC910284F385E02DC7011995DC0150
:104800000D900020E9F7AD0141505040481B590B75
:1048100020E030E0B701695B774F11C0F701E20F8C
:10482000F31FDB018D919C91E80FF91FE259FF4FB7
:10483000D801A20FB31F8C9180832F5F3F4F2417A5
:10484000350760F3FB0180819181840F951F91836F
:1048500080832CE630E0E20EF31ED7011C92E4E9DF
:10486000FFEFEE0EFF1E8AC58D919C91892B09F0FA
:10487000C7C4D701ED91FC910484F585E02DC701F3
:1048800019958C01D701ED91FC910484F585E02DFB
:10489000C7011995DC010D900020E9F7AD014150E9
:1048A0005040481B590B20E030E0B701695B774F5F
:1048B00011C0F701E20FF31FDB018D919C91E80F0E
:1048C000F91FE259FF4FD801A20FB31F8C918083CB
:1048D0002F5F3F4F2417350760F3B4CF8D919C9124
:1048E000892B09F08DC4D701ED91FC910684F785E1
:1048F000E02DC70119958C01D701ED91FC9106843B
:10490000F785E02DC7011995DC010D900020E9F72E
:10491000AD0141505040481B590B20E030E0B70139
:10492000695B774F11C0F701E20FF31FDB018D9137
:104930009C91E80FF91FE259FF4FD801A20FB31F56
:104940008C9180832F5F3F4F2417350760F37ACF18
:104950008D919C91892B09F053C420E030E0B70180
:10496000695B774FF701E20FF31FDB014D915C911B
:10497000E40FF51FE259FF4FD901A657BB4F8C91A9
:1049800080832F5F3F4F2A30310561F7465F5F4FCD
:104990001FC28D919C91870104591F4F029709F006
:1049A000D0C3D701AB5BB74F2D913C911197F70165
:1049B000E20FF31FE259FF4F80812F5F3F4FF70156
:1049C000E20FF31FE259FF4F60812F5F3F4F2D939E
:1049D0003C930E949D36B2C38D919C9187010459EE
:1049E0001F4F029709F0ADC3D701AB5BB74F2D91B5
:1049F0003C911197F701E20FF31FE259FF4F8081BD
:104A00002F5F3F4FF701E20FF31FE259FF4F608125
:104A10002F5F3F4F2D933C930E9450378FC38D9152
:104A20009C91870104591F4F019709F08AC3D70150
:104A3000AB5BB74F2D913C911197F701E20FF31F3C
:104A4000E259FF4F80812F5F3F4F2D933C930E948F
:104A500083378983D701A95BB74F2D913C9111977B
:104A6000F701E20FF31FE259FF4F80832F5F3F4FA3
:104A70002D933C9363C38D919C91870104591F4FE3
:104A8000029709F05EC3D701AB5BB74F2D913C9104
:104A90001197F701E20FF31FE259FF4F80812F5F5B
:104AA0003F4F11963C932E9322593F4FF701E20F4F
:104AB000F31F608171812C5630402D933C930E94EE
:104AC000BD353CC32CE630E0E20EF31E86E0F70174
:104AD000808324E93FEFE20EF31E2D913C912230BA
:104AE000310508F44BC4ADB69EB6D701AB5BB74FEA
:104AF0008D919C911197F701E80FF91FE259FF4F33
:104B0000B08001968D939C938DB79EB78B199109B8
:104B10000FB6F8949EBF0FBE8DBFCDB6DEB608941B
:104B2000C11CD11C2230310519F491E0B916D9F01D
:104B30008B2D90E003962817390709F096C013C013
:104B40008D919C911197F701E80FF91FE259FF4FE2
:104B50002081019611969C938E93F601E30FF11D2F
:104B600020833F5F04C030E0D701AB5BB74F3B15FC
:104B700038F3A0E4B8E0EA0EFB1EF70180819181D2
:104B800020EC37EFE20EF31E029701F1F701EB5B29
:104B9000F74F8081918182599F4FD701A80FB91F8C
:104BA0000D911C918C5690409183808333E0093E97
:104BB000130770F08CE690E0E80EF91E89E0D7014B
:104BC0008C93E4E9FFEFEE0EFF1E4FC001E010E012
:104BD0002CE630E0E20EF31ED7011C9210933B0E40
:104BE00000933A0EE2E0F0E0EE0EFF1EF092370E78
:104BF000E092360E22E93FEFE20EF31E80E00E94C3
:104C0000410931E0B31629F4D6018C910E945B0969
:104C100012C0D0923E0EC0923D0EB092400E109245
:104C2000410E8EE999E09093430E8093420EF60177
:104C300080810E9484090E94900B20913A0E30914D
:104C40003B0E8091380E9091390E82179307C9F769
:104C50000E943E0BF701E95BF74F000F111F8081A7
:104C60009181080F191F118300838A2D992D9C01B2
:104C70000FB6F8943EBF0FBE2DBF80C38D919C919F
:104C8000870104591F4F039709F075C3D701AB5B28
:104C9000B74F8D919C911197FC01E259FF4FEE0D9A
:104CA000FF1D60817181F701E80FF91FE059FF4F87
:104CB000408103968D939C93D701ED91FC910288DE
:104CC000F389E02DC701199553C38D919C918701FC
:104CD00004591F4F029709F04EC3D701AB5BB74F82
:104CE0008D919C91119782599F4FF701E80FF91F01
:104CF000608171818C5690408D939C93D701ED918A
:104D0000FC910088F189E02DC70119958983D701AD
:104D1000A95BB74F2D913C911197F701E20FF31F5B
:104D2000E259FF4F80832F5F3F4F20C38D919C91AD
:104D3000029709F065C2D701AB5BB74F8D919C918B
:104D40001197F701E80FF91FE259FF4F60810196B3
:104D5000F701E80FF91FE259FF4FA08001968D93EC
:104D60009C938E01015F1F4FC8010E949A0DC801DC
:104D70000E94C60BDD24B02EC12E8E01095F1F4F8D
:104D80008B2D9C2DB8010E94040DD394AD14C0F757
:104D9000882311F120E030E0B701695B774F8E0185
:104DA000095F1F4FF701E20FF31FDB014D915C918B
:104DB000E40FF51FE259FF4FD801A20FB31F8C91EA
:104DC00080832F5F3F4F2830310561F7485F5F4F89
:104DD000FB01518340833DCD2CE630E0E20EF31E13
:104DE00085E09CC28D919C910B9709F009C2D70177
:104DF000AB5BB74F8D919C911197F701E80FF91FAD
:104E0000E259FF4F6081019611969C938E9347E083
:104E1000C42ED12CCC0EDD1EAD01C601BC2CA92E9A
:104E20008E01015F1F4FFA0180819181F701E80F28
:104E3000F91FE259FF4F20810196FA019183808387
:104E4000F60121936F01E017F10769F78D919C91AD
:104E50001197F701E80FF91FE259FF4F10810196F2
:104E6000F701E80FF91FE259FF4F008101968D937A
:104E70009C93C6010E949A0DC6010E94B90CC601FE
:104E80006B2D7A2D0E94980CC601612F40E00E9484
:104E9000580C10E03FE0A32EB12CAC0EBD1E27E451
:104EA000C22E28E0D22ECE0CDF1C13C0C5010E94FA
:104EB000070C8983D6012D913C911197F701E20FE0
:104EC000F31FE259FF4F80832F5F3F4F2D933C9399
:104ED0001F5F101758F3ECE6F0E0EE0EFF1EBDCC9E
:104EE0008D919C910B9709F08BC1D701AB5BB74FAC
:104EF0008D919C911197F701E80FF91FE259FF4F2F
:104F00006081019611969C938E9397E0C92ED12CC7
:104F1000CC0EDD1EAD01C601BC2CA92E8E01015F99
:104F20001F4FFA0180819181F701E80FF91FE259C3
:104F3000FF4F20810196FA0191838083F60121932E
:104F40006F01E017F10769F78D919C911197F701B7
:104F5000E80FF91FE259FF4F00810196F701E80FB2
:104F6000F91FE259FF4F108101968D939C93C60162
:104F70000E949A0DC6010E94B90CC6016B2D7A2DB4
:104F80000E94980CC601602F412F0E94580C61CCE2
:104F90008D919C91029709F0BCC1D701AB5BB74FD3
:104FA0008D919C911197F701E80FF91FE259FF4F7E
:104FB00060810196F701E80FF91FE259FF4FC080A9
:104FC00001968D939C938AEB9DE04C2D0E941206D6
:104FD000DD248701095B174F14C08AEB9DE00E9416
:104FE0004B058983D8012D913C911197F701E20F70
:104FF000F31FE259FF4F80832F5F3F4F2D933C9368
:10500000D3948AEB9DE00E944205892B31F78701FA
:1050100004591F4FDC1409F4ABC181E0ADC18D917F
:105020009C91029708F4ECC087010B5B174FD801E5
:105030008D919C911197F701E80FF91FE259FF4FED
:10504000608101968D939C938AEB9DE00E942E05D2
:10505000DD2480E4A82E88E0B82EAE0CBF1C12C060
:10506000F80180819181F701E80FF91FE259FF4FA4
:1050700060810196D8018D939C938AEB9DE00E94FC
:10508000BA05D3942D2D30E0F501808191810197EF
:105090002817390728F38AEB9DE00E94FD05D9CB3C
:1050A0008D919C91870104591F4F019709F049C0C8
:1050B000D701AB5BB74F2D913C911197F701E20FF0
:1050C000F31FE259FF4F80812F5F3F4F2D933C9399
:1050D0000E94F80433C08D919C91870104591F4FA1
:1050E000019779F5D701AB5BB74F2D913C911197A3
:1050F000F701E20FF31FE259FF4F80812F5F3F4F0F
:105100002D933C930E94060519C08D919C918701B7
:1051100004591F4F0197A9F4D701AB5BB74F2D91ED
:105120003C911197F701E20FF31FE259FF4F808185
:105130002F5F3F4F2D933C930E940105D8011C9295
:105140001DC186E0F801808319C18D919C91019762
:1051500009F056C0D701AB5BB74F8D919C91119769
:10516000F701E80FF91FE259FF4F208101968D9357
:105170009C932EBD0DB407FEFDCF2EB52983D7011C
:10518000A95BB74F8D919C911197F701E80FF91F1B
:10519000E259FF4F208301968D939C935ACB8D91BA
:1051A0009C91892B69F526E630E0E20EF31ED701CB
:1051B0006D917C91EAE9FFEFEE0EFF1E870120E082
:1051C00030E0A701495B574F10C0F701E20FF31F12
:1051D000DA018D919C91E80FF91FE259FF4FD80138
:1051E00011968C9180832F5F3F4F0F5F1F4F2617C3
:1051F000370758F3FA0180819181860F971F27CBDB
:105200002CE630E0E20EF31E88C08D919C91870160
:1052100004591F4F892B09F0AEC08091460E909122
:10522000470EA091480EB091490E8B839C83AD83AD
:10523000BE83DE011396A701495B574FFA01208117
:105240003181F701E20FF31FE259FF4F8B817FC0DD
:105250008D919C91870104591F4F049709F08BC0D1
:10526000D701AB5BB74F2D913C91119722593F4F1E
:10527000F701E20FF31F60817181828193812A56C9
:1052800030402D933C930E949D0872C08D919C915B
:10529000870104591F4F892B09F06DC00E949608A1
:1052A00089839A83D701A95BB74F2D913C911197C0
:1052B000F701E20FF31FE259FF4F81938A81808348
:1052C0002E5F3F4F53C08D919C91029711F5D701EE
:1052D000AB5BB74F8D919C91119782599F4FF7010E
:1052E000E80FF91F0190F081E02D8C5690408D93CE
:1052F0009C93CF010297870104591F4F069738F4FA
:105300008E2F0E948D0880E00E944D0931C085E0FB
:1053100033C0ECE6F0E0EE0EFF1E86E0D7018C9382
:105320009ECA8D919C91870104591F4F892B19F5B5
:10533000D701A859BF4FA701495B574FFA012081F8
:105340003181F701E20FF31FE259FF4F8C918193F6
:1053500011968C911197819312968C91129781934B
:1053600013968C9180832C5F3F4FDA012D933C93F1
:10537000F801108203C086E0D8018C93870104599C
:105380001F4FC701F80160810E94AD22D8018C91A6
:105390000FB6F8947EBE0FBE6DBE6C960FB6F89435
:1053A000DEBF0FBECDBFCF91DF911F910F91FF9058
:1053B000EF90DF90CF90BF90AF909F907F906F90D5
:1053C00008958BE1EDE5FEE0DF01982F1D929A959F
:1053D000E9F77B96DF011D928A95E9F708952F92F0
:1053E0003F924F925F926F927F928F929F92AF9275
:1053F000BF92CF92DF92EF92FF920F931F93DF93B2
:10540000CF93CDB7DEB764970FB6F894DEBF0FBE6B
:10541000CDBF2F83388749875A87EB86FC860D8757
:105420001E87D88ACF86BA8AA98A0E94E74220E0DE
:1054300030E04AE754E40E9411419B01AC010E9414
:1054400096405B016C0120E030E040E050E00E94BB
:105450009E4288234CF0C601B50120E030E040E0D8
:105460005FE30E94964008C0C601B50120E030E02D
:1054700040E05FE30E9495400E9479410E94AC4168
:1054800020E030E040E05FE30E94E7426B837C83F2
:105490008D839E836B817C818D819E812F81388558
:1054A00049855A850E9411412B853C854D855E8535
:1054B0000E94E7420E94FA400E947E417A836983FB
:1054C00084C329813A81B90180E090E00E94AA4119
:1054D0002B813C814D815E810E9411412F81388555
:1054E00049855A850E94E7423B014C01EF85F889C6
:1054F00060837183828393832B853C854D855E8594
:105500000E949E4218160CF45BC3C401B3012F81A4
:10551000388549855A850E9411417B018C0160E0E4
:1055200070E080E090E4A80197010E9411415B01C6
:105530006C0120E030E040E050E00E949E42882371
:105540004CF0C601B50120E030E040E05FE30E948E
:10555000964008C0C601B50120E030E040E05FE3BE
:105560000E9495400E9479410E94AC41A801970198
:105570000E94E7429B01AC0160E070E080E090E4B3
:105580000E94954020E030E040E050E00E949E42C2
:105590001816A4F5C601B50120E030E040E050E067
:1055A0000E949E4288234CF0C601B50120E030E005
:1055B00040E05FE30E94964008C0C601B50120E0CC
:1055C00030E040E05FE30E9495400E9479410E94F4
:1055D000AC41A80197010E94E7429B01AC0160E049
:1055E00070E080E090E40E9495402DEC3CEC4CECA7
:1055F0005DE30E940D4187FDE3C234C0C601B501E1
:1056000020E030E040E050E00E949E4288234CF0D1
:10561000C601B50120E030E040E05FE30E94964023
:1056200008C0C601B50120E030E040E05FE30E9421
:1056300095400E9479410E94AC41A80197010E94C7
:10564000E7429B01AC0160E070E080E090E40E94E2
:1056500095402DEC3CEC4CEC5DEB0E949E42181604
:105660000CF4AEC26F81788589859A859B01AC0167
:105670000E9496409B01AC01C401B3010E940D4100
:1056800088230CF079C16F81788589859A85A4017A
:1056900093010E9411411B012C011C8A1B8A2B893A
:1056A0003C89B90180E090E00E94AA415B016C0155
:1056B000C201B101A60195010E94954020E030E0B1
:1056C00040E05FE30E940D41181634F48B899C89F9
:1056D00001969C8B8B8BE3CFC601B501A40193018E
:1056E0000E94E7429B01AC016F81788589859A858C
:1056F0000E9495405B016C0120E030E040E050E00A
:105700000E949E42181624F0D7FAD094D7F8D0946D
:10571000C401B301A60195010E9411413B014C0156
:1057200060E070E080E090E4A40193010E941141E8
:105730005B016C0120E030E040E050E00E949E42BE
:1057400088234CF0C601B50120E030E040E05FE383
:105750000E94964008C0C601B50120E030E040E05C
:105760005FE30E9495400E9479410E94AC41A401F0
:1057700093010E94E7429B01AC0160E070E080E091
:1057800090E40E94954020E030E040E050E00E942C
:105790009E421816A4F5C601B50120E030E040E0B5
:1057A00050E00E949E4288234CF0C601B50120E0E3
:1057B00030E040E05FE30E94964008C0C601B501BA
:1057C00020E030E040E05FE30E9495400E94794194
:1057D0000E94AC41A40193010E94E7429B01AC01ED
:1057E00060E070E080E090E40E9495402DEC3CEC9D
:1057F0004CEC5DE30E940D418823ACF5E1C1C6018C
:10580000B50120E030E040E050E00E949E42882355
:105810004CF0C601B50120E030E040E05FE30E94BB
:10582000964008C0C601B50120E030E040E05FE3EB
:105830000E9495400E9479410E94AC41A4019301CD
:105840000E94E7429B01AC0160E070E080E090E4E0
:105850000E9495402DEC3CEC4CEC5DEB0E949E428E
:1058600018160CF4ADC1C801B70120E030E040E0EB
:1058700050E00E949E4288234CF0C801B70120E00E
:1058800030E040E05FE30E94964008C0C801B701E5
:1058900020E030E040E05FE30E9495400E947941C3
:1058A0000E94AC419B01AC01C801B7010E94954028
:1058B00020E030E040E050E00E949E42181674F56F
:1058C000C801B70120E030E040E050E00E949E4275
:1058D00088234CF0C801B70120E030E040E05FE3EE
:1058E0000E94964008C0C801B70120E030E040E0C7
:1058F0005FE30E9495400E9479410E94AC419B0168
:10590000AC01C801B7010E94954027E137EB41ED9A
:1059100058E30E940D4188237CF552C1C801B701AC
:1059200020E030E040E050E00E949E4288234CF0AE
:10593000C801B70120E030E040E05FE30E949640FC
:1059400008C0C801B70120E030E040E05FE30E94FA
:1059500095400E9479410E94AC419B01AC01C80175
:10596000B7010E94954027E137EB41ED58EB0E94CB
:105970009E4218160CF424C1C801B70120E030E0A3
:1059800040E251E40E940D4188230CF089C0C80117
:10599000B70120E030E040E050E00E949E428823C2
:1059A0004CF0C801B70120E030E040E05FE30E9426
:1059B000964008C0C801B70120E030E040E05FE356
:1059C0000E9495400E9479410E94AC419B01AC012C
:1059D000C801B7010E94954020E030E040E050E06F
:1059E0000E949E42181674F5C801B70120E030E00D
:1059F00040E050E00E949E4288234CF0C801B7016D
:105A000020E030E040E05FE30E94964008C0C8011B
:105A1000B70120E030E040E05FE30E9495400E9443
:105A200079410E94AC419B01AC01C801B7010E94C1
:105A3000954027E137EB41ED58E30E940D41882363
:105A40007CF5BEC0C801B70120E030E040E050E086
:105A50000E949E4288234CF0C801B70120E030E04C
:105A600040E05FE30E94964008C0C801B70120E013
:105A700030E040E05FE30E9495400E9479410E943F
:105A8000AC419B01AC01C801B7010E94954027E1E0
:105A900037EB41ED58EB0E949E4218160CF490C073
:105AA000C801B7012B813C814D815E810E94E74294
:105AB0005B016C0120E030E040E050E00E949E423B
:105AC00088234CF0C601B50120E030E040E05FE300
:105AD0000E94964008C0C601B50120E030E040E0D9
