0740000002500463051CEPLOV·, MARKÈTA    02051400000000190900+00000000463200+000000000152000000000002875000000020614FIO           
0750000002500463051000000000000000000040778403720000000152001000000000000000000000000000000030514N·kup: KNIHKUPECTVI 00203030514
0750000002500463051000000021120211200045833872500000002000002710413033000030000000000000000270514CEPL MATEJ          00203270514
0750000002500463051000000268518816300045840018260000000875002000000000000080000000000000000290514Haumann Kris        00203290514
