0740000002500463051CEPLOV·, MARKÈTA    01011300000000000000+00000000463200+000000006443000000000011075000000110614FIO           
0750000002500463051000000000000000000035349379860000000200002000000000000000005580000000000020913Vklad pokladnou     00203020913
0750000002500463051000000843573979100035471893030000005000002000000000100260000000000000000011113PRIKRYL, CEPLOVA    00203011113
0750000002500463051000000000000000000035498419930000000530001000000000000000000000000000000121113N·kup: WWW.GOPAY.CZ,00203121113
0750000002500463051000000100101609200035684717060000001800002000001400100550003080000000000310114P-LAB, A. S.        00203310114
0750000002500463051000000000000000000035706582600000001461001000000000000000000000000000000070214N·kup: KNIHKUPECTVI 00203070214
0750000002500463051000000204804020300040683227060000004300001000000009500260005580000000000280314kurz od BC didaktika00203280314
0750000002500463051000000100101609200040758102080000001200002000001400200550003080000000000280414P-LAB, A. S.        00203280414
0750000002500463051000000000000000000040778403720000000152001000000000000000000000000000000030514N·kup: KNIHKUPECTVI 00203030514
0750000002500463051000000021120211200045833872500000002000002710413033000030000000000000000270514CEPL MATEJ          00203270514
0750000002500463051000000268518816300045840018260000000875002000000000000080000000000000000290514Haumann Kris        00203290514
