:100000000C94BD010C94EA010C94EA010C94EA01F1
:100010000C94EA010C94EA010C94EA010C94EA01B4
:100020000C94EA010C94EA010C94EA010C94EA01A4
:100030000C94EA010C94EA010C94EA010C94EA0194
:100040000C94EA010C94EA010C94EA010C94EA0184
:100050000C944D070C94EA010C94EA010C941534AD
:100060000C94EA010C9442370C948A380C94EA01FF
:100070000C94EA010C9422070C94EA010C94EA0116
:100080000C94EA010C94EA010C94EA010C947D0AA8
:100090000C9482370C94C9380C94EA010C946A0CC5
:1000A0000C94EA010C94EA010C94EA010C94EA0124
:1000B0000C94EA010C94EA010C94EA010C94EA0114
:1000C0000C94EA010C94EA010C94EA010C94C237F6
:1000D0000C9408390C94EA010C9402380C944739BA
:1000E0000C94EA019516AD1633175017E1171B183B
:1000F00032185A1876189F18B618BD1DBD1DDE1887
:10010000181944199119F1194D1AB51ACC1A281B4E
:100110004E1BCD1C201D411DE31CFF1C681D851DB1
:10012000BD1DBD1DBD1DBD1DBD1DBD1DBD1DBD1DFF
:10013000BD1DBD1DBD1DBD1DBD1DBD1DBD1DBD1DEF
:10014000BD1DBD1DBD1DBD1DBD1DBD1DBD1DBD1DDF
:10015000BD1DBD1DBD1DBD1DBD1DBD1DBD1DBD1DCF
:10016000BD1DBD1DBD1DBD1DBD1DBD1DBD1DBD1DBF
:10017000BD1DBD1DBD1DBD1DBD1DBD1DBD1DBD1DAF
:10018000BD1DBD1DBD1DBD1DBD1DBD1D921BA41CE6
:100190008922C322FD223723BC237123F623512455
:1001A00097247424EA24C324ED25C6251E26F826A8
:1001B0007A2697275027D827F3270D282D28572848
:1001C00030248D28B028CE28EB28192908000000FB
:1001D000BE922449123EABAAAA2ABECDCCCC4C3E3C
:1001E00000000080BEABAAAAAA3E00000000BF002B
:1001F0000000803F0000000000084178D3BB438727
:10020000D1133D190E3CC3BD4282AD2B3E68EC823A
:1002100076BED98FE1A93E4C80EFFFBE01C4FF7FBF
:100220003F000000000007634236B79BD8A71A3989
:10023000685618AEBAAB558C1D3CB7CC5763BD6D34
:10024000EDFD753EF6177231BF000000803F0000E3
:100250002100240027002A002D0030003300010176
:100260000000040107010A01000022002500280007
:100270002B002E00310034000201000005010801AE
:100280000B01000020002300260029002C002F0075
:100290003200000100000301060109010505050502
:1002A000070508080808020202020A0A08080404EE
:1002B000040401010101010101010303030303031C
:1002C0000303040707070C0C0C0C0C0C0C0C0202AB
:1002D000020206060606060606060B0B0B0B0B0BA8
:1002E0000B0B010210202008081020401020408035
:1002F00002010201080402010102040810204080EA
:100300008040201008040201800402018040201077
:1003100008040201080402010102040810204080C0
:1003200001020408102040800000090A02080B0C9A
:100330000D0706030401000000000000000000009B
:1003400000000000000000000000000000000000AD
:100350000000000011100F0000000000000000006D
:1003600000000000000000000000000000001F046A
:100370005707EC0A6929B73A180411241FBECFEFBA
:10038000D1E2DEBFCDBF00E00CBF14E0A0E0B2E0E0
:10039000E4ECF9E800E00BBF02C007900D92A63C28
:1003A000B107D9F71BBE11E1A6ECB4E001C01D9264
:1003B000AF34B107E1F713E0C8E7D3E004C02297F8
:1003C000FE010E949A44CE36D107C9F70E94E2048A
:1003D0000C94D5440C940000CF93DF93BC01823081
:1003E000910510F462E070E0A0914D11B0914E11B2
:1003F000ED01E0E0F0E040E050E021C0888199812B
:100400008617970769F48A819B81309719F0938347
:10041000828304C090934E1180934D11FE0134C02D
:100420006817790738F44115510519F084179507B5
:1004300008F4AC01FE018A819B819C01E9012097AF
:10044000E9F641155105A9F1CA01861B970B0497DE
:1004500008F4BA01E0E0F0E02AC08D919C91119778
:1004600084179507F9F46417750781F412968D9136
:100470009C911397309719F09383828304C09093D3
:100480004E1180934D11FD0132964CC0CA01861B5E
:10049000970BFD01E80FF91F6193719302978D93FC
:1004A0009C9340C0FD01828193819C01D9011097EA
:1004B000A1F680914B1190914C11892B41F48091C0
:1004C000D5039091D60390934C1180934B1140919A
:1004D000D7035091D8034115510541F44DB75EB78C
:1004E0008091D3039091D403481B590B20914B1159
:1004F00030914C11CA01821B930B8617970780F02D
:10050000AB014E5F5F4F8417950750F0420F531FAA
:1005100050934C1140934B11F9016193719302C0B8
:10052000E0E0F0E0CF01DF91CF910895CF93DF932A
:10053000009709F450C0EC0122971B821A82A09107
:100540004D11B0914E11109709F140E050E0AC17F9
:10055000BD0708F1BB83AA83FE0121913191E20F0F
:10056000F31FAE17BF0779F48D919C911197280F57
:10057000391F2E5F3F4F3983288312968D919C91AE
:1005800013979B838A834115510571F4D0934E11C3
:10059000C0934D1120C012968D919C911397AD017F
:1005A000009711F0DC01D3CFFA01D383C2832191EC
:1005B0003191E20FF31FCE17DF0769F4888199812B
:1005C000280F391F2E5F3F4FFA01318320838A8124
:1005D0009B8193838283DF91CF910895A0E0B0E067
:1005E000E4EFF2E00C94A0446C01009729F4CB01F5
:1005F0000E94EC016C01C1C08EEF882E8FEF982E07
:100600008C0C9D1C8601060F171F0815190508F490
:10061000B2C0F401A081B181A617B707B8F0A53028
:10062000B10508F4AAC0CD0104978617970708F40E
:10063000A4C01297A61BB70BF801A193B193D401E4
:100640006D937C93CF010E94960297C07B01EA1ABA
:10065000FB0AEEEFFFEFEE0EFF1E36016A0E7B1E69
:10066000C0914D11D0914E1144245524AA24BB248D
:100670004AC0C615D705E1F5488159814E155F0579
:10068000B8F1CA0104978E159F05B0F41296A40F15
:10069000B51FF401B183A0832A813B814114510429
:1006A00031F0D20113963C932E93129766C030938B
:1006B0004E1120934D1161C08A819B81F801938373
:1006C0008283425050404E195F0951834083411448
:1006D000510431F0D20113961C930E93129704C06B
:1006E00010934E1100934D11F4017183608345C046
:1006F00088819981A816B90608F45C012E018A81C7
:100700009B819C01E901209709F0B3CF80914B11A7
:1007100090914C1186159705E9F4A616B706D0F40A
:100720002091D7033091D8032115310541F42DB71D
:100730003EB78091D3039091D403281B390B021745
:100740001307C8F410934C1100934B11D4016D930F
:100750007C9313C0CB010E94EC01EC01009759F08F
:10076000F40140815181B6010E94C303C6010E9479
:1007700096026E0102C0CC24DD24C601CDB7DEB7DF
:10078000E0E10C94BC44FB01DC0102C001900D923D
:1007900041505040D8F70895FB01DC0101900D92C3
:1007A0000020E1F70895FB019F01423074F04532CB
:1007B00064F4642F77270E946244805D8A330CF0D2
:1007C000895D8193CB010097A1F71082C9010C9438
:1007D000E903DC01FC01672F71917723E1F7329780
:1007E00004C07C916D9370836291AE17BF07C8F30C
:1007F00008958091D9039091DA0301969093DA03DA
:100800008093D90308958130910541F46F5F7F4F44
:1008100071F486EC94E00E94EE1D0895892B39F462
:100820006F5F7F4F21F486EC94E00E94E51D0895F0
:1008300080E090E06FEF7FEF0E940304089581E075
:1008400090E06FEF7FEF0E940304089580E18093B2
:1008500091001092900085E080939C0D86E998E9C4
:1008600090939B0D80939A0D9093970080939600A0
:1008700085E18093910089EF93E090939E0D8093A2
:100880009D0D81E08093710086EC94E00E940D162E
:1008900083EC90E160E072E00E94963D6FEF71E2C0
:1008A0006050724083EC90E14AE050E00E94773D56
:1008B00083EC90E165E072E00E94963D66EC74E0A6
:1008C0006050724083EC90E14AE050E00E94773D36
:1008D00083EC90E16CE072E00E94963D6FE471E180
:1008E000665C744083EC90E14AE050E00E94773D02
:1008F00083EC90E162E172E00E94963D60914B11C1
:1009000070914C116115710519F460E070E002C03E
:100910006F54714183EC90E14AE050E00E94773DD2
:1009200083EC90E168E172E00E94963D8DB79EB73E
:100930006FEF71E2681B790B83EC90E14AE050E0C5
:100940000E94773D83EC90E16FE172E00E94963D5A
:1009500080914B1190914C11009729F46DB77EB79F
:100960006F54714104C06DB77EB7681B790B83EC7F
:1009700090E14AE050E00E94773D089586EC94E0D3
:100980000E9452208091D9039091DA0369E170E0CE
:100990000E946244892BA9F48091180D882359F094
:1009A0008091190D882329F486EC94E00E94140E9E
:1009B00002C01092190D81E090E09093DA038093C9
:1009C000D9030895CF93DF930E94E6340E94260452
:1009D000C1E4D8E30E94BE042097E1F30E944138AD
:1009E000F9CFEAE7F0E09081987F90839081982B8F
:1009F0009083089520917A0030E027703070C9010B
:100A00000895EF92FF920F931F937B018C0180E179
:100A1000809381001092800060E074E284E799E4A2
:100A2000A80197010E949F4020E030E040E051E49F
:100A30000E9475420E940C419B01AC01203080E075
:100A4000380781E0480780E0580728F481E0809368
:100A5000980DB90155C0203080E0380788E048077C
:100A600080E0580768F482E08093980DDA01C901AC
:100A7000E3E0B695A79597958795EA95D1F714C0C9
:100A8000203080E0380780E4480780E0580770F4A1
:100A900083E08093980DDA01C90176E0B695A795B9
:100AA000979587957A95D1F7BC012AC0203080E0D0
:100AB000380780E0480781E0580740F484E08093DD
:100AC000980DBB27A52F942F832FEECF203080E0E9
:100AD000380780E0480784E0580768F485E0809391
:100AE000980DDA01C9012AE0B695A79597958795E3
:100AF0002A95D1F7D9CF85E08093980D6FEF7FEFDE
:100B0000709387006093860091E090936F008091CE
:100B10007B00887F80937B0080917B008660809340
:100B20007B009093820D80917A00806280937A009E
:100B3000E0928C0DF0928D0D00938E0D10938F0D21
:100B40001F910F91FF90EF900895882321F08091DD
:100B50007C00806203C080917C008F7D80937C004C
:100B600008958093820D882321F080917A0080621D
:100B700003C080917A008F7D80937A00089591E080
:100B80009093860D1092840D1092830D1092870D14
:100B900027E736E03093890D2093880D8093850DEB
:100BA00090917C00907F90937C0020917C00982F06
:100BB0009770922B90937C00883020F080917B007E
:100BC000886003C080917B00877F80937B000895BD
:100BD0008093850D90917C00907F90937C00209174
:100BE0007C00982F9770922B90937C00883020F097
:100BF00080917B00886003C080917B00877F809319
:100C00007B0008958091870D8F5F8093870D909171
:100C1000860D891711F41092870D8091870DE09150
:100C2000830DF091840DE80FF11D20812093850D37
:100C300080917C00807F80937C0090917C00822F4B
:100C40008770892B80937C00283020F080917B0076
:100C5000886003C080917B00877F80937B005091E8
:100C600078004091790020917E0D30917F0D809128
:100C7000800D9091810D28173907C0F58091820D64
:100C8000882329F480917A00806480937A00942FDD
:100C900080E0452F50E0482B592B80917C0085FF48
:100CA00011C080917E0D90917F0DE0917A0DF091B1
:100CB0007B0DE80FF91F5083019690937F0D809371
:100CC0007E0D089580917E0D90917F0D9C01220FE5
:100CD000331FE0917C0DF0917D0DE20FF31F5183E6
:100CE0004083019690937F0D80937E0D08955091DF
:100CF00078004091790020917E0D30917F0D809198
:100D0000800D9091810D28173907C0F58091820DD3
:100D1000882329F480917A00806480937A00942F4C
:100D200080E0452F50E0482B592B80917C0085FFB7
:100D300011C080917E0D90917F0DE0917A0DF09120
:100D40007B0DE80FF91F5083019690937F0D8093E0
:100D50007E0D089580917E0D90917F0D9C01220F54
:100D6000331FE0917C0DF0917D0DE20FF31F518355
:100D70004083019690937F0D80937E0D089550914E
:100D8000870D9091860D923050F1852F8F5F809363
:100D9000870D891711F41092870D8091870DE091CE
:100DA000830DF091840DE80FF11D20812093850DB6
:100DB00080917C00807F80937C0090917C00822FCA
:100DC0008770892B80937C00283020F080917B00F5
:100DD000886003C080917B00877F80937B00609157
:100DE00078004091790020917E0D30917F0D8091A7
:100DF000800D9091810D2817390718F58091820D8B
:100E0000882329F480917A00806480937A00942F5B
:100E100080E070E0682B792B80917C0085FF02C018
:100E2000672F7727E0918A0DF0918B0D852F19950B
:100E300080917E0D90917F0D019690937F0D809310
:100E40007E0D08951F920F920FB60F920BB60F9260
:100E500011242F933F934F935F936F937F938F93BF
:100E60009F93AF93BF93EF93FF93E091880DF09121
:100E7000890D1995FF91EF91BF91AF919F918F913E
:100E80007F916F915F914F913F912F910F900BBE8A
:100E90000F900FBE0F901F9018951F920F920FB6D4
:100EA0000F9211240F900FBE0F901F901895ECE732
:100EB000F0E080818F7380838081806480830895D7
:100EC0000F931F9300917C0010917B0080917C0018
:100ED000807E80937C0080917C008E6180937C007A
:100EE00080917B00877F80937B0063E070E080E0EF
:100EF00090E00E94833480917A00806480937A002D
:100F000080917A0086FDFCCF209178004091790095
:100F100000937C0010937B00742F60E030E0622B24
:100F2000732B882777FD8095982F0E943A419B016B
:100F3000AC0160E070E889E894E40E949F401F9152
:100F40000F910895AF92BF92CF92DF92EF92FF92EE
:100F50000F931F930E945D345B016C0180917A00B6
:100F6000877D80937A0080917B008770863029F49A
:100F700080918100887F809381006091800D7091C5
:100F8000810D80E090E00E94384120E034E244E7A7
:100F900059E40E9475427B018C018091940D9091DF
:100FA000950DA091960DB091970DA81AB90ACA0A8D
:100FB000DB0AC601B5010E9438419B01AC01C801A2
:100FC000B7010E949F406093900D7093910D8093A4
:100FD000920D9093930D1F910F91FF90EF90DF90E2
:100FE000CF90BF90AF90089510927F0D10927E0D1C
:100FF0008091820D882321F080917A00806203C065
:1010000080917A008F7D80937A000E945D34609396
:10101000940D7093950D8093960D9093970D8091FC
:101020007A00886C80937A0080917B00877086308C
:1010300081F480918100887F8093810010928500E7
:1010400010928400809181009091980D892B80935B
:1010500081000895F999FECF72BD61BDF89A80B5FF
:101060000895F999FECF1FBA72BD61BD40BD0FB69C
:10107000F894FA9AF99A0FBE0895FC011386158622
:10108000148687E090E012863197009711F001975F
:10109000FACF0895DF92EF92FF920F931F93FC0116
:1010A000E08001811281F894F80181818E29818389
:1010B0008281DE2CD0948D21828383E090E00E9497
:1010C000DC34F80181818D2181838AE090E00E94E7
:1010D000DC34F8010081789485E390E00E94DC34F0
:1010E00080E010E0FF240E211F21012B09F081E098
:1010F0001F910F91FF90EF90DF900895EF92FF9274
:101100000F931F93CF93DF937C0101E010E0C0E0C9
:10111000D0E0C7010E944A088111102B000F2196D0
:10112000C830D105B1F7812FDF91CF911F910F9179
:10113000FF90EF9008951F93CF93DF93FC011081F0
:10114000C181D281912F909560FF12C0F8948A815D
:1011500089238A838981812B89838AE090E00E9498
:10116000DC348A81812B8A83789487E390E011C0F4
:10117000F8948A8189238A838981812B898381E4F8
:1011800090E00E94DC348A81812B8A83789485E008
:1011900090E00E94DC34DF91CF911F910895CF92AF
:1011A000DF92EF92FF920F931F93CF93DF938C0107
:1011B000E42EFF24F394C0E0D0E0C62EDD2460E0EE
:1011C0008F2D90E08C219D21892B09F061E0C801D1
:1011D0000E949B08FF0C2196C830D10581F7EE20B4
:1011E000A9F4F894D8011196ED91FC911297918190
:1011F0008C918095982391831196ED91FC91129793
:1012000092818C918095982392837894DF91CF91ED
:101210001F910F91FF90EF90DF90CF900895EF9284
:10122000FF920F931F93CF93DF938C017B0165E5B2
:1012300040E00E94CF08C0E0D0E0F701EC0FFD1FB6
:10124000C801608140E00E94CF082196C830D105D6
:10125000A1F7DF91CF911F910F91FF90EF9008952B
:10126000DF92EF92FF920F931F93CF93DF93FC01D6
:101270000081C181D281F8948981D02ED0948D21B2
:10128000898378941DE7E02EFF24115059F182E004
:1012900090E00E94DC34888190E08E219F21892B90
:1012A000A1F3F8948A818D218A838981802B898397
:1012B000789480EE91E00E94DC34F89489818D214D
:1012C000898386E490E00E94DC34888110E090E01D
:1012D000E822F922EF2809F411E078948AE991E0F4
:1012E0000E94DC34812FDF91CF911F910F91FF90ED
:1012F000EF90DF900895AF92BF92DF92EF92FF924E
:101300000F931F93CF93DF93EC015B018D858823AF
:1013100009F061C0CE010E943009882329F41B86A0
:101320001D861C8690E06BC0CE0160EF40E00E94FD
:10133000CF0801E0DD24EE24FF24F394CE010E94C7
:101340004A08182FCE010E944A08113019F4813042
:10135000E1F439C0181709F58B85081770F460E0BF
:10136000FE01EE0DF11D838190E02F2D30E08223F0
:101370009323181619064CF003C060E0081729F0F3
:10138000093008F04CC00C874AC0FE01EE0DF11D7B
:1013900083818F29838361E009C0612FFE01EE0DF7
:1013A000F11D9F2D9095838189238383CE010E9417
:1013B0009B080F5FFF0C19F4E394FF24F39487E07C
:1013C0008E1508F0BBCF013430F0DB86DD2011F53F
:1013D00081E08D871FC01B861D861C8690E0DE0184
:1013E00020E030E0F501E20FF31F13968C91139784
:1013F00080832F5F3F4F11962830310599F7892F51
:10140000DF91CF911F910F91FF90EF90DF90BF90F0
:10141000AF9008958B818823F1F291E0E0CFD02E38
:10142000BDCFFF920F931F938C01F62E862F60E0A5
:101430000E942B368F2D90E0FC01EE51FD4FE49180
:10144000D801EC9384569D4FFC016491E62FF0E0A7
:10145000EE0FFF1FEE57FD4F8591949112969C93CE
:101460008E9311971B961C921B971D961C921D978D
:101470001C961C92F80187E090E012863197009745
:1014800011F00197FACF1F910F91FF9008958823D3
:1014900019F48CB5806202C08CB58F7D8CBD089527
:1014A0009CB5937F982B9CBD08952CB5382F337035
:1014B0002C7F322B3CBD2DB590E095958795959569
:1014C000879581702E7F822B8DBD089585E361E025
:1014D0000E94DE3685E361E00E942B368CB5806188
:1014E0008CBD8CB580648CBD84E361E00E942B369A
:1014F00083E361E00E942B3608951F920F920FB68E
:101500000F920BB60F9211242F933F934F935F933B
:101510006F937F938F939F93AF93BF93EF93FF93BB
:10152000E0919D0DF0919E0D1995FF91EF91BF9166
:10153000AF919F918F917F916F915F914F913F916B
:101540002F910F900BBE0F900FBE0F901F9018950C
:1015500081E08093E40D6093C10D1092E20D109232
:10156000E30D089581E08093E40D6093C10D109226
:10157000E20D1092E30D08952091C00D30E08091AE
:10158000BF0D281B3109C90108954091BF0D8091FD
:10159000C00D481718F02FEF3FEF0AC0E42FF0E01E
:1015A000E156F24F8081282F30E04F5F4093BF0D0E
:1015B000C9010895E091BF0D8091C00DE81718F0A2
:1015C000EFEFFFEF06C0F0E0E156F24F8081E82F29
:1015D000F0E0CF01089508951092E80D1092E70D04
:1015E00088EE93E0A0E0B0E08093E90D9093EA0DDF
:1015F000A093EB0DB093EC0D80EE93E09093E60D8D
:101600008093E50D0895CF92DF92EF92FF920F93B2
:101610001F93CF93DF937C016B018A018091E40DCE
:101620008823A1F0C0E0D0E00DC0D701ED91FC917E
:10163000D601AC0FBD1F0190F081E02DC7016C9168
:1016400019952196C017D10780F304C0CB01642FF0
:101650000E944F0CC801DF91CF911F910F91FF9015
:10166000EF90DF90CF900895DF93CF930F92CDB797
:10167000DEB7FC0169838091E40D8823C9F0809175
:10168000E30D803238F081E090E09383828320E0A4
:1016900030E015C08091E20DE82FF0E0EE53F24FFC
:1016A000998190838F5F8093E20D8093E30D05C055
:1016B000CE01019661E00E944F0C21E030E0C901AB
:1016C0000F90CF91DF9108950F93062F8091C10D58
:1016D00062EC7DE04091E30D21E00E94FA0B109254
:1016E000E20D1092E30D1092E40D0F91089561E068
:1016F0000E94640B0895413208F040E2862F6FE9A2
:101700007DE00E94B10B1092BF0D8093C00D089533
:1017100021E00E947B0B089521E00E947B0B08953D
:101720001092BF0D1092C00D1092E20D1092E30DB9
:101730000E949B0B08951092F10D81E08093F30DB0
:101740001092F40DE9EBF0E080818E7F8083808140
:101750008D7F808388E48093B80085E48093BC000B
:101760000895382F413210F040E042C08091F10DD1
:101770008823E1F791E09093F10D2093F30D8FEF23
:1017800080935E0E1092190E415040931A0E4F5FD7
:101790009093F20D8091F20D330F832B8093F20D15
:1017A0008091F40D813041F41092F40D8091F20D8E
:1017B0008093BB0085EC01C085EE8093BC008091D6
:1017C000F10D8130E1F38091190E841710F44091EE
:1017D000190E20E030E00AC0FB01E20FF31FD9012F
:1017E000A750B24F8C9180832F5F3F4F2417A0F3F7
:1017F000842F08950F931F93582F122F413210F00A
:1018000081E04AC08091F10D8823E1F782E0809366
:10181000F10D0093F30D8FEF80935E0E1092190E71
:1018200040931A0EA9EFBDE0FB0102C081918D9398
:101830008E2F861B8417D0F31092F20D8091F20D3B
:10184000550F852B8093F20D8091F40D813041F47A
:101850001092F40D8091F20D8093BB0085EC01C0D5
:1018600085EE8093BC00112321F08091F10D823030
:10187000E1F380915E0E8F3F11F480E00DC0809106
:101880005E0E803211F482E007C080915E0E8033DC
:1018900011F084E001C083E01F910F910895482F5B
:1018A000613210F081E008958091F10D843011F0E3
:1018B00082E0089560933C0EABE1BEE0842F9C0172
:1018C000F90102C081918D938E2F841B8617D0F36E
:1018D00080E008951F920F920FB60F920BB60F92F1
:1018E00011242F933F934F935F936F937F938F9325
:1018F0009F93AF93BF93EF93FF938091B90090E0D4
:10190000887F90708036910509F4F2C08136910588
:10191000CCF58832910509F47BC089329105B4F485
:101920008031910509F46FC0813191053CF4009735
:1019300009F447C1089709F04FC165C08831910586
:1019400009F466C0809709F047C182C080349105D0
:1019500009F4A4C08134910544F48033910509F45D
:1019600082C0C89709F038C189C08035910509F453
:1019700089C08835910509F496C08834910509F02D
:101980002BC1AEC08839910509F413C1893991057D
:10199000ECF48837910509F4ABC0893791054CF414
:1019A0008836910509F4A4C08037910509F014C167
:1019B0009FC08838910509F4FCC08039910509F46D
:1019C0009DC08038910509F007C198C0803B910502
:1019D00009F4C6C0813B91054CF4803A910509F4A5
:1019E0009FC0883A910509F0F7C0BAC0803C9105C4
:1019F00009F4E3C0883C910509F4DFC0883B9105F8
:101A000009F0EAC0C2C08091F20D8093BB00CFC044
:101A10009091190E80911A0E981768F49091190EF2
:101A2000E92FF0E0E750F24F80818093BB009F5F89
:101A30009093190EBCC08091F30D882309F44BC01C
:101A400085ED8093BC008091BC0084FDFCCFC2C0BA
:101A500080E280935E0E85ED8093BC008091BC0097
:101A600084FDFCCFB7C080E380935E0E85ED80934C
:101A7000BC008091BC0084FDFCCFACC088E38093A7
:101A80005E0E9BC08091190E9091BB00E82FF0E094
:101A9000E750F24F90838F5F8093190E9091190E4B
:101AA00080911A0E82C08091190E9091BB00E82F90
:101AB000F0E0E750F24F90838F5F8093190E809192
:101AC000F30D882341F085ED8093BC008091BC002C
:101AD00084FDFCCF7FC081E08093F40D84EA6EC06A
:101AE00085ED8093BC008091BC0084FDFCCF72C06A
:101AF00083E08093F10D10925D0E59C080915D0ED0
:101B0000803208F056C080915D0E9091BB00E82FA6
:101B1000F0E0E35CF14F90838F5F80935D0E47C0F0
:101B200080915D0E803230F4E0915D0EF0E0E35C78
:101B3000F14F108285ED8093BC008091BC0084FD44
:101B4000FCCF1092F10D60915D0EE091F70DF091D8
:101B5000F80D8DE39EE070E0199510925D0E2DC09A
:101B600084E08093F10D10923B0E10923C0EE091B8
:101B7000F50DF091F60D199580913C0E882329F40E
:101B800081E080933C0E10921B0E90913B0EE92F4A
:101B9000F0E0E55EF14F80818093BB009F5F909302
:101BA0003B0E90913B0E80913C0E981710F485EC03
:101BB00001C085E88093BC000FC085EC8093BC0019
:101BC00009C010925E0E85ED8093BC008091BC0030
:101BD00084FDFCCF1092F10DFF91EF91BF91AF9179
:101BE0009F918F917F916F915F914F913F912F9135
:101BF0000F900BBE0F900FBE0F901F9018958CEE9C
:101C000093E0089581E094E0089585E094E00895DC
:101C10008CE194E0089586E394E0089582E494E0F2
:101C200008958CE292E008950F931F938C0188E051
:101C300061E00E94DE360C5A174FF80110821F91A6
:101C40000F910895FF920F931F93F62E142F022FDA
:101C5000862F60E00E94DE361EBD0DB407FEFDCF6C
:101C60008EB50EBD0DB407FEFDCF8EB58F2D61E094
:101C70000E94DE361F910F91FF900895362F242F7A
:101C8000643010F085E00895209565E3432F0E94AD
:101C9000220E80E00895AF92BF92CF92DF92EF9232
:101CA000FF920F931F93CF93DF93EC015A016B01C7
:101CB000C05AD74FE880F9800A811B81C056D840AE
:101CC000CB01BA0120E030E040E050E00E949B40B0
:101CD00087FD48C0FE01E055F74FC601B5012081E0
:101CE0003181428153810E942C421816DCF1C601D9
:101CF000B501A80197010E949F409B01AC010E9481
:101D0000244023EF34E045EB5FE30E94754220E07E
:101D100030E040E85EE30E94754220E030E04FE7AB
:101D200053E40E9475427B018C0120E030E04FE7D4
:101D300053E40E942C421816ACF0C85AD74FA88220
:101D4000B982CA82DB82C855D840C801B7010E9457
:101D50000C419B01AC01CE0163E0422F0E943E0E7C
:101D600080E001C088E0DF91CF911F910F91FF903B
:101D7000EF90DF90CF90BF90AF900895FC01E05AB4
:101D8000F74F408351836283738338974081518139
:101D900062817381E855F840CF0120E00E944B0E2C
:101DA00008959F92AF92BF92CF92DF92EF92FF92EF
:101DB0000F931F93CF93DF93EC015A016B01FC014A
:101DC000E855F74F608171818281938124EA30E781
:101DD0004DE75FE30E9475429B01AC01C601B5016E
:101DE0000E942C4288230CF4B7C0FE01E455F74F43
:101DF00060817181828193812EEA37E441E85FE35B
:101E00000E9475429B01AC01C601B5010E949B4036
:101E100018160CF4A1C0C601B50120E030E048E47A
:101E200052E40E9475427B018C0120E030E04AE7D9
:101E300054E40E949B4087FD8FC0C801B70120E297
:101E400033EB41E85CE40E942C4218160CF484C089
:101E5000C801B70120E030EE41E854E40E949F4001
:101E60000E94354226EA3BE944E550E40E9475426F
:101E70002EE83DE543E150E40E949F400E940C4162
:101E8000962E70E0665F7F4F882777FD8095982FAC
:101E90000E943A419B01AC0160E070E080E090E478
:101EA0000E94D8429B01AC01CA01B90120E030EE8A
:101EB00041E055EC0E947542A80197010E949F40A5
:101EC00020E030E040E055E40E9424407B018C019A
:101ED00020E030E040E050E00E942C4288234CF0AB
:101EE000C801B70120E030E040E05FE30E942440F9
:101EF00008C0C801B70120E030E040E05FE30E9485
:101F000023400E9407418B0185EE9DE067E10E941E
:101F1000A80AC80126E0969587952A95E1F792943C
:101F200090EF9922982A85EE9DE0692D0E94340B4E
:101F3000602F660F660F626085EE9DE00E94340B95
:101F400085EE9DE00E94770BC45AD74FA882B982D4
:101F5000CA82DB8280E001C088E0DF91CF911F91CF
:101F60000F91FF90EF90DF90CF90BF90AF909F9038
:101F70000895BF92CF92DF92EF92FF920F931F933B
:101F8000CF93DF93EC01B62E35E6E32E38E0F32E47
:101F9000E80EF91E6C0100E010E0E881F981B8015B
:101FA0006C597F4F0088F189E02DC6011995F70122
:101FB000E00FF11F80830F5F1F4F0F34110569F78A
:101FC000CB59D74F88819981C556D840892B39F58F
:101FD000C959D74F88819981C756D840892BF9F4C0
:101FE0009E012759374FF90180819181892BB9F4DE
:101FF000FE01E156F74FC05AD74F88819981AA81D7
:10200000BB81C056D84080839183A283B38381E093
:1020100090E0F90191838083CE010E94AE11CB59EB
:10202000D74F88819981C556D840892BE1F4C95989
:10203000D74F88819981C756D840892BA1F4FE01DA
:10204000E759F74F80819181019769F4C459D74FBF
:1020500080E28883CC56D84082E090E091838083F0
:10206000CE010E94AE11CB59D74F88819981C556B8
:10207000D840892B11F5C959D74F88819981C75606
:10208000D840892BD1F4FE01E759F74F8081918127
:10209000029799F4CD55D74F80E090E0A0EAB0E4E4
:1020A00088839983AA83BB83C35AD84083E090E096
:1020B00091838083CE010E94AE11CB59D74F888186
:1020C0009981C556D840892BD9F4C959D74F8881F1
:1020D0009981C756D840892B99F4FE01E759F74FEB
:1020E00080819181039761F4C955D74F1882C75AEF
:1020F000D84084E090E091838083CE010E94AE11AD
:10210000CB59D74F88819981C556D840892B91F5F5
:10211000C959D74F88819981C756D840892B51F525
:10212000FE01E759F74F80819181049719F5C85551
:10213000D74F80E090E0A8ECB2E489939993A993FB
:10214000B99380E090E4ACE9B6E489939993A993BC
:10215000B99380E090E0A8E4B3E488839983AA83EC
:10216000BB83C05BD84085E090E091838083CE0143
:102170000E94AE11CB59D74F88819981C556D8405E
:10218000892B99F4C959D74F88819981C756D8406E
:10219000892B59F4C759D74F88819981C956D8409E
:1021A000059719F4BB2009F49EC0CB59D74F19925B
:1021B00019921992199285E090E0899399938FEF83
:1021C000888323968CE7888380E78A93229680E031
:1021D0009CE7A2E9B8E489939993A993B99380E025
:1021E00092E2A1EAB8E488839983AA83BB832C9600
:1021F00080E090E0AAE7B4E489939993A993B99316
:1022000080E090E4ACE1B6E489939993A993B99303
:1022100080E090E5A3ECB7E489939993A993B993EF
:1022200080E094E2A4E7B9E488839983AA83BB831E
:10223000649780E090E0A0E0B0E089939993A9933F
:10224000B99388839983AA83BB8364968FEF96EEB4
:10225000ABE5BEE289939993A993B9938993999336
:10226000A993B99389939993A993B99388839983EF
:10227000AA83BB83CB59D840FE01E156F74FC05A21
:10228000D74F88819981AA81BB8180839183A28362
:10229000B3832C9680E28883E79680E090E0A0EA02
:1022A000B0E489939993A993B993199280E090E04F
:1022B000A8ECB2E489939993A993B99380E090E450
:1022C000ACE9B6E489939993A993B99380E090E03F
:1022D000A8E4B3E488839983AA83BB83C05BD84016
:1022E000CE010E94AE11C156D74FE880F9800A8115
:1022F0001B81CF59D840C801B70120E030E040E051
:1023000050E00E949B40FE01EC59F74F18161CF05C
:1023100081E0808309C0C05AD74FE882F9820A83DE
:102320001B83C056D8401082C955D74F8881C75AE1
:10233000D840882321F0CE0160E042E003C0CE0106
:1023400060E041E00E94C533DF91CF911F910F9172
:10235000FF90EF90DF90CF90BF900895CF92DF92E3
:10236000EF92FF920F931F93CF93DF938C0145E67B
:10237000E42E48E0F42EE80EF91E6C01C0E0D0E037
:10238000F701EC0FFD1FC601CC59DF4FBE014081A4
:102390000E94441FC356D040CF34D10589F7C801ED
:1023A00060E00E94B90FDF91CF911F910F91FF90D4
:1023B000EF90DF90CF9008957F928F929F92AF928F
:1023C000BF92CF92DF92EF92FF920F931F93DF9312
:1023D000CF930F920F92CDB7DEB75C019B01742EA5
:1023E000CB0168E270E00E946244862EC90168E277
:1023F00070E00E9462446C0163E0969587956A954F
:10240000E1F7982E082D10E05CE6E52E58E0F52E59
:10241000EA0CFB1CF7018081B801680F711D85EE85
:102420009DE00E94B20A692D70E0685F7F4F85EEE3
:102430009DE00E94340B85EE9DE00E94770BF70132
:102440008081080F111D85EE9DE0B80141E050E04C
:102450000E94880B85EE9DE00E94BC0A892B11F436
:1024600081E03BC00C2D0770F8E09F0E998285EE4D
:102470009DE00E94C50A282F772071F481E090E04A
:10248000A0E0B0E004C0880F991FAA1FBB1F0A95E7
:10249000D2F7282B2A830EC081E090E0A0E0B0E0C4
:1024A00004C0880F991FAA1FBB1F0A95D2F78095F9
:1024B00082238A838CE698E0A80EB91EF50160811C
:1024C00084E997EFA80EB91E680DC501AE014F5FF4
:1024D0005F4F22E00E946D1F80E00F900F90CF9120
:1024E000DF911F910F91FF90EF90DF90CF90BF9001
:1024F000AF909F908F907F9008954F925F926F92D0
:102500007F928F929F92AF92BF92CF92DF92EF9283
:10251000FF920F931F93DF93CF930F920F92CDB73C
:10252000DEB78C012C01EE24A5E58A2EA8E09A2EB8
:10253000880E991EF5E4CF2EF8E0DF2EC80ED91EC6
:10254000ECE6AE2EE8E0BE2EA80EB91E3E010894C1
:10255000611C711C33C078E0F72E30E040E050E0A1
:10256000F60180819181F801E80FF91FE259FF4FD0
:1025700020810196F6019183808380E090E0222300
:1025800011F481E090E0042E02C0880F991F0A9494
:10259000E2F7380F4F5F5F4F4830510509F73A8334
:1025A000F50160816E0DF982C201A30122E00E9453
:1025B0006D1FF394FDE0FF1681F6E3942E2D30E0BD
:1025C000F4018081918168E270E00E9462442617E4
:1025D000370708F20F900F90CF91DF911F910F9165
:1025E000FF90EF90DF90CF90BF90AF909F908F9033
:1025F0007F906F905F904F90089588E060E00E9418
:10260000DE3664EF71E080E090E00E94833408954C
:102610002F923F924F925F926F927F928F929F92F2
:10262000AF92BF92CF92DF92EF92FF920F931F93E0
:10263000DF93CF93CDB7DEB7E2970FB6F894DEBF46
:102640000FBECDBF7C0184E598E0E80EF91E81E065
:10265000D7018C93ECEAF7EFEE0EFF1EC7010E9444
:10266000FD12D701ED91FC910680F781E02DC701A5
:102670001995BC0183EC90E10E94963D83EC90E1BA
:1026800060E372E00E94963DD701ED91FC910484D5
:10269000F585E02DC7011995BC0183EC90E10E94FE
:1026A000933E83EC90E163E372E00E94963DD70194
:1026B000ED91FC910284F385E02DC7011995BC01D1
:1026C00083EC90E10E94933EE9AAFAAAC7010E9416
:1026D000911F83EC90E166E472E00E94963DE5E68E
:1026E000F8E0EE0EFF1ED7016D917D917D0183EC28
:1026F00090E14AE050E00E94C63C83EC90E16DE539
:1027000072E00E94963DF701619171917F0183EC27
:1027100090E14AE050E00E94C63C83EC90E16DE518
:1027200072E00E94963DD7016D917C91E7E9F7EF49
:10273000EE0EFF1E83EC90E14AE050E00E94D73C91
:1027400083EC90E16FE572E00E94963DF701E55958
:10275000F74F83EC90E160814AE050E00E94063D33
:1027600083EC90E165E672E00E94963DF701E35943
:10277000F74F83EC90E160814AE050E00E94063D13
:1027800083EC90E165E772E00E94963DF701E25923
:10279000F74F83EC90E160814AE050E00E94063DF3
:1027A00010E0E3E02E2E312C2C0E3D1E71E1472E61
:1027B000512C4C0E5D1E6FE1662E712C6C0E7D1E31
:1027C00058E1852E912C8C0E9D1E46E2A42EB12C34
:1027D000AC0EBD1ECFC0CE010A966BE772E00E9420
:1027E000B23FC101612F4AE00E94E53FCE010A9647
:1027F000B1010E947B3F6DE772E00E945F3F98ABA2
:102800008FA7C2016D2D4AE00E94E53F8FA598A9D0
:10281000B2010E947B3F61E972E00E945F3FBC0110
:1028200083EC90E10E94A63EC2010E941740C101C4
:102830000E941740CE010A960E941D40112339F0D4
:10284000113081F040E050E060E070E019C0ED2D03
:10285000F0E0EE0FFF1FEE0FFF1FEE0DFF1DE15921
:10286000F74F0AC0ED2DF0E0EE0FFF1FEE0FFF1F38
:10287000EE0DFF1DE158F74F408151816281738158
:1028800083EC90E122E030E00E94803EC3016BE7E0
:1028900072E00E94B23FC401612F4AE00E94E53F0E
:1028A000C301B4010E947B3F64E972E00E945F3F74
:1028B0009EA78DA7C5016D2D4AE00E94E53F8DA51D
:1028C0009EA5B5010E947B3F61E972E00E945F3FD7
:1028D000BC0183EC90E10E94A63EC5010E94174016
:1028E000C4010E941740C3010E941D40112339F00A
:1028F000113081F060E070E080E090E019C0ED2DD3
:10290000F0E0EE0FFF1FEE0FFF1FEE0DFF1DE95869
:10291000F74F0AC0ED2DF0E0EE0FFF1FEE0FFF1F87
:10292000EE0DFF1DE157F74F608171818281938128
:1029300025EA34ED48E653E50E947542AB01BC013F
:1029400083EC90E122E030E00E947D3E83EC90E158
:1029500069EA72E00E94933ED394112321F0113072
:1029600031F484E001C082E0D81608F434CF1F5F50
:10297000123011F0DD24F1CF83EC90E16DEA72E0CA
:102980000E94963D0CE6C02E08E0D02ECE0CDF1C37
:1029900083EC90E1D6016C914AE050E00E94063D44
:1029A00083EC90E16AEC72E00E94963DEFE9F8E07A
:1029B000EE0EFF1ED7014D915D916D917D917D01D0
:1029C00083EC90E122E030E00E94803E83EC90E1D5
:1029D0006AED72E00E94963DF7014191519161913B
:1029E00071917F0183EC90E122E030E00E94803E13
:1029F00083EC90E16DEE72E00E94963DD7016C9100
:102A000083EC90E170E04AE050E00E94773D83EC77
:102A100090E166E073E00E94963DEDEBFFEFEE0E75
:102A2000FF1ED7016C9183EC90E170E04AE050E02A
:102A30000E94773D83EC90E162E273E00E94963D54
:102A4000E4E4F0E0EE0EFF1ED7014D915D916D9133
:102A50007D917D0183EC90E122E030E00E94803E98
:102A600083EC90E16AE373E00E94963DF7014191A7
:102A70005191619171917F0183EC90E122E030E00E
:102A80000E94803E83EC90E162E573E00E94963DF7
:102A9000D7014D915D916D917C91E0E5F7EFEE0EE0
:102AA000FF1E83EC90E122E030E00E94803EF701BF
:102AB000EB5AF74F11821082AA24BB2418E2812E10
:102AC000912CB8E12B2E33243A943E010894611CDA
:102AD000711C2F011A2D29823A82D6016C916A0D40
:102AE00089A99AA9A30122E00E946D1FF6016081C5
:102AF0006A0D89A99AA9A30121E00E944E1F89812C
:102B00008F3F09F047C000E0085E098308511A8230
:102B1000D6016C91610F89A99AA9A30122E00E94B4
:102B20006D1FF6016081610F89A99AA9A30121E0B7
:102B30000E944E1F8981882369F5085F09833A82C4
:102B4000D6016C91610F89A99AA9A30122E00E9484
:102B50006D1F07500530C1F683EC90E168E673E025
:102B60000E94963D83EC90E1B5014AE050E00E945E
:102B7000643D83EC90E162E773E00E94933E940130
:102B800028523040F201808191818217930711F41D
:102B9000918280820894A11CB11C88E290E0880E8A
:102BA000991E98E0A916B10409F094CFA5E5B8E004
:102BB000EA0EFB1EF701608171818BEA97EFE80E48
:102BC000F91E83EC90E14AE050E00E94C63C83ECA1
:102BD00090E16EE773E00E94933EC70140E050E44D
:102BE0006CE176E40E94D10EE2960FB6F894DEBF57
:102BF0000FBECDBFCF91DF911F910F91FF90EF904E
:102C0000DF90CF90BF90AF909F908F907F906F900C
:102C10005F904F903F902F9008950F931F938C01DA
:102C20000E94C91F88E061E00E94DE3688E061E012
:102C30000E942B3685E361E00E942B3689E061E03B
:102C40000E942B3689E060E00E94DE36C80160E019
:102C50000E94B90FF801E559F74FC80160E04081C3
:102C60000E943E0EF801E259F74FC80161E0408131
:102C70000E943E0EF801E359F74FC80162E040811F
:102C80000E943E0EC80163E040E00E943E0E005AE2
:102C9000174F80E090E0A6E9B3E4F80180839183C8
:102CA000A283B3831F910F9108952F923F924F9269
:102CB0005F926F927F928F929F92AF92BF92CF92CC
:102CC000DF92EF92FF920F931F93DF93CF93CDB7D5
:102CD000DEB765970FB6F894DEBF0FBECDBF3C01DF
:102CE0006B8B23E538E0620E731E81E0D3018D9378
:102CF0003D018C91ECEAF7EF6E0E7F1E882319F4EC
:102D0000C3010E940813FB898F2F90E0FC01E05A59
:102D1000F040E635F10508F030C7EE58FF4FEE0FF2
:102D2000FF1F0590F491E02D199420E438E0620E25
:102D3000731ED3018D919C91E0ECF7EF6E0E7F1E18
:102D4000830104591F4F892B09F0DDC6B3016B5A6B
:102D5000774FC30142E050E02DC120E438E0620E1D
:102D6000731ED3018D919C91E0ECF7EF6E0E7F1EE8
:102D7000830104591F4F892B09F0C5C6D8011C9245
:102D80006C8A7D8ACC24E5E58E2EE8E09E2E860CAA
:102D9000971C7CE6272E78E0372E260C371C58012E
:102DA00054C068E0D62E2901F1018081B201680F7C
:102DB000711D85EE9DE00E94B20A85EE9DE06D2DAD
:102DC0000E94340B85EE9DE00E94770BD1018C911F
:102DD000B201680F711D85EE9DE041E050E00E9458
:102DE000880B85EE9DE00E94BC0A892B21F185EEBF
:102DF0009DE00E94C50A00E010E0E82EFF24C70114
:102E0000002E02C0959587950A94E2F7E1E0F0E084
:102E10008E279F27817089838C899D89BE016F5F72
:102E20007F4F41E050E00E94081E0F5F1F4F0830A7
:102E3000110529F704C0E1E0D501EC9305C0D39456
:102E4000FDE0DF1609F0B0CFC3942C2D30E0D401A3
:102E50008D919C9168E270E00E94624426173707CA
:102E600008F49FCF8AC6F301E05CF74F25E538E010
:102E7000620E731E20813181D3018D919C91EBEA0A
:102E8000F7EF6E0E7F1E830104591F4F2817390775
:102E900009F039C6C3010E947D12D8011C926DC68B
:102EA00020E438E0620E731ED3018D919C91E0EC1A
:102EB000F7EF6E0E7F1E029709F054C6D301AB5B8D
:102EC000B74F8D919C91119782599F4FF301E80F55
:102ED000F91F0190F081E02D8C5690408D939C93CA
:102EE00025E538E0620E731ED3018D919C912BEA8B
:102EF00037EF620E731EE817F90730F04CE650E02A
:102F0000640E751E85E033C6CF0168E270E00E9452
:102F100062446C01CF0168E270E00E946244062FB7
:102F200010E05CE6E52E58E0F52EE60CF71CD70124
:102F30008C91B801680F711D85EE9DE00E94B20A68
:102F4000B60143E0769567954A95E1F770E0685FD2
:102F50007F4F85EE9DE00E94340B85EE9DE00E9440
:102F6000770BF7018081080F111D85EE9DE0B801F8
:102F700041E050E00E94880B85EE9DE00E94BC0A73
:102F8000830104591F4F892BC1F085EE9DE00E94FB
:102F9000C50A90E02C2D277002C0959587952A953B
:102FA000E2F7809581708983C301BE016F5F7F4F17
:102FB00041E050E00E94081E70CF81E0F80180835C
:102FC000DCC520E438E0620E731ED3018D919C9124
:102FD000E0ECF7EF6E0E7F1E039709F0C3C5D30137
:102FE000AB5BB74F8D919C911197FC01E259FF4F5C
:102FF000E60DF71D60817181F301E80FF91FE059BB
:10300000FF4F408103968D939C9325E538E0620E37
:10301000731ED3018D919C91EBEAF7EF6E0E7F1E2C
:10302000830104591F4F6817790708F09CC2C30138
:103030000E94DC1123C520E438E0620E731ED30128
:103040008D919C91E0ECF7EF6E0E7F1E8301045989
:103050001F4F892B09F057C5D8011C9289E00E94A7
:103060001137AFC420E438E0620E731ED3018D9196
:103070009C91E0ECF7EF6E0E7F1E019709F072C590
:10308000D301AB5BB74F8D919C911197F301E80F82
:10309000F91FE259FF4F608101968D939C93830144
:1030A00004591F4F623020F489E00E94DE36F5CECD
:1030B00088E084CF20E438E0620E731ED3018D9146
:1030C0009C91E0ECF7EF6E0E7F1E830104591F4FB9
:1030D000892B09F018C5D8011C92B301685A774FA3
:1030E000C30144E050E00E94081E47C520E438E0D8
:1030F000620E731ED3018D919C91E0ECF7EF6E0E82
:103100007F1E830104591F4F049709F0FCC4D301AB
:10311000AB5BB74F8D919C91119782599F4FF301F3
:10312000E80FF91F40815181628173818A56904076
:103130008D939C93C30121E00E944B0E9FC420E419
:1031400038E0620E731ED3018D919C91E0ECF7EF95
:103150006E0E7F1E830104591F4F892B09F0D3C4C3
:10316000D8011C92B301645A774FBACF20E438E0FB
:10317000620E731ED3018D919C91E0ECF7EF6E0E01
:103180007F1E830104591F4F049709F0BCC4D3016B
:10319000AB5BB74F8D919C91119782599F4FF30173
:1031A000E80FF91F40815181628173818A569040F6
:1031B0008D939C93C3010E94D10E60C420E438E03B
:1031C000620E731ED3018D919C91E0ECF7EF6E0EB1
:1031D0007F1E019709F0C6C4D301AB5BB74F8D9139
:1031E0009C911197F301E80FF91FE259FF4F2081DD
:1031F00001968D939C93830104591F4F223008F050
:10320000B2C130E08BE190E0289FF001299FF00DE2
:10321000389FF00D1124EC59F14F81818983D80139
:103220001C92C301BE016F5F7F4F41E050E05BCF56
:1032300020E438E0620E731ED3018D919C91E0EC86
:10324000F7EF6E0E7F1E830104591F4F029709F09E
:103250005AC4D301AB5BB74F2D913C911197F30149
:10326000E20FF31FE259FF4F80812F5F3F4FF301C1
:10327000E20FF31FE259FF4F60812F5F3F4F2D9305
:103280003C930E949D2DFAC320E438E0620E731E29
:10329000D3018D919C91E0ECF7EF6E0E7F1E0197AC
:1032A00009F060C4D301AB5BB74F8D919C9111972E
:1032B000F301E80FF91FE259FF4F408101968D930A
:1032C0009C93830104591F4F423008F04CC1D80130
:1032D0001C92242F30E08BE190E0289FF001299F81
:1032E000F00D389FF00D1124EC59F14FE18144238A
:1032F00021F0413009F0ACC00AC0F0E0EE0FFF1F32
:10330000EE0FFF1FE60DF71DE159F74FB9C0F0E0D2
:10331000EE0FFF1FEE0FFF1FE60DF71DE158F74FF1
:10332000AFC020E438E0620E731ED3018D919C91F2
:10333000E0ECF7EF6E0E7F1E830104591F4F0597D7
:1033400009F09BC3A3014B5B574FDA012D913C91D0
:103350001197F301E20FF31FE259FF4FE0812F5F56
:103360003F4F2D933C9321503040D8011C92EE23C7
:1033700021F0E13009F0F7C01AC0E091650EF0E0ED
:1033800021593F4FD301A20FB31FED90FD900D9136
:103390001C912A563040DA012D933C93EE0FFF1F0B
:1033A000EE0FFF1FE60DF71DE159F74FD4C0E09176
:1033B000800EF0E021593F4FD301A20FB31FED90D3
:1033C000FD900D911C912A563040DA012D933C93CB
:1033D000EE0FFF1FEE0FFF1FE60DF71DE158F74F31
:1033E000BAC0E0E4F8E06E0E7F1ED3018D919C918F
:1033F000E0ECF7EF6E0E7F1E019709F0B3C3D30127
:10340000AB5BB74F8D919C911197F301E80FF91FBA
:10341000E259FF4F408101968D939C93830104599B
:103420001F4F423008F09FC0D8011C92242F30E07B
:103430008BE190E0289FF001299FF00D389FF00D5F
:103440001124EC59F14FE181442339F0413079F0F6
:1034500080E090E0A0E0B0E017C0F0E0EE0FFF1FCA
:10346000EE0FFF1FE60DF71DE958F74F09C0F0E01A
:10347000EE0FFF1FEE0FFF1FE60DF71DE157F74F91
:1034800080819181A281B38189839A83AB83BC833C
:10349000C301BE016F5F7F4F24CE20E438E0620E8F
:1034A000731ED3018D919C91E0ECF7EF6E0E7F1EA1
:1034B000830104591F4F059709F0DFC2A3014B5B3D
:1034C000574FDA012D913C911197F301E20FF31F51
:1034D000E259FF4FE0812F5F3F4F2D933C932150E6
:1034E0003040D8011C92EE2319F0E130E1F51AC00A
:1034F000E091650EF0E021593F4FD301A20FB31FB9
:10350000ED90FD900D911C912A563040DA012D93DB
:103510003C93EE0FFF1FEE0FFF1FE60DF71DE9585E
:10352000F74F19C0E091800EF0E021593F4FD301D1
:10353000A20FB31FED90FD900D911C912A563040C3
:10354000DA012D933C93EE0FFF1FEE0FFF1FE60DE8
:10355000F71DE157F74FE082F18202831383C30125
:103560000E94AE110AC385E029CDE0E4F8E06E0EBA
:103570007F1ED3018D919C91E0ECF7EF6E0E7F1EC4
:10358000830104591F4F892B09F0BDC2D8011C9239
:10359000B301605A774FA4CD20E438E0620E731E69
:1035A000D3018D919C91E0ECF7EF6E0E7F1E049796
:1035B00009F0D8C2F301EB5BF74F8081918182590A
:1035C0009F4FD301A80FB91FED90FD900D911C9155
:1035D0008A56904091838083C801B70120E030E093
:1035E00040E050E00E942C42181664F5F301EC59BB
:1035F000F74F8081882379F020E638E0620E731E51
:10360000D301ED92FD920D931C931397E0EAF7EF2F
:103610006E0E7F1E12C02FE938E0620E731ED301BA
:10362000ED92FD920D931C93139721E637EF620EF6
:10363000731E1082C3010E94AE114CE650E0640E6E
:10364000751E8DC22CE630E0620E731E88E08FC2BC
:1036500020E438E0620E731ED3018D919C91E0EC62
:10366000F7EF6E0E7F1E830104591F4F892B09F05F
:103670004AC2D8011C9210E0F301E156F74F608175
:1036800071818281938120E030E040E050E00E942F
:103690009B4018160CF011E01983C3CD20E438E0EC
:1036A000620E731ED3018D919C91E0ECF7EF6E0ECC
:1036B0007F1E019709F056C2D301AB5BB74F8D91C6
:1036C0009C911197F301E80FF91FE259FF4F2081F8
:1036D00001968D939C93F301E156F74F222349F015
:1036E00080E090E0A0E0B0E080839183A283B38388
:1036F00011C020E638E0620E731ED3012D913D917A
:103700004D915C9160EA77EF660E771E20833183DE
:1037100042835383C3010E94AE118CE690E0680E91
:10372000791E1DC220E438E0620E731ED3012D9174
:103730003C91E0ECF7EF6E0E7F1E2A30310508F465
:1037400011C2D301AB5BB74F8D919C911197FC01D6
:10375000E259FF4FE60DF71D40815181628173816F
:103760004F87588B698B7A8B049611969C938E9316
:103770000497FC01EE58FF4FE60DF71D6081718143
:103780007E876D87FC01EC58FF4FE60DF71D4081E9
:1037900051816281738149875A876B877C87F301E6
:1037A000E80FF91FE858FF4F10810B968D939C93FB
:1037B0002B30310581F065E578E0660E771ED30188
:1037C0008D919C91EBEAF7EF6E0E7F1E0B962817FA
:1037D000390709F0F5C12D853E852B54314008F09D
:1037E000ADC06F85788989899A8920E030E04AE701
:1037F00054E40E949F4020E030E44CE157E40E94F2
:10380000754220E030E040E855E40E949B40882368
:103810000CF094C06CE670E0660E771ED3011C922B
:10382000E4E9FFEF6E0E7F1EF301E05CF74F25E544
:1038300038E0620E731ED3018D919C912BEA37EF15
:10384000620E731E0B96208131812817390719F4F7
:10385000C3010E947D12A12E0E945D341B012C0128
:103860004CE558E0640E751ED301CD90DD90ED90CF
:10387000FC90E4EAF7EF6E0E7F1EF0E010FDF1E041
:10388000E0E0A1FCE1E06F85788989899A894D851E
:103890005E8509851A852B853C85AF2E8E2E0E946C
:1038A000ED2D0E945D3462197309840995090E9407
:1038B00038417B018C012D853E85B90180E090E087
:1038C0000E94384120E030E04AE754E40E9475420B
:1038D0009B01AC01C801B7010E949F4069837A83B4
:1038E0008B839C83C301BE016F5F7F4F44E050E038
:1038F0000E94081EC3016BE77EE044E050E00E9496
:10390000081EC30166E97EE044E050E00E94081E04
:1039100040E658E0640E751EF30180819181A2811A
:10392000B38120EA37EF620E731E8D839E83AF83CF
:10393000B887C301BE016B5F7F4FD3CB4CE650E02D
:10394000640E751E81E013C120E438E0620E731E20
:10395000D3018D919C91E0ECF7EF6E0E7F1E8301F9
:1039600004591F4F019709F0CEC0D8011C92D30112
:10397000AB5BB74F8D919C911197F301E80FF91F45
:10398000E259FF4F208101968D939C9360E02111B5
:1039900061E0C3010E94B90FF0C020E438E0620E7C
:1039A000731ED3018D919C91E0ECF7EF6E0E7F1E9C
:1039B000830104591F4F892B09F0A5C0D8011C921F
:1039C00088E089832ECC20E438E0620E731ED30198
:1039D0008D919C91E0ECF7EF6E0E7F1E83010459F0
:1039E0001F4F892B09F049C0D8011C92E2E5F8E08D
:1039F0006E0E7F1ED3018C91EEEAF7EF3BC0E0E440
:103A0000F8E06E0E7F1ED3018D919C91E0ECF7EFF4
:103A10006E0E7F1E019709F0A5C0D301AB5BB74FB7
:103A20008D919C911197F301E80FF91FE259FF4F17
:103A3000208101968D939C93F301EE5AF74F41C07C
:103A400020E438E0620E731ED3018D919C91E0EC6E
:103A5000F7EF6E0E7F1E830104591F4F892B69F407
:103A6000D8011C92E3E5F8E06E0E7F1ED3018C9125
:103A7000EDEAF7EF6E0E7F1EA4CF86E0D8018C939F
:103A80007CC0E0E4F8E06E0E7F1ED3018D919C9126
:103A9000E0ECF7EF6E0E7F1E019709F063C0D301D3
:103AA000AB5BB74F8D919C911197F301E80FF91F14
:103AB000E259FF4F208101968D939C93F301ED5ABB
:103AC000F74F222319F081E0808345C0108243C064
:103AD00020E438E0620E731ED3018D919C91E0ECDE
:103AE000F7EF6E0E7F1E830104591F4F892B59F487
:103AF000D8011C9288E00E9411371982892B09F0A5
:103B000090CB81E05ECF86E059CA20E438E0620EB7
:103B1000731ED3018D919C91E0ECF7EF6E0E7F1E2A
:103B2000019701F5D301AB5BB74F8D919C91119734
:103B3000F301E80FF91FE259FF4F208101968D93A1
:103B40009C93222321F0C3010E94FD1204C088E04F
:103B500061E00E94DE362CE630E0620E731ED30177
:103B60001C9207C02CE630E0620E731E86E0D30183
:103B70008C93E4E9FFEF6E0E7F1EC3016B890E94F8
:103B80005D222CE630E0620E731ED3018C916596A7
:103B90000FB6F894DEBF0FBECDBFCF91DF911F915E
:103BA0000F91FF90EF90DF90CF90BF90AF909F90DC
:103BB0008F907F906F905F904F903F902F900895DF
:103BC000ECE6F0E06E0E7F1ED1CFFC0189E794E0B9
:103BD00091838083CF010E94021E08950F931F934B
:103BE0008C0161E00E94682089E794E0F8019183EC
:103BF00080830E5A174FF801119210821F910F9176
:103C000008950895FC0180EA94E0918380830895EB
:103C10000F931F93CF93DF938C0120E030E0EC01F2
:103C2000C95BD74F10C0F801E20FF31F888199815B
:103C3000E80FF91FE259FF4FDB01A20FB31F8C9170
:103C400080832F5F3F4F2417350768F38881998160
:103C5000840F951F99838883DF91CF911F910F91D6
:103C60000895CF93DF93DC01FC01E359FF4F60819E
:103C7000EC01C459DF4F67FF0EC06058608382E0DB
:103C80008883ED91FC91119760580488F589E02DA7
:103C9000CD0119950EC0FC01E05CF74F8081918148
:103CA000A80FB91FA359BF4F2C9128830197918367
:103CB0008083DF91CF910895CF93DF93EC01FC01D6
:103CC000E75BF74F6D3719F481E08083DAC09081AC
:103CD000992311F080E268276E3749F4992339F46B
:103CE000CD5BD74F19821882C354D840C4C0CD5B76
:103CF000D74F28813981C354D84021153105A1F40B
:103D0000C359DF4F6883C152D84F8881CC54D84003
:103D1000882309F448C0C15BD74F8FEF9FEF998389
:103D20008883CF54D8403FC021303105B1F4DE0143
:103D3000AE5BB74FFE01E05CF74F67FF09C083E061
:103D40008C93862F90E08F779070108281832BC0A8
:103D500082E08C936083118226C02230310589F481
:103D6000CE5BD74F8881C254D840833051F4FE01D6
:103D7000E05CF74F80819181860F911D9183808354
:103D800012C0CE5BD74F8881F901E81BF1099A91E7
:103D90008A91C054D840E817F90728F4EC0FFD1FAA
:103DA000E259FF4F6083C45BD74F8881CC54D84021
:103DB0008823F1F0FE01E15BF74F80819181862736
:103DC000282F22952827022E269526952025022E7B
:103DD000269520252770082E892F2695079427954C
:103DE000902D8227069427959025822791838083A2
:103DF000FE01ED5BF74F408151814F5F5F4F518373
:103E00004083CE5BD74F88813A912A91280F311D8C
:103E10002C966881CC54D840862F90E0880F991F4B
:103E2000280F391F4217530731F511821082CB5BDF
:103E3000D74F1992199219821882C754D840662315
:103E400041F0C15BD74F88819981CF54D840892BED
:103E500019F4CE010E94311EFE01E55BF74F9081FF
:103E6000992349F0C359DF4F90588881CD56D040EF
:103E7000891709F41082FE01E75BF74F80818111F9
:103E80001082DF91CF91089589E99DE00E94310869
:103E9000089589E99DE00E942A0808951F93CF9311
:103EA000DF93EA0185EE9DE0422F0E948C0B10E02B
:103EB00009C085EE9DE00E94C50AFE01E10FF11DDB
:103EC00080831F5F85EE9DE00E94BC0A892B89F7E5
:103ED000812FDF91CF911F910895FF920F931F9330
:103EE000CF93DF93142F052FF22E85EE9DE00E94D5
:103EF000A80A212F302FC901EC0110E006C085EE81
:103F00009DE069910E94340B1F5F1F15C0F385EE81
:103F10009DE00E94770BDF91CF911F910F91FF9051
:103F200008951F9318E085EE9DE0612F0E94A80A76
:103F300085EE9DE00E94770B882331F583EC90E1BC
:103F400065E973E00E94963D83EC90E1612F4AE0C1
:103F500050E00E94F43C83EC90E169EA73E00E9437
:103F6000963D83EC90E1612F40E150E00E94F43CEB
:103F700083EC90E16EEA73E00E94933E61E070E0B2
:103F800080E090E00E9483341F5F183761F61F9134
:103F90000895AF92BF92CF92DF92EF92FF920F936C
:103FA0001F93DF93CF9300D00F92CDB7DEB77C0184
:103FB0006E010894C11CD11C56010FE010E0D7011E
:103FC000ED91FC910088F189E02DC701B8011995A8
:103FD000F50181935F010F5F1F4F0331110579F7E1
:103FE00089819A81AB81BC818F5F9F4FAF4FBF4F5B
:103FF000D9F480E092ECA1E0B0E089839A83AB83AE
:10400000BC830FE010E0D701ED91FC910288F389A9
:10401000E02DC701B801D6014D916D0119950F5FD3
:104020001F4F0331110579F749815A816B817C81DA
:1040300083EC90E10E94863985EE9DE00E94900B12
:104040000E94660A0E946007870108591F4FF80105
:10405000608371838283938383EC90E160EB73E0F0
:104060000E94963DD8014D915D916D917C9183ECBC
:1040700090E122E030E00E947D3E83EC90E162EC32
:1040800073E00E94933E0F900F900F900F90CF918E
:10409000DF911F910F91FF90EF90DF90CF90BF9035
:1040A000AF900895CF93DF93EC0108C083EC90E1CB
:1040B0000E943E3A682FCE010E945C1E83EC90E184
:1040C0000E940D3A181619068CF3DF91CF910895CE
:1040D0007F928F929F92AF92BF92CF92DF92EF9298
:1040E000FF920F931F93CF93DF93FC0180EA94E03C
:1040F00091838083E45BF74F60833997118210824C
:10410000369610823997118210823596119211924B
:10411000118210823A961082AA24BB248824992402
:1041200089E99DE0B5010E942A08182FB501695F51
:104130007F4F89E99DE00E942A08E401EE24FF24D4
:10414000C12EDD24C094D094082F10E00095109566
:10415000C633D105B4F4B6010E2C02C0759567952F
:104160000A94E2F761708C2F0E942B36B8010E2C56
:1041700002C0759567950A94E2F761708C2F0E94D2
:10418000DE360894E11CF11C219688E0E816F10463
:10419000F9F60894A11CB11C88E090E0880E991EE5
:1041A00097E0A916B10409F0BBCFDF91CF911F9121
:1041B0000F91FF90EF90DF90CF90BF90AF909F90C6
:1041C0008F907F9008951F93162F862F8D578230E2
:1041D00050F483EC90E16DE70E94773A60E261274A
:1041E00083EC90E102C083EC90E10E94773A1F914A
:1041F00008958F929F92AF92BF92CF92DF92EF92EB
:10420000FF920F931F93CF93DF93EC01BEE6EB2E4B
:10421000F12CE80EF91E00E010E0A0E48A2EA8E0E0
:104220009A2E880E991EFCE4AF2EF8E0BF2EA80E41
:10423000B91EEDE4CE2EE8E0DE2EC80ED91E2AC04F
:10424000F50180818823F1F0F7012081F60180815A
:1042500091818227282F22952827022E26952695A0
:104260002025022E269520252770082E892F269599
:1042700007942795902D82270694279590258227CD
:1042800091838083CE01F70161917F010E94E32039
:104290000F5F1F4FF401808191810817190708F4FF
:1042A000CFCFF5018081882369F08E01035B174F22
:1042B000CE01F80160810E94E320F8016181CE0106
:1042C0000E94E320C05CD74F19821882279619827A
:1042D0001882DF91CF911F910F91FF90EF90DF90A7
:1042E000CF90BF90AF909F908F9008950F931F93A2
:1042F000CF93DF93EC01062FFC01E05CF74FC95B25
:10430000D74F888199819183808383EC90E16EE718
:104310000E94773A25968881CC54D8408823F9F0BA
:10432000C35BD74F8FEF9FEF8027282F2295282739
:10433000022E269526952025022E269520252770CB
:10434000082E892F269507942795902D822706946D
:1043500027959025822799838883CD54D840CE0114
:10436000602F0E94E320DE01A05CB74F2D913C91AD
:104370001197FE01E45BF74F2038310530F580815D
:104380008823F1F0FE01E35BF74F80819181822762
:10439000282F22952827022E269526952025022EA5
:1043A000269520252770082E892F26950794279576
:1043B000902D8227069427959025822791838083CC
:1043C000CE01C05CD74F688149C08081882309F441
:1043D00037C03068FE01E35BF74F8081918183270E
:1043E000282F22952827022E269526952025022E55
:1043F000269520252770082E892F26950794279526
:10440000902D822706942795902582272C9182272C
:10441000282F22952827022E269526952025022E24
:10442000269520252770082E892F269507942795F5
:10443000902D82270694279590258227918380834B
:104440008E01005C174FF801208131813068CE0168
:10445000632F0E94E320CE01F80160810E94E320D7
:10446000DF91CF911F910F9108950F931F93DF93C9
:10447000CF930F92CDB7DEB78C016983DC01A95BC6
:10448000B74F8D919C911197F801E80FF91FE259F0
:10449000FF4F608301968D939C93F801E359FF4F82
:1044A000C80160810E947621C8010E94F9200F9006
:1044B000CF91DF911F910F9108956F927F929F92FC
:1044C000AF92BF92CF92DF92EF92FF920F931F9322
:1044D000DF93CF93CDB7DEB76C970FB6F894DEBFFE
:1044E0000FBECDBF7C016DB67EB670E0CB018058AB
:1044F00090408E31910508F0C9C688539F4FD7016F
:10450000A05CB74FFC01EE0FFF1F0590F491E02D6A
:1045100019948D919C91892B09F0FAC5D701ED91E1
:10452000FC910280F381E02DC70119958C01D70120
:10453000ED91FC910280F381E02DC7011995DC011A
:104540000D900020E9F7AD0141505040481B590B38
:1045500020E030E0B701695B774F11C0F701E20F4F
:10456000F31FDB018D919C91E80FF91FE259FF4F7A
:10457000D801A20FB31F8C9180832F5F3F4F241768
:10458000350760F3E7C08D919C91892B09F0C0C578
:10459000D701ED91FC910480F581E02DC7011995BB
:1045A0008C01D701ED91FC910480F581E02DC701CC
:1045B0001995DC010D900020E9F7AD014150504004
:1045C000481B590B20E030E0B701695B774F11C001
:1045D000F701E20FF31FDB018D919C91E80FF91FAA
:1045E000E259FF4FD801A20FB31F8C9180832F5F38
:1045F0003F4F2417350760F3ADC08D919C91892BF7
:1046000009F086C5D701ED91FC910680F781E02D78
:10461000C70119958C01D701ED91FC910680F781B6
:10462000E02DC7011995DC010D900020E9F7AD01DF
:1046300041505040481B590B20E030E0B701695B06
:10464000774F11C0F701E20FF31FDB018D919C91B1
:10465000E80FF91FE259FF4FD801A20FB31F8C9149
:1046600080832F5F3F4F2417350760F373C08D9110
:104670009C91892B09F04CC5D701ED91FC910084E8
:10468000F185E02DC70119958C01D701ED91FC91C1
:104690000084F185E02DC7011995DC010D90002003
:1046A000E9F7AD0141505040481B590B20E030E084
:1046B000B701695B774F11C0F701E20FF31FDB0110
:1046C0008D919C91E80FF91FE259FF4FD801A20F7D
:1046D000B31F8C9180832F5F3F4F2417350760F302
:1046E00039C08D919C91892B09F012C5D701ED91AC
:1046F000FC910284F385E02DC70119958C01D70147
:10470000ED91FC910284F385E02DC7011995DC0140
:104710000D900020E9F7AD0141505040481B590B66
:1047200020E030E0B701695B774F11C0F701E20F7D
:10473000F31FDB018D919C91E80FF91FE259FF4FA8
:10474000D801A20FB31F8C9180832F5F3F4F241796
:10475000350760F3FB0180819181840F951F918360
:1047600080832CE630E0E20EF31ED7011C92E4E9D0
:10477000FFEFEE0EFF1E8AC58D919C91892B09F0EB
:10478000C7C4D701ED91FC910484F585E02DC701E4
:1047900019958C01D701ED91FC910484F585E02DEC
:1047A000C7011995DC010D900020E9F7AD014150DA
:1047B0005040481B590B20E030E0B701695B774F50
:1047C00011C0F701E20FF31FDB018D919C91E80FFF
:1047D000F91FE259FF4FD801A20FB31F8C918083BC
:1047E0002F5F3F4F2417350760F3B4CF8D919C9115
:1047F000892B09F08DC4D701ED91FC910684F785D2
:10480000E02DC70119958C01D701ED91FC9106842B
:10481000F785E02DC7011995DC010D900020E9F71F
:10482000AD0141505040481B590B20E030E0B7012A
:10483000695B774F11C0F701E20FF31FDB018D9128
:104840009C91E80FF91FE259FF4FD801A20FB31F47
:104850008C9180832F5F3F4F2417350760F37ACF09
:104860008D919C91892B09F053C420E030E0B70171
:10487000695B774FF701E20FF31FDB014D915C910C
:10488000E40FF51FE259FF4FD901AF56BB4F8C9192
:1048900080832F5F3F4F2A30310561F7465F5F4FBE
:1048A0001FC28D919C91870104591F4F029709F0F7
:1048B000D0C3D701AB5BB74F2D913C911197F70156
:1048C000E20FF31FE259FF4F80812F5F3F4FF70147
:1048D000E20FF31FE259FF4F60812F5F3F4F2D938F
:1048E0003C930E942B36B2C38D919C918701045951
:1048F0001F4F029709F0ADC3D701AB5BB74F2D91A6
:104900003C911197F701E20FF31FE259FF4F8081AD
:104910002F5F3F4FF701E20FF31FE259FF4F608116
:104920002F5F3F4F2D933C930E94DE368FC38D91B6
:104930009C91870104591F4F019709F08AC3D70141
:10494000AB5BB74F2D913C911197F701E20FF31F2D
:10495000E259FF4F80812F5F3F4F2D933C930E9480
:1049600011378983D701A95BB74F2D913C911197DE
:10497000F701E20FF31FE259FF4F80832F5F3F4F94
:104980002D933C9363C38D919C91870104591F4FD4
:10499000029709F05EC3D701AB5BB74F2D913C91F5
:1049A0001197F701E20FF31FE259FF4F80812F5F4C
:1049B0003F4F11963C932E9322593F4FF701E20F40
:1049C000F31F608171812C5630402D933C930E94DF
:1049D0004B353CC32CE630E0E20EF31E86E0F701D7
:1049E000808324E93FEFE20EF31E2D913C912230AB
:1049F000310508F44BC4ADB69EB6D701AB5BB74FDB
:104A00008D919C911197F701E80FF91FE259FF4F23
:104A1000B08001968D939C938DB79EB78B199109A9
:104A20000FB6F8949EBF0FBE8DBFCDB6DEB608940C
:104A3000C11CD11C2230310519F491E0B916D9F00E
:104A40008B2D90E003962817390709F096C013C004
:104A50008D919C911197F701E80FF91FE259FF4FD3
:104A60002081019611969C938E93F601E30FF11D20
:104A700020833F5F04C030E0D701AB5BB74F3B15ED
:104A800038F3A0E4B8E0EA0EFB1EF70180819181C3
:104A900020EC37EFE20EF31E029701F1F701EB5B1A
:104AA000F74F8081918182599F4FD701A80FB91F7D
:104AB0000D911C918C5690409183808333E0093E88
:104AC000130770F08CE690E0E80EF91E89E0D7013C
:104AD0008C93E4E9FFEFEE0EFF1E4FC001E010E003
:104AE0002CE630E0E20EF31ED7011C921093810DEC
:104AF0000093800DE2E0F0E0EE0EFF1EF0927D0DDF
:104B0000E0927C0D22E93FEFE20EF31E80E00E946E
:104B1000A50531E0B31629F4D6018C910E94BF059A
:104B200012C0D092840DC092830DB092860D109267
:104B3000870D82E096E09093890D8093880DF601B1
:104B400080810E94E8050E94F4072091800D309139
:104B5000810D80917E0D90917F0D82179307C9F78B
:104B60000E94A207F701E95BF74F000F111F808138
:104B70009181080F191F118300838A2D992D9C01A3
:104B80000FB6F8943EBF0FBE2DBF80C38D919C9190
:104B9000870104591F4F039709F075C3D701AB5B19
:104BA000B74F8D919C911197FC01E259FF4FEE0D8B
:104BB000FF1D60817181F701E80FF91FE059FF4F78
:104BC000408103968D939C93D701ED91FC910288CF
:104BD000F389E02DC701199553C38D919C918701ED
:104BE00004591F4F029709F04EC3D701AB5BB74F73
:104BF0008D919C91119782599F4FF701E80FF91FF2
:104C0000608171818C5690408D939C93D701ED917A
:104C1000FC910088F189E02DC70119958983D7019E
:104C2000A95BB74F2D913C911197F701E20FF31F4C
:104C3000E259FF4F80832F5F3F4F20C38D919C919E
:104C4000029709F065C2D701AB5BB74F8D919C917C
:104C50001197F701E80FF91FE259FF4F60810196A4
:104C6000F701E80FF91FE259FF4FA08001968D93DD
:104C70009C938E01015F1F4FC8010E94110AC80159
:104C80000E943D08DD24B02EC12E8E01095F1F4F0A
:104C90008B2D9C2DB8010E947B09D394AD14C0F7D5
:104CA000882311F120E030E0B701695B774F8E0176
:104CB000095F1F4FF701E20FF31FDB014D915C917C
:104CC000E40FF51FE259FF4FD801A20FB31F8C91DB
:104CD00080832F5F3F4F2830310561F7485F5F4F7A
:104CE000FB01518340833DCD2CE630E0E20EF31E04
:104CF00085E09CC28D919C910B9709F009C2D70168
:104D0000AB5BB74F8D919C911197F701E80FF91F9D
:104D1000E259FF4F6081019611969C938E9347E074
:104D2000C42ED12CCC0EDD1EAD01C601BC2CA92E8B
:104D30008E01015F1F4FFA0180819181F701E80F19
:104D4000F91FE259FF4F20810196FA019183808378
:104D5000F60121936F01E017F10769F78D919C919E
:104D60001197F701E80FF91FE259FF4F10810196E3
:104D7000F701E80FF91FE259FF4F008101968D936B
:104D80009C93C6010E94110AC6010E943009C60107
:104D90006B2D7A2D0E940F09C601612F40E00E9401
:104DA000CF0810E03FE0A32EB12CAC0EBD1E27E4CF
:104DB000C22E28E0D22ECE0CDF1C13C0C5010E94EB
:104DC0007E088983D6012D913C911197F701E20F5E
:104DD000F31FE259FF4F80832F5F3F4F2D933C938A
:104DE0001F5F101758F3ECE6F0E0EE0EFF1EBDCC8F
:104DF0008D919C910B9709F08BC1D701AB5BB74F9D
:104E00008D919C911197F701E80FF91FE259FF4F1F
:104E10006081019611969C938E9397E0C92ED12CB8
:104E2000CC0EDD1EAD01C601BC2CA92E8E01015F8A
:104E30001F4FFA0180819181F701E80FF91FE259B4
:104E4000FF4F20810196FA0191838083F60121931F
:104E50006F01E017F10769F78D919C911197F701A8
:104E6000E80FF91FE259FF4F00810196F701E80FA3
:104E7000F91FE259FF4F108101968D939C93C60153
:104E80000E94110AC6010E943009C6016B2D7A2DBD
:104E90000E940F09C601602F412F0E94CF0861CCEC
:104EA0008D919C91029709F0BCC1D701AB5BB74FC4
:104EB0008D919C911197F701E80FF91FE259FF4F6F
:104EC00060810196F701E80FF91FE259FF4FC0809A
:104ED00001968D939C9385EE9DE04C2D0E948C0B4A
:104EE000DD248701095B174F14C085EE9DE00E9409
:104EF000C50A8983D8012D913C911197F701E20FE2
:104F0000F31FE259FF4F80832F5F3F4F2D933C9358
:104F1000D39485EE9DE00E94BC0A892B31F787016E
:104F200004591F4FDC1409F4ABC181E0ADC18D9170
:104F30009C91029708F4ECC087010B5B174FD801D6
:104F40008D919C911197F701E80FF91FE259FF4FDE
:104F5000608101968D939C9385EE9DE00E94A80A46
:104F6000DD2480E4A82E88E0B82EAE0CBF1C12C051
:104F7000F80180819181F701E80FF91FE259FF4F95
:104F800060810196D8018D939C9385EE9DE00E94EF
:104F9000340BD3942D2D30E0F50180819181019760
:104FA0002817390728F385EE9DE00E94770BD9CBAF
:104FB0008D919C91870104591F4F019709F049C0B9
:104FC000D701AB5BB74F2D913C911197F701E20FE1
:104FD000F31FE259FF4F80812F5F3F4F2D933C938A
:104FE0000E94470A33C08D919C91870104591F4F3D
:104FF000019779F5D701AB5BB74F2D913C91119794
:10500000F701E20FF31FE259FF4F80812F5F3F4FFF
:105010002D933C930E94550A19C08D919C91870154
:1050200004591F4F0197A9F4D701AB5BB74F2D91DE
:105030003C911197F701E20FF31FE259FF4F808176
:105040002F5F3F4F2D933C930E94500AD8011C9232
:105050001DC186E0F801808319C18D919C91019753
:1050600009F056C0D701AB5BB74F8D919C9111975A
:10507000F701E80FF91FE259FF4F208101968D9348
:105080009C932EBD0DB407FEFDCF2EB52983D7010D
:10509000A95BB74F8D919C911197F701E80FF91F0C
:1050A000E259FF4F208301968D939C935ACB8D91AB
:1050B0009C91892B69F526E630E0E20EF31ED701BC
:1050C0006D917C91EAE9FFEFEE0EFF1E870120E073
:1050D00030E0A701495B574F10C0F701E20FF31F03
:1050E000DA018D919C91E80FF91FE259FF4FD80129
:1050F00011968C9180832F5F3F4F0F5F1F4F2617B4
:10510000370758F3FA0180819181860F971F27CBCB
:105110002CE630E0E20EF31E88C08D919C91870151
:1051200004591F4F892B09F0AEC080918C0D9091CE
:105130008D0DA0918E0DB0918F0D8B839C83AD83CF
:10514000BE83DE011396A701495B574FFA01208108
:105150003181F701E20FF31FE259FF4F8B817FC0CE
:105160008D919C91870104591F4F049709F08BC0C2
:10517000D701AB5BB74F2D913C91119722593F4F0F
:10518000F701E20FF31F60817181828193812A56BA
:1051900030402D933C930E94010572C08D919C91EB
:1051A000870104591F4F892B09F06DC00E94FA0432
:1051B00089839A83D701A95BB74F2D913C911197B1
:1051C000F701E20FF31FE259FF4F81938A81808339
:1051D0002E5F3F4F53C08D919C91029711F5D701DF
:1051E000AB5BB74F8D919C91119782599F4FF701FF
:1051F000E80FF91F0190F081E02D8C5690408D93BF
:105200009C93CF010297870104591F4F069738F4EA
:105210008E2F0E94F10480E00E94B10531C085E02C
:1052200033C0ECE6F0E0EE0EFF1E86E0D7018C9373
:105230009ECA8D919C91870104591F4F892B19F5A6
:10524000D701A859BF4FA701495B574FFA012081E9
:105250003181F701E20FF31FE259FF4F8C918193E7
:1052600011968C911197819312968C91129781933C
:1052700013968C9180832C5F3F4FDA012D933C93E2
:10528000F801108203C086E0D8018C93870104598D
:105290001F4FC701F80160810E943522D8018C910F
:1052A0000FB6F8947EBE0FBE6DBE6C960FB6F89426
:1052B000DEBF0FBECDBFCF91DF911F910F91FF9049
:1052C000EF90DF90CF90BF90AF909F907F906F90C6
:1052D00008958BE1E4E6FEE0DF01982F1D929A9598
:1052E000E9F77B96DF011D928A95E9F708952F92E1
:1052F0003F924F925F926F927F928F929F92AF9266
:10530000BF92CF92DF92EF92FF920F931F93DF93A2
:10531000CF93CDB7DEB764970FB6F894DEBF0FBE5C
:10532000CDBF2F83388749875A87EB86FC860D8748
:105330001E87D88ACF86BA8AA98A0E94754220E041
:1053400030E04AE754E40E949F409B01AC010E9478
:1053500024405B016C0120E030E040E050E00E941E
:105360002C4288234CF0C601B50120E030E040E03B
:105370005FE30E94244008C0C601B50120E030E090
:1053800040E05FE30E9423400E9407410E943A41AF
:1053900020E030E040E05FE30E9475426B837C8355
:1053A0008D839E836B817C818D819E812F81388549
:1053B00049855A850E949F402B853C854D855E8599
:1053C0000E9475420E9488400E940C417A83698342
:1053D00084C329813A81B90180E090E00E9438417C
:1053E0002B813C814D815E810E949F402F813885B9
:1053F00049855A850E9475423B014C01EF85F88929
:1054000060837183828393832B853C854D855E8584
:105410000E942C4218160CF45BC3C401B3012F8107
:10542000388549855A850E949F407B018C0160E048
:1054300070E080E090E4A80197010E949F405B012A
:105440006C0120E030E040E050E00E942C428823D4
:105450004CF0C601B50120E030E040E05FE30E947F
:10546000244008C0C601B50120E030E040E05FE321
:105470000E9423400E9407410E943A41A8019701DF
:105480000E9475429B01AC0160E070E080E090E416
:105490000E94234020E030E040E050E00E942C4297
:1054A0001816A4F5C601B50120E030E040E050E058
:1054B0000E942C4288234CF0C601B50120E030E068
:1054C00040E05FE30E94244008C0C601B50120E02F
:1054D00030E040E05FE30E9423400E9407410E94C9
:1054E0003A41A80197010E9475429B01AC0160E01E
:1054F00070E080E090E40E9423402DEC3CEC4CEC0A
:105500005DE30E949B4087FDE3C234C0C601B50144
:1055100020E030E040E050E00E942C4288234CF034
:10552000C601B50120E030E040E05FE30E94244086
:1055300008C0C601B50120E030E040E05FE30E9412
:1055400023400E9407410E943A41A80197010E940E
:1055500075429B01AC0160E070E080E090E40E9445
:1055600023402DEC3CEC4CEC5DEB0E942C421816D9
:105570000CF4AEC26F81788589859A859B01AC0158
:105580000E9424409B01AC01C401B3010E949B40D6
:1055900088230CF079C16F81788589859A85A4016B
:1055A00093010E949F401B012C011C8A1B8A2B899E
:1055B0003C89B90180E090E00E9438415B016C01B8
:1055C000C201B101A60195010E94234020E030E014
:1055D00040E05FE30E949B40181634F48B899C895D
:1055E00001969C8B8B8BE3CFC601B501A40193017F
:1055F0000E9475429B01AC016F81788589859A85EF
:105600000E9423405B016C0120E030E040E050E06C
:105610000E942C42181624F0D7FAD094D7F8D094D0
:10562000C401B301A60195010E949F403B014C01BA
:1056300060E070E080E090E4A40193010E949F404C
:105640005B016C0120E030E040E050E00E942C4221
:1056500088234CF0C601B50120E030E040E05FE374
:105660000E94244008C0C601B50120E030E040E0BF
:105670005FE30E9423400E9407410E943A41A40137
:1056800093010E9475429B01AC0160E070E080E0F4
:1056900090E40E94234020E030E040E050E00E948F
:1056A0002C421816A4F5C601B50120E030E040E018
:1056B00050E00E942C4288234CF0C601B50120E046
:1056C00030E040E05FE30E94244008C0C601B5011D
:1056D00020E030E040E05FE30E9423400E94074169
:1056E0000E943A41A40193010E9475429B01AC01C2
:1056F00060E070E080E090E40E9423402DEC3CEC00
:105700004CEC5DE30E949B408823ACF5E1C1C601EF
:10571000B50120E030E040E050E00E942C428823B8
:105720004CF0C601B50120E030E040E05FE30E94AC
:10573000244008C0C601B50120E030E040E05FE34E
:105740000E9423400E9407410E943A41A401930114
:105750000E9475429B01AC0160E070E080E090E443
:105760000E9423402DEC3CEC4CEC5DEB0E942C4263
:1057700018160CF4ADC1C801B70120E030E040E0DC
:1057800050E00E942C4288234CF0C801B70120E071
:1057900030E040E05FE30E94244008C0C801B70148
:1057A00020E030E040E05FE30E9423400E94074198
:1057B0000E943A419B01AC01C801B7010E942340FD
:1057C00020E030E040E050E00E942C42181674F5D2
:1057D000C801B70120E030E040E050E00E942C42D8
:1057E00088234CF0C801B70120E030E040E05FE3DF
:1057F0000E94244008C0C801B70120E030E040E02A
:105800005FE30E9423400E9407410E943A419B01AE
:10581000AC01C801B7010E94234027E137EB41EDFD
:1058200058E30E949B4088237CF552C1C801B70110
:1058300020E030E040E050E00E942C4288234CF011
:10584000C801B70120E030E040E05FE30E9424405F
:1058500008C0C801B70120E030E040E05FE30E94EB
:1058600023400E9407410E943A419B01AC01C801BC
:10587000B7010E94234027E137EB41ED58EB0E942E
:105880002C4218160CF424C1C801B70120E030E006
:1058900040E251E40E949B4088230CF089C0C8017B
:1058A000B70120E030E040E050E00E942C42882325
:1058B0004CF0C801B70120E030E040E05FE30E9417
:1058C000244008C0C801B70120E030E040E05FE3B9
:1058D0000E9423400E9407410E943A419B01AC0173
:1058E000C801B7010E94234020E030E040E050E0D2
:1058F0000E942C42181674F5C801B70120E030E070
:1059000040E050E00E942C4288234CF0C801B701CF
:1059100020E030E040E05FE30E94244008C0C8017E
:10592000B70120E030E040E05FE30E9423400E94A6
:1059300007410E943A419B01AC01C801B7010E9496
:10594000234027E137EB41ED58E30E949B40882339
:105950007CF5BEC0C801B70120E030E040E050E077
:105960000E942C4288234CF0C801B70120E030E0AF
:1059700040E05FE30E94244008C0C801B70120E076
:1059800030E040E05FE30E9423400E9407410E9414
:105990003A419B01AC01C801B7010E94234027E1B5
:1059A00037EB41ED58EB0E942C4218160CF490C0D6
:1059B000C801B7012B813C814D815E810E947542F7
:1059C0005B016C0120E030E040E050E00E942C429E
:1059D00088234CF0C601B50120E030E040E05FE3F1
:1059E0000E94244008C0C601B50120E030E040E03C
:1059F0005FE30E9423400E9407410E943A419B01BD
:105A0000AC01C601B5010E94234020E030E040E037
:105A100050E00E942C42181674F5C601B50120E032
:105A200030E040E050E00E942C4288234CF0C60158
:105A3000B50120E030E040E05FE30E94244008C070
:105A4000C601B50120E030E040E05FE30E94234062
:105A50000E9407410E943A419B01AC01C601B50179
:105A60000E94234027E137EB41ED58E30E949B4021
:105A7000882374F543C0C601B50120E030E040E062
:105A800050E00E942C4288234CF0C601B50120E072
:105A900030E040E05FE30E94244008C0C601B50149
:105AA00020E030E040E05FE30E9423400E94074195
:105AB0000E943A419B01AC01C601B5010E942340FE
:105AC00027E137EB41ED58EB0E942C421816B4F059
:105AD000E981FA813197FA83E98329813A81223079
