:100000000C9427010C9454010C9454010C94540149
:100010000C9454010C9454010C9454010C9454010C
:100020000C9454010C9454010C9454010C945401FC
:100030000C9454010C9454010C9454010C945401EC
:100040000C9454010C9454010C9454010C945401DC
:100050000C94B7060C9454010C9454010C94023483
:100060000C9454010C942C370C9474380C94540157
:100070000C9454010C948C060C9454010C9454016F
:100080000C9454010C9454010C9454010C94E70901
:100090000C946C370C94B3380C9454010C94D40B1E
:1000A0000C9454010C9454010C9454010C9454017C
:1000B0000C9454010C9454010C9454010C9454016C
:1000C0000C9454010C9454010C9454010C94AC37CE
:1000D0000C94F2380C9454010C94EC370C94313994
:1000E0000C9454015B229522CF2209237D234323C4
:1000F000B72317245D243A24B0248924B3258C2502
:10010000E425C426462663271C27A427BF27D92712
:10011000F9272328F6235B287E289C28B928EB287A
:10012000132900002100240027002A002D003000A0
:10013000330001010000040107010A010000220050
:10014000250028002B002E003100340002010000A1
:10015000050108010B0100002000230026002900F2
:100160002C002F00320000010000030106010901EC
:1001700005050505070508080808020202020A0A23
:100180000808040404040101010101010101030341
:10019000030303030303040707070C0C0C0C0C0CEC
:1001A0000C0C0202020206060606060606060B0BE9
:1001B0000B0B0B0B0B0B010210202008081020402A
:1001C000102040800201020108040201010204081B
:1001D00010204080804020100804020180040201A9
:1001E00080402010080402010804020101020408F2
:1001F0001020408001020408102040800000090AFD
:1002000002080B0C0D0706030401000000000000AB
:1002100000000000000000000000000000000000DE
:10022000000000000000000011100F00000000009E
:1002300000000000000000000000000000000000BE
:1002400000008903C106560A4729A13A82031124F6
:100250001FBECFEFD1E2DEBFCDBF00E00CBF14E088
:10026000A0E0B2E0EAEEF6E800E00BBF02C00790C3
:100270000D92A83CB107D9F71BBE11E1A8ECB4E080
:1002800001C01D92A036B107E1F712E0CCE4D2E044
:1002900004C02297FE010E942D43C234D107C9F742
:1002A0000E944C040C9468430C940000CF93DF939D
:1002B000BC018230910510F462E070E0A0915E1103
:1002C000B0915F11ED01E0E0F0E040E050E021C0CE
:1002D000888199818617970769F48A819B81309775
:1002E00019F09383828304C090935F1180935E1111
:1002F000FE0134C06817790738F44115510519F02B
:100300008417950708F4AC01FE018A819B819C014A
:10031000E9012097E9F641155105A9F1CA01861BAB
:10032000970B049708F4BA01E0E0F0E02AC08D9141
:100330009C91119784179507F9F46417750781F458
:1003400012968D919C911397309719F09383828325
:1003500004C090935F1180935E11FD0132964CC0F2
:10036000CA01861B970BFD01E80FF91F619371937A
:1003700002978D939C9340C0FD01828193819C01E3
:10038000D9011097A1F680915C1190915D11892B94
:1003900041F48091DD039091DE0390935D11809391
:1003A0005C114091DF035091E0034115510541F488
:1003B0004DB75EB78091DB039091DC03481B590B6E
:1003C00020915C1130915D11CA01821B930B86173D
:1003D000970780F0AB014E5F5F4F8417950750F091
:1003E000420F531F50935D1140935C11F9016193CB
:1003F000719302C0E0E0F0E0CF01DF91CF9108956A
:10040000CF93DF93009709F450C0EC0122971B8231
:100410001A82A0915E11B0915F11109709F140E02E
:1004200050E0AC17BD0708F1BB83AA83FE01219100
:100430003191E20FF31FAE17BF0779F48D919C91B4
:100440001197280F391F2E5F3F4F3983288312964B
:100450008D919C9113979B838A834115510571F46B
:10046000D0935F11C0935E1120C012968D919C9124
:100470001397AD01009711F0DC01D3CFFA01D383BC
:10048000C28321913191E20FF31FCE17DF0769F488
:1004900088819981280F391F2E5F3F4FFA013183E0
:1004A00020838A819B8193838283DF91CF910895FA
:1004B000A0E0B0E0EEE5F2E00C9433436C0100976D
:1004C00029F4CB010E9456016C01C1C08EEF882E29
:1004D0008FEF982E8C0C9D1C8601060F171F081598
:1004E000190508F4B2C0F401A081B181A617B707BD
:1004F000B8F0A530B10508F4AAC0CD01049786175D
:10050000970708F4A4C01297A61BB70BF801A19394
:10051000B193D4016D937C93CF010E94000297C0E8
:100520007B01EA1AFB0AEEEFFFEFEE0EFF1E36012B
:100530006A0E7B1EC0915E11D0915F114424552438
:10054000AA24BB244AC0C615D705E1F548815981C4
:100550004E155F05B8F1CA0104978E159F05B0F4DA
:100560001296A40FB51FF401B183A0832A813B81A9
:100570004114510431F0D20113963C932E931297FB
:1005800066C030935F1120935E1161C08A819B81A8
:10059000F80193838283425050404E195F09518382
:1005A00040834114510431F0D20113961C930E93F1
:1005B000129704C010935F1100935E11F4017183D0
:1005C000608345C088819981A816B90608F45C014A
:1005D0002E018A819B819C01E901209709F0B3CF0C
:1005E00080915C1190915D1186159705E9F4A6162E
:1005F000B706D0F42091DF033091E00321153105D7
:1006000041F42DB73EB78091DB039091DC03281BAA
:10061000390B02171307C8F410935D1100935C1196
:10062000D4016D937C9313C0CB010E945601EC0161
:10063000009759F0F40140815181B6010E942D03C9
:10064000C6010E9400026E0102C0CC24DD24C60156
:10065000CDB7DEB7E0E10C944F43FB01DC0102C0F3
:1006600001900D9241505040D8F70895FB01DC01F4
:1006700001900D920020E1F70895FB019F014230A7
:1006800074F0453264F4642F77270E94F542805D50
:100690008A330CF0895D8193CB010097A1F710821A
:1006A000C9010C945303DC01FC01672F719177237E
:1006B000E1F7329704C07C916D9370836291AE171D
:1006C000BF07C8F308958091E1039091E20301967A
:1006D0009093E2038093E10308958130910541F402
:1006E0006F5F7F4F71F488EC94E00E940D150895C0
:1006F000892B39F46F5F7F4F21F488EC94E00E94DE
:100700000415089580E090E06FEF7FEF0E946D0385
:10071000089581E090E06FEF7FEF0E946D030895F0
:1007200080E1809391001092900085E08093AC0D61
:1007300086E998E99093AB0D8093AA0D909397006A
:100740008093960085E18093910083E693E09093F7
:10075000AE0D8093AD0D81E08093710088EC94E044
:100760000E94C31284ED90E160E072E00E94803D3F
:100770006FEF71E26050724084ED90E14AE050E02A
:100780000E94613D84ED90E165E072E00E94803D51
:1007900068EC74E06050724084ED90E14AE050E013
:1007A0000E94613D84ED90E16CE072E00E94803D2A
:1007B00060E671E1685C744084ED90E14AE050E0ED
:1007C0000E94613D84ED90E162E172E00E94803D13
:1007D00060915C1170915D116115710519F460E013
:1007E00070E002C06056714184ED90E14AE050E053
:1007F0000E94613D84ED90E168E172E00E94803DDD
:100800008DB79EB76FEF71E2681B790B84ED90E1B5
:100810004AE050E00E94613D84ED90E16FE172E0BA
:100820000E94803D80915C1190915D11009729F4A8
:100830006DB77EB76056714104C06DB77EB7681B57
:10084000790B84ED90E14AE050E00E94613D08950B
:1008500088EC94E00E9424208091E1039091E203CF
:1008600069E170E00E94F542892BA9F480911A0D8C
:10087000882359F080911B0D882329F488EC94E09B
:100880000E947E0D02C010921B0D81E090E09093BB
:10089000E2038093E1030895CF93DF930E94D33462
:1008A0000E949003CBE2D8E30E9428042097E1F352
:1008B0000E942B38F9CFEAE7F0E09081987F90838F
:1008C0009081982B9083089520917A0030E02770D2
:1008D0003070C9010895EF92FF920F931F937B012F
:1008E0008C0180E1809381001092800060E074E2CE
:1008F00084E799E4A80197010E94894020E030E054
:1009000040E051E40E941A420E94F6409B01AC0173
:10091000203080E0380781E0480780E0580728F45D
:1009200081E08093A80DB90155C0203080E03807E0
:1009300088E0480780E0580768F482E08093A80DBB
:10094000DA01C901E3E0B695A79597958795EA95F1
:10095000D1F714C0203080E0380780E4480780E0F9
:10096000580770F483E08093A80DDA01C90176E09E
:10097000B695A795979587957A95D1F7BC012AC02A
:10098000203080E0380780E0480781E0580740F4D5
:1009900084E08093A80DBB27A52F942F832FEECF43
:1009A000203080E0380780E0480784E0580768F48A
:1009B00085E08093A80DDA01C9012AE0B695A795D4
:1009C000979587952A95D1F7D9CF85E08093A80D83
:1009D0006FEF7FEF709387006093860091E09093B4
:1009E0006F0080917B00887F80937B0080917B00EB
:1009F000866080937B009093920D80917A00806254
:100A000080937A00E0929C0DF0929D0D00939E0DD4
:100A100010939F0D1F910F91FF90EF9008958823E1
:100A200021F080917C00806203C080917C008F7DEA
:100A300080937C0008958093920D882321F080910B
:100A40007A00806203C080917A008F7D80937A0063
:100A5000089591E09093960D1092940D1092930D3D
:100A60001092970D21EE35E03093990D2093980D5B
:100A70008093950D90917C00907F90937C002091C5
:100A80007C00982F9770922B90937C00883020F0F8
:100A900080917B00886003C080917B00877F80937A
:100AA0007B0008958093950D90917C00907F9093AA
:100AB0007C0020917C00982F9770922B90937C0063
:100AC000883020F080917B00886003C080917B009B
:100AD000877F80937B0008958091970D8F5F80932F
:100AE000970D9091960D891711F41092970D8091A2
:100AF000970DE091930DF091940DE80FF11D208179
:100B00002093950D80917C00807F80937C00909154
:100B10007C00822F8770892B80937C00283020F006
:100B200080917B00886003C080917B00877F8093E9
:100B30007B00509178004091790020918E0D30918A
:100B40008F0D8091900D9091910D28173907C0F568
:100B50008091920D882329F480917A00806480939B
:100B60007A00942F80E0452F50E0482B592B80913C
:100B70007C0085FF11C080918E0D90918F0DE091CA
:100B80008A0DF0918B0DE80FF91F50830196909319
:100B90008F0D80938E0D089580918E0D90918F0D05
:100BA0009C01220F331FE0918C0DF0918D0DE20F0F
:100BB000F31F51834083019690938F0D80938E0D88
:100BC0000895509178004091790020918E0D3091D8
:100BD0008F0D8091900D9091910D28173907C0F5D8
:100BE0008091920D882329F480917A00806480930B
:100BF0007A00942F80E0452F50E0482B592B8091AC
:100C00007C0085FF11C080918E0D90918F0DE09139
:100C10008A0DF0918B0DE80FF91F50830196909388
:100C20008F0D80938E0D089580918E0D90918F0D74
:100C30009C01220F331FE0918C0DF0918D0DE20F7E
:100C4000F31F51834083019690938F0D80938E0DF7
:100C500008955091970D9091960D923050F1852FF7
:100C60008F5F8093970D891711F41092970D8091E3
:100C7000970DE091930DF091940DE80FF11D2081F7
:100C80002093950D80917C00807F80937C009091D3
:100C90007C00822F8770892B80937C00283020F085
:100CA00080917B00886003C080917B00877F809368
:100CB0007B00609178004091790020918E0D3091F9
:100CC0008F0D8091900D9091910D2817390718F58F
:100CD0008091920D882329F480917A00806480931A
:100CE0007A00942F80E070E0682B792B80917C0053
:100CF00085FF02C0672F7727E0919A0DF0919B0D39
:100D0000852F199580918E0D90918F0D019690935E
:100D10008F0D80938E0D08951F920F920FB60F9234
:100D20000BB60F9211242F933F934F935F936F93C2
:100D30007F938F939F93AF93BF93EF93FF93E09134
:100D4000980DF091990D1995FF91EF91BF91AF9189
:100D50009F918F917F916F915F914F913F912F91D3
:100D60000F900BBE0F900FBE0F901F9018951F9203
:100D70000F920FB60F9211240F900FBE0F901F907D
:100D80001895ECE7F0E080818F7380838081806428
:100D9000808308950F931F9300917C0010917B0036
:100DA00080917C00807E80937C0080917C008E61AD
:100DB00080937C0080917B00877F80937B0063E041
:100DC00070E080E090E00E94703480917A0080644E
:100DD00080937A0080917A0086FDFCCF2091780084
:100DE0004091790000937C0010937B00742F60E0A9
:100DF00030E0622B732B882777FD8095982F0E9417
:100E000024419B01AC0160E070E889E894E40E9411
:100E100089401F910F910895AF92BF92CF92DF92B8
:100E2000EF92FF920F931F930E944A345B016C0173
:100E300080917A00877D80937A0080917B00877013
:100E4000863029F480918100887F809381006091B1
:100E5000900D7091910D80E090E00E94224120E081
:100E600034E244E759E40E941A427B018C018091EC
:100E7000A40D9091A50DA091A60DB091A70DA81A53
:100E8000B90ACA0ADB0AC601B5010E9422419B01C8
:100E9000AC01C801B7010E9489406093A00D709316
:100EA000A10D8093A20D9093A30D1F910F91FF9020
:100EB000EF90DF90CF90BF90AF90089510928F0D7C
:100EC00010928E0D8091920D882321F080917A00EE
:100ED000806203C080917A008F7D80937A000E94A7
:100EE0004A346093A40D7093A50D8093A60D909342
:100EF000A70D80917A00886C80937A0080917B00A6
:100F00008770863081F480918100887F8093810092
:100F10001092850010928400809181009091A80D1C
:100F2000892B809381000895F999FECF72BD61BD30
:100F3000F89A80B50895F999FECF1FBA72BD61BDC8
:100F400040BD0FB6F894FA9AF99A0FBE0895FC01C5
:100F500013861586148687E090E0128631970097F5
:100F600011F00197FACF0895DF92EF92FF920F935D
:100F70001F93FC01E08001811281F894F8018181C6
:100F80008E2981838281DE2CD0948D21828383E01F
:100F900090E00E94C934F80181818D2181838AE02B
:100FA00090E00E94C934F8010081789485E390E0D4
:100FB0000E94C93480E010E0FF240E211F21012B84
:100FC00009F081E01F910F91FF90EF90DF9008955D
:100FD000EF92FF920F931F93CF93DF937C0101E079
:100FE00010E0C0E0D0E0C7010E94B4078111102BCF
:100FF000000F2196C830D105B1F7812FDF91CF9135
:101000001F910F91FF90EF9008951F93CF93DF935F
:10101000FC011081C181D281912F909560FF12C097
:10102000F8948A8189238A838981812B89838AE044
:1010300090E00E94C9348A81812B8A83789487E367
:1010400090E011C0F8948A8189238A838981812B59
:10105000898381E490E00E94C9348A81812B8A834C
:10106000789485E090E00E94C934DF91CF911F9180
:101070000895CF92DF92EF92FF920F931F93CF9339
:10108000DF938C01E42EFF24F394C0E0D0E0C62E61
:10109000DD2460E08F2D90E08C219D21892B09F0CB
:1010A00061E0C8010E940508FF0C2196C830D105F7
:1010B00081F7EE20A9F4F894D8011196ED91FC91F6
:1010C000129791818C918095982391831196ED913F
:1010D000FC91129792818C918095982392837894B9
:1010E000DF91CF911F910F91FF90EF90DF90CF9004
:1010F0000895EF92FF920F931F93CF93DF938C018C
:101100007B0165E540E00E943908C0E0D0E0F701CE
:10111000EC0FFD1FC801608140E00E943908219654
:10112000C830D105A1F7DF91CF911F910F91FF90AA
:10113000EF900895DF92EF92FF920F931F93CF935A
:10114000DF93FC010081C181D281F8948981D02E86
:10115000D0948D21898378941DE7E02EFF241150CF
:1011600059F182E090E00E94C934888190E08E219C
:101170009F21892BA1F3F8948A818D218A8389810B
:10118000802B8983789480EE91E00E94C934F89492
:1011900089818D21898386E490E00E94C934888109
:1011A00010E090E0E822F922EF2809F411E07894A9
:1011B0008AE991E00E94C934812FDF91CF911F917C
:1011C0000F91FF90EF90DF900895AF92BF92DF9262
:1011D000EF92FF920F931F93CF93DF93EC015B018C
:1011E0008D85882309F061C0CE010E949A0888236A
:1011F00029F41B861D861C8690E06BC0CE0160EF33
:1012000040E00E94390801E0DD24EE24FF24F3943D
:10121000CE010E94B407182FCE010E94B4071130EE
:1012200019F48130E1F439C0181709F58B850817D6
:1012300070F460E0FE01EE0DF11D838190E02F2D32
:1012400030E082239323181619064CF003C060E0A7
:10125000081729F0093008F04CC00C874AC0FE017D
:10126000EE0DF11D83818F29838361E009C0612F19
:10127000FE01EE0DF11D9F2D9095838189238383BF
:10128000CE010E9405080F5FFF0C19F4E394FF24C0
:10129000F39487E08E1508F0BBCF013430F0DB8685
:1012A000DD2011F581E08D871FC01B861D861C8601
:1012B00090E0DE0120E030E0F501E20FF31F13962D
:1012C0008C91139780832F5F3F4F11962830310503
:1012D00099F7892FDF91CF911F910F91FF90EF9098
:1012E000DF90BF90AF9008958B818823F1F291E059
:1012F000E0CFD02EBDCFFF920F931F938C01F62E1F
:10130000862F60E00E9415368F2D90E0FC01EA5494
:10131000FE4FE491D801EC9380599E4FFC016491FB
:10132000E62FF0E0EE0FFF1FEA5AFE4F85919491F1
:1013300012969C938E9311971B961C921B971D9649
:101340001C921D971C961C92F80187E090E0128673
:101350003197009711F00197FACF1F910F91FF90ED
:101360000895882319F48CB5806202C08CB58F7DF6
:101370008CBD08959CB5937F982B9CBD08952CB58A
:10138000382F33702C7F322B3CBD2DB590E09595D6
:1013900087959595879581702E7F822B8DBD0895B9
:1013A00085E361E00E94C83685E361E00E9415365E
:1013B0008CB580618CBD8CB580648CBD84E361E0AC
:1013C0000E94153683E361E00E94153608951F924E
:1013D0000F920FB60F920BB60F9211242F933F93DB
:1013E0004F935F936F937F938F939F93AF93BF932D
:1013F000EF93FF93E091AD0DF091AE0D1995FF9134
:10140000EF91BF91AF919F918F917F916F915F917C
:101410004F913F912F910F900BBE0F900FBE0F90E9
:101420001F90189581E08093F40D6093D10D109278
:10143000F20D1092F30D089581E08093F40D609306
:10144000D10D1092F20D1092F30D08952091D00D50
:1014500030E08091CF0D281B3109C90108954091DA
:10146000CF0D8091D00D481718F02FEF3FEF0AC035
:10147000E42FF0E0E155F24F8081282F30E04F5FFC
:101480004093CF0DC9010895E091CF0D8091D00D0B
:10149000E81718F0EFEFFFEF06C0F0E0E155F24F6C
:1014A0008081E82FF0E0CF01089508951092F80DA3
:1014B0001092F70D88EE93E0A0E0B0E08093F90D74
:1014C0009093FA0DA093FB0DB093FC0D87EE93E083
:1014D0009093F60D8093F50D0895CF92DF92EF92E1
:1014E000FF920F931F93CF93DF937C016B018A01CF
:1014F0008091F40D8823A1F0C0E0D0E00DC0D701A9
:10150000ED91FC91D601AC0FBD1F0190F081E02D53
:10151000C7016C9119952196C017D10780F304C0BB
:10152000CB01642F0E94B90BC801DF91CF911F91AD
:101530000F91FF90EF90DF90CF900895DF93CF93BE
:101540000F92CDB7DEB7FC0169838091F40D88233B
:10155000C9F08091F30D803238F081E090E0938300
:10156000828320E030E015C08091F20DE82FF0E09A
:10157000EE52F24F998190838F5F8093F20D8093AA
:10158000F30D05C0CE01019661E00E94B90B21E088
:1015900030E0C9010F90CF91DF9108950F93062F8E
:1015A0008091D10D62ED7DE04091F30D21E00E942C
:1015B000640B1092F20D1092F30D1092F40D0F9136
:1015C000089561E00E94CE0A0895413208F040E299
:1015D000862F6FEA7DE00E941B0B1092CF0D809347
:1015E000D00D089521E00E94E50A089521E00E94AF
:1015F000E50A08951092CF0D1092D00D1092F20DC1
:101600001092F30D0E94050B08951092010E81E0D7
:101610008093030E1092040EE9EBF0E080818E7F40
:10162000808380818D7F808388E48093B80085E407
:101630008093BC000895382F413210F040E042C042
:101640008091010E8823E1F791E09093010E2093A1
:10165000030E8FEF80936E0E1092290E415040932F
:101660002A0E4F5F9093020E8091020E330F832B50
:101670008093020E8091040E813041F41092040E8A
:101680008091020E8093BB0085EC01C085EE8093B3
:10169000BC008091010E8130E1F38091290E841706
:1016A00010F44091290E20E030E00AC0FB01E20F67
:1016B000F31FD901A75FB14F8C9180832F5F3F4FFC
:1016C0002417A0F3842F08950F931F93582F122FE0
:1016D000413210F081E04AC08091010E8823E1F789
:1016E00082E08093010E0093030E8FEF80936E0EC5
:1016F0001092290E40932A0EA9E0BEE0FB0102C021
:1017000081918D938E2F861B8417D0F31092020E39
:101710008091020E550F852B8093020E8091040E4E
:10172000813041F41092040E8091020E8093BB0030
:1017300085EC01C085EE8093BC00112321F08091DF
:10174000010E8230E1F380916E0E8F3F11F480E044
:101750000DC080916E0E803211F482E007C080913E
:101760006E0E803311F084E001C083E01F910F9171
:101770000895482F613210F081E008958091010EA4
:10178000843011F082E0089560934C0EABE2BEE02D
:10179000842F9C01F90102C081918D938E2F841BAF
:1017A0008617D0F380E008951F920F920FB60F9224
:1017B0000BB60F9211242F933F934F935F936F9328
:1017C0007F938F939F93AF93BF93EF93FF938091FA
:1017D000B90090E0887F90708036910509F4F2C0DE
:1017E00081369105CCF58832910509F47BC08932A8
:1017F0009105B4F48031910509F46FC081319105F0
:101800003CF4009709F447C1089709F04FC165C03F
:101810008831910509F466C0809709F047C182C0FC
:101820008034910509F4A4C08134910544F48033D7
:10183000910509F482C0C89709F038C189C0803584
:10184000910509F489C08835910509F496C088345A
:10185000910509F02BC1AEC08839910509F413C177
:1018600089399105ECF48837910509F4ABC08937C3
:1018700091054CF48836910509F4A4C08037910590
:1018800009F014C19FC08838910509F4FCC0803963
:10189000910509F49DC08038910509F007C198C0F1
:1018A000803B910509F4C6C0813B91054CF4803A18
:1018B000910509F49FC0883A910509F0F7C0BAC0B4
:1018C000803C910509F4E3C0883C910509F4DFC030
:1018D000883B910509F0EAC0C2C08091020E809356
:1018E000BB00CFC09091290E80912A0E981768F402
:1018F0009091290EE92FF0E0E75FF14F808180930E
:10190000BB009F5F9093290EBCC08091030E88237B
:1019100009F44BC085ED8093BC008091BC0084FD30
:10192000FCCFC2C080E280936E0E85ED8093BC0038
:101930008091BC0084FDFCCFB7C080E380936E0E25
:1019400085ED8093BC008091BC0084FDFCCFACC0D1
:1019500088E380936E0E9BC08091290E9091BB000E
:10196000E82FF0E0E75FF14F90838F5F8093290EBF
:101970009091290E80912A0E82C08091290E90911B
:10198000BB00E82FF0E0E75FF14F90838F5F80931B
:10199000290E8091030E882341F085ED8093BC00D1
:1019A0008091BC0084FDFCCF7FC081E08093040E59
:1019B00084EA6EC085ED8093BC008091BC0084FDFC
:1019C000FCCF72C083E08093010E10926D0E59C05F
:1019D00080916D0E803208F056C080916D0E90910E
:1019E000BB00E82FF0E0E35BF14F90838F5F8093C3
:1019F0006D0E47C080916D0E803230F4E0916D0E17
:101A0000F0E0E35BF14F108285ED8093BC008091A4
:101A1000BC0084FDFCCF1092010E60916D0EE09130
:101A2000070EF091080E8DE49EE070E0199510927B
:101A30006D0E2DC084E08093010E10924B0E10921B
:101A40004C0EE091050EF091060E199580914C0E0A
:101A5000882329F481E080934C0E10922B0E9091F4
:101A60004B0EE92FF0E0E55DF14F80818093BB00E4
:101A70009F5F90934B0E90914B0E80914C0E981758
:101A800010F485EC01C085E88093BC000FC085ECA4
:101A90008093BC0009C010926E0E85ED8093BC004F
:101AA0008091BC0084FDFCCF1092010EFF91EF915C
:101AB000BF91AF919F918F917F916F915F914F9166
:101AC0003F912F910F900BBE0F900FBE0F901F9064
:101AD000189583EF93E0089588E094E008958CE0F2
:101AE00094E0089583E294E008958DE394E00895EE
:101AF00084E494E008958CE292E008950F931F939C
:101B00008C0182E061E00E94C8360C5A174FF80140
:101B100010821F910F9108957F928F929F92AF92A2
:101B2000BF92CF92DF92EF92FF920F931F93DF93BA
:101B3000CF930F920F92CDB7DEB74C0100E035E5A1
:101B4000C32E38E0D32EC80ED91E2BE6E22E28E095
:101B5000F22EE80EF91E5E010894A11CB11C772438
:101B60007A940FC018E019837A82F7016081600FC0
:101B7000C401A50122E00E94011F1F5F1D3099F7DB
:101B80000F5F202F30E0F6018081918168E270E0E4
:101B90000E94F5422617370728F30F900F90CF9138
:101BA000DF911F910F91FF90EF90DF90CF90BF904A
:101BB000AF909F908F907F9008954F925F926F9219
:101BC0007F928F929F92AF92BF92CF92DF92EF92CD
:101BD000FF920F931F93DF93CF930F920F92CDB786
:101BE000DEB78C012C01EE2475E5872E78E0972E68
:101BF000880E991E65E4C62E68E0D62EC80ED91E42
:101C00005BE6A52E58E0B52EA80EB91E3E0108943D
:101C1000611C711C33C048E0F42E30E040E050E01D
:101C2000F60180819181F801E80FF91FE259FF4F19
:101C300020810196F6019183808380E090E0222349
:101C400011F481E090E0042E02C0880F991F0A94DD
:101C5000E2F7380F4F5F5F4F4830510509F73A837D
:101C6000F50160816E0DF982C201A30122E00E949C
:101C7000011FF394FDE0FF1681F6E3942E2D30E072
:101C8000F4018081918168E270E00E94F54226179C
:101C9000370708F20F900F90CF91DF911F910F91AE
:101CA000FF90EF90DF90CF90BF90AF909F908F907C
:101CB0007F906F905F904F90089582E060E00E9467
:101CC000C83664EF71E080E090E00E9470340895BF
:101CD000CF92DF92EF92FF920F931F93DF93CF93F8
:101CE000CDB7DEB72A970FB6F894DEBF0FBECDBFD3
:101CF0008C014F83588769877A876A017B01FC01D1
:101D0000EA54F74F608171818281938124EA30E740
:101D10004DE75FE30E941A429B01AC01C701B60187
:101D20000E94164288230CF451C0F801E654F74F84
:101D300060817181828193812EEA37E441E85FE31B
:101D40000E941A429B01AC01C701B6010E94854066
:101D50001816E4F18AEA8A838F819885A985BA8565
:101D60008B839C83AD83BE83ECE6EE2EE8E0FE2EF3
:101D7000E00EF11EC801F7016081AE014E5F5F4FBA
:101D800025E00E94011F64E670E080E090E00E9480
:101D9000703485EF9DE0F701608141E00E94F60A12
:101DA00085EF9DE00E94260A892B91F085EF9DE04A
:101DB0000E942F0A813061F4C801F7016081AE01F1
:101DC0004F5F5F4F21E00E94E21E02C088E08983DE
:101DD0002981222359F4045A174F8F819885A985A8
:101DE000BA85F80180839183A283B383822F2A96D8
:101DF0000FB6F894DEBF0FBECDBFCF91DF911F911C
:101E00000F91FF90EF90DF90CF9008959F92AF9247
:101E1000BF92CF92DF92EF92FF920F931F93DF93C7
:101E2000CF93CDB7DEB72A970FB6F894DEBF0FBEBB
:101E3000CDBF8C015A016B01922E1982FC01E25434
:101E4000F74FCB01BA0120813181428153810E9439
:101E5000854018160CF44DC0F801E05AF74FC60142
:101E6000B50120813181428153810E9489406A837A
:101E70007B838C839D8388EA8E838A819B81AC815E
:101E8000BD818F839887A987BA87FCE6EF2EF8E09B
:101E9000FF2EE00EF11EC801F7016081AE014A5F1E
:101EA0005F4F25E00E94011F992029F164E670E050
:101EB00080E090E00E94703485EF9DE0F701608142
:101EC00041E00E94F60A85EF9DE00E94260A892BD8
:101ED00091F085EF9DE00E942F0A813061F4C801E6
:101EE000F7016081AE014F5F5F4F21E00E94E21E6B
:101EF00002C088E089838981882339F4085A174F02
:101F0000F801A082B182C282D3822A960FB6F894D9
:101F1000DEBF0FBECDBFCF91DF911F910F91FF901C
:101F2000EF90DF90CF90BF90AF909F900895FC010D
:101F3000E05AF74F4083518362837383389740811F
:101F4000518162817381E855F840CF0120E00E9401
:101F5000060F08956F927F928F929F92AF92BF92D9
:101F6000CF92DF92EF92FF920F931F93CF93DF9365
:101F7000EC01D62EA5E6EA2EA8E0FA2EE80EF91E10
:101F8000682EAD2E00E010E0E881F981B8016C59AF
:101F90007F4F0088F189E02D862D9A2D1995F70144
:101FA000E00FF11F80830F5F1F4F0D35110561F7A3
:101FB000CB59D74F88819981C556D840892B39F59F
:101FC000C959D74F88819981C756D840892BF9F4D0
:101FD0009E012759374FF90180819181892BB9F4EE
:101FE000FE01E355F74FC05AD74F88819981AA81E6
:101FF000BB81C056D84080839183A283B38381E0A4
:1020000090E0F90191838083CE010E94C011CB59E9
:10201000D74F88819981C556D840892BE1F4C95999
:10202000D74F88819981C756D840892BA1F4FE01EA
:10203000E759F74F80819181019769F4C559D74FCE
:1020400080E28883CB56D84082E090E09183808301
:10205000CE010E94C011CB59D74F88819981C556B6
:10206000D840892B11F5C959D74F88819981C75616
:10207000D840892BD1F4FE01E759F74F8081918137
:10208000029799F4CF54D74F80E090E0A0EAB0E4F3
:1020900088839983AA83BB83C15BD84083E090E0A7
:1020A00091838083CE010E94C011CB59D74F888184
:1020B0009981C556D840892BD9F4C959D74F888101
:1020C0009981C756D840892B99F4FE01E759F74FFB
:1020D00080819181039761F4CB54D74F1882C55BFF
:1020E000D84084E090E091838083CE010E94C011AB
:1020F000CB59D74F88819981C556D840892B91F506
:10210000C959D74F88819981C756D840892B51F535
:10211000FE01E759F74F80819181049719F5CA5460
:10212000D74F80E090E0A8ECB2E489939993A9930B
:10213000B99380E090E4ACE9B6E489939993A993CC
:10214000B99380E090E0A8E4B3E488839983AA83FC
:10215000BB83CE5BD84085E090E091838083CE0145
:102160000E94C011CB59D74F88819981C556D8405C
:10217000892B99F4C959D74F88819981C756D8407E
:10218000892B59F4C759D74F88819981C956D840AE
:10219000059719F4DD2009F4B3C0CB59D74F199234
:1021A00019921992199285E090E099838883249678
:1021B0000F2EF0E0AF2EF0E4BF2EFCE9CF2EF6E4B8
:1021C000DF2EF02DA992B992C992D9920F2EF0E08C
:1021D000EF2EF0E5FF2EF3E40F2FF8E41F2FF02D84
:1021E000E992F9920993199320E034E244EF59E41B
:1021F000288339834A835B8360960F2EF0E06F2E2D
:10220000F0E07F2EF8E48F2EF3E49F2EF02D6992FC
:1022100079928992999280E090E0AAEFB4E4899350
:102220009993A993B993A992B992C992D992E99233
:10223000F99209931993288339834A835B836497BE
:102240002FEF36EE4BE55EE2288339834A835B83CA
:10225000A896288339834A835B83ED978AE0888335
:102260002D9680E090E0A0E0B0E089939993A99347
:10227000B99388839983AA83BB836C9629933993F6
:1022800049935993299339934993599329933993AE
:1022900049935993288339834A835B83C55AD8402D
:1022A000FE01E355F74FC05AD74F88819981AA8123
:1022B000BB8180839183A283B3832B9680E2888342
:1022C000CA5BDF4F80E090E0A0EAB0E48993999385
:1022D000A993B993199280E090E0A8ECB2E48993B5
:1022E0009993A993B993A992B992C992D992688204
:1022F00079828A829B82CE5BD840CE010E94C01137
:10230000C355D74FE880F9800A811B81CD5AD84048
:10231000C801B70120E030E040E050E00E94854075
:10232000FE01EC59F74F18161CF081E0808309C0BC
:10233000C05AD74FE882F9820A831B83C056D8401F
:102340001082CB54D74F8881C55BD840882321F0B9
:10235000CE0160E042E003C0CE0160E041E00E94B7
:10236000AB33DF91CF911F910F91FF90EF90DF90F2
:10237000CF90BF90AF909F908F907F906F90089577
:10238000CF92DF92EF92FF920F931F93CF93DF9341
:102390008C01B5E6EB2EB8E0FB2EE80EF91E6C01C1
:1023A000C0E0D0E0F701EC0FFD1FC601CC59DF4FB4
:1023B000BE0140810E94D81EC356D040CD35D10504
:1023C00089F7C80160E00E94AA0FDF91CF911F91A9
:1023D0000F91FF90EF90DF90CF9008952F923F9252
:1023E0004F925F926F927F928F929F92AF92BF9225
:1023F000CF92DF92EF92FF920F931F93DF93CF93D1
:102400000F920F92CDB7DEB78C010C5A174F81E0B7
:10241000F801808304551840C8010E945D0EF80140
:10242000EB5AF74F118210822801AA24BB2498E2AC
:10243000892E912C8BE6C82E88E0D82EC00ED11E96
:102440003E010894611C711C1F01EA2CF8E1F9831C
:102450008FEF8A83F60160816A0DC201A30122E039
:102460000E94011FF60160816A0DC201A30121E0F3
:102470000E94E21E89818F3F09F04AC0FF24F8E1E3
:10248000FF0EF98288EEF80E1A82F60160816E0D59
:10249000C201A30122E00E94011FF60160816E0DBE
:1024A000C201A30121E00E94E21E8981882381F5F7
:1024B000F8E0FF0EF9828FEF8A83F60160816E0DDE
:1024C000C201A30122E00E94011FF9EFFF0E85E087
:1024D000F816A9F684ED90E160E372E00E94803D79
:1024E00084ED90E1B5014AE050E00E944E3D84ED5C
:1024F00090E16AE372E00E947D3E940128523040F0
:10250000F101808191818217930711F49182808279
:102510000894A11CB11C88E290E0880E991E98E0F6
:10252000A916B10409F091CF0B5A174FF801608139
:1025300071810555184084ED90E14AE050E00E9419
:10254000B03C84ED90E166E472E00E947D3EC801FB
:1025500040E050E46CE176E40E94680E0F900F902A
:10256000CF91DF911F910F91FF90EF90DF90CF906F
:10257000BF90AF909F908F907F906F905F904F90A3
:102580003F902F9008952F923F924F925F926F92BB
:102590007F928F929F92AF92BF92CF92DF92EF92F3
:1025A000FF920F931F93DF93CF93CDB7DEB7AA9718
:1025B0000FB6F894DEBF0FBECDBF7C010E949B1FFB
:1025C00082E061E00E94C83682E061E00E94153638
:1025D00080E698E0E80EF91E80E090E0A6E9B3E41A
:1025E000F70180839183A283B38380EA97EFE80E9B
:1025F000F91EC70160E00E94AA0FD701ED91FC917E
:102600000680F781E02DC7011995BC0184ED90E1AA
:102610000E94803D84ED90E16BE572E00E94803D78
:10262000D701ED91FC910484F585E02DC701199542
:10263000BC0184ED90E10E947D3E84ED90E16EE569
:1026400072E00E94803DD701ED91FC910284F385F8
:10265000E02DC7011995BC0184ED90E10E947D3EFB
:1026600084ED90E161E772E00E94803DE5E6F8E0EC
:10267000EE0EFF1ED7016D917D917D0184ED90E1FD
:102680004AE050E00E94B03C84ED90E168E872E0DE
:102690000E94803DF701619171917F0184ED90E18D
:1026A0004AE050E00E94B03C84ED90E168E872E0BE
:1026B0000E94803DD7016D917C91E7E9F7EFEE0E26
:1026C000FF1E84ED90E14AE050E00E94C13C84EDA1
:1026D00090E16AE872E00E94803DF701E459F74F0B
:1026E00084ED90E160814AE050E00E94F03CDD24FE
:1026F0001E010894211C311C7FE0472E512C4C0EEA
:102700005D1E6DE1662E712C6C0E7D1E56E1852ED0
:10271000912C8C0E9D1E44E2A42EB12CAC0EBD1E3D
:10272000C3C0CE0108966EEA72E00E949C3FC101D0
:102730006D2D4AE00E94CF3FCE010896B1010E9464
:10274000653F60EB72E00E94493F8C01C2016C2D35
:102750004AE00E94CF3FC801B2010E94653F64EC8D
:1027600072E00E94493FBC0184ED90E10E94903EDE
:10277000C2010E940140C1010E940140CE010896A1
:102780000E940740DD2041F0F1E0DF1649F040E013
:1027900050E060E070E013C0EC2DF0E0329603C032
:1027A000EC2DF0E03896EE0FFF1FEE0FFF1FEE0D41
:1027B000FF1DEB59F74F408151816281738184ED98
:1027C00090E122E030E00E946A3EC3016EEA72E0CE
:1027D0000E949C3FC4016D2D4AE00E94CF3FC3017F
:1027E000B4010E94653F67EC72E00E94493F8C0192
:1027F000C5016C2D4AE00E94CF3FC801B5010E947F
:10280000653F64EC72E00E94493FBC0184ED90E1B9
:102810000E94903EC5010E940140C4010E940140F7
:10282000C3010E940740DD2041F081E0D81649F045
:1028300060E070E080E090E013C0EC2DF0E03596B1
:1028400003C0EC2DF0E03D96EE0FFF1FEE0FFF1FD3
:10285000EE0DFF1DEB59F74F6081718182819381ED
:1028600025EA34ED48E653E50E941A42AB01BC016B
:1028700084ED90E122E030E00E94673E84ED90E13B
:102880006CED72E00E947D3EC394DD2029F091E062
:10289000D91631F485E001C083E0C81608F441CFB1
:1028A000D394A2E0DA1611F0CC24EFCF84ED90E1BE
:1028B00060EE72E00E94803DEBE6F8E0EE0EFF1E57
:1028C00084ED90E1D7016C914AE050E00E94F03C29
:1028D00084ED90E16DEF72E00E94803DE2E4F0E073
:1028E000EE0EFF1ED7014D915D916D917D917D01A1
:1028F00084ED90E122E030E00E946A3E84ED90E1B8
:102900006DE073E00E94803DF7014191519161912A
:1029100071917F0184ED90E122E030E00E946A3EF7
:1029200084ED90E160E273E00E94803DD7016C91FC
:1029300084ED90E170E04AE050E00E94613D84ED5A
:1029400090E169E373E00E94803DEFEAFFEFEE0E55
:10295000FF1ED7016C9184ED90E170E04AE050E0F9
:102960000E94613D84ED90E165E573E00E94803D49
:10297000E2E5F0E0EE0EFF1ED7014D915D916D9105
:102980007D917D0184ED90E122E030E00E946A3E7D
:1029900084ED90E16DE673E00E94803DF701419186
:1029A0005191619171917F0184ED90E122E030E0DD
:1029B0000E946A3E84ED90E165E873E00E94803DEC
:1029C000F701408151816281738184ED90E122E0C1
:1029D00030E00E946A3EAA960FB6F894DEBF0FBEA2
:1029E000CDBFCF91DF911F910F91FF90EF90DF90BE
:1029F000CF90BF90AF909F908F907F906F905F909F
:102A00004F903F902F900895FC018BE794E09183C5
:102A10008083CF010E94961D08950F931F938C0110
:102A200061E00E943A208BE794E0F8019183808373
:102A30000E5A174FF801119210821F910F910895AD
:102A40007F928F929F92AF92BF92CF92DF92EF923E
:102A5000FF920F931F93DF93CF930F920F92CDB7F7
:102A6000DEB75C019B01742ECB0168E270E00E942E
:102A7000F542862EC90168E270E00E94F5426C01C1
:102A8000A3E096958795AA95E1F7982E082D10E07A
:102A9000FBE6EF2EF8E0FF2EEA0CFB1CF70180812D
:102AA000B801680F711D85EF9DE00E941C0A692D19
:102AB00070E0685F7F4F85EF9DE00E949E0A85EF82
:102AC0009DE00E94E10AF7018081080F111D85EF4A
:102AD0009DE0B80141E050E00E94F20A85EF9DE0E0
:102AE0000E94260A892B11F481E03BC00C2D07704F
:102AF000F8E09F0E998285EF9DE00E942F0A282F13
:102B0000772071F481E090E0A0E0B0E004C0880F8D
:102B1000991FAA1FBB1F0A95D2F7282B2A830EC024
:102B200081E090E0A0E0B0E004C0880F991FAA1FE8
:102B3000BB1F0A95D2F7809582238A838BE698E0A3
:102B4000A80EB91EF501608185E997EFA80EB91EA0
:102B5000680DC501AE014F5F5F4F22E00E94011F6B
:102B600080E00F900F90CF91DF911F910F91FF9018
:102B7000EF90DF90CF90BF90AF909F908F907F901D
:102B800008952F923F924F925F926F927F928F9211
:102B90009F92AF92BF92CF92DF92EF92FF920F93EC
:102BA0001F93DF93CF93CDB7DEB76A970FB6F89434
:102BB000DEBF0FBECDBF3C01B62E23E538E0620E6E
:102BC000731E81E0D3018D933D018C91ECEAF7EF08
:102BD0006E0E7F1E882319F4C3010E94EE11F1EBE3
:102BE000BF1609F4B2C3FB15D8F128EAB21609F4EE
:102BF00012C22B15D8F032EAB31609F40DC13B15F9
:102C000048F040EAB41609F469C051EAB51609F073
:102C100064C77CC064EAB61609F4A9C1B61608F404
:102C200018C177EAB71609F058C7DEC18DEAB816A1
:102C300009F4A4C28B1548F099EAB91609F414C234
:102C4000AAEABA1609F049C76FC2BFEABB1609F46F
:102C5000ECC2F301E05CF74FBB1508F425C3C2C218
:102C6000E8EBBE1609F49DC6EB15D0F0F4EBBF16E9
:102C700009F452C4FB1548F022EBB21609F4BBC3A9
:102C800033EBB31609F029C72FC446EBB41609F489
:102C9000BCC4F301E05CF74F4B1508F442C698C47E
:102CA0005CEBB51609F4BEC65B1558F06AEBB616B8
:102CB00009F443C6F301E05CF74F6B1508F459C6FD
:102CC0008FC674EFB71609F4E4C485EFB81609F49B
:102CD000FFC59DEBB91609F000C7C7C6A0E4B8E070
:102CE0006A0E7B1EF3018081918120EC37EF620E2A
:102CF000731E830104591F4F892B09F0B4C6B30119
:102D00006B5A774FC30142E050E02CC120E438E019
:102D1000620E731ED3018D919C91E0ECF7EF6E0E65
:102D20007F1E830104591F4F892B09F09CC6D801CF
:102D30001C92688EA72CCC24F301EB5AF74FFA8F24
:102D4000E98F5BE6252E58E0352E260C371C48010E
:102D500054C048E0D42E2901D1018C91B201680FF2
:102D6000711D85EF9DE00E941C0A85EF9DE06D2D91
:102D70000E949E0A85EF9DE00E94E10AF101808198
:102D8000B201680F711D85EF9DE041E050E00E94A7
:102D9000F20A85EF9DE00E94260A892B21F185EF3A
:102DA0009DE00E942F0A00E010E0E82EFF24C701FA
:102DB000002E02C0959587950A94E2F721E030E055
:102DC0008227932781708983888D9A2DBE016F5F3A
:102DD0007F4F41E050E00E949C1D0F5F1F4F083065
:102DE000110529F704C0E1E0D401EC9305C0D394A8
:102DF000FDE0DF1609F0B0CFC3942C2D30E0A98D93
:102E0000BA8D8D919C9168E270E00E94F542261780
:102E1000370708F49ECF61C6F301E05CF74F25E564
:102E200038E0620E731E20813181D3018D919C9117
:102E3000EBEAF7EF6E0E7F1E830104591F4F281730
:102E4000390709F010C6C3010E94DD0DD8011C929C
:102E500044C620E438E0620E731ED3018D919C912C
:102E6000E0ECF7EF6E0E7F1E029709F02BC6D30140
:102E7000AB5BB74F8D919C91119782599F4FF30196
:102E8000E80FF91F0190F081E02D8C5690408D9352
:102E90009C9325E538E0620E731ED3018D919C91C1
:102EA0002BEA37EF620E731EE817F90728F04CE69D
:102EB00050E0640E751E16C3CF0168E270E00E94F8
:102EC000F5426C01CF0168E270E00E94F542062FE6
:102ED00010E03BE6E32E38E0F32EE60CF71CD701BA
:102EE0008C91B801680F711D85EF9DE00E941C0A4E
:102EF000B60123E0769567952A95E1F770E0685F63
:102F00007F4F85EF9DE00E949E0A85EF9DE00E9425
:102F1000E10AF7018081080F111D85EF9DE0B801DE
:102F200041E050E00E94F20A85EF9DE00E94260AEF
:102F3000830104591F4F892BC1F085EF9DE00E944A
:102F40002F0A90E02C2D277002C0959587952A9521
:102F5000E2F7809581708983C301BE016F5F7F4F67
:102F600041E050E00E949C1D71CF81E03AC020E416
:102F700038E0620E731ED3018D919C91E0ECF7EF67
:102F80006E0E7F1E039709F09DC5D301AB5BB74F53
:102F90008D919C911197FC01E259FF4FE60DF71DB1
:102FA00060817181F301E80FF91FE059FF4F408103
:102FB00003968D939C9325E538E0620E731ED30132
:102FC0008D919C91EBEAF7EF6E0E7F1E8301045901
:102FD0001F4F6817790720F4C3010E942015CBC04A
:102FE00085E0F801808379C520E438E0620E731E25
:102FF000D3018D919C91E0ECF7EF6E0E7F1E830163
:1030000004591F4F892B09F02EC5D8011C92B3011A
:10301000685A774F7FC220E438E0620E731ED301F6
:103020008D919C91E0ECF7EF6E0E7F1E83010459A9
:103030001F4F049709F017C5D301AB5BB74F8D91B4
:103040009C91119782599F4FF301E80FF91F40811E
:103050005181628173818A5690408D939C93C30104
:1030600021E00E94060F87C020E438E0620E731E44
:10307000D3018D919C91E0ECF7EF6E0E7F1E892BB2
:1030800009F020C5F62CE72C83010459174FC30122
:10309000D8016C9149EA0E94251F64E670E080E047
:1030A00090E00E94703485EF9DE0F801608141E07E
:1030B0000E94F60A85EF9DE00E94260A892B09F4FA
:1030C0000CC585EF9DE00E942F0A853009F005C5EB
:1030D00038018F2D9E2DD8016C91AE01475F5F4F57
:1030E00025E00E94E21E8D85E0E0F8EF6E0E7F1E67
:1030F000D3018C93E4E9FFEF6E0E7F1E882309F065
:10310000ECC4F301E45AF74F89859A85AB85BC85F9
:1031100080839183A283B3838F2D9E2DBF0144E0D2
:1031200050E00E949C1DD9C420E438E0620E731E5A
:10313000D3018D919C91E0ECF7EF6E0E7F1E830121
:1031400004591F4F049709F08EC4D301AB5BB74FEE
:103150008D919C91119782599F4FF301E80FF91FB0
:1031600040815181628173818A5690408D939C93F6
:10317000C3010E94680ED8018C93AFC420E438E0EC
:10318000620E731ED3018D919C91E0ECF7EF6E0EF1
:103190007F1E019709F096C4D301AB5BB74F8D91A9
:1031A0009C911197F301E80FF91FE259FF4F20811D
:1031B00001968D939C93830104591F4F223008F090
:1031C0000FCF30E08BE190E0289FF001299FF00DB8
:1031D000389FF00D1124EB58F14F81818983D8017C
:1031E0001C923AC480819181830104591F4F029738
:1031F00009F039C4D301AB5BB74F2D913C911197C6
:10320000F301E20FF31FE259FF4F80812F5F3F4F21
:10321000F301E20FF31FE259FF4F60812F5F3F4F31
:103220002D933C930E94722DA6CF20E438E0620ECD
:10323000731ED3018D919C91E0ECF7EF6E0E7F1E13
:10324000019709F03FC4D301AB5BB74F8D919C91BF
:103250001197F301E80FF91FE259FF4F40810196E2
:103260008D939C93830104591F4F423008F0B8CED0
:10327000D8011C92242F30E08BE190E0289FF001D0
:10328000299FF00D389FF00D1124EB58F14FE1818B
:10329000442321F0413009F08FC003C0F0E03296A2
:1032A00095C0F0E0389692C08081918183010459E5
:1032B0001F4F059709F092C3D301AB5BB74F8D91B8
:1032C0009C911197F301E80FF91FE259FF4FE0813C
:1032D00001968D939C93D8011C92EE2321F0E1304E
:1032E00009F0FCC019C0E091760EF0E0B3016B5B11
:1032F000774FDB018D919C9182599F4FD301A80F8D
:10330000B91F2D913D914D915C918A569040DB0102
:103310008D939C933296D2C0E091910EF0E0B30170
:103320006B5B774FDB018D919C9182599F4FD3014D
:10333000A80FB91F2D913D914D915C918A569040F7
:10334000DB018D939C933896B9C0E0E4F8E06E0EF3
:103350007F1ED3018D919C91E0ECF7EF6E0E7F1EE6
:10336000019709F0AFC3D301AB5BB74F8D919C912F
:103370001197F301E80FF91FE259FF4F40810196C1
:103380008D939C93830104591F4F423008F028CE3F
:10339000D8011C92242F30E08BE190E0289FF001AF
:1033A000299FF00D389FF00D1124EB58F14FE1816A
:1033B000442339F0413041F080E090E0A0E0B0E0FB
:1033C00011C0F0E0359602C0F0E03D96EE0FFF1F11
:1033D000EE0FFF1FE60DF71DEB59F74F808191812E
:1033E000A281B38189839A83AB83BC83C301BE016D
:1033F0006F5F7F4F94CE20E438E0620E731ED301DE
:103400008D919C91E0ECF7EF6E0E7F1E83010459C5
:103410001F4F059709F0E2C2A3014B5B574FDA013A
:103420002D913C911197F301E20FF31FE259FF4FE9
:10343000E0812F5F3F4F2D933C9321503040D801C6
:103440001C92EE2321F0E13009F048C01FC0E0914A
:10345000760EF0E021593F4FD301A20FB31FED903C
:10346000FD900D911C912A563040DA012D933C932A
:103470003596EE0FFF1FEE0FFF1FE60DF71DEB5900
:10348000F74FE082F1820283138324C0E091910E12
:10349000F0E0B3016B5B774FDB018D919C9182591A
:1034A0009F4FD301A80FB91F2D913D914D915C9174
:1034B0008A569040DB018D939C933D96EE0FFF1F43
:1034C000EE0FFF1FE60DF71DEB59F74F20833183F9
:1034D00042835383C3010E94C011FFC2ECE6F0E0B7
:1034E0006E0E7F1E85E0F3C2E0E4F8E06E0E7F1EF4
:1034F000D3018D919C91E0ECF7EF6E0E7F1E83015E
:1035000004591F4F892B09F0AEC2D8011C92B30198
:10351000605A774FC30103CE20E438E0620E731E79
:10352000D3018D919C91E0ECF7EF6E0E7F1E049716
:1035300009F0C8C2F301EB5BF74F8081918182599A
:103540009F4FD301A80FB91FED90FD900D911C91D5
:103550008A56904091838083C801B70120E030E013
:1035600040E050E00E941642181664F5F301EC5951
:10357000F74F8081882379F020E638E0620E731ED1
:10358000D301ED92FD920D931C931397E0EAF7EFB0
:103590006E0E7F1E12C02DEA38E0620E731ED3013C
:1035A000ED92FD920D931C93139723E537EF620E76
:1035B000731E1082C3010E94C0114CE650E0640EDD
:1035C000751E7DC22CE630E0620E731E88E07FC25D
:1035D00080819181830104591F4F892B09F043C2D7
:1035E000D8011C9210E0F301E355F74F608171811F
:1035F0008281938120E030E040E050E00E948540ED
:1036000018160CF011E0198327C220E438E0620E8E
:10361000731ED3018D919C91E0ECF7EF6E0E7F1E2F
:10362000019709F04FC2D301AB5BB74F8D919C91CD
:103630001197F301E80FF91FE259FF4F208101961E
:103640008D939C93F301E355F74F222349F080E0DB
:1036500090E0A0E0B0E080839183A283B38311C0A7
:1036600020E638E0620E731ED3012D913D914D91FD
:103670005C9160EA77EF660E771E20833183428388
:103680005383C3010E94C0118CE690E0680E791E3E
:1036900016C220E438E0620E731ED3012D913C91D6
:1036A000E0ECF7EF6E0E7F1E2A30310508F40AC2F7
:1036B000D301AB5BB74F8D919C911197FC01E259FF
:1036C000FF4FE60DF71D40815181628173814C8B64
:1036D0005D8B6E8B7F8B049611969C938E930497D3
:1036E000FC01EE58FF4FE60DF71D608171817B8B69
:1036F0006A8BFC01EC58FF4FE60DF71D40815181AC
:10370000628173814E875F87688B798BF301E80F45
:10371000F91FE858FF4F10810B968D939C932B3027
:10372000310581F065E578E0660E771ED3018D9155
:103730009C91EBEAF7EF6E0E7F1E0B962817390768
:1037400009F0EEC12A893B892B54314008F0BAC0F8
:103750006C897D898E899F8920E030E04AE754E4B6
:103760000E94894020E030E44CE157E40E941A4274
:1037700020E030E040E855E40E94854088230CF0CA
:10378000A1C06CE670E0660E771ED3011C92E4E9DE
:10379000FFEF6E0E7F1EF301E05CF74F25E538E08A
:1037A000620E731ED3018D919C912BEA37EF620E4E
:1037B000731E0B96208131812817390719F4C30134
:1037C0000E94DD0DA12E0E944A341B012C014CE504
:1037D00058E0640E751ED301CD90DD90ED90FC9005
:1037E000E4EAF7EF6E0E7F1EF0E010FDF1E0E0E09E
:1037F000A1FCE1E06C897D898E899F894A895B897A
:103800000E851F8528893989AF2E8E2E0E94EA2DBC
:103810002CE630E0620E731ED3018C93E4E9FFEFD7
:103820006E0E7F1E882309F058C10E944A34621927
:103830007309840995090E9422417B018C012A8920
:103840003B89B90180E090E00E94224120E030E015
:103850004AE754E40E941A429B01AC01C801B70137
:103860000E94894069837A838B839C83C301BE0154
:103870006F5F7F4F44E050E00E949C1DC3016CE8E5
:103880007EE044E050E00E949C1DC30167EA7EE0B8
:1038900044E050E00E949C1D40E658E0640E751E16
:1038A000F30180819181A281B38120EA37EF620E1A
:1038B000731E8D839E83AF83B887C301BE016B5F88
:1038C0007F4F2DCC4CE650E0640E751E81E0FFC0AA
:1038D00020E438E0620E731ED3018D919C91E0ECE0
:1038E000F7EF6E0E7F1E830104591F4F019709F0F9
:1038F000BAC0D8011C92D301AB5BB74F8D919C919C
:103900001197F301E80FF91FE259FF4F208101964B
:103910008D939C9360E0211161E0C3010E94AA0F86
:10392000DCC080819181830104591F4F892B09F0EC
:103930009AC0D8011C9282E08EC020E438E0620E6A
:10394000731ED3018D919C91E0ECF7EF6E0E7F1EFC
:10395000830104591F4F892B09F040C0D8011C92E4
:10396000E2E5F8E06E0E7F1ED3018C91EEEAF7EFF0
:1039700032C080819181019709F0A4C0D301AB5B73
:10398000B74F8D919C911197F301E80FF91FE25900
:10399000FF4F208101968D939C93F301EE5AF74FD0
:1039A00036C020E438E0620E731ED3018D919C91E5
:1039B000E0ECF7EF6E0E7F1E830104591F4F892B39
:1039C00069F4D8011C92E3E5F8E06E0E7F1ED30186
:1039D0008C91EDEAF7EF6E0E7F1E3DC086E0CBCBFB
:1039E00080819181019709F06DC0D301AB5BB74F26
:1039F0008D919C911197F301E80FF91FE259FF4F48
:103A0000208101968D939C93F301ED5AF74F222369
:103A100019F081E0808301C01082ECE6F0E06E0EC8
:103A20007F1E4DC020E438E0620E731ED3018D91DD
:103A30009C91E0ECF7EF6E0E7F1E830104591F4F3F
:103A4000892B89F4D8011C9282E00E94FB361982EE
:103A5000892B11F481E08983C301BE016F5F7F4F21
:103A600041E050E05ECB86E0BCCA20E438E0620E64
:103A7000731ED3018D919C91E0ECF7EF6E0E7F1ECB
:103A8000019701F5D301AB5BB74F8D919C911197D5
:103A9000F301E80FF91FE259FF4F208101968D9342
:103AA0009C93222321F0C3010E945D0E04C082E09A
:103AB00061E00E94C8362CE630E0620E731ED3012E
:103AC0001C9207C02CE630E0620E731E86E0D30124
:103AD0008C93E4E9FFEF6E0E7F1EC3016B2D0E94F5
:103AE0002F222CE630E0620E731ED3018C916A9671
:103AF0000FB6F894DEBF0FBECDBFCF91DF911F91FF
:103B00000F91FF90EF90DF90CF90BF90AF909F907C
:103B10008F907F906F905F904F903F902F9008957F
:103B2000ECE6F0E06E0E7F1ED1CF0895FC0182EA34
:103B300094E09183808308950F931F93CF93DF9335
:103B40008C0120E030E0EC01C95BD74F10C0F801D8
:103B5000E20FF31F88819981E80FF91FE259FF4FA7
:103B6000DB01A20FB31F8C9180832F5F3F4F24177F
:103B7000350768F388819981840F951F998388831D
:103B8000DF91CF911F910F910895CF93DF93DC01C7
:103B9000FC01E359FF4F6081EC01C459DF4F67FF1F
:103BA0000EC06058608382E08883ED91FC9111978C
:103BB00060580488F589E02DCD0119950EC0FC01EF
:103BC000E05CF74F80819181A80FB91FA359BF4FC7
:103BD0002C912883019791838083DF91CF91089561
:103BE000CF93DF93EC01FC01E75BF74F6D3719F4DE
:103BF00081E08083DAC09081992311F080E2682708
:103C00006E3749F4992339F4CD5BD74F1982188266
:103C1000C354D840C4C0CD5BD74F28813981C35429
:103C2000D84021153105A1F4C359DF4F6883C15233
:103C3000D84F8881CC54D840882309F448C0C15B50
:103C4000D74F8FEF9FEF99838883CF54D8403FC0E1
:103C500021303105B1F4DE01AE5BB74FFE01E05C0F
:103C6000F74F67FF09C083E08C93862F90E08F7732
:103C70009070108281832BC082E08C9360831182CC
:103C800026C02230310589F4CE5BD74F8881C254DB
:103C9000D840833051F4FE01E05CF74F8081918180
:103CA000860F911D9183808312C0CE5BD74F888190
:103CB000F901E81BF1099A918A91C054D840E8179C
:103CC000F90728F4EC0FFD1FE259FF4F6083C45B36
:103CD000D74F8881CC54D8408823F1F0FE01E15BB6
:103CE000F74F808191818627282F22952827022E41
:103CF000269526952025022E269520252770082E0C
:103D0000892F269507942795902D8227069427952D
:103D10009025822791838083FE01ED5BF74F4081E0
:103D200051814F5F5F4F51834083CE5BD74F888176
:103D30003A912A91280F311D2C966881CC54D84095
:103D4000862F90E0880F991F280F391F42175307BD
:103D500031F511821082CB5BD74F199219921982DB
:103D60001882C754D840662341F0C15BD74F888181
:103D70009981CF54D840892B19F4CE010E94C51DDA
:103D8000FE01E55BF74F9081992349F0C359DF4F5E
:103D900090588881CD56D040891709F41082FE01D1
:103DA000E75BF74F808181111082DF91CF910895F9
:103DB00089EA9DE00E949B07089589EA9DE00E94A0
:103DC000940708951F93CF93DF93EA0185EF9DE059
:103DD000422F0E94F60A10E009C085EF9DE00E9484
:103DE0002F0AFE01E10FF11D80831F5F85EF9DE02B
:103DF0000E94260A892B89F7812FDF91CF911F918D
:103E00000895FF920F931F93CF93DF93142F052FE5
:103E1000F22E85EF9DE00E94120A212F302FC9015A
:103E2000EC0110E006C085EF9DE069910E949E0ABA
:103E30001F5F1F15C0F385EF9DE00E94E10ADF912F
:103E4000CF911F910F91FF900895FF920F931F93B1
:103E5000F42E05EF1DE0C8010E94120AC8016F2D63
:103E60000E949E0AC8010E94E10A1F910F91FF90D3
:103E70000895DF92EF92FF920F931F93DF93CF93FA
:103E80000F92CDB7DEB77C01D62E88E089838701FB
:103E9000095B174F43C085EF9DE00E94120A85EF32
:103EA0009DE00E94E10A8823B1F5DD2071F0F80160
:103EB00080819181F701E80FF91FE259FF4F2981B5
:103EC00020830196F8019183808384ED90E16DE970
:103ED00073E00E94803D84ED90E169814AE050E00A
:103EE0000E94DE3C84ED90E161EB73E00E94803D36
:103EF00084ED90E1698140E150E00E94DE3C84ED78
:103F000090E166EB73E00E947D3E61E070E080E04E
:103F100090E00E94703489818F5F8983698168375E
:103F200008F4B9CF0F90CF91DF911F910F91FF90BF
:103F3000EF90DF900895AF92BF92CF92DF92EF9211
:103F4000FF920F931F93DF93CF9300D00F92CDB7C3
:103F5000DEB77C016E010894C11CD11C56010FE034
:103F600010E0D701ED91FC910088F189E02DC701A7
:103F7000B8011995F50181935F010F5F1F4F033160
:103F8000110579F789819A81AB81BC818F5F9F4F41
:103F9000AF4FBF4FD9F480E092ECA1E0B0E089834D
:103FA0009A83AB83BC830FE010E0D701ED91FC91C5
:103FB0000288F389E02DC701B801D6014D916D014A
:103FC00019950F5F1F4F0331110579F749815A8108
:103FD0006B817C8184ED90E10E94703985EF9DE0DA
:103FE0000E94FA0A0E94D0090E94CA068701085955
:103FF0001F4FF801608371838283938384ED90E186
:1040000068EB73E00E94803DD8014D915D916D9108
:104010007C9184ED90E122E030E00E94673E84EDE7
:1040200090E16AEC73E00E947D3E0F900F900F903C
:104030000F90CF91DF911F910F91FF90EF90DF9044
:10404000CF90BF90AF900895CF93DF93EC0108C05D
:1040500084ED90E10E94283A682FCE010E94F01D65
:1040600084ED90E10E94F739181619068CF3DF9160
:10407000CF9108957F928F929F92AF92BF92CF92ED
:10408000DF92EF92FF920F931F93CF93DF93FC0188
:1040900082EA94E091838083E45BF74F60833997F1
:1040A00011821082369610823997118210823596CD
:1040B00011921192118210823A961082AA24BB2486
:1040C0008824992489EA9DE0B5010E949407182F5D
:1040D000B501695F7F4F89EA9DE00E949407E40182
:1040E000EE24FF24C12EDD24C094D094082F10E0CC
:1040F00000951095C633D105B4F4B6010E2C02C05C
:10410000759567950A94E2F761708C2F0E941536B9
:10411000B8010E2C02C0759567950A94E2F761709C
:104120008C2F0E94C8360894E11CF11C219688E06F
:10413000E816F104F9F60894A11CB11C88E090E09F
:10414000880E991E97E0A916B10409F0BBCFDF9144
:10415000CF911F910F91FF90EF90DF90CF90BF9084
:10416000AF909F908F907F9008951F93162F862F6A
:104170008D57823050F484ED90E16DE70E94613AF2
:1041800060E2612784ED90E102C084ED90E10E943D
:10419000613A1F9108958F929F92AF92BF92CF92F2
:1041A000DF92EF92FF920F931F93CF93DF93EC0177
:1041B000BEE6EB2EF12CE80EF91E00E010E0A0E4C4
:1041C0008A2EA8E09A2E880E991EFCE4AF2EF8E005
:1041D000BF2EA80EB91EEDE4CE2EE8E0DE2EC80EEE
:1041E000D91E2AC0F50180818823F1F0F7012081D2
:1041F000F601808191818227282F22952827022E7F
:10420000269526952025022E269520252770082EF6
:10421000892F269507942795902D82270694279518
:104220009025822791838083CE01F70161917F01E0
:104230000E94B5200F5F1F4FF40180819181081704
:10424000190708F4CFCFF5018081882369F08E012A
:10425000035B174FCE01F80160810E94B520F80181
:104260006181CE010E94B520C05CD74F19821882AF
:10427000279619821882DF91CF911F910F91FF909D
:10428000EF90DF90CF90BF90AF909F908F90089568
:104290000F931F93CF93DF93EC01062FFC01E05C9B
:1042A000F74FC95BD74F888199819183808384EDD3
:1042B00090E16EE70E94613A25968881CC54D840FF
:1042C0008823F9F0C35BD74F8FEF9FEF8027282F0C
:1042D00022952827022E269526952025022E269502
:1042E00020252770082E892F269507942795902D35
:1042F0008227069427959025822799838883CD5419
:10430000D840CE01602F0E94B520DE01A05CB74FDF
:104310002D913C911197FE01E45BF74F2038310558
:1043200030F580818823F1F0FE01E35BF74F808157
:1043300091818227282F22952827022E26952695BF
:104340002025022E269520252770082E892F2695B8
:1043500007942795902D82270694279590258227EC
:1043600091838083CE01C05CD74F688149C0808132
:10437000882309F437C03068FE01E35BF74F808182
:1043800091818327282F22952827022E269526956E
:104390002025022E269520252770082E892F269568
:1043A00007942795902D822706942795902582279C
:1043B0002C918227282F22952827022E2695269594
:1043C0002025022E269520252770082E892F269538
:1043D00007942795902D822706942795902582276C
:1043E000918380838E01005C174FF8012081318119
:1043F0003068CE01632F0E94B520CE01F8016081A4
:104400000E94B520DF91CF911F910F9108950F93D6
:104410001F93DF93CF930F92CDB7DEB78C016983E3
:10442000DC01A95BB74F8D919C911197F801E80FC2
:10443000F91FE259FF4F608301968D939C93F80119
:10444000E359FF4FC80160810E944821C8010E94C2
:10445000CB200F90CF91DF911F910F9108956F9214
:104460007F929F92AF92BF92CF92DF92EF92FF9294
:104470000F931F93DF93CF93CDB7DEB76C970FB633
:10448000F894DEBF0FBECDBF7C016DB67EB670E086
:10449000CB01805890408F31910508F0D5C68E58D9
:1044A0009F4FD701A05CB74FFC01EE0FFF1F059097
:1044B000F491E02D19948D919C91892B09F0F6C50A
:1044C000D701ED91FC910280F381E02DC701199590
:1044D0008C01D701ED91FC910280F381E02DC701A1
:1044E0001995DC010D900020E9F7AD0141505040D5
:1044F000481B590B20E030E0B701695B774F11C0D2
:10450000F701E20FF31FDB018D919C91E80FF91F7A
:10451000E259FF4FD801A20FB31F8C9180832F5F08
:104520003F4F2417350760F35BC18D919C91892B18
:1045300009F0BCC5D701ED91FC910480F581E02D17
:10454000C70119958C01D701ED91FC910480F5818B
:10455000E02DC7011995DC010D900020E9F7AD01B0
:1045600041505040481B590B20E030E0B701695BD7
:10457000774F11C0F701E20FF31FDB018D919C9182
:10458000E80FF91FE259FF4FD801A20FB31F8C911A
:1045900080832F5F3F4F2417350760F321C18D9132
:1045A0009C91892B09F082C5D701ED91FC91068081
:1045B000F781E02DC70119958C01D701ED91FC9190
:1045C0000680F781E02DC7011995DC010D900020D0
:1045D000E9F7AD0141505040481B590B20E030E055
:1045E000B701695B774F11C0F701E20FF31FDB01E1
:1045F0008D919C91E80FF91FE259FF4FD801A20F4E
:10460000B31F8C9180832F5F3F4F2417350760F3D2
:10461000E7C08D919C91892B09F048C5D701ED9198
:10462000FC910084F185E02DC70119958C01D7011B
:10463000ED91FC910084F185E02DC7011995DC0115
:104640000D900020E9F7AD0141505040481B590B37
:1046500020E030E0B701695B774F11C0F701E20F4E
:10466000F31FDB018D919C91E80FF91FE259FF4F79
:10467000D801A20FB31F8C9180832F5F3F4F241767
:10468000350760F3ADC08D919C91892B09F00EC563
:10469000D701ED91FC910284F385E02DC7011995B6
:1046A0008C01D701ED91FC910284F385E02DC701C7
:1046B0001995DC010D900020E9F7AD014150504003
:1046C000481B590B20E030E0B701695B774F11C000
:1046D000F701E20FF31FDB018D919C91E80FF91FA9
:1046E000E259FF4FD801A20FB31F8C9180832F5F37
:1046F0003F4F2417350760F373C08D919C91892B30
:1047000009F0D4C4D701ED91FC910484F585E02D26
:10471000C70119958C01D701ED91FC910484F585B1
:10472000E02DC7011995DC010D900020E9F7AD01DE
:1047300041505040481B590B20E030E0B701695B05
:10474000774F11C0F701E20FF31FDB018D919C91B0
:10475000E80FF91FE259FF4FD801A20FB31F8C9148
:1047600080832F5F3F4F2417350760F339C08D9149
:104770009C91892B09F09AC4D701ED91FC91068494
:10478000F785E02DC70119958C01D701ED91FC91BA
:104790000684F785E02DC7011995DC010D900020F6
:1047A000E9F7AD0141505040481B590B20E030E083
:1047B000B701695B774F11C0F701E20FF31FDB010F
:1047C0008D919C91E80FF91FE259FF4FD801A20F7C
:1047D000B31F8C9180832F5F3F4F2417350760F301
:1047E000FB0180819181840F951F5DC48D919C9107
:1047F000892B09F05BC420E030E0B701695B774F9B
:10480000F701E20FF31FDB014D915C91E40FF51FFF
:10481000E259FF4FD901AD56BB4F8C9180832F5F7A
:104820003F4F2A30310561F7465F5F4F1FC28D91C0
:104830009C91870104591F4F029709F0D6C3D701F5
:10484000AB5BB74F2D913C911197F701E20FF31F2E
:10485000E259FF4F80812F5F3F4FF701E20FF31FB7
:10486000E259FF4F60812F5F3F4F2D933C930E9491
:104870001536B8C38D919C91870104591F4F02973B
:1048800009F0B3C3D701AB5BB74F2D913C911197A2
:10489000F701E20FF31FE259FF4F80812F5F3F4F77
:1048A000F701E20FF31FE259FF4F60812F5F3F4F87
:1048B0002D933C930E94C83695C38D919C9187019E
:1048C00004591F4F019709F090C3D701AB5BB74F55
:1048D0002D913C911197F701E20FF31FE259FF4F21
:1048E00080812F5F3F4F2D933C930E94FB3689833D
:1048F000D701A95BB74F2D913C911197F701E20FBA
:10490000F31FE259FF4F80832F5F3F4F2D933C935E
:1049100069C38D919C91870104591F4F029709F03B
:1049200064C3D701AB5BB74F2D913C911197F70151
:10493000E20FF31FE259FF4F80812F5F3F4F119627
:104940003C932E9322593F4FF701E20FF31F6081F2
:1049500071812C5630402D933C930E94353542C3D3
:104960002CE630E0E20EF31E86E0F701808324E9B6
:104970003FEFE20EF31E2D913C912230310508F4F9
:1049800063C4ADB69EB6D701AB5BB74F8D919C911A
:104990001197F701E80FF91FE259FF4FB080019618
:1049A0008D939C938DB79EB78B1991090FB6F89490
:1049B0009EBF0FBE8DBFCDB6DEB60894C11CD11C04
:1049C0002230310519F491E0B916D9F08B2D90E021
:1049D00003962817390709F096C013C08D919C9152
:1049E0001197F701E80FF91FE259FF4F2081019657
:1049F00011969C938E93F601E30FF11D20833F5F88
:104A000004C030E0D701AB5BB74F3B1538F3A0E4EF
:104A1000B8E0EA0EFB1EF7018081918120EC37EFB0
:104A2000E20EF31E029701F1F701EB5BF74F808175
:104A3000918182599F4FD701A80FB91F0D911C91E9
:104A40008C5690409183808333E0093E130770F0C9
:104A50008CE690E0E80EF91E89E0D7018C93E4E93A
:104A6000FFEFEE0EFF1E4FC001E010E02CE630E03D
:104A7000E20EF31ED7011C921093910D0093900D3E
:104A8000E2E0F0E0EE0EFF1EF0928D0DE0928C0D54
:104A900022E93FEFE20EF31E80E00E940F0531E0B5
:104AA000B31629F4D6018C910E94290512C0D09228
:104AB000940DC092930DB092960D1092970D8CE6C6
:104AC00095E09093990D8093980DF60180810E9456
:104AD00052050E945E072091900D3091910D8091BA
:104AE0008E0D90918F0D82179307C9F70E940C07C6
:104AF000F701E95BF74F000F111F80819181080FCB
:104B0000191F118300838A2D992D9C010FB6F894EB
:104B10003EBF0FBE2DBF98C38D919C918701045954
:104B20001F4F039709F08DC3D701AB5BB74F8D9132
:104B30009C911197FC01E259FF4FEE0DFF1D608122
:104B40007181F701E80FF91FE059FF4F408103968B
:104B50008D939C93D701ED91FC910288F389E02D10
:104B6000C70119956BC38D919C91870104591F4F03
:104B7000029709F066C3D701AB5BB74F8D919C914B
:104B8000119782599F4FF701E80FF91F60817181DA
:104B90008C5690408D939C93D701ED91FC910088A9
:104BA000F189E02DC70119958983D701A95BB74F1A
:104BB0002D913C911197F701E20FF31FE259FF4F3E
:104BC00080832F5F3F4F2CC38D919C91029709F0FA
:104BD0006DC2D701AB5BB74F8D919C911197F701D7
:104BE000E80FF91FE259FF4F60810196F701E80FC6
:104BF000F91FE259FF4FA08001968D939C938E017F
:104C0000015F1F4FC8010E947B09C8010E94A707CE
:104C1000DD24B02EC12E8E01095F1F4F8B2D9C2DE0
:104C2000B8010E94E508D394AD14C0F7882341F180
:104C300020E030E0B701695B774F8E01095F1F4FBD
:104C4000F701E20FF31FDB014D915C91E40FF51FBB
:104C5000E259FF4FD801A20FB31F8C9180832F5FC1
:104C60003F4F2830310561F7485F5F4FFB015183AB
:104C700040832CE630E0E20EF31ED7011C92A6C260
:104C80002CE630E0E20EF31E85E09EC28D919C91F1
:104C90000B9709F00BC2D701AB5BB74F8D919C917D
:104CA0001197F701E80FF91FE259FF4F6081019654
:104CB00011969C938E9347E0C42ED12CCC0EDD1E12
:104CC000AD01C601BC2CA92E8E01015F1F4FFA0158
:104CD00080819181F701E80FF91FE259FF4F208190
:104CE0000196FA0191838083F60121936F01E01709
:104CF000F10769F78D919C911197F701E80FF91F62
:104D0000E259FF4F10810196F701E80FF91FE259B0
:104D1000FF4F008101968D939C93C6010E947B09F1
:104D2000C6010E949A08C6016B2D7A2D0E9479084F
:104D3000C601612F40E00E94390810E03FE0A32E39
:104D4000B12CAC0EBD1E27E4C22E28E0D22ECE0C14
:104D5000DF1C13C0C5010E94E8078983D6012D918D
:104D60003C911197F701E20FF31FE259FF4F808347
:104D70002F5F3F4F2D933C931F5F101758F3ECE6C6
:104D8000F0E0EE0EFF1E79CF8D919C910B9709F00C
:104D90008DC1D701AB5BB74F8D919C911197F701F6
:104DA000E80FF91FE259FF4F6081019611969C931D
:104DB0008E9397E0C92ED12CCC0EDD1EAD01C6011D
:104DC000BC2CA92E8E01015F1F4FFA0180819181B9
:104DD000F701E80FF91FE259FF4F20810196FA0110
:104DE00091838083F60121936F01E017F10769F742
:104DF0008D919C911197F701E80FF91FE259FF4F30
:104E000000810196F701E80FF91FE259FF4F108169
:104E100001968D939C93C6010E947B09C6010E9456
:104E20009A08C6016B2D7A2D0E947908C601602F61
:104E3000412F0E9439081DCF8D919C91029709F056
:104E4000BEC1D701AB5BB74F8D919C911197F70114
:104E5000E80FF91FE259FF4F60810196F701E80F53
:104E6000F91FE259FF4FC08001968D939C9385EF07
:104E70009DE04C2D0E94F60ADD248701095B174F47
:104E800014C085EF9DE00E942F0A8983D8012D91DF
:104E90003C911197F701E20FF31FE259FF4F808316
:104EA0002F5F3F4F2D933C93D39485EF9DE00E945D
:104EB000260A892B31F7870104591F4FDC1409F4A6
:104EC000BDC181E0BFC18D919C91029708F4EEC0F5
:104ED00087010B5B174FD8018D919C911197F701BA
:104EE000E80FF91FE259FF4F608101968D939C9363
:104EF00085EF9DE00E94120ADD2480E4A82E88E060
:104F0000B82EAE0CBF1C12C0F80180819181F70150
:104F1000E80FF91FE259FF4F60810196D8018D9388
:104F20009C9385EF9DE00E949E0AD3942D2D30E046
:104F3000F5018081918101972817390728F385EFC2
:104F40009DE00E94E10A95CE8D919C9187010459C4
:104F50001F4F019709F049C0D701AB5BB74F2D91A7
:104F60003C911197F701E20FF31FE259FF4F808147
:104F70002F5F3F4F2D933C930E94B10933C08D9119
:104F80009C91870104591F4F019779F5D701AB5BBD
:104F9000B74F2D913C911197F701E20FF31FE259A2
:104FA000FF4F80812F5F3F4F2D933C930E94BF099D
:104FB00019C08D919C91870104591F4F0197A9F445
:104FC000D701AB5BB74F2D913C911197F701E20FE1
:104FD000F31FE259FF4F80812F5F3F4F2D933C938A
:104FE0000E94BA09D8011C922FC186E0F801808383
:104FF0002BC18D919C91019709F058C0D701AB5BF3
:10500000B74F8D919C911197F701E80FF91FE25965
:10501000FF4F208101968D939C932EBD0DB407FE0A
:10502000FDCF2EB52983D701A95BB74F8D919C91F8
:105030001197F701E80FF91FE259FF4F20830196FE
:105040008D939C9316CE8D919C91892B79F526E6B4
:1050500030E0E20EF31ED7016D917C91EAE9FFEF9B
:10506000EE0EFF1E870120E030E0A701495B574F9D
:1050700010C0F701E20FF31FDA018D919C91E80F48
:10508000F91FE259FF4FD80111968C9180832F5F51
:105090003F4F0F5F1F4F2617370758F3FA018081E4
:1050A0009181860F971F91838083E3CD2CE630E0BA
:1050B000E20EF31E88C08D919C91870104591F4F09
:1050C000892B09F0BEC080919C0D90919D0DA091FF
:1050D0009E0DB0919F0D8B839C83AD83BE83DE01BB
:1050E0001396A701495B574FFA0120813181F701DF
:1050F000E20FF31FE259FF4F8B8183C08D919C918A
:10510000870104591F4F049709F09BC0D701AB5B7F
:10511000B74F2D913C91119722593F4FF701E20F64
:10512000F31F60817181828193812A5630402D93D3
:105130003C930E946B0482C08D919C91870104591D
:105140001F4F892B09F07DC00E94640489839A83D4
:10515000D701A95BB74F2D913C911197F701E20F51
:10516000F31FE259FF4F81938A8180832E5F3F4F67
:1051700057C08D919C91029711F5D701AB5BB74F4A
:105180008D919C91119782599F4FF701E80FF91F5C
:105190000190F081E02D8C5690408D939C93CF012F
:1051A0000297870104591F4F069738F48E2F0E94EB
:1051B0005B0480E00E941B0541C085E043C0ECE633
:1051C000F0E0EE0EFF1E86E0D7018C93E4E9FFEFDE
:1051D000EE0EFF1E39C08D919C91870104591F4F1F
:1051E000892B79F5D701A859BF4FA701495B574FC4
:1051F000FA0120813181F701E20FF31FE259FF4FDD
:105200008C91819311968C911197819312968C9128
:105210001297819313968C9180832C5F3F4FDA0114
:105220002D933C930BC08D919C91870104591F4F86
:10523000892B39F4C70161E00E94391FF8011082FF
:1052400003C086E0D8018C93870104591F4FC70122
:10525000F80160810E940722D8018C910FB6F89462
:105260007EBE0FBE6DBE6C960FB6F894DEBF0FBE4D
:10527000CDBFCF91DF911F910F91FF90EF90DF9005
:10528000CF90BF90AF909F907F906F9008951092B5
:10529000760E1092910E08952F923F924F925F9248
:1052A0006F927F928F929F92AF92BF92CF92DF9236
:1052B000EF92FF920F931F93DF93CF93CDB7DEB79B
:1052C00064970FB6F894DEBF0FBECDBF2F8338872B
:1052D00049875A87EB86FC860D871E87D88ACF863A
:1052E000BA8AA98A0E941A4220E030E04AE754E4D0
:1052F0000E9489409B01AC010E940E405B016C0141
:1053000020E030E040E050E00E94164288234CF05C
:10531000C601B50120E030E040E05FE30E940E40AE
:1053200008C0C601B50120E030E040E05FE30E9424
:105330000D400E94F1400E94244120E030E040E016
:105340005FE30E941A426B837C838D839E836B8113
:105350007C818D819E812F81388549855A850E9467
:1053600089402B853C854D855E850E941A420E94AE
:1053700072400E94F6407A83698384C329813A810E
:10538000B90180E090E00E9422412B813C814D8157
:105390005E810E9489402F81388549855A850E9407
:1053A0001A423B014C01EF85F88960837183828347
:1053B00093832B853C854D855E850E941642181689
:1053C0000CF45BC3C401B3012F81388549855A852C
:1053D0000E9489407B018C0160E070E080E090E4F5
:1053E000A80197010E9489405B016C0120E030E038
:1053F00040E050E00E94164288234CF0C601B501FF
:1054000020E030E040E05FE30E940E4008C0C601AB
:10541000B50120E030E040E05FE30E940D400E94D3
:10542000F1400E942441A80197010E941A429B0169
:10543000AC0160E070E080E090E40E940D4020E06C
:1054400030E040E050E00E9416421816A4F5C60174
:10545000B50120E030E040E050E00E941642882391
:105460004CF0C601B50120E030E040E05FE30E946F
:105470000E4008C0C601B50120E030E040E05FE327
:105480000E940D400E94F1400E942441A801970112
:105490000E941A429B01AC0160E070E080E090E461
:1054A0000E940D402DEC3CEC4CEC5DE30E948540ED
:1054B00087FDE3C234C0C601B50120E030E040E022
:1054C00050E00E94164288234CF0C601B50120E04E
:1054D00030E040E05FE30E940E4008C0C601B50125
:1054E00020E030E040E05FE30E940D400E94F14088
:1054F0000E942441A80197010E941A429B01AC011D
:1055000060E070E080E090E40E940D402DEC3CEC07
:105510004CEC5DEB0E94164218160CF4AEC26F8183
:10552000788589859A859B01AC010E940E409B017C
:10553000AC01C401B3010E94854088230CF079C1FD
:105540006F81788589859A85A40193010E9489409D
:105550001B012C011C8A1B8A2B893C89B90180E024
:1055600090E00E9422415B016C01C201B101A601E1
:1055700095010E940D4020E030E040E05FE30E9492
:105580008540181634F48B899C8901969C8B8B8BF3
:10559000E3CFC601B501A40193010E941A429B0109
:1055A000AC016F81788589859A850E940D405B01E9
:1055B0006C0120E030E040E050E00E9416421816F6
:1055C00024F0D7FAD094D7F8D094C401B301A6013F
:1055D00095010E9489403B014C0160E070E080E051
:1055E00090E4A40193010E9489405B016C0120E0DA
:1055F00030E040E050E00E94164288234CF0C601A3
:10560000B50120E030E040E05FE30E940E4008C0BA
:10561000C601B50120E030E040E05FE30E940D40AC
:105620000E94F1400E942441A40193010E941A4269
:105630009B01AC0160E070E080E090E40E940D40CE
:1056400020E030E040E050E00E9416421816A4F539
:10565000C601B50120E030E040E050E00E94164273
:1056600088234CF0C601B50120E030E040E05FE364
:105670000E940E4008C0C601B50120E030E040E0C5
:105680005FE30E940D400E94F1400E942441A4016A
:1056900093010E941A429B01AC0160E070E080E03F
:1056A00090E40E940D402DEC3CEC4CEC5DE30E943C
:1056B00085408823ACF5E1C1C601B50120E030E0AA
:1056C00040E050E00E94164288234CF0C601B5012C
:1056D00020E030E040E05FE30E940E4008C0C601D9
:1056E000B50120E030E040E05FE30E940D400E9401
:1056F000F1400E942441A40193010E941A429B019F
:10570000AC0160E070E080E090E40E940D402DEC80
:105710003CEC4CEC5DEB0E94164218160CF4ADC14B
:10572000C801B70120E030E040E050E00E9416429E
:1057300088234CF0C801B70120E030E040E05FE38F
:105740000E940E4008C0C801B70120E030E040E0F0
:105750005FE30E940D400E94F1400E9424419B01A2
:10576000AC01C801B7010E940D4020E030E040E0EC
:1057700050E00E941642181674F5C801B70120E0E7
:1057800030E040E050E00E94164288234CF0C8010F
:10579000B70120E030E040E05FE30E940E4008C027
:1057A000C801B70120E030E040E05FE30E940D4017
:1057B0000E94F1400E9424419B01AC01C801B70145
:1057C0000E940D4027E137EB41ED58E30E948540F0
:1057D00088237CF552C1C801B70120E030E040E0E9
:1057E00050E00E94164288234CF0C801B70120E027
:1057F00030E040E05FE30E940E4008C0C801B701FE
:1058000020E030E040E05FE30E940D400E94F14064
:105810000E9424419B01AC01C801B7010E940D40C8
:1058200027E137EB41ED58EB0E94164218160CF4B5
:1058300024C1C801B70120E030E040E251E40E94F9
:10584000854088230CF089C0C801B70120E030E012
:1058500040E050E00E94164288234CF0C801B70196
:1058600020E030E040E05FE30E940E4008C0C80145
:10587000B70120E030E040E05FE30E940D400E946D
:10588000F1400E9424419B01AC01C801B7010E9474
:105890000D4020E030E040E050E00E941642181633
:1058A00074F5C801B70120E030E040E050E00E940C
:1058B000164288234CF0C801B70120E030E040E0F8
:1058C0005FE30E940E4008C0C801B70120E030E04D
:1058D00040E05FE30E940D400E94F1400E9424419D
:1058E0009B01AC01C801B7010E940D4027E137EBD5
:1058F00041ED58E30E94854088237CF5BEC0C80175
:10590000B70120E030E040E050E00E9416428823DA
:105910004CF0C801B70120E030E040E05FE30E94B6
:105920000E4008C0C801B70120E030E040E05FE36E
:105930000E940D400E94F1400E9424419B01AC0155
:10594000C801B7010E940D4027E137EB41ED58EB4C
:105950000E94164218160CF490C0C801B7012B81A2
:105960003C814D815E810E941A425B016C0120E006
:1059700030E040E050E00E94164288234CF0C6011F
:10598000B50120E030E040E05FE30E940E4008C037
:10599000C601B50120E030E040E05FE30E940D4029
:1059A0000E94F1400E9424419B01AC01C601B50157
:1059B0000E940D4020E030E040E050E00E9416429E
:1059C000181674F5C601B50120E030E040E050E063
:1059D0000E94164288234CF0C601B50120E030E059
:1059E00040E05FE30E940E4008C0C601B50120E020
:1059F00030E040E05FE30E940D400E94F1400E94D1
:105A000024419B01AC01C601B5010E940D4027E174
:105A100037EB41ED58E30E948540882374F543C07D
:105A2000C601B50120E030E040E050E00E9416429F
:105A300088234CF0C601B50120E030E040E05FE390
:105A40000E940E4008C0C601B50120E030E040E0F1
:105A50005FE30E940D400E94F1400E9424419B019F
:105A6000AC01C601B5010E940D4027E137EB41EDC5
:105A700058EB0E9416421816B4F0E981FA8131976A
:105A8000FA83E98329813A812230310508F076CC06
:105A90006B817C818D819E8120E030E040E05FE37E
:105AA0000E940E4050CC29813A81E989FA893183DC
:105AB000208364960FB6F894DEBF0FBECDBFCF91A2
:105AC000DF911F910F91FF90EF90DF90CF90BF90EB
:105AD000AF909F908F907F906F905F904F903F908E
