:100000000C9426010C9453010C9453010C9453014D
:100010000C9453010C9453010C9453010C94530110
:100020000C9453010C9453010C9453010C94530100
:100030000C9453010C9453010C9453010C945301F0
:100040000C9453010C9453010C9453010C945301E0
:100050000C94B6060C9453010C9453010C94393350
:100060000C9453010C9463360C94AB370C945301ED
:100070000C9453010C948B060C9453010C94530173
:100080000C9453010C9453010C9453010C94E60905
:100090000C94A3360C94EA370C9453010C94D30BB4
:1000A0000C9453010C9453010C9453010C94530180
:1000B0000C9453010C9453010C9453010C94530170
:1000C0000C9453010C9453010C9453010C94E3369B
:1000D0000C9429380C9453010C9423370C946838F1
:1000E0000C945301B421EE2128226222E7229C22A3
:1000F00021237C23C2239F231524EE231825F124DA
:1001000049252326A525C2267B2603271E27382717
:10011000582782275B23B827DB27F927162844288E
:1001200000002100240027002A002D0030003300A9
:1001300001010000040107010A010000220025005E
:1001400028002B002E0031003400020100000501C0
:1001500008010B01000020002300260029002C00CC
:100160002F0032000001000003010601090105050E
:100170000505070508080808020202020A0A08081D
:10018000040404040101010101010101030303034B
:1001900003030303040707070C0C0C0C0C0C0C0CDA
:1001A0000202020206060606060606060B0B0B0BEB
:1001B0000B0B0B0B01021020200808102040102010
:1001C000408002010201080402010102040810201B
:1001D0004080804020100804020180040201804019
:1001E0002010080402010804020101020408102082
:1001F000408001020408102040800000090A020823
:100200000B0C0D07060304010000000000000000B5
:1002100000000000000000000000000000000000DE
:1002200000000000000011100F000000000000009E
:1002300000000000000000000000000000000000BE
:100240008803C006550A9428D839810311241FBE9B
:10025000CFEFD1E2DEBFCDBF00E00CBF14E0A0E0E5
:10026000B2E0E8E5F5E800E00BBF02C007900D92B0
:10027000AE3CB107D9F71BBE11E1AEECB4E001C052
:100280001D92A536B107E1F712E0CAE4D2E004C03E
:100290002297FE010E946442C034D107C9F70E9430
:1002A0004B040C949F420C940000CF93DF93BC014D
:1002B0008230910510F462E070E0A0916311B0917A
:1002C0006411ED01E0E0F0E040E050E021C0888101
:1002D00099818617970769F48A819B81309719F075
:1002E0009383828304C09093641180936311FE0111
:1002F00034C06817790738F44115510519F084178F
:10030000950708F4AC01FE018A819B819C01E901FB
:100310002097E9F641155105A9F1CA01861B970BF3
:10032000049708F4BA01E0E0F0E02AC08D919C91B6
:10033000119784179507F9F46417750781F41296DD
:100340008D919C911397309719F09383828304C009
:100350009093641180936311FD0132964CC0CA01E1
:10036000861B970BFD01E80FF91F619371930297AC
:100370008D939C9340C0FD01828193819C01D901A2
:100380001097A1F68091611190916211892B41F42F
:100390008091DD039091DE0390936211809361114F
:1003A0004091DF035091E0034115510541F44DB7F1
:1003B0005EB78091DB039091DC03481B590B2091C1
:1003C000611130916211CA01821B930B8617970746
:1003D00080F0AB014E5F5F4F8417950750F0420FDE
:1003E000531F5093621140936111F901619371930E
:1003F00002C0E0E0F0E0CF01DF91CF910895CF930C
:10040000DF93009709F450C0EC0122971B821A82F7
:10041000A0916311B0916411109709F140E050E090
:10042000AC17BD0708F1BB83AA83FE01219131916E
:10043000E20FF31FAE17BF0779F48D919C911197CE
:10044000280F391F2E5F3F4F3983288312968D91D5
:100450009C9113979B838A834115510571F4D09326
:100460006411C093631120C012968D919C911397D3
:10047000AD01009711F0DC01D3CFFA01D383C28321
:1004800021913191E20FF31FCE17DF0769F48881C4
:100490009981280F391F2E5F3F4FFA013183208346
:1004A0008A819B8193838283DF91CF910895A0E01D
:1004B000B0E0EDE5F2E00C946A426C01009729F49B
:1004C000CB010E9455016C01C1C08EEF882E8FEFC9
:1004D000982E8C0C9D1C8601060F171F08151905F8
:1004E00008F4B2C0F401A081B181A617B707B8F033
:1004F000A530B10508F4AAC0CD0104978617970767
:1005000008F4A4C01297A61BB70BF801A193B193EE
:10051000D4016D937C93CF010E94FF0197C07B01B2
:10052000EA1AFB0AEEEFFFEFEE0EFF1E36016A0E2F
:100530007B1EC0916311D091641144245524AA24D8
:10054000BB244AC0C615D705E1F5488159814E152F
:100550005F05B8F1CA0104978E159F05B0F4129695
:10056000A40FB51FF401B183A0832A813B814114FC
:10057000510431F0D20113963C932E93129766C02A
:10058000309364112093631161C08A819B81F801CB
:1005900093838283425050404E195F0951834083B8
:1005A0004114510431F0D20113961C930E9312970B
:1005B00004C01093641100936311F401718360838C
:1005C00045C088819981A816B90608F45C012E01FE
:1005D0008A819B819C01E901209709F0B3CF80912A
:1005E00061119091621186159705E9F4A616B70678
:1005F000D0F42091DF033091E0032115310541F45F
:100600002DB73EB78091DB039091DC03281B390B9B
:1006100002171307C8F41093621100936111D401FB
:100620006D937C9313C0CB010E945501EC010097A0
:1006300059F0F40140815181B6010E942C03C6019A
:100640000E94FF016E0102C0CC24DD24C601CDB79B
:10065000DEB7E0E10C948642FB01DC0102C00190B0
:100660000D9241505040D8F70895FB01DC010190F4
:100670000D920020E1F70895FB019F01423074F0D4
:10068000453264F4642F77270E942C42805D8A33C0
:100690000CF0895D8193CB010097A1F71082C9010D
:1006A0000C945203DC01FC01672F71917723E1F771
:1006B000329704C07C916D9370836291AE17BF072F
:1006C000C8F308958091E1039091E203019690931D
:1006D000E2038093E10308958130910541F46F5F57
:1006E0007F4F71F48EEC94E00E949D140895892B45
:1006F00039F46F5F7F4F21F48EEC94E00E949414E4
:10070000089580E090E06FEF7FEF0E946C03089502
:1007100081E090E06FEF7FEF0E946C03089580E12D
:10072000809391001092900085E08093B20D86E94D
:1007300098E99093B10D8093B00D909397008093BA
:10074000960085E18093910082E693E09093B40D4A
:100750008093B30D81E0809371008EEC94E00E9451
:10076000751489ED90E160E072E00E94B73C6FEF94
:1007700071E26050724089ED90E14AE050E00E94E1
:10078000983C89ED90E165E072E00E94B73C6EEC28
:1007900074E06050724089ED90E14AE050E00E94C0
:1007A000983C89ED90E16CE072E00E94B73C65E610
:1007B00071E16E5C744089ED90E14AE050E00E9486
:1007C000983C89ED90E162E172E00E94B73C609153
:1007D0006111709162116115710519F460E070E0AA
:1007E00002C06556714189ED90E14AE050E00E94F7
:1007F000983C89ED90E168E172E00E94B73C8DB7CA
:100800009EB76FEF71E2681B790B89ED90E14AE0CA
:1008100050E00E94983C89ED90E16FE172E00E9407
:10082000B73C8091611190916211009729F46DB7E6
:100830007EB76556714104C06DB77EB7681B790BF2
:1008400089ED90E14AE050E00E94983C08958EECDA
:1008500094E00E947D1F8091E1039091E20369E1A1
:1008600070E00E942C42892BA9F48091200D8823EE
:1008700059F08091210D882329F48EEC94E00E9498
:100880007D0D02C01092210D81E090E09093E20373
:100890008093E1030895CF93DF930E940A340E946E
:1008A0008F03C2E6D7E30E9427042097E1F30E945A
:1008B0006237F9CFEAE7F0E09081987F90839081EA
:1008C000982B9083089520917A0030E02770307043
:1008D000C9010895EF92FF920F931F937B018C0142
:1008E00080E1809381001092800060E074E284E7F0
:1008F00099E4A80197010E94C03F20E030E040E069
:1009000051E40E9451410E942D409B01AC012030D6
:1009100080E0380781E0480780E0580728F481E04C
:100920008093AE0DB90155C0203080E0380788E0D3
:10093000480780E0580768F482E08093AE0DDA0142
:10094000C901E3E0B695A79597958795EA95D1F704
:1009500014C0203080E0380780E4480780E0580762
:1009600070F483E08093AE0DDA01C90176E0B695AC
:10097000A795979587957A95D1F7BC012AC0203025
:1009800080E0380780E0480781E0580740F484E0C1
:100990008093AE0DBB27A52F942F832FEECF203051
:1009A00080E0380780E0480784E0580768F485E075
:1009B0008093AE0DDA01C9012AE0B695A795979507
:1009C00087952A95D1F7D9CF85E08093AE0D6FEF4B
:1009D0007FEF709387006093860091E090936F00A3
:1009E00080917B00887F80937B0080917B00866074
:1009F00080937B009093980D80917A008062809321
:100A00007A00E092A20DF092A30D0093A40D109332
:100A1000A50D1F910F91FF90EF900895882321F06D
:100A200080917C00806203C080917C008F7D8093E8
:100A30007C0008958093980D882321F080917A009E
:100A4000806203C080917A008F7D80937A00089540
:100A500091E090939C0D10929A0D1092990D109226
:100A60009D0D20EE35E030939F0D20939E0D8093D9
:100A70009B0D90917C00907F90937C0020917C0056
:100A8000982F9770922B90937C00883020F0809163
:100A90007B00886003C080917B00877F80937B0010
:100AA000089580939B0D90917C00907F90937C00A3
:100AB00020917C00982F9770922B90937C00883027
:100AC00020F080917B00886003C080917B00877F4D
:100AD00080937B00089580919D0D8F5F80939D0D85
:100AE00090919C0D891711F410929D0D80919D0D90
:100AF000E091990DF0919A0DE80FF11D208120935E
:100B00009B0D80917C00807F80937C0090917C0085
:100B1000822F8770892B80937C00283020F0809171
:100B20007B00886003C080917B00877F80937B007F
:100B300050917800409179002091940D3091950D5D
:100B40008091960D9091970D28173907C0F58091E7
:100B5000980D882329F480917A00806480937A002C
:100B6000942F80E0452F50E0482B592B80917C003A
:100B700085FF11C08091940D9091950DE091900D9D
:100B8000F091910DE80FF91F508301969093950D08
:100B90008093940D08958091940D9091950D9C01F2
:100BA000220F331FE091920DF091930DE20FF31F8E
:100BB0005183408301969093950D8093940D0895F1
:100BC00050917800409179002091940D3091950DCD
:100BD0008091960D9091970D28173907C0F5809157
:100BE000980D882329F480917A00806480937A009C
:100BF000942F80E0452F50E0482B592B80917C00AA
:100C000085FF11C08091940D9091950DE091900D0C
:100C1000F091910DE80FF91F508301969093950D77
:100C20008093940D08958091940D9091950D9C0161
:100C3000220F331FE091920DF091930DE20FF31FFD
:100C40005183408301969093950D8093940D089560
:100C500050919D0D90919C0D923050F1852F8F5F9A
:100C600080939D0D891711F410929D0D80919D0D1B
:100C7000E091990DF0919A0DE80FF11D20812093DC
:100C80009B0D80917C00807F80937C0090917C0004
:100C9000822F8770892B80937C00283020F08091F0
:100CA0007B00886003C080917B00877F80937B00FE
:100CB00060917800409179002091940D3091950DCC
:100CC0008091960D9091970D2817390718F580910E
:100CD000980D882329F480917A00806480937A00AB
:100CE000942F80E070E0682B792B80917C0085FF49
:100CF00002C0672F7727E091A00DF091A10D852FFD
:100D000019958091940D9091950D01969093950D64
:100D10008093940D08951F920F920FB60F920BB609
:100D20000F9211242F933F934F935F936F937F9371
:100D30008F939F93AF93BF93EF93FF93E0919E0D9B
:100D4000F0919F0D1995FF91EF91BF91AF919F91F8
:100D50008F917F916F915F914F913F912F910F9064
:100D60000BBE0F900FBE0F901F9018951F920F9201
:100D70000FB60F9211240F900FBE0F901F90189571
:100D8000ECE7F0E080818F738083808180648083D2
:100D900008950F931F9300917C0010917B00809128
:100DA0007C00807E80937C0080917C008E618093AB
:100DB0007C0080917B00877F80937B0063E070E004
:100DC00080E090E00E94A73380917A008064809355
:100DD0007A0080917A0086FDFCCF209178004091C6
:100DE000790000937C0010937B00742F60E030E06A
:100DF000622B732B882777FD8095982F0E945B408C
:100E00009B01AC0160E070E889E894E40E94C03F77
:100E10001F910F910895AF92BF92CF92DF92EF9200
:100E2000FF920F931F930E9481335B016C018091AD
:100E30007A00877D80937A0080917B00877086306E
:100E400029F480918100887F809381006091960DC4
:100E50007091970D80E090E00E94594020E034E2CC
:100E600044E759E40E9451417B018C018091AA0D15
:100E70009091AB0DA091AC0DB091AD0DA81AB90A2F
:100E8000CA0ADB0AC601B5010E9459409B01AC01A8
:100E9000C801B7010E94C03F6093A60D7093A70DD3
:100EA0008093A80D9093A90D1F910F91FF90EF9043
:100EB000DF90CF90BF90AF9008951092950D109253
:100EC000940D8091980D882321F080917A008062A2
:100ED00003C080917A008F7D80937A000E948133D5
:100EE0006093AA0D7093AB0D8093AC0D9093AD0DF4
:100EF00080917A00886C80937A0080917B00877063
:100F0000863081F480918100887F809381001092E7
:100F1000850010928400809181009091AE0D892B04
:100F2000809381000895F999FECF72BD61BDF89A52
:100F300080B50895F999FECF1FBA72BD61BD40BD5D
:100F40000FB6F894FA9AF99A0FBE0895FC01138629
:100F50001586148687E090E012863197009711F08D
:100F60000197FACF0895DF92EF92FF920F931F93AC
:100F7000FC01E08001811281F894F80181818E29C1
:100F800081838281DE2CD0948D21828383E090E066
:100F90000E940034F80181818D2181838AE090E0F4
:100FA0000E940034F8010081789485E390E00E946B
:100FB000003480E010E0FF240E211F21012B09F0F6
:100FC00081E01F910F91FF90EF90DF900895EF92D5
:100FD000FF920F931F93CF93DF937C0101E010E00A
:100FE000C0E0D0E0C7010E94B3078111102B000FB1
:100FF0002196C830D105B1F7812FDF91CF911F9194
:101000000F91FF90EF9008951F93CF93DF93FC0112
:101010001081C181D281912F909560FF12C0F89408
:101020008A8189238A838981812B89838AE090E060
:101030000E9400348A81812B8A83789487E390E030
:1010400011C0F8948A8189238A838981812B8983BD
:1010500081E490E00E9400348A81812B8A83789415
:1010600085E090E00E940034DF91CF911F910895B8
:10107000CF92DF92EF92FF920F931F93CF93DF9364
:101080008C01E42EFF24F394C0E0D0E0C62EDD24D2
:1010900060E08F2D90E08C219D21892B09F061E08B
:1010A000C8010E940408FF0C2196C830D10581F7C1
:1010B000EE20A9F4F894D8011196ED91FC911297C5
:1010C00091818C918095982391831196ED91FC915B
:1010D000129792818C918095982392837894DF91D6
:1010E000CF911F910F91FF90EF90DF90CF900895D7
:1010F000EF92FF920F931F93CF93DF938C017B01AD
:1011000065E540E00E943808C0E0D0E0F701EC0F50
:10111000FD1FC801608140E00E9438082196C83058
:10112000D105A1F7DF91CF911F910F91FF90EF9023
:101130000895DF92EF92FF920F931F93CF93DF9367
:10114000FC010081C181D281F8948981D02ED09494
:101150008D21898378941DE7E02EFF24115059F1E9
:1011600082E090E00E940034888190E08E219F21EF
:10117000892BA1F3F8948A818D218A838981802B20
:101180008983789480EE91E00E940034F8948981FC
:101190008D21898386E490E00E940034888110E0EC
:1011A00090E0E822F922EF2809F411E078948AE926
:1011B00091E00E940034812FDF91CF911F910F9118
:1011C000FF90EF90DF900895AF92BF92DF92EF9281
:1011D000FF920F931F93CF93DF93EC015B018D85FB
:1011E000882309F061C0CE010E949908882329F460
:1011F0001B861D861C8690E06BC0CE0160EF40E030
:101200000E94380801E0DD24EE24FF24F394CE018F
:101210000E94B307182FCE010E94B307113019F4B2
:101220008130E1F439C0181709F58B85081770F47F
:1012300060E0FE01EE0DF11D838190E02F2D30E086
:1012400082239323181619064CF003C060E0081798
:1012500029F0093008F04CC00C874AC0FE01EE0DA1
:10126000F11D83818F29838361E009C0612FFE0115
:10127000EE0DF11D9F2D9095838189238383CE01EF
:101280000E9404080F5FFF0C19F4E394FF24F39409
:1012900087E08E1508F0BBCF013430F0DB86DD200F
:1012A00011F581E08D871FC01B861D861C8690E08E
:1012B000DE0120E030E0F501E20FF31F13968C9180
:1012C000139780832F5F3F4F11962830310599F790
:1012D000892FDF91CF911F910F91FF90EF90DF90B9
:1012E000BF90AF9008958B818823F1F291E0E0CF19
:1012F000D02EBDCFFF920F931F938C01F62E862F19
:1013000060E00E944C358F2D90E0FC01EC54FE4FC4
:10131000E491D801EC9382599E4FFC016491E62F31
:10132000F0E0EE0FFF1FEC5AFE4F8591949112965C
:101330009C938E9311971B961C921B971D961C9243
:101340001D971C961C92F80187E090E01286319759
:10135000009711F00197FACF1F910F91FF90089518
:10136000882319F48CB5806202C08CB58F7D8CBD4A
:1013700008959CB5937F982B9CBD08952CB5382F6C
:1013800033702C7F322B3CBD2DB590E09595879521
:101390009595879581702E7F822B8DBD089585E36D
:1013A00061E00E94FF3585E361E00E944C358CB519
:1013B00080618CBD8CB580648CBD84E361E00E944B
:1013C0004C3583E361E00E944C3508951F920F92E3
:1013D0000FB60F920BB60F9211242F933F934F939A
:1013E0005F936F937F938F939F93AF93BF93EF938D
:1013F000FF93E091B30DF091B40D1995FF91EF912A
:10140000BF91AF919F918F917F916F915F914F911C
:101410003F912F910F900BBE0F900FBE0F901F901A
:10142000189581E08093FA0D6093D70D1092F80D16
:101430001092F90D089581E08093FA0D6093D70D15
:101440001092F80D1092F90D08952091D60D30E00C
:101450008091D50D281B3109C90108954091D50D02
:101460008091D60D481718F02FEF3FEF0AC0E42FF8
:10147000F0E0EB54F24F8081282F30E04F5F409333
:10148000D50DC9010895E091D50D8091D60DE817CD
:1014900018F0EFEFFFEF06C0F0E0EB54F24F808161
:1014A000E82FF0E0CF01089508951092FE0D1092FC
:1014B000FD0D88EE93E0A0E0B0E08093FF0D9093E7
:1014C000000EA093010EB093020E87EE93E090936E
:1014D000FC0D8093FB0D0895CF92DF92EF92FF9267
:1014E0000F931F93CF93DF937C016B018A0180914F
:1014F000FA0D8823A1F0C0E0D0E00DC0D701ED9136
:10150000FC91D601AC0FBD1F0190F081E02DC70109
:101510006C9119952196C017D10780F304C0CB01B7
:10152000642F0E94B80BC801DF91CF911F910F91DA
:10153000FF90EF90DF90CF900895DF93CF930F92BD
:10154000CDB7DEB7FC0169838091FA0D8823C9F01D
:101550008091F90D803238F081E090E093838283AE
:1015600020E030E015C08091F80DE82FF0E0E8525F
:10157000F24F998190838F5F8093F80D8093F90DDE
:1015800005C0CE01019661E00E94B80B21E030E079
:10159000C9010F90CF91DF9108950F93062F80918D
:1015A000D70D68ED7DE04091F90D21E00E94630BBD
:1015B0001092F80D1092F90D1092FA0D0F910895F6
:1015C00061E00E94CD0A0895413208F040E2862F82
:1015D00065EB7DE00E941A0B1092D50D8093D60D1D
:1015E000089521E00E94E40A089521E00E94E40A9F
:1015F00008951092D50D1092D60D1092F80D1092FC
:10160000F90D0E94040B08951092070E81E080935B
:10161000090E10920A0EE9EBF0E080818E7F808344
:1016200080818D7F808388E48093B80085E48093F7
:10163000BC000895382F413210F040E042C0809144
:10164000070E8823E1F791E09093070E2093090E8F
:101650008FEF8093740E10922F0E41504093300EF6
:101660004F5F9093080E8091080E330F832B809369
:10167000080E80910A0E813041F410920A0E80917A
:10168000080E8093BB0085EC01C085EE8093BC0002
:101690008091070E8130E1F380912F0E841710F4B2
:1016A00040912F0E20E030E00AC0FB01E20FF31F53
:1016B000D901A15FB14F8C9180832F5F3F4F2417D9
:1016C000A0F3842F08950F931F93582F122F4132A8
:1016D00010F081E04AC08091070E8823E1F782E094
:1016E0008093070E0093090E8FEF8093740E109273
:1016F0002F0E4093300EAFE0BEE0FB0102C081919F
:101700008D938E2F861B8417D0F31092080E809134
:10171000080E550F852B8093080E80910A0E81309C
:1017200041F410920A0E8091080E8093BB0085EC64
:1017300001C085EE8093BC00112321F08091070E3B
:101740008230E1F38091740E8F3F11F480E00DC080
:101750008091740E803211F482E007C08091740E83
:10176000803311F084E001C083E01F910F91089550
:10177000482F613210F081E008958091070E843087
:1017800011F082E008956093520EA1E3BEE0842F31
:101790009C01F90102C081918D938E2F841B8617C5
:1017A000D0F380E008951F920F920FB60F920BB600
:1017B0000F9211242F933F934F935F936F937F93D7
:1017C0008F939F93AF93BF93EF93FF938091B90053
:1017D00090E0887F90708036910509F4F2C08136E0
:1017E0009105CCF58832910509F47BC089329105C9
:1017F000B4F48031910509F46FC0813191053CF456
:10180000009709F447C1089709F04FC165C08831B6
:10181000910509F466C0809709F047C182C0803401
:10182000910509F4A4C08134910544F480339105F5
:1018300009F482C0C89709F038C189C08035910584
:1018400009F489C08835910509F496C0883491055A
:1018500009F02BC1AEC08839910509F413C189394B
:101860009105ECF48837910509F4ABC089379105EF
:101870004CF48836910509F4A4C08037910509F02D
:1018800014C19FC08838910509F4FCC080399105C6
:1018900009F49DC08038910509F007C198C0803BCC
:1018A000910509F4C6C0813B91054CF4803A91053D
:1018B00009F49FC0883A910509F0F7C0BAC0803C8E
:1018C000910509F4E3C0883C910509F4DFC0883B29
:1018D000910509F0EAC0C2C08091080E8093BB0058
:1018E000CFC090912F0E8091300E981768F4909190
:1018F0002F0EE92FF0E0E15FF14F80818093BB0074
:101900009F5F90932F0EBCC08091090E882309F42D
:101910004BC085ED8093BC008091BC0084FDFCCF62
:10192000C2C080E28093740E85ED8093BC008091EC
:10193000BC0084FDFCCFB7C080E38093740E85EDBE
:101940008093BC008091BC0084FDFCCFACC088E3D8
:101950008093740E9BC080912F0E9091BB00E82F56
:10196000F0E0E15FF14F90838F5F80932F0E9091B5
:101970002F0E8091300E82C080912F0E9091BB006F
:10198000E82FF0E0E15FF14F90838F5F80932F0E9F
:101990008091090E882341F085ED8093BC008091F1
:1019A000BC0084FDFCCF7FC081E080930A0E84EAF6
:1019B0006EC085ED8093BC008091BC0084FDFCCF9F
:1019C00072C083E08093070E1092730E59C080910D
:1019D000730E803208F056C08091730E9091BB0058
:1019E000E82FF0E0ED5AF14F90838F5F8093730EF4
:1019F00047C08091730E803230F4E091730EF0E0B6
:101A0000ED5AF14F108285ED8093BC008091BC00AF
:101A100084FDFCCF1092070E6091730EE0910D0EC5
:101A2000F0910E0E83E59EE070E019951092730E12
:101A30002DC084E08093070E1092510E1092520E2A
:101A4000E0910B0EF0910C0E19958091520E8823A7
:101A500029F481E08093520E1092310E9091510E34
:101A6000E92FF0E0EF5CF14F80818093BB009F5F36
:101A70009093510E9091510E8091520E981710F440
:101A800085EC01C085E88093BC000FC085EC809395
:101A9000BC0009C01092740E85ED8093BC0080914B
:101AA000BC0084FDFCCF1092070EFF91EF91BF9117
:101AB000AF919F918F917F916F915F914F913F91E6
:101AC0002F910F900BBE0F900FBE0F901F90189587
:101AD00083EF93E0089588E094E008958CE094E02B
:101AE000089583E294E008958DE394E0089589E4F5
:101AF00094E008958CE292E008950F931F938C0177
:101B000082E061E00E94FF350C5A174FF801108205
:101B10001F910F9108954F925F926F927F928F92D3
:101B20009F92AF92BF92CF92DF92EF92FF920F936C
:101B30001F93DF93CF930F920F92CDB7DEB78C0137
:101B40002C01EE2435E5832E38E0932E880E991E65
:101B500025E4C22E28E0D22EC80ED91E9BE6A92E5F
:101B600098E0B92EA00EB11E3E010894611C711CB4
:101B700033C088E0F82E30E040E050E0F60180818C
:101B80009181F801E80FF91FE259FF4F208101967A
:101B9000F6019183808380E090E0222311F481E0BC
:101BA00090E0042E02C0880F991F0A94E2F7380FC4
:101BB0004F5F5F4F4830510509F73A83F501608167
:101BC0006E0DF982C201A30122E00E94841EF394EB
:101BD000FDE0FF1681F6E3942E2D30E0F4018081C4
:101BE000918168E270E00E942C422617370708F2C4
:101BF0000F900F90CF91DF911F910F91FF90EF9079
:101C0000DF90CF90BF90AF909F908F907F906F901C
:101C10005F904F90089582E060E00E94FF3564EF8E
:101C200071E080E090E00E94A7330895CF92DF92A8
:101C3000EF92FF920F931F93DF93CF93CDB7DEB751
:101C40002A970FB6F894DEBF0FBECDBF8C014F832D
:101C5000588769877A876A017B01FC01EA54F74F4C
:101C6000608171818281938124EA30E74DE75FE3EF
:101C70000E9451419B01AC01C701B6010E944D4138
:101C800088230CF451C0F801E654F74F608171814C
:101C9000828193812EEA37E441E85FE30E9451415B
:101CA0009B01AC01C701B6010E94BC3F1816E4F1CC
:101CB0008AEA8A838F819885A985BA858B839C83DC
:101CC000AD83BE834CE6E42E48E0F42EE00EF11E18
:101CD000C801F7016081AE014E5F5F4F25E00E94B1
:101CE000841E64E670E080E090E00E94A7338BEFF2
:101CF0009DE0F701608141E00E94F50A8BEF9DE0D5
:101D00000E94250A892B91F08BEF9DE00E942E0AFC
:101D1000813061F4C801F7016081AE014F5F5F4F10
:101D200021E00E94651E02C088E089832981222368
:101D300059F4045A174F8F819885A985BA85F801FF
:101D400080839183A283B383822F2A960FB6F8945F
:101D5000DEBF0FBECDBFCF91DF911F910F91FF90DE
:101D6000EF90DF90CF9008959F92AF92BF92CF9265
:101D7000DF92EF92FF920F931F93DF93CF93CDB734
:101D8000DEB72A970FB6F894DEBF0FBECDBF8C0129
:101D90005A016B01922E1982FC01E254F74FCB01DC
:101DA000BA0120813181428153810E94BC3F1816C3
:101DB0000CF44DC0F801E05AF74FC601B50120817F
:101DC0003181428153810E94C03F6A837B838C832F
:101DD0009D8388EA8E838A819B81AC81BD818F83BC
:101DE0009887A987BA875CE6E52E58E0F52EE00EC5
:101DF000F11EC801F7016081AE014A5F5F4F25E027
:101E00000E94841E992029F164E670E080E090E051
:101E10000E94A7338BEF9DE0F701608141E00E94B3
:101E2000F50A8BEF9DE00E94250A892B91F08BEF3C
:101E30009DE00E942E0A813061F4C801F7016081A3
:101E4000AE014F5F5F4F21E00E94651E02C088E037
:101E500089838981882339F4085A174FF801A082B1
:101E6000B182C282D3822A960FB6F894DEBF0FBE2B
:101E7000CDBFCF91DF911F910F91FF90EF90DF9039
:101E8000CF90BF90AF909F900895FC01E05AF74F1C
:101E9000408351836283738338974081518162818B
:101EA0007381E855F840CF0120E00E94B40E0895F8
:101EB0006F927F928F929F92AF92BF92CF92DF925A
:101EC000EF92FF920F931F93CF93DF93EC01D62EE7
:101ED00065E6E62E68E0F62EE80EF91E682EAD2EB9
:101EE00000E010E0E881F981B8016C597F4F00886B
:101EF000F189E02D862D9A2D1995F701E00FF11F3C
:101F000080830F5F1F4F0D35110561F7CB59D74FF8
:101F100088819981C556D840892B39F5C959D74F41
:101F200088819981C756D840892BF9F49E01275999
:101F3000374FF90180819181892BB9F4FE01E35576
:101F4000F74FC05AD74F88819981AA81BB81C0566B
:101F5000D84080839183A283B38381E090E0F9012C
:101F600091838083CE010E946E11CB59D74F888117
:101F70009981C556D840892BE1F4C959D74F88813A
:101F80009981C756D840892BA1F4FE01E759F74F34
:101F900080819181019769F4C559D74F80E2888388
:101FA000CB56D84082E090E091838083CE010E949E
:101FB0006E11CB59D74F88819981C556D840892B4E
:101FC00011F5C959D74F88819981C756D840892BB7
:101FD000D1F4FE01E759F74F80819181029799F47E
:101FE000CF54D74F80E090E0A0EAB0E48883998393
:101FF000AA83BB83C15BD84083E090E09183808358
:10200000CE010E946E11CB59D74F88819981C55658
:10201000D840892BD9F4C959D74F88819981C7569F
:10202000D840892B99F4FE01E759F74F80819181BF
:10203000039761F4CB54D74F1882C55BD84084E036
:1020400090E091838083CE010E946E11CB59D74FCF
:1020500088819981C556D840892B91F5C959D74FA8
:1020600088819981C756D840892B51F5FE01E759DF
:10207000F74F80819181049719F5CA54D74F80E0BA
:1020800090E0A8ECB2E489939993A993B99380E086
:1020900090E4ACE9B6E489939993A993B99380E06D
:1020A00090E0A8E4B3E488839983AA83BB83CE5BE2
:1020B000D84085E090E091838083CE010E946E112C
:1020C000CB59D74F88819981C556D840892B99F42F
:1020D000C959D74F88819981C756D840892B59F45F
:1020E000C759D74F88819981C956D840059719F4A7
:1020F000DD2009F4B3C0CB59D74F19921992199228
:10210000199285E090E09983888324960F2EF0E061
:10211000AF2EF0E4BF2EFCE9CF2EF6E4DF2EF02D3B
:10212000A992B992C992D9920F2EF0E0EF2EF0E564
:10213000FF2EF3E40F2FF8E41F2FF02DE992F99210
:102140000993199320E034E244EF59E4288339835A
:102150004A835B8360960F2EF0E06F2EF0E07F2EB7
:10216000F8E48F2EF3E49F2EF02D699279928992F4
:10217000999280E090E0AAEFB4E489939993A993AF
:10218000B993A992B992C992D992E992F992099315
:102190001993288339834A835B8364972FEF36EE44
:1021A0004BE55EE2288339834A835B83A8962883C4
:1021B00039834A835B83ED978AE088832D9680E09C
:1021C00090E0A0E0B0E089939993A993B9938883B4
:1021D0009983AA83BB836C96299339934993599326
:1021E000299339934993599329933993499359934F
:1021F000288339834A835B83C55AD840FE01E3555F
:10220000F74FC05AD74F88819981AA81BB818083BB
:102210009183A283B3832B9680E28883CA5BDF4FCE
:1022200080E090E0A0EAB0E489939993A993B993F0
:10223000199280E090E0A8ECB2E489939993A99375
:10224000B993A992B992C992D992688279828A8205
:102250009B82CE5BD840CE010E946E11C355D74FF2
:10226000E880F9800A811B81CD5AD840C801B701A6
:1022700020E030E040E050E00E94BC3FFE01EC591D
:10228000F74F18161CF081E0808309C0C05AD74F61
:10229000E882F9820A831B83C056D8401082CB544F
:1022A000D74F8881C55BD840882321F0CE0160E0FC
:1022B00042E003C0CE0160E041E00E94E432DF91E1
:1022C000CF911F910F91FF90EF90DF90CF90BF9033
:1022D000AF909F908F907F906F900895CF92DF92F4
:1022E000EF92FF920F931F93CF93DF938C0175E6CC
:1022F000E72E78E0F72EE80EF91E6C01C0E0D0E082
:10230000F701EC0FFD1FC601CC59DF4FBE01408124
:102310000E945B1EC356D040CD35D10589F7C80158
:1023200060E00E94580FDF91CF911F910F91FF90B5
:10233000EF90DF90CF9008952F923F924F925F924F
:102340006F927F928F929F92AF92BF92CF92DF92C5
:10235000EF92FF920F931F93DF93CF93CDB7DEB72A
:10236000E2970FB6F894DEBF0FBECDBF7C0184E5C7
:1023700098E0E80EF91E81E0D7018C93ECEAF7EFC4
:10238000EE0EFF1EC7010E940B0ED701ED91FC91CE
:102390000680F781E02DC7011995BC0189ED90E118
:1023A0000E94B73C89ED90E160E372E00E94B73C87
:1023B000D701ED91FC910484F585E02DC7011995B5
:1023C000BC0189ED90E10E94B43D89ED90E163E3A9
:1023D00072E00E94B73CD701ED91FC910284F38535
:1023E000E02DC7011995BC0189ED90E10E94B43D33
:1023F000E9AAFAAAC7010E94BC1E89ED90E166E431
:1024000072E00E94B73CE5E6F8E0EE0EFF1ED70151
:102410006D917D917D0189ED90E14AE050E00E944F
:10242000E73B89ED90E16DE572E00E94B73CF70172
:10243000619171917F0189ED90E14AE050E00E9445
:10244000E73B89ED90E16DE572E00E94B73CD70172
:102450006D917C91E7E9F7EFEE0EFF1E89ED90E1BB
:102460004AE050E00E94F83B89ED90E16FE572E0B0
:102470000E94B73CF701E459F74F89ED90E1608184
:102480004AE050E00E94273C10E053E0252E312C1A
:102490002C0E3D1E41E1442E512C4C0E5D1E3FE1A1
:1024A000632E712C6C0E7D1E28E1822E912C8C0ED9
:1024B0009D1E96E2A92EB12CAC0EBD1EC3C0CE014E
:1024C0000A9663E872E00E94D33EC101612F4AE0A0
:1024D0000E94063FCE010A96B1010E949C3E65E82B
:1024E00072E00E94803E98AB8FA7C2016D2D4AE03A
:1024F0000E94063F8FA598A9B2010E949C3E69E9FF
:1025000072E00E94803EBC0189ED90E10E94C73DCF
:10251000C2010E94383FC1010E94383FCE010A9695
:102520000E943E3F112339F0113049F040E050E065
:1025300060E070E013C0ED2DF0E0329603C0ED2DA9
:10254000F0E03896EE0FFF1FEE0FFF1FEE0DFF1DA0
:10255000EB59F74F408151816281738189ED90E1A0
:1025600022E030E00E94A13DC30163E872E00E94D6
:10257000D33EC401612F4AE00E94063FC301B4016B
:102580000E949C3E6CE972E00E94803E9EA78DA74F
:10259000C5016D2D4AE00E94063F8DA59EA5B5019F
:1025A0000E949C3E69E972E00E94803EBC0189ED78
:1025B00090E10E94C73DC5010E94383FC4010E94BE
:1025C000383FC3010E943E3F112339F0113049F0DA
:1025D00060E070E080E090E013C0ED2DF0E0359613
:1025E00003C0ED2DF0E03D96EE0FFF1FEE0FFF1F35
:1025F000EE0DFF1DEB59F74F608171818281938150
:1026000025EA34ED48E653E50E945141AB01BC0197
:1026100089ED90E122E030E00E949E3D89ED90E15D
:1026200061EB72E00E94B43DD394112321F011308C
:1026300031F485E001C083E0D81608F440CF1F5F75
:10264000123011F0DD24F1CF89ED90E165EB72E0FD
:102650000E94B73C1BE6C12E18E0D12ECE0CDF1C29
:1026600089ED90E1D6016C914AE050E00E94273C50
:1026700089ED90E162ED72E00E94B73CEDEAF8E08E
:10268000EE0EFF1ED7014D915D916D917D917D0103
:1026900089ED90E122E030E00E94A13D89ED90E1DA
:1026A00062EE72E00E94B73CF70141915191619155
:1026B00071917F0189ED90E122E030E00E94A13D1F
:1026C00089ED90E165EF72E00E94B73CD7016C9113
:1026D00089ED90E170E04AE050E00E94983C89ED7D
:1026E00090E16EE073E00E94B73CEFEAFFEFEE0E80
:1026F000FF1ED7016C9189ED90E170E04AE050E057
:102700000E94983C89ED90E16AE273E00E94B73C38
:10271000E2E5F0E0EE0EFF1ED7014D915D916D9167
:102720007D917D0189ED90E122E030E00E94A13DA4
:1027300089ED90E162E473E00E94B73CF7014191BA
:102740005191619171917F0189ED90E122E030E03A
:102750000E94A13D89ED90E16AE573E00E94B73CDB
:10276000D7014D915D916D917C91E2E4F7EFEE0E12
:10277000FF1E89ED90E122E030E00E94A13DF701CB
:10278000EB5AF74F11821082AA24BB24B8E28B2E99
:10279000912CA8E12A2E33243A943E010894611C1E
:1027A000711C2F011A2D29823A82D6016C916A0D73
:1027B00089A99AA9A30122E00E94841EF6016081E2
:1027C0006A0D89A99AA9A30121E00E94651E898149
:1027D0008F3F09F047C000E0085E098308511A8264
:1027E000D6016C91610F89A99AA9A30122E00E94E8
:1027F000841EF6016081610F89A99AA9A30121E0D5
:102800000E94651E8981882369F5085F09833A82E1
:10281000D6016C91610F89A99AA9A30122E00E94B7
:10282000841E07500530C1F689ED90E160E773E042
:102830000E94B73C89ED90E1B5014AE050E00E946A
:10284000853C89ED90E16AE773E00E94B43D940114
:1028500028523040F201808191818217930711F450
:10286000918280820894A11CB11C88E290E0880EBD
:10287000991E98E0A916B10409F094CFA5E5B8E037
:10288000EA0EFB1EF701608171818BEA97EFE80E7B
:10289000F91E89ED90E14AE050E00E94E73B89EDA6
:1028A00090E166E873E00E94B43DC70140E050E467
:1028B0006CE176E40E94160EE2960FB6F894DEBF45
:1028C0000FBECDBFCF91DF911F910F91FF90EF9081
:1028D000DF90CF90BF90AF909F908F907F906F9040
:1028E0005F904F903F902F9008950F931F938C010E
:1028F0000E94F41E82E061E00E94FF3582E061E008
:102900000E944C35C80160E00E94580F005A174FD2
:1029100080E090E0A6E9B3E4F80180839183A2838C
:10292000B3831F910F910895FC0180E894E0918397
:102930008083CF010E94191D08950F931F938C016E
:1029400061E00E94931F80E894E0F8019183808306
:102950000E5A174FF801119210821F910F9108958E
:102960007F928F929F92AF92BF92CF92DF92EF921F
:10297000FF920F931F93DF93CF930F920F92CDB7D8
:10298000DEB75C019B01742ECB0168E270E00E940F
:102990002C42862EC90168E270E00E942C426C0134
:1029A000E3E096958795EA95E1F7982E082D10E0DB
:1029B0007BE6E72E78E0F72EEA0CFB1CF70180811E
:1029C000B801680F711D8BEF9DE00E941B0A692DF5
:1029D00070E0685F7F4F8BEF9DE00E949D0A8BEF58
:1029E0009DE00E94E00AF7018081080F111D8BEF26
:1029F0009DE0B80141E050E00E94F10A8BEF9DE0BC
:102A00000E94250A892B11F481E03BC00C2D077030
:102A1000F8E09F0E99828BEF9DE00E942E0A282FEE
:102A2000772071F481E090E0A0E0B0E004C0880F6E
:102A3000991FAA1FBB1F0A95D2F7282B2A830EC005
:102A400081E090E0A0E0B0E004C0880F991FAA1FC9
:102A5000BB1F0A95D2F7809582238A838BE698E084
:102A6000A80EB91EF501608185E997EFA80EB91E81
:102A7000680DC501AE014F5F5F4F22E00E94841ECA
:102A800080E00F900F90CF91DF911F910F91FF90F9
:102A9000EF90DF90CF90BF90AF909F908F907F90FE
:102AA00008952F923F924F925F926F927F928F92F2
:102AB0009F92AF92BF92CF92DF92EF92FF920F93CD
:102AC0001F93DF93CF93CDB7DEB76A970FB6F89415
:102AD000DEBF0FBECDBF3C01B62E23E538E0620E4F
:102AE000731E81E0D3018D933D018C91ECEAF7EFE9
:102AF0006E0E7F1E882319F4C3010E949C11F1EB16
:102B0000BF1609F4B2C3FB15D8F128EAB21609F4CE
:102B100012C22B15D8F032EAB31609F40DC13B15D9
:102B200048F040EAB41609F469C051EAB51609F054
:102B300057C77CC064EAB61609F4A9C1B61608F4F2
:102B400018C177EAB71609F04BC7DEC18DEAB8168F
:102B500009F4A4C28B1548F099EAB91609F414C215
:102B6000AAEABA1609F03CC76FC2BFEABB1609F45D
:102B7000ECC2F301E05CF74FBB1508F425C3C2C2F9
:102B8000E8EBBE1609F490C6EB15D0F0F4EBBF16D7
:102B900009F452C4FB1548F022EBB21609F4BBC38A
:102BA00033EBB31609F01CC72FC446EBB41609F477
:102BB000BCC4F301E05CF74F4B1508F435C698C46C
:102BC0005CEBB51609F4B1C65B1558F06AEBB616A6
:102BD00009F436C6F301E05CF74F6B1508F44CC6F8
:102BE00082C674EFB71609F4E4C485EFB81609F489
:102BF000F2C59DEBB91609F0F3C6BAC6A0E4B8E079
:102C00006A0E7B1EF3018081918120EC37EF620E0A
:102C1000731E830104591F4F892B09F0A7C6B30106
:102C20006B5A774FC30142E050E02CC120E438E0FA
:102C3000620E731ED3018D919C91E0ECF7EF6E0E46
:102C40007F1E830104591F4F892B09F08FC6D801BD
:102C50001C92688EA72CCC24F301EB5AF74FFA8F05
:102C6000E98F5BE6252E58E0352E260C371C4801EF
:102C700054C048E0D42E2901D1018C91B201680FD3
:102C8000711D8BEF9DE00E941B0A8BEF9DE06D2D67
:102C90000E949D0A8BEF9DE00E94E00AF101808175
:102CA000B201680F711D8BEF9DE041E050E00E9482
:102CB000F10A8BEF9DE00E94250A892B21F18BEF11
:102CC0009DE00E942E0A00E010E0E82EFF24C701DC
:102CD000002E02C0959587950A94E2F721E030E036
:102CE0008227932781708983888D9A2DBE016F5F1B
:102CF0007F4F41E050E00E941F1D0F5F1F4F0830C3
:102D0000110529F704C0E1E0D401EC9305C0D39488
:102D1000FDE0DF1609F0B0CFC3942C2D30E0A98D73
:102D2000BA8D8D919C9168E270E00E942C4226172A
:102D3000370708F49ECF54C6F301E05CF74F25E552
:102D400038E0620E731E20813181D3018D919C91F8
:102D5000EBEAF7EF6E0E7F1E830104591F4F281711
:102D6000390709F003C6C3010E948B0DD8011C92DC
:102D700037C620E438E0620E731ED3018D919C911A
:102D8000E0ECF7EF6E0E7F1E029709F01EC6D3012E
:102D9000AB5BB74F8D919C91119782599F4FF30177
:102DA000E80FF91F0190F081E02D8C5690408D9333
:102DB0009C9325E538E0620E731ED3018D919C91A2
:102DC0002BEA37EF620E731EE817F90728F04CE67E
:102DD00050E0640E751E16C3CF0168E270E00E94D9
:102DE0002C426C01CF0168E270E00E942C42062F59
:102DF00010E09BE6E92E98E0F92EE60CF71CD701CF
:102E00008C91B801680F711D8BEF9DE00E941B0A29
:102E1000B60183E0769567958A95E1F770E0685F83
:102E20007F4F8BEF9DE00E949D0A8BEF9DE00E94FB
:102E3000E00AF7018081080F111D8BEF9DE0B801BA
:102E400041E050E00E94F10A8BEF9DE00E94250ACC
:102E5000830104591F4F892BC1F08BEF9DE00E9425
:102E60002E0A90E02C2D277002C0959587952A9503
:102E7000E2F7809581708983C301BE016F5F7F4F48
:102E800041E050E00E941F1D71CF81E03AC020E474
:102E900038E0620E731ED3018D919C91E0ECF7EF48
:102EA0006E0E7F1E039709F090C5D301AB5BB74F41
:102EB0008D919C911197FC01E259FF4FE60DF71D92
:102EC00060817181F301E80FF91FE059FF4F4081E4
:102ED00003968D939C9325E538E0620E731ED30113
:102EE0008D919C91EBEAF7EF6E0E7F1E83010459E2
:102EF0001F4F6817790720F4C3010E94B014CBC09C
:102F000085E0F80180836CC520E438E0620E731E12
:102F1000D3018D919C91E0ECF7EF6E0E7F1E830143
:102F200004591F4F892B09F021C5D8011C92B30108
:102F3000685A774F7FC220E438E0620E731ED301D7
:102F40008D919C91E0ECF7EF6E0E7F1E830104598A
:102F50001F4F049709F00AC5D301AB5BB74F8D91A2
:102F60009C91119782599F4FF301E80FF91F4081FF
:102F70005181628173818A5690408D939C93C301E5
:102F800021E00E94B40E87C020E438E0620E731E78
:102F9000D3018D919C91E0ECF7EF6E0E7F1E892B93
:102FA00009F013C5F62CE72C83010459174FC30110
:102FB000D8016C9149EA0E94A81E64E670E080E0A6
:102FC00090E00E94A7338BEF9DE0F801608141E023
:102FD0000E94F50A8BEF9DE00E94250A892B09F4D7
:102FE000FFC48BEF9DE00E942E0A853009F0F8C4E3
:102FF00038018F2D9E2DD8016C91AE01475F5F4F38
:1030000025E00E94651E8D85E0E0F8EF6E0E7F1EC4
:10301000D3018C93E4E9FFEF6E0E7F1E882309F045
:10302000DFC4F301E45AF74F89859A85AB85BC85E7
:1030300080839183A283B3838F2D9E2DBF0144E0B3
:1030400050E00E941F1DCCC420E438E0620E731EC5
:10305000D3018D919C91E0ECF7EF6E0E7F1E830102
:1030600004591F4F049709F081C4D301AB5BB74FDC
:103070008D919C91119782599F4FF301E80FF91F91
:1030800040815181628173818A5690408D939C93D7
:10309000C3010E94160ED8018C93A2C420E438E02C
:1030A000620E731ED3018D919C91E0ECF7EF6E0ED2
:1030B0007F1E019709F089C4D301AB5BB74F8D9197
:1030C0009C911197F301E80FF91FE259FF4F2081FE
:1030D00001968D939C93830104591F4F223008F071
:1030E0000FCF30E08BE190E0289FF001299FF00D99
:1030F000389FF00D1124E658F14F81818983D80162
:103100001C922DC480819181830104591F4F029725
:1031100009F02CC4D301AB5BB74F2D913C911197B3
:10312000F301E20FF31FE259FF4F80812F5F3F4F02
:10313000F301E20FF31FE259FF4F60812F5F3F4F12
:103140002D933C930E94C82CA6CF20E438E0620E59
:10315000731ED3018D919C91E0ECF7EF6E0E7F1EF4
:10316000019709F032C4D301AB5BB74F8D919C91AD
:103170001197F301E80FF91FE259FF4F40810196C3
:103180008D939C93830104591F4F423008F0B8CEB1
:10319000D8011C92242F30E08BE190E0289FF001B1
:1031A000299FF00D389FF00D1124E658F14FE18171
:1031B000442321F0413009F08FC003C0F0E0329683
:1031C00095C0F0E0389692C08081918183010459C6
:1031D0001F4F059709F085C3D301AB5BB74F8D91A6
:1031E0009C911197F301E80FF91FE259FF4FE0811D
:1031F00001968D939C93D8011C92EE2321F0E1302F
:1032000009F0FCC019C0E0917B0EF0E0B3016B5BEC
:10321000774FDB018D919C9182599F4FD301A80F6D
:10322000B91F2D913D914D915C918A569040DB01E3
:103230008D939C933296D2C0E091960EF0E0B3014C
:103240006B5B774FDB018D919C9182599F4FD3012E
:10325000A80FB91F2D913D914D915C918A569040D8
:10326000DB018D939C933896B9C0E0E4F8E06E0ED4
:103270007F1ED3018D919C91E0ECF7EF6E0E7F1EC7
:10328000019709F0A2C3D301AB5BB74F8D919C911D
:103290001197F301E80FF91FE259FF4F40810196A2
:1032A0008D939C93830104591F4F423008F028CE20
:1032B000D8011C92242F30E08BE190E0289FF00190
:1032C000299FF00D389FF00D1124E658F14FE18150
:1032D000442339F0413041F080E090E0A0E0B0E0DC
:1032E00011C0F0E0359602C0F0E03D96EE0FFF1FF2
:1032F000EE0FFF1FE60DF71DEB59F74F808191810F
:10330000A281B38189839A83AB83BC83C301BE014D
:103310006F5F7F4F94CE20E438E0620E731ED301BE
:103320008D919C91E0ECF7EF6E0E7F1E83010459A6
:103330001F4F059709F0D5C2A3014B5B574FDA0128
:103340002D913C911197F301E20FF31FE259FF4FCA
:10335000E0812F5F3F4F2D933C9321503040D801A7
:103360001C92EE2321F0E13009F048C01FC0E0912B
:103370007B0EF0E021593F4FD301A20FB31FED9018
:10338000FD900D911C912A563040DA012D933C930B
:103390003596EE0FFF1FEE0FFF1FE60DF71DEB59E1
:1033A000F74FE082F1820283138324C0E091960EEE
:1033B000F0E0B3016B5B774FDB018D919C918259FB
:1033C0009F4FD301A80FB91F2D913D914D915C9155
:1033D0008A569040DB018D939C933D96EE0FFF1F24
:1033E000EE0FFF1FE60DF71DEB59F74F20833183DA
:1033F00042835383C3010E946E11F2C2ECE6F0E0F7
:103400006E0E7F1E85E0E6C2E0E4F8E06E0E7F1EE1
:10341000D3018D919C91E0ECF7EF6E0E7F1E83013E
:1034200004591F4F892B09F0A1C2D8011C92B30186
:10343000605A774FC30103CE20E438E0620E731E5A
:10344000D3018D919C91E0ECF7EF6E0E7F1E0497F7
:1034500009F0BBC2F301EB5BF74F80819181825988
:103460009F4FD301A80FB91FED90FD900D911C91B6
:103470008A56904091838083C801B70120E030E0F4
:1034800040E050E00E944D41181664F5F301EC59FC
:10349000F74F8081882379F020E638E0620E731EB2
:1034A000D301ED92FD920D931C931397E0EAF7EF91
:1034B0006E0E7F1E12C02DEA38E0620E731ED3011D
:1034C000ED92FD920D931C93139723E537EF620E57
:1034D000731E1082C3010E946E114CE650E0640E10
:1034E000751E70C22CE630E0620E731E88E072C258
:1034F00080819181830104591F4F892B09F036C2C5
:10350000D8011C9210E0F301E355F74F60817181FF
:103510008281938120E030E040E050E00E94BC3F97
:1035200018160CF011E019831AC220E438E0620E7C
:10353000731ED3018D919C91E0ECF7EF6E0E7F1E10
:10354000019709F042C2D301AB5BB74F8D919C91BB
:103550001197F301E80FF91FE259FF4F20810196FF
:103560008D939C93F301E355F74F222349F080E0BC
:1035700090E0A0E0B0E080839183A283B38311C088
:1035800020E638E0620E731ED3012D913D914D91DE
:103590005C9160EA77EF660E771E20833183428369
:1035A0005383C3010E946E118CE690E0680E791E71
:1035B00009C220E438E0620E731ED3012D913C91C4
:1035C000E0ECF7EF6E0E7F1E2A30310508F4FDC1E6
:1035D000D301AB5BB74F8D919C911197FC01E259E0
:1035E000FF4FE60DF71D40815181628173814C8B45
:1035F0005D8B6E8B7F8B049611969C938E930497B4
:10360000FC01EE58FF4FE60DF71D608171817B8B49
:103610006A8BFC01EC58FF4FE60DF71D408151818C
:10362000628173814E875F87688B798BF301E80F26
:10363000F91FE858FF4F10810B968D939C932B3008
:10364000310581F065E578E0660E771ED3018D9136
:103650009C91EBEAF7EF6E0E7F1E0B962817390749
:1036600009F0E1C12A893B892B54314008F0ADC0F3
:103670006C897D898E899F8920E030E04AE754E497
:103680000E94C03F20E030E44CE157E40E945141E9
:1036900020E030E040E855E40E94BC3F88230CF075
:1036A00094C06CE670E0660E771ED3011C92E4E9CC
:1036B000FFEF6E0E7F1EF301E05CF74F25E538E06B
:1036C000620E731ED3018D919C912BEA37EF620E2F
:1036D000731E0B96208131812817390719F4C30115
:1036E0000E948B0DA12E0E9481331B012C014CE501
:1036F00058E0640E751ED301CD90DD90ED90FC90E6
:10370000E4EAF7EF6E0E7F1EF0E010FDF1E0E0E07E
:10371000A1FCE1E06C897D898E899F894A895B895A
:103720000E851F8528893989AF2E8E2E0E94402D47
:103730000E94813362197309840995090E945940D6
:103740007B018C012A893B89B90180E090E00E94CD
:10375000594020E030E04AE754E40E9451419B0187
:10376000AC01C801B7010E94C03F69837A838B8393
:103770009C83C301BE016F5F7F4F44E050E00E9415
:103780001F1DC30161E97EE044E050E00E941F1D5F
:10379000C3016CEA7EE044E050E00E941F1D40E659
:1037A00058E0640E751EF30180819181A281B3817E
:1037B00020EA37EF620E731E8D839E83AF83B88736
:1037C000C301BE016B5F7F4F3ACC4CE650E0640E04
:1037D000751E81E0FFC020E438E0620E731ED30145
:1037E0008D919C91E0ECF7EF6E0E7F1E83010459E2
:1037F0001F4F019709F0BAC0D8011C92D301AB5BEF
:10380000B74F8D919C911197F301E80FF91FE25981
:10381000FF4F208101968D939C9360E0211161E020
:10382000C3010E94580FDCC080819181830104593B
:103830001F4F892B09F09AC0D8011C9282E08EC0DC
:1038400020E438E0620E731ED3018D919C91E0EC70
:10385000F7EF6E0E7F1E830104591F4F892B09F06D
:1038600040C0D8011C92E2E5F8E06E0E7F1ED30145
:103870008C91EEEAF7EF32C080819181019709F0D7
:10388000A4C0D301AB5BB74F8D919C911197F3010D
:10389000E80FF91FE259FF4F208101968D939C9309
:1038A000F301EE5AF74F36C020E438E0620E731E83
:1038B000D3018D919C91E0ECF7EF6E0E7F1E83019A
:1038C00004591F4F892B69F4D8011C92E3E5F8E0F5
:1038D0006E0E7F1ED3018C91EDEAF7EF6E0E7F1E08
:1038E0003DC086E0D8CB80819181019709F06DC001
:1038F000D301AB5BB74F8D919C911197F301E80F0A
:10390000F91FE259FF4F208101968D939C93F3019B
:10391000ED5AF74F222319F081E0808301C0108215
:10392000ECE6F0E06E0E7F1E4DC020E438E0620E43
:10393000731ED3018D919C91E0ECF7EF6E0E7F1E0C
:10394000830104591F4F892B89F4D8011C9282E00E
:103950000E9432361982892B11F481E08983C301D8
:10396000BE016F5F7F4F41E050E06BCB86E0C9CA7C
:1039700020E438E0620E731ED3018D919C91E0EC3F
:10398000F7EF6E0E7F1E019701F5D301AB5BB74FCA
:103990008D919C911197F301E80FF91FE259FF4FA8
:1039A000208101968D939C93222321F0C3010E94D4
:1039B0000B0E04C082E061E00E94FF352CE630E08F
:1039C000620E731ED3011C9207C02CE630E0620E1B
:1039D000731E86E0D3018C93E4E9FFEF6E0E7F1E29
:1039E000C3016B2D0E9488212CE630E0620E731E0D
:1039F000D3018C916A960FB6F894DEBF0FBECDBF8F
:103A0000CF91DF911F910F91FF90EF90DF90CF90BA
:103A1000BF90AF909F908F907F906F905F904F90EE
:103A20003F902F900895ECE6F0E06E0E7F1ED1CF10
:103A30000895FC0187EA94E09183808308950F93B1
:103A40001F93CF93DF938C0120E030E0EC01C95B42
:103A5000D74F10C0F801E20FF31F88819981E80F5A
:103A6000F91FE259FF4FDB01A20FB31F8C91808336
:103A70002F5F3F4F2417350768F388819981840FA2
:103A8000951F99838883DF91CF911F910F9108959E
:103A9000CF93DF93DC01FC01E359FF4F6081EC0120
:103AA000C459DF4F67FF0EC06058608382E088838F
:103AB000ED91FC91119760580488F589E02DCD01B6
:103AC00019950EC0FC01E05CF74F80819181A80F31
:103AD000B91FA359BF4F2C912883019791838083ED
:103AE000DF91CF910895CF93DF93EC01FC01E75B69
:103AF000F74F6D3719F481E08083DAC09081992304
:103B000011F080E268276E3749F4992339F4CD5BD0
:103B1000D74F19821882C354D840C4C0CD5BD74F49
:103B200028813981C354D84021153105A1F4C359E6
:103B3000DF4F6883C152D84F8881CC54D840882346
:103B400009F448C0C15BD74F8FEF9FEF99838883FB
:103B5000CF54D8403FC021303105B1F4DE01AE5B17
:103B6000B74FFE01E05CF74F67FF09C083E08C931D
:103B7000862F90E08F779070108281832BC082E037
:103B80008C936083118226C02230310589F4CE5B8C
:103B9000D74F8881C254D840833051F4FE01E05C95
:103BA000F74F80819181860F911D9183808312C090
:103BB000CE5BD74F8881F901E81BF1099A918A9170
:103BC000C054D840E817F90728F4EC0FFD1FE2595C
:103BD000FF4F6083C45BD74F8881CC54D840882383
:103BE000F1F0FE01E15BF74F808191818627282F5C
:103BF00022952827022E269526952025022E2695E9
:103C000020252770082E892F269507942795902D1B
:103C10008227069427959025822791838083FE0131
:103C2000ED5BF74F408151814F5F5F4F5183408380
:103C3000CE5BD74F88813A912A91280F311D2C965F
:103C40006881CC54D840862F90E0880F991F280FA8
:103C5000391F4217530731F511821082CB5BD74FC2
:103C60001992199219821882C754D840662341F0DC
:103C7000C15BD74F88819981CF54D840892B19F4E3
:103C8000CE010E94481DFE01E55BF74F908199230C
:103C900049F0C359DF4F90588881CD56D0408917DD
:103CA00009F41082FE01E75BF74F808181111082D9
:103CB000DF91CF9108958FEA9DE00E949A070895C1
:103CC0008FEA9DE00E94930708951F93CF93DF939F
:103CD000EA018BEF9DE0422F0E94F50A10E009C037
:103CE0008BEF9DE00E942E0AFE01E10FF11D808303
:103CF0001F5F8BEF9DE00E94250A892B89F7812F9A
:103D0000DF91CF911F910895FF920F931F93CF934F
:103D1000DF93142F052FF22E8BEF9DE00E94110AE6
:103D2000212F302FC901EC0110E006C08BEF9DE080
:103D300069910E949D0A1F5F1F15C0F38BEF9DE0E4
:103D40000E94E00ADF91CF911F910F91FF9008959B
:103D5000FF920F931F93F42E0BEF1DE0C8010E94FA
:103D6000110AC8016F2D0E949D0AC8010E94E00A35
:103D70001F910F91FF9008951F9318E08BEF9DE026
:103D8000612F0E94110A8BEF9DE00E94E00A8823B8
:103D900031F589ED90E16DE973E00E94B73C89ED62
:103DA00090E1612F4AE050E00E94153C89ED90E1DE
:103DB00061EB73E00E94B73C89ED90E1612F40E137
:103DC00050E00E94153C89ED90E166EB73E00E94A3
:103DD000B43D61E070E080E090E00E94A7331F5F97
:103DE000183761F61F910895AF92BF92CF92DF927C
:103DF000EF92FF920F931F93DF93CF9300D00F9218
:103E0000CDB7DEB77C016E010894C11CD11C5601F0
:103E10000FE010E0D701ED91FC910088F189E02DD1
:103E2000C701B8011995F50181935F010F5F1F4F1D
:103E30000331110579F789819A81AB81BC818F5F4C
:103E40009F4FAF4FBF4FD9F480E092ECA1E0B0E0BC
:103E500089839A83AB83BC830FE010E0D701ED9197
:103E6000FC910288F389E02DC701B801D6014D917C
:103E70006D0119950F5F1F4F0331110579F74981C6
:103E80005A816B817C8189ED90E10E94A7388BEF8C
:103E90009DE00E94F90A0E94CF090E94C90687018D
:103EA00008591F4FF801608371838283938389EDE2
:103EB00090E168EB73E00E94B73CD8014D915D91B1
:103EC0006D917C9189ED90E122E030E00E949E3D71
:103ED00089ED90E16AEC73E00E94B43D0F900F9081
:103EE0000F900F90CF91DF911F910F91FF90EF9066
:103EF000DF90CF90BF90AF900895CF93DF93EC0108
:103F000008C089ED90E10E945F39682FCE010E94C0
:103F1000731D89ED90E10E942E39181619068CF355
:103F2000DF91CF9108957F928F929F92AF92BF922F
:103F3000CF92DF92EF92FF920F931F93CF93DF9375
:103F4000FC0187EA94E091838083E45BF74F608310
:103F50003997118210823696108239971182108219
:103F6000359611921192118210823A961082AA24EB
:103F7000BB24882499248FEA9DE0B5010E94930711
:103F8000182FB501695F7F4F8FEA9DE00E9493076C
:103F9000E401EE24FF24C12EDD24C094D094082F28
:103FA00010E000951095C633D105B4F4B6010E2C7F
:103FB00002C0759567950A94E2F761708C2F0E9494
:103FC0004C35B8010E2C02C0759567950A94E2F73E
:103FD00061708C2F0E94FF350894E11CF11C219622
:103FE00088E0E816F104F9F60894A11CB11C88E0F9
:103FF00090E0880E991E97E0A916B10409F0BBCF96
:10400000DF91CF911F910F91FF90EF90DF90CF90B4
:10401000BF90AF909F908F907F9008951F93162F21
:10402000862F8D57823050F489ED90E16DE70E9424
:10403000983960E2612789ED90E102C089ED90E155
:104040000E9498391F9108958F929F92AF92BF92CC
:10405000CF92DF92EF92FF920F931F93CF93DF9354
:10406000EC01BEE6EB2EF12CE80EF91E00E010E0AC
:10407000A0E48A2EA8E09A2E880E991EFCE4AF2EAA
:10408000F8E0BF2EA80EB91EEDE4CE2EE8E0DE2E3D
:10409000C80ED91E2AC0F50180818823F1F0F701EE
:1040A0002081F601808191818227282F229528275F
:1040B000022E269526952025022E2695202527704E
:1040C000082E892F269507942795902D82270694F0
:1040D00027959025822791838083CE01F7016191F6
:1040E0007F010E940E200F5F1F4FF401808191819C
:1040F0000817190708F4CFCFF5018081882369F0EC
:104100008E01035B174FCE01F80160810E940E20E3
:10411000F8016181CE010E940E20C05CD74F198248
:104120001882279619821882DF91CF911F910F91E3
:10413000FF90EF90DF90CF90BF90AF909F908F90C7
:1041400008950F931F93CF93DF93EC01062FFC018B
:10415000E05CF74FC95BD74F888199819183808359
:1041600089ED90E16EE70E94983925968881CC54BC
:10417000D8408823F9F0C35BD74F8FEF9FEF80279C
:10418000282F22952827022E269526952025022EB7
:10419000269520252770082E892F26950794279588
:1041A000902D8227069427959025822799838883CE
:1041B000CD54D840CE01602F0E940E20DE01A05CBD
:1041C000B74F2D913C911197FE01E45BF74F2038DA
:1041D000310530F580818823F1F0FE01E35BF74F74
:1041E000808191818227282F22952827022E2695CB
:1041F00026952025022E269520252770082E892F0A
:10420000269507942795902D82270694279590252B
:10421000822791838083CE01C05CD74F688149C0DB
:104220008081882309F437C03068FE01E35BF74FD3
:10423000808191818327282F22952827022E269579
:1042400026952025022E269520252770082E892FB9
:10425000269507942795902D8227069427959025DB
:1042600082272C918227282F22952827022E2695F7
:1042700026952025022E269520252770082E892F89
:10428000269507942795902D8227069427959025AB
:104290008227918380838E01005C174FF801208173
:1042A00031813068CE01632F0E940E20CE01F801CB
:1042B00060810E940E20DF91CF911F910F91089590
:1042C0000F931F93DF93CF930F92CDB7DEB78C017F
:1042D0006983DC01A95BB74F8D919C911197F8011F
:1042E000E80FF91FE259FF4F608301968D939C936D
:1042F000F801E359FF4FC80160810E94A120C80165
:104300000E9424200F90CF91DF911F910F9108956B
:104310006F927F929F92AF92BF92CF92DF92EF9275
:10432000FF920F931F93DF93CF93CDB7DEB76C97B8
:104330000FB6F894DEBF0FBECDBF7C016DB67EB662
:1043400070E0CB01805890408E31910508F0C9C6CD
:104350008E589F4FD701A05CB74FFC01EE0FFF1F97
:104360000590F491E02D19948D919C91892B09F081
:10437000FAC5D701ED91FC910280F381E02DC701D0
:1043800019958C01D701ED91FC910280F381E02D0C
:10439000C7011995DC010D900020E9F7AD014150EE
:1043A0005040481B590B20E030E0B701695B774F64
:1043B00011C0F701E20FF31FDB018D919C91E80F13
:1043C000F91FE259FF4FD801A20FB31F8C918083D0
:1043D0002F5F3F4F2417350760F3E7C08D919C9105
:1043E000892B09F0C0C5D701ED91FC910480F581BE
:1043F000E02DC70119958C01D701ED91FC91048046
:10440000F581E02DC7011995DC010D900020E9F739
:10441000AD0141505040481B590B20E030E0B7013E
:10442000695B774F11C0F701E20FF31FDB018D913C
:104430009C91E80FF91FE259FF4FD801A20FB31F5B
:104440008C9180832F5F3F4F2417350760F3ADC0F9
:104450008D919C91892B09F086C5D701ED91FC9136
:104460000680F781E02DC70119958C01D701ED91E8
:10447000FC910680F781E02DC7011995DC010D90B4
:104480000020E9F7AD0141505040481B590B20E096
:1044900030E0B701695B774F11C0F701E20FF31FFE
:1044A000DB018D919C91E80FF91FE259FF4FD80174
:1044B000A20FB31F8C9180832F5F3F4F24173507C6
:1044C00060F373C08D919C91892B09F04CC5D70185
:1044D000ED91FC910084F185E02DC70119958C01C7
:1044E000D701ED91FC910084F185E02DC70119956C
:1044F000DC010D900020E9F7AD0141505040481B10
:10450000590B20E030E0B701695B774F11C0F7012C
:10451000E20FF31FDB018D919C91E80FF91FE25927
:10452000FF4FD801A20FB31F8C9180832F5F3F4FA5
:104530002417350760F339C08D919C91892B09F0C0
:1045400012C5D701ED91FC910284F385E02DC701DE
:1045500019958C01D701ED91FC910284F385E02D32
:10456000C7011995DC010D900020E9F7AD0141501C
:104570005040481B590B20E030E0B701695B774F92
:1045800011C0F701E20FF31FDB018D919C91E80F41
:10459000F91FE259FF4FD801A20FB31F8C918083FE
:1045A0002F5F3F4F2417350760F3FB018081918116
:1045B000840F951F918380832CE630E0E20EF31E7A
:1045C000D7011C92E4E9FFEFEE0EFF1E8AC58D9124
:1045D0009C91892B09F0C7C4D701ED91FC9104840B
:1045E000F585E02DC70119958C01D701ED91FC915E
:1045F0000484F585E02DC7011995DC010D9000209C
:10460000E9F7AD0141505040481B590B20E030E024
:10461000B701695B774F11C0F701E20FF31FDB01B0
:104620008D919C91E80FF91FE259FF4FD801A20F1D
:10463000B31F8C9180832F5F3F4F2417350760F3A2
:10464000B4CF8D919C91892B09F08DC4D701ED9148
:10465000FC910684F785E02DC70119958C01D701DF
:10466000ED91FC910684F785E02DC7011995DC01D9
:104670000D900020E9F7AD0141505040481B590B07
:1046800020E030E0B701695B774F11C0F701E20F1E
:10469000F31FDB018D919C91E80FF91FE259FF4F49
:1046A000D801A20FB31F8C9180832F5F3F4F241737
:1046B000350760F37ACF8D919C91892B09F053C413
:1046C00020E030E0B701695B774FF701E20FF31F9D
:1046D000DB014D915C91E40FF51FE259FF4FD901C9
:1046E000A856BB4F8C9180832F5F3F4F2A303105F6
:1046F00061F7465F5F4F1FC28D919C9187010459FE
:104700001F4F029709F0D0C3D701AB5BB74F2D9174
:104710003C911197F701E20FF31FE259FF4F80819F
:104720002F5F3F4FF701E20FF31FE259FF4F608108
:104730002F5F3F4F2D933C930E944C35B2C38D9118
:104740009C91870104591F4F029709F0ADC3D7010F
:10475000AB5BB74F2D913C911197F701E20FF31F1F
:10476000E259FF4F80812F5F3F4FF701E20FF31FA8
:10477000E259FF4F60812F5F3F4F2D933C930E9482
:10478000FF358FC38D919C91870104591F4F01976D
:1047900009F08AC3D701AB5BB74F2D913C911197BC
:1047A000F701E20FF31FE259FF4F80812F5F3F4F68
:1047B0002D933C930E9432368983D701A95BB74F72
:1047C0002D913C911197F701E20FF31FE259FF4F32
:1047D00080832F5F3F4F2D933C9363C38D919C91BA
:1047E000870104591F4F029709F05EC3D701AB5BE5
:1047F000B74F2D913C911197F701E20FF31FE2594A
:10480000FF4F80812F5F3F4F11963C932E9322598B
:104810003F4FF701E20FF31F608171812C5630404A
:104820002D933C930E946C343CC32CE630E0E20EA6
:10483000F31E86E0F701808324E93FEFE20EF31ECA
:104840002D913C912230310508F44BC4ADB69EB693
:10485000D701AB5BB74F8D919C911197F701E80F92
:10486000F91FE259FF4FB08001968D939C938DB74D
:104870009EB78B1991090FB6F8949EBF0FBE8DBFDE
:10488000CDB6DEB60894C11CD11C2230310519F416
:1048900091E0B916D9F08B2D90E0039628173907CF
:1048A00009F096C013C08D919C911197F701E80F04
:1048B000F91FE259FF4F2081019611969C938E9328
:1048C000F601E30FF11D20833F5F04C030E0D70104
:1048D000AB5BB74F3B1538F3A0E4B8E0EA0EFB1E24
:1048E000F7018081918120EC37EFE20EF31E0297F1
:1048F00001F1F701EB5BF74F8081918182599F4F66
:10490000D701A80FB91F0D911C918C56904091832F
:10491000808333E0093E130770F08CE690E0E80EE8
:10492000F91E89E0D7018C93E4E9FFEFEE0EFF1E3C
:104930004FC001E010E02CE630E0E20EF31ED7019C
:104940001C921093970D0093960DE2E0F0E0EE0EAE
:10495000FF1EF092930DE092920D22E93FEFE20EDE
:10496000F31E80E00E940E0531E0B31629F4D60153
:104970008C910E94280512C0D0929A0DC092990D78
:10498000B0929C0D10929D0D8BE695E090939F0D3B
:1049900080939E0DF60180810E9451050E945D0763
:1049A0002091960D3091970D8091940D9091950DD9
:1049B00082179307C9F70E940B07F701E95BF74FCE
:1049C000000F111F80819181080F191F118300832F
:1049D0008A2D992D9C010FB6F8943EBF0FBE2DBFB6
:1049E00080C38D919C91870104591F4F039709F053
:1049F00075C3D701AB5BB74F8D919C911197FC01AB
:104A0000E259FF4FEE0DFF1D60817181F701E80F44
:104A1000F91FE059FF4F408103968D939C93D70176
:104A2000ED91FC910288F389E02DC701199553C3DC
:104A30008D919C91870104591F4F029709F04EC335
:104A4000D701AB5BB74F8D919C91119782599F4FC6
:104A5000F701E80FF91F608171818C5690408D93AA
:104A60009C93D701ED91FC910088F189E02DC7015D
:104A700019958983D701A95BB74F2D913C91119767
:104A8000F701E20FF31FE259FF4F80832F5F3F4F83
:104A900020C38D919C91029709F065C2D701AB5B51
:104AA000B74F8D919C911197F701E80FF91FE259CB
:104AB000FF4F60810196F701E80FF91FE259FF4FA0
:104AC000A08001968D939C938E01015F1F4FC801BA
:104AD0000E947A09C8010E94A607DD24B02EC12ECB
:104AE0008E01095F1F4F8B2D9C2DB8010E94E40899
:104AF000D394AD14C0F7882311F120E030E0B70162
:104B0000695B774F8E01095F1F4FF701E20FF31FBB
:104B1000DB014D915C91E40FF51FE259FF4FD80185
:104B2000A20FB31F8C9180832F5F3F4F2830310538
:104B300061F7485F5F4FFB01518340833DCD2CE619
:104B400030E0E20EF31E85E09CC28D919C910B97A4
:104B500009F009C2D701AB5BB74F8D919C911197BA
:104B6000F701E80FF91FE259FF4F60810196119696
:104B70009C938E9347E0C42ED12CCC0EDD1EAD014C
:104B8000C601BC2CA92E8E01015F1F4FFA01808146
:104B90009181F701E80FF91FE259FF4F208101963B
:104BA000FA0191838083F60121936F01E017F107E9
:104BB00069F78D919C911197F701E80FF91FE25960
:104BC000FF4F10810196F701E80FF91FE259FF4FDF
:104BD000008101968D939C93C6010E947A09C601BB
:104BE0000E949908C6016B2D7A2D0E947808C60193
:104BF000612F40E00E94380810E03FE0A32EB12C66
:104C0000AC0EBD1E27E4C22E28E0D22ECE0CDF1C37
:104C100013C0C5010E94E7078983D6012D913C91FD
:104C20001197F701E20FF31FE259FF4F80832F5FC7
:104C30003F4F2D933C931F5F101758F3ECE6F0E0C5
:104C4000EE0EFF1EBDCC8D919C910B9709F08BC190
:104C5000D701AB5BB74F8D919C911197F701E80F8E
:104C6000F91FE259FF4F6081019611969C938E9334
:104C700097E0C92ED12CCC0EDD1EAD01C601BC2C97
:104C8000A92E8E01015F1F4FFA0180819181F701EA
:104C9000E80FF91FE259FF4F20810196FA01918335
:104CA0008083F60121936F01E017F10769F78D9179
:104CB0009C911197F701E80FF91FE259FF4F00810E
:104CC0000196F701E80FF91FE259FF4F1081019695
:104CD0008D939C93C6010E947A09C6010E9499088F
:104CE000C6016B2D7A2D0E947808C601602F412FD6
:104CF0000E94380861CC8D919C91029709F0BCC14B
:104D0000D701AB5BB74F8D919C911197F701E80FDD
:104D1000F91FE259FF4F60810196F701E80FF91F73
:104D2000E259FF4FC08001968D939C938BEF9DE0DD
:104D30004C2D0E94F50ADD248701095B174F14C032
:104D40008BEF9DE00E942E0A8983D8012D913C9122
:104D50001197F701E20FF31FE259FF4F80832F5F96
:104D60003F4F2D933C93D3948BEF9DE00E94250AF7
:104D7000892B31F7870104591F4FDC1409F4ABC1AB
:104D800081E0ADC18D919C91029708F4ECC0870140
:104D90000B5B174FD8018D919C911197F701E80F8C
:104DA000F91FE259FF4F608101968D939C938BEF21
:104DB0009DE00E94110ADD2480E4A82E88E0B82E30
:104DC000AE0CBF1C12C0F80180819181F701E80F81
:104DD000F91FE259FF4F60810196D8018D939C9392
:104DE0008BEF9DE00E949D0AD3942D2D30E0F501BC
:104DF0008081918101972817390728F38BEF9DE077
:104E00000E94E00AD9CB8D919C91870104591F4FD4
:104E1000019709F049C0D701AB5BB74F2D913C9189
:104E20001197F701E20FF31FE259FF4F80812F5FC7
:104E30003F4F2D933C930E94B00933C08D919C91BC
:104E4000870104591F4F019779F5D701AB5BB74F25
:104E50002D913C911197F701E20FF31FE259FF4F9B
:104E600080812F5F3F4F2D933C930E94BE0919C054
:104E70008D919C91870104591F4F0197A9F4D70187
:104E8000AB5BB74F2D913C911197F701E20FF31FE8
:104E9000E259FF4F80812F5F3F4F2D933C930E943B
:104EA000B909D8011C921DC186E0F801808319C19F
:104EB0008D919C91019709F056C0D701AB5BB74F1C
:104EC0008D919C911197F701E80FF91FE259FF4F5F
:104ED000208101968D939C932EBD0DB407FEFDCFCE
:104EE0002EB52983D701A95BB74F8D919C9111975E
:104EF000F701E80FF91FE259FF4F208301968D93C8
:104F00009C935ACB8D919C91892B69F526E630E0D4
:104F1000E20EF31ED7016D917C91EAE9FFEFEE0EF0
:104F2000FF1E870120E030E0A701495B574F10C00A
:104F3000F701E20FF31FDA018D919C91E80FF91F41
:104F4000E259FF4FD80111968C9180832F5F3F4F1C
:104F50000F5F1F4F2617370758F3FA0180819181A1
:104F6000860F971F27CB2CE630E0E20EF31E88C099
:104F70008D919C91870104591F4F892B09F0AEC078
:104F80008091A20D9091A30DA091A40DB091A50DBB
:104F90008B839C83AD83BE83DE011396A701495B9F
:104FA000574FFA0120813181F701E20FF31FE259D7
:104FB000FF4F8B817FC08D919C91870104591F4FBA
:104FC000049709F08BC0D701AB5BB74F2D913C9193
:104FD000119722593F4FF701E20FF31F6081718152
:104FE000828193812A5630402D933C930E946A041B
:104FF00072C08D919C91870104591F4F892B09F034
:105000006DC00E94630489839A83D701A95BB74F5F
:105010002D913C911197F701E20FF31FE259FF4FD9
:1050200081938A8180832E5F3F4F53C08D919C91E5
:10503000029711F5D701AB5BB74F8D919C911197FA
:1050400082599F4FF701E80FF91F0190F081E02D81
:105050008C5690408D939C93CF0102978701045901
:105060001F4F069738F48E2F0E945A0480E00E944A
:105070001A0531C085E033C0ECE6F0E0EE0EFF1E0D
:1050800086E0D7018C939ECA8D919C91870104592B
:105090001F4F892B19F5D701A859BF4FA701495BAD
:1050A000574FFA0120813181F701E20FF31FE259D6
:1050B000FF4F8C91819311968C9111978193129649
:1050C0008C911297819313968C9180832C5F3F4F24
:1050D000DA012D933C93F801108203C086E0D801D9
:1050E0008C93870104591F4FC701F80160810E940A
:1050F0006021D8018C910FB6F8947EBE0FBE6DBEB4
:105100006C960FB6F894DEBF0FBECDBFCF91DF9186
:105110001F910F91FF90EF90DF90CF90BF90AF90D5
:105120009F907F906F9008958BE1EAE7FEE0DF01AA
:10513000982F1D929A95E9F77B96DF011D928A952B
:10514000E9F708952F923F924F925F926F927F926C
:105150008F929F92AF92BF92CF92DF92EF92FF9287
:105160000F931F93DF93CF93CDB7DEB764970FB63E
:10517000F894DEBF0FBECDBF2F83388749875A878B
:10518000EB86FC860D871E87D88ACF86BA8AA98AC5
:105190000E94514120E030E04AE754E40E94C03FC1
:1051A0009B01AC010E94453F5B016C0120E030E0B7
:1051B00040E050E00E944D4188234CF0C601B5010B
:1051C00020E030E040E05FE30E94453F08C0C601B8
:1051D000B50120E030E040E05FE30E94443F0E94E0
:1051E00028400E945B4020E030E040E05FE30E9406
:1051F00051416B837C838D839E836B817C818D8108
:105200009E812F81388549855A850E94C03F2B8514
:105210003C854D855E850E9451410E94A93F0E94B8
:105220002D407A83698384C329813A81B90180E062
:1052300090E00E9459402B813C814D815E810E940B
:10524000C03F2F81388549855A850E9451413B01D5
:105250004C01EF85F88960837183828393832B856A
:105260003C854D855E850E944D4118160CF45BC34C
:10527000C401B3012F81388549855A850E94C03FFA
:105280007B018C0160E070E080E090E4A801970170
:105290000E94C03F5B016C0120E030E040E050E044
:1052A0000E944D4188234CF0C601B50120E030E05A
:1052B00040E05FE30E94453F08C0C601B50120E021
:1052C00030E040E05FE30E94443F0E9428400E949B
:1052D0005B40A80197010E9451419B01AC0160E035
:1052E00070E080E090E40E94443F20E030E040E045
:1052F00050E00E944D411816A4F5C601B50120E00A
:1053000030E040E050E00E944D4188234CF0C6015F
:10531000B50120E030E040E05FE30E94453F08C077
:10532000C601B50120E030E040E05FE30E94443F69
:105330000E9428400E945B40A80197010E945141B1
:105340009B01AC0160E070E080E090E40E94443F8B
:105350002DEC3CEC4CEC5DE30E94BC3F87FDE3C2CE
:1053600034C0C601B50120E030E040E050E00E94CA
:105370004D4188234CF0C601B50120E030E040E00B
:105380005FE30E94453F08C0C601B50120E030E060
:1053900040E05FE30E94443F0E9428400E945B403F
:1053A000A80197010E9451419B01AC0160E070E0AF
:1053B00080E090E40E94443F2DEC3CEC4CEC5DEB33
:1053C0000E944D4118160CF4AEC26F817885898514
:1053D0009A859B01AC010E94453F9B01AC01C40131
:1053E000B3010E94BC3F88230CF079C16F8178859E
:1053F00089859A85A40193010E94C03F1B012C015D
:105400001C8A1B8A2B893C89B90180E090E00E94AC
:1054100059405B016C01C201B101A60195010E94D6
:10542000443F20E030E040E05FE30E94BC3F1816BC
:1054300034F48B899C8901969C8B8B8BE3CFC601BE
:10544000B501A40193010E9451419B01AC016F8100
:10545000788589859A850E94443F5B016C0120E034
:1054600030E040E050E00E944D41181624F0D7FA99
:10547000D094D7F8D094C401B301A60195010E943D
:10548000C03F3B014C0160E070E080E090E4A4018B
:1054900093010E94C03F5B016C0120E030E040E0DE
:1054A00050E00E944D4188234CF0C601B50120E038
:1054B00030E040E05FE30E94453F08C0C601B5010F
:1054C00020E030E040E05FE30E94443F0E9428403B
:1054D0000E945B40A40193010E9451419B01AC01D9
:1054E00060E070E080E090E40E94443F20E030E023
:1054F00040E050E00E944D411816A4F5C601B501E8
:1055000020E030E040E050E00E944D4188234CF024
:10551000C601B50120E030E040E05FE30E94453F76
:1055200008C0C601B50120E030E040E05FE30E9422
:10553000443F0E9428400E945B40A40193010E94C6
:1055400051419B01AC0160E070E080E090E40E947A
:10555000443F2DEC3CEC4CEC5DE30E94BC3F8823C7
:10556000ACF5E1C1C601B50120E030E040E050E01B
:105570000E944D4188234CF0C601B50120E030E087
:1055800040E05FE30E94453F08C0C601B50120E04E
:1055900030E040E05FE30E94443F0E9428400E94C8
:1055A0005B40A40193010E9451419B01AC0160E06A
:1055B00070E080E090E40E94443F2DEC3CEC4CEC29
:1055C0005DEB0E944D4118160CF4ADC1C801B70146
:1055D00020E030E040E050E00E944D4188234CF054
:1055E000C801B70120E030E040E05FE30E94453FA2
:1055F00008C0C801B70120E030E040E05FE30E944E
:10560000443F0E9428400E945B409B01AC01C801BE
:10561000B7010E94443F20E030E040E050E00E94AB
:105620004D41181674F5C801B70120E030E040E0A4
:1056300050E00E944D4188234CF0C801B70120E0A2
:1056400030E040E05FE30E94453F08C0C801B70179
:1056500020E030E040E05FE30E94443F0E942840A9
:105660000E945B409B01AC01C801B7010E94443F0E
:1056700027E137EB41ED58E30E94BC3F88237CF5DE
:1056800052C1C801B70120E030E040E050E00E9484
:105690004D4188234CF0C801B70120E030E040E0E4
:1056A0005FE30E94453F08C0C801B70120E030E039
:1056B00040E05FE30E94443F0E9428400E945B401C
:1056C0009B01AC01C801B7010E94443F27E137EBC1
:1056D00041ED58EB0E944D4118160CF424C1C8014D
:1056E000B70120E030E040E251E40E94BC3F882353
:1056F0000CF089C0C801B70120E030E040E050E084
:105700000E944D4188234CF0C801B70120E030E0F1
:1057100040E05FE30E94453F08C0C801B70120E0B8
:1057200030E040E05FE30E94443F0E9428400E9436
:105730005B409B01AC01C801B7010E94443F20E0DF
:1057400030E040E050E00E944D41181674F5C80169
:10575000B70120E030E040E050E00E944D41882356
:105760004CF0C801B70120E030E040E05FE30E9468
:10577000453F08C0C801B70120E030E040E05FE3EA
:105780000E94443F0E9428400E945B409B01AC0164
:10579000C801B7010E94443F27E137EB41ED58E3D0
:1057A0000E94BC3F88237CF5BEC0C801B70120E041
:1057B00030E040E050E00E944D4188234CF0C801A9
:1057C000B70120E030E040E05FE30E94453F08C0C1
:1057D000C801B70120E030E040E05FE30E94443FB1
:1057E0000E9428400E945B409B01AC01C801B701A8
:1057F0000E94443F27E137EB41ED58EB0E944D41B9
:1058000018160CF490C0C801B7012B813C814D8162
:105810005E810E9451415B016C0120E030E040E07C
:1058200050E00E944D4188234CF0C601B50120E0B4
:1058300030E040E05FE30E94453F08C0C601B5018B
:1058400020E030E040E05FE30E94443F0E942840B7
:105850000E945B409B01AC01C601B5010E94443F20
:1058600020E030E040E050E00E944D41181674F511
:10587000C601B50120E030E040E050E00E944D411B
:1058800088234CF0C601B50120E030E040E05FE342
:105890000E94453F08C0C601B50120E030E040E06D
:1058A0005FE30E94443F0E9428400E945B409B01AE
:1058B000AC01C601B5010E94443F27E137EB41ED41
:1058C00058E30E94BC3F882374F543C0C601B5016C
:1058D00020E030E040E050E00E944D4188234CF051
:1058E000C601B50120E030E040E05FE30E94453FA3
:1058F00008C0C601B50120E030E040E05FE30E944F
:10590000443F0E9428400E945B409B01AC01C601BD
:10591000B5010E94443F27E137EB41ED58EB0E946F
:105920004D411816B4F0E981FA813197FA83E98381
:1059300029813A812230310508F076CC6B817C8157
:105940008D819E8120E030E040E05FE30E94453F92
:1059500050CC29813A81E989FA8931832083649680
:105960000FB6F894DEBF0FBECDBFCF91DF911F9170
:105970000F91FF90EF90DF90CF90BF90AF909F90EE
:105980008F907F906F905F904F903F902F900895F1
:105990000F931F93082F162F8823B9F4613049F015
:1059A000613020F0623009F067C009C088E061E032
:1059B00008C088E060E00E94FF3589E03BC088E0D5
:1059C00060E00E94FF3589E044C0813009F054C096
:1059D0006230C1F0633030F4662351F0613009F079
:1059E0004BC009C06330C9F0643009F045C024C021
:1059F0008AE061E023C08AE060E00E94FF358BE02E
:105A000061E020C08AE060E00E94FF358BE060E04A
:105A10000E94FF358CE061E019C08AE060E00E94DE
:105A2000FF358BE060E00E94FF358CE060E00E9473
:105A3000FF358DE061E00EC08AE060E00E94FF3536
:105A40008BE060E00E94FF358CE060E00E94FF3553
:105A50008DE060E00E94FF35202F30E08BE190E088
:105A6000289FF001299FF00D389FF00D1124E65872
:105A7000F14F118380E001C085E01F910F910895DF
:105A80002F923F924F925F926F927F928F929F924E
:105A9000AF92BF92CF92DF92EF92FF920F931F933C
:105AA000DF93CF93CDB7DEB7C855D1400FB6F8948A
:105AB000DEBF0FBECDBFC55BDE4F59834883CB54DD
:105AC000D140C35BDE4F088319832A833B83CD54C7
:105AD000D140CF5ADE4FA882C155D1408092790E75
