:100000000C9424010C944C010C944C010C944C0164
:100010000C944C010C944C010C944C010C944C012C
:100020000C944C010C944C010C944C010C944C011C
:100030000C944C010C944C010C944C010C944C010C
:100040000C949D120C944C010C94F0140C943E15DD
:100050000C944C010C944C010C944C010C944C01EC
:100060000C9489050C944C01457874656E73696F26
:100070006E206D6F64756C652070726F746F636F46
:100080006C00302E3100576865656C6572204D69D3
:1000900063726F666C756964696373204C6162009A
:1000A000457874656E73696F6E204D6F64756C650D
:1000B0002050726F746F20426F61726400312E3075
:1000C00000302E3100687474703A2F2F6D6963729E
:1000D0006F666C7569646963732E75746F726F6E89
:1000E000746F2E63612F64726F70626F7400693277
:1000F000635F616464726573733D00736572696107
:100100006C5F6E756D6265723D004572726F722034
:10011000007365745F70726F6772616D6D696E6791
:100120005F6D6F646528007365745F7365726961E4
:100130006C5F6E756D62657228007365745F6932FD
:10014000635F616464726573732800636F6E6669D0
:100150006728290072657365745F636F6E666967EF
:1001600028290070726F6772616D6D696E675F6DCF
:100170006F64653D00737570706F7274735F49537F
:10018000503D66616C736500737570706F72747347
:100190005F4953503D747275650073657269616C97
:1001A0005F6E756D6265723D0070726F6772616D32
:1001B0006D696E675F6D6F64653D006932635F6195
:1001C0006464726573733D00626173655F636F6E33
:1001D0006669675F76657273696F6E3D0046697226
:1001E0006D77617265207600000000002400270012
:1001F0002A0000000000250028002B00000000005D
:100200002300260029000404040404040404020258
:100210000202020203030303030301020408102085
:100220004080010204081020010204081020000090
:1002300000070002010000030406000000000000A7
:1002400000001304B304AA1611241FBECFEFD8E098
:10025000DEBFCDBF11E0A0E0B1E0E0E1F5E302C018
:1002600005900D92AE38B107D9F713E0AEE8B1E0D2
:1002700001C01D92AC3FB107E1F712E0C8E4D2E043
:1002800004C02297FE010E94371AC234D107C9F771
:100290000E9426040C94861A0C940000CF93DF93DE
:1002A000BC018230910510F462E070E0A091FA0385
:1002B000B091FB03ED01E0E0F0E040E050E021C050
:1002C000888199818617970769F48A819B81309785
:1002D00019F09383828304C09093FB038093FA0305
:1002E000FE0134C06817790738F44115510519F03B
:1002F0008417950708F4AC01FE018A819B819C015B
:10030000E9012097E9F641155105A9F1CA01861BBB
:10031000970B049708F4BA01E0E0F0E02AC08D9151
:100320009C91119784179507F9F46417750781F468
:1003300012968D919C911397309719F09383828335
:1003400004C09093FB038093FA03FD0132964CC0E6
:10035000CA01861B970BFD01E80FF91F619371938A
:1003600002978D939C9340C0FD01828193819C01F3
:10037000D9011097A1F68091F8039091F903892B88
:1003800041F480915101909152019093F90380932F
:10039000F80340915301509154014115510541F426
:1003A0004DB75EB780914F0190915001481B590B9A
:1003B0002091F8033091F903CA01821B930B861731
:1003C000970780F0AB014E5F5F4F8417950750F0A1
:1003D000420F531F5093F9034093F803F9016193BF
:1003E000719302C0E0E0F0E0CF01DF91CF9108957A
:1003F000CF93DF93009709F450C0EC0122971B8242
:100400001A82A091FA03B091FB03109709F140E022
:1004100050E0AC17BD0708F1BB83AA83FE01219110
:100420003191E20FF31FAE17BF0779F48D919C91C4
:100430001197280F391F2E5F3F4F3983288312965B
:100440008D919C9113979B838A834115510571F47B
:10045000D093FB03C093FA0320C012968D919C9118
:100460001397AD01009711F0DC01D3CFFA01D383CC
:10047000C28321913191E20FF31FCE17DF0769F498
:1004800088819981280F391F2E5F3F4FFA013183F0
:1004900020838A819B8193838283DF91CF9108950A
:1004A000A0E0B0E0E6E5F2E00C94511A6C01009790
:1004B00029F4CB010E944E016C01C1C08EEF882E41
:1004C0008FEF982E8C0C9D1C8601060F171F0815A8
:1004D000190508F4B2C0F401A081B181A617B707CD
:1004E000B8F0A530B10508F4AAC0CD01049786176D
:1004F000970708F4A4C01297A61BB70BF801A193A5
:10050000B193D4016D937C93CF010E94F80197C001
:100510007B01EA1AFB0AEEEFFFEFEE0EFF1E36013B
:100520006A0E7B1EC091FA03D091FB03442455242C
:10053000AA24BB244AC0C615D705E1F548815981D4
:100540004E155F05B8F1CA0104978E159F05B0F4EA
:100550001296A40FB51FF401B183A0832A813B81B9
:100560004114510431F0D20113963C932E9312970B
:1005700066C03093FB032093FA0361C08A819B819C
:10058000F80193838283425050404E195F09518392
:1005900040834114510431F0D20113961C930E9301
:1005A000129704C01093FB030093FA03F4017183C4
:1005B000608345C088819981A816B90608F45C015A
:1005C0002E018A819B819C01E901209709F0B3CF1C
:1005D0008091F8039091F90386159705E9F4A61622
:1005E000B706D0F420915301309154012115310503
:1005F00041F42DB73EB780914F0190915001281BD7
:10060000390B02171307C8F41093F9030093F8038A
:10061000D4016D937C9313C0CB010E944E01EC0179
:10062000009759F0F40140815181B6010E944A03BC
:10063000C6010E94F8016E0102C0CC24DD24C6016F
:10064000CDB7DEB7E0E10C946D1AFC01882799273D
:10065000E89421912032E9F3293010F02E30C8F3CC
:100660002B3241F02D3239F4689404C00E94C0034B
:10067000820F911D219120532A30C0F31EF49095D2
:1006800081959F4F0895FB01DC0105900D9200209C
:10069000E1F70895FB01DC0102C001900D92415089
:1006A0005040D8F70895FC018191861721F08823E6
:1006B000D9F7992708953197CF010895FB01DC01FF
:1006C0008D91019080190110D9F3990B0895FB01C8
:1006D000DC0101900D920020E1F70895FB0151919A
:1006E0005523A9F0BF01DC014D9145174111E1F7F8
:1006F00059F4CD010190002049F04D914015411170
:10070000C9F3FB014111EFCF81E090E0019708951B
:10071000A0E0B0E0EEE8F3E00C94591A7C01EB01A4
:100720008A01690109C0CE012196F6010995F701F8
:1007300081937F010150104001151105A1F7CDB73C
:10074000DEB7E8E00C94751AA0E0B0E0EAEAF3E066
:100750000C94591AEC017B018A01690109C0CE0190
:100760002196F70161917F01F60109950150104032
:1007700001151105A1F7CDB7DEB7E8E00C94751AA5
:100780007AE0979F902D879F802D910D11240895D9
:10079000FA01CF93FF93EF932230CCF02532BCF4D3
:1007A000C22F2C2F332744275527FF93EF930E9406
:1007B000131AEF91FF91605D6A330CF0695D6193EC
:1007C000B901CA01605070408040904051F71082DA
:1007D0008F919F91CF910C940304FB019F014230B4
:1007E00074F0453264F4642F77270E943B1A805DD1
:1007F0008A330CF0895D8193CB010097A1F71082B9
:10080000C9010C940304DC01FC01672F719177236B
:10081000E1F7329704C07C916D9370836291AE17BB
:10082000BF07C8F308958AE691E090938F01809303
:100830008E011092AF0108958EE891E00E94C811D8
:1008400008958EE891E00E9420120895CF93DF93DF
:100850000E944C130E942104CBE2D5E10E941C04AB
:100860002097E1F30E942B15F9CFF999FECF72BDC5
:1008700061BDF89A80B50895F999FECF1FBA72BD8F
:1008800061BD40BD0FB6F894FA9AF99A0FBE08956B
:100890002091D20130E08091D101281B3109C9019A
:1008A00008954091D1018091D201481718F02FEF9F
:1008B0003FEF0AC0E42FF0E0EF54FE4F8081282F75
:1008C00030E04F5F4093D101C9010895E091D1011B
:1008D0008091D201E81718F0EFEFFFEF06C0F0E0CB
:1008E000EF54FE4F8081E82FF0E0CF010895089586
:1008F000AC012091F8013091F90121153105E1F0A9
:100900009091D1018091D2019817B0F090E008C089
:10091000FA01EA0FFB1F8081AF54BE4F8C939F5F9B
:10092000A92FB0E0A617B7079CF31092D1016093EE
:10093000D201CB01F90109950895E091F601F091FA
:10094000F701309729F01092F3011092F401099504
:1009500008957093F9016093F80108957093F70179
:100960006093F60108951092FD011092FC0188EE4B
:1009700093E0A0E0B0E08093FE019093FF01A0938C
:100980000002B09301028AE591E09093FB0180930D
:10099000FA010895CF92DF92EF92FF920F931F9387
:1009A000CF93DF937C016B018A018091F50188234D
:1009B000A1F0C0E0D0E00DC0D701ED91FC91D601CF
:1009C000AC0FBD1F0190F081E02DC7016C9109951E
:1009D0002196C017D10780F304C0CB01642F0E9479
:1009E0006405C801DF91CF911F910F91FF90EF90A7
:1009F000DF90CF900895DF93CF930F92CDB7DEB7FE
:100A0000FC0169838091F5018823C9F08091F4018C
:100A1000803238F081E090E09383828320E030E000
:100A200015C08091F301E82FF0E0ED52FE4F99815F
:100A300090838F5F8093F3018093F40105C0CE0112
:100A4000019661E00E94640521E030E0C9010F9049
:100A5000CF91DF9108951092D1011092D20110929E
:100A6000F3011092F4010E944A0508950F931F9319
:100A70008C01862F0E9460058DE994E00E94840518
:100A800088E794E00E947F05C8010E942B051F9112
:100A90000F9108951092060281E08093080210924F
:100AA0000902E9EBF0E080818E7F808380818D7F79
:100AB000808388E48093B80085E48093BC00089527
:100AC000880F8093BA000895482F613210F081E0BA
:100AD000089580910602843011F082E008956093B9
:100AE0005102A0E3B2E0842F9C01F90102C0819180
:100AF0008D938E2F841B8617D0F380E008959093FA
:100B00000D0280930C02089590930B0280930A02C9
:100B100008951F920F920FB60F9211242F933F93B7
:100B20004F935F936F937F938F939F93AF93BF93F5
:100B3000EF93FF938091B90090E0887F90708036AA
:100B4000910509F4F2C081369105CCF58832910502
:100B500009F47BC089329105B4F48031910509F420
:100B60006FC0813191053CF4009709F447C10897A3
:100B700009F04FC165C08831910509F466C08097BE
:100B800009F047C182C08034910509F4A4C08134C2
:100B9000910544F48033910509F482C0C89709F0A7
:100BA00038C189C08035910509F489C0883591051F
:100BB00009F496C08834910509F02BC1AEC088397C
:100BC000910509F413C189399105ECF48837910531
:100BD00009F4ABC0893791054CF48836910509F4C6
:100BE000A4C08037910509F014C19FC088389105D1
:100BF00009F4FCC08039910509F49DC08038910545
:100C000009F007C198C0803B910509F4C6C0813B3B
:100C100091054CF4803A910509F49FC0883A9105FA
:100C200009F0F7C0BAC0803C910509F4E3C0883CE4
:100C3000910509F4DFC0883B910509F0EAC0C2C004
:100C4000809107028093BB00CFC090912E028091CB
:100C50002F02981768F490912E02E92FF0E0E25FDE
:100C6000FD4F80818093BB009F5F90932E02BCC09C
:100C700080910802882309F44BC085ED8093BC0065
:100C80008091BC0084FDFCCFC2C080E280937302DF
:100C900085ED8093BC008091BC0084FDFCCFB7C083
:100CA00080E38093730285ED8093BC008091BC004B
:100CB00084FDFCCFACC088E3809373029BC080911D
:100CC0002E029091BB00E82FF0E0E25FFD4F908391
:100CD0008F5F80932E0290912E0280912F0282C00E
:100CE00080912E029091BB00E82FF0E0E25FFD4F73
:100CF00090838F5F80932E0280910802882341F0B9
:100D000085ED8093BC008091BC0084FDFCCF7FC04A
:100D100081E08093090284EA6EC085ED8093BC0077
:100D20008091BC0084FDFCCF72C083E080930602FA
:100D30001092720259C080917202803208F056C03F
:100D4000809172029091BB00E82FF0E0EE5AFD4FC7
:100D500090838F5F8093720247C0809172028032CD
:100D600030F4E0917202F0E0EE5AFD4F108285ED12
:100D70008093BC008091BC0084FDFCCF10920602E1
:100D800060917202E0910C02F0910D0282E592E016
:100D900070E00995109272022DC084E080930602E3
:100DA0001092500210925102E0910A02F0910B024F
:100DB000099580915102882329F481E080935102A2
:100DC0001092300290915002E92FF0E0E05DFD4F6B
:100DD00080818093BB009F5F90935002909150025E
:100DE00080915102981710F485EC01C085E880933A
:100DF000BC000FC085EC8093BC0009C01092730248
:100E000085ED8093BC008091BC0084FDFCCF1092E6
:100E10000602FF91EF91BF91AF919F918F917F91CA
:100E20006F915F914F913F912F910F900FBE0F9057
:100E30001F9018959C01F999FECF32BD21BDF89AFB
:100E400080B508959C01F999FECF1FBA32BD21BD2E
:100E500060BD0FB6F894FA9AF99A0FBE089580E033
:100E60000895CF92DF92EF92FF920F931F93DF933B
:100E7000CF93CDB7DEB72E970FB6F894DEBF0FBE77
:100E8000CDBF6C01DC0118966C938AEF91E00E9453
:100E9000360501EE12E0C8016EEE70E00E944303D9
:100EA00088E0E82EF12CEC0EFD1EC701B8010E946F
:100EB00012198E010F5F1F4FC801F60160854AE0CD
:100EC0000E94A819C701B8010E94C118BC0186ED93
:100ED00093E00E94AC17C8010E94071AC7010E9444
:100EE0000D1AD601ED91FC910288F389E02DC6011F
:100EF00009952E960FB6F894DEBF0FBECDBFCF91E9
:100F0000DF911F910F91FF90EF90DF90CF900895A8
:100F1000DF92EF92FF920F931F93DF93CF93CDB7A2
:100F2000DEB72E970FB6F894DEBF0FBECDBFD62E1C
:100F300001EE12E0C8016AE071E00E94430398E00C
:100F4000E92EF12CEC0EFD1EC701B8010E9412190A
:100F50008E010F5F1F4FC8016D2D4AE00E94A81936
:100F6000C701B8010E94C118BC0186ED93E00E9440
:100F7000AC17C8010E94071AC7010E940D1A2E96CD
:100F80000FB6F894DEBF0FBECDBFCF91DF911F919A
:100F90000F91FF90EF90DF900895CF92DF92EF9244
:100FA000FF920F931F93DF93CF93CDB7DEB72E97AA
:100FB0000FB6F894DEBF0FBECDBF6C01DC011996F1
:100FC0006C9301EE12E0C80163E671E00E944303F6
:100FD00028E0E22EF12CEC0EFD1EC701B8010E94A4
:100FE00012198E010F5F1F4FC801F60161854AE09B
:100FF0000E94A819C701B8010E94C118BC0186ED62
:1010000093E00E94AC17C8010E94071AC7010E9412
:101010000D1AD601ED91FC910288F389E02DC601ED
:1010200009952E960FB6F894DEBF0FBECDBFCF91B7
:10103000DF911F910F91FF90EF90DF90CF90089577
:10104000CF92DF92EF92FF920F931F93DF93CF9394
:10105000CDB7DEB72E970FB6F894DEBF0FBECDBF6B
:101060006C01DC011A964D935D936D937C931D97F3
:1010700001EE12E0C8016BEF70E00E94430338E01C
:10108000E32EF12CEC0EFD1EC701B8010E941219CF
:10109000F60142855385648575858E010F5F1F4F6C
:1010A000C8012AE00E944519C701B8010E94C11871
:1010B000BC0186ED93E00E94AC17C8010E94071A9C
:1010C000C7010E940D1AD601ED91FC910288F389A7
:1010D000E02DC60109952E960FB6F894DEBF0FBE1F
:1010E000CDBFCF91DF911F910F91FF90EF90DF90D7
:1010F000CF900895BC016E5F7F4F80E090E04EE19D
:1011000050E022E237E00E94A4030895FC018185AB
:10111000882369F483E161E00E94091483E160E0BF
:101120000E94481483E160E00E940914089587E05A
:1011300060E00E94481487E061E00E94481408952E
:101140006F927F928F929F92BF92CF92DF92EF9297
:10115000FF920F931F93CF93DF93EC01062F02961C
:1011600060E070E04EE150E02AE137E00E94880341
:101170008A819B81892BD9F48C819D81892BB9F43B
:101180008E819F81892B99F48FEF9FEFAFEFBFEF97
:101190008A879B87AC87BD8781E090E09F838E83A1
:1011A000E881F9810288F389E02DCE0109958A81D1
:1011B0009B81892B09F58C819D81892BE9F48E8196
:1011C0009F810197C9F4CE010E9629E0DC01822FA0
:1011D0001D928A95E9F7CE014796DC011D922A956A
:1011E000E9F782E090E09F838E83E881F9810288AD
:1011F000F389E02DCE0109958A819B81892B51F4D9
:101200008C819D81892B31F48E819F81029711F40D
:10121000002341F11B821A821D821C8282E090E031
:101220009F838E838AE0888719868FEF9FEFAFEFC9
:10123000BFEF8A879B87AC87BD87CE010E9629E0DA
:10124000DC01822F1D928A95E9F7CE014796DC01D9
:101250001D922A95E9F7E881F9810288F389E02D4A
:10126000CE010995BB242AC0B4E1EB16F104DCF4ED
:10127000F301008110E00C2C02C0159507950A942B
:10128000E2F70170D4016C9170E00C2C02C07595EE
:1012900067950A94E2F761708E2D0E9409148E2DD5
:1012A000602F0E9448140894C11CD11C0894E11CB2
:1012B000F11CB8E0CB16D104B9F6B3948B2D90E0B5
:1012C000E3E0BE16A9F07C0163E0EE0CFF1C6A951A
:1012D000E1F7CC24DD248C0F9D1F57E1652E712C86
:1012E000680E791E4EE0842E912C880E991EBCCF7C
:1012F000E881F9810484F585E02DCE0109958823E4
:1013000019F0CE010E9486088AEF91E068850E945C
:101310003605DF91CF911F910F91FF90EF90DF90F5
:10132000CF90BF909F908F907F906F9008950F9374
:101330001F93DF93CF93CDB7DEB72C970FB6F894FA
:10134000DEBF0FBECDBF8E010F5F1F4FC80160E033
:1013500070E046E050E02AE137E00E948803DE01B9
:101360001796F80186E001900D928150E1F72F81E8
:10137000388549855A856B857C8590E02C960FB61B
:10138000F894DEBF0FBECDBFCF91DF911F910F91BB
:1013900008952F923F924F925F926F927F928F9219
:1013A0009F92AF92BF92CF92DF92EF92FF920F93F4
:1013B0001F93DF93CF93CDB7DEB7A2970FB6F89404
:1013C000DEBF0FBECDBF382E292E0D8F1E8F2F8F63
:1013D00038A349A35AA36F8C78A049A05AA06D8D59
:1013E0007E8D4E010894811C911CC4014AE00E942C
:1013F0007719F8E0AF2EB12CAC0EBD1EC501B401BB
:101400000E94FC19E0E0EE2EE1E0FE2EC501B701DE
:101410000E94A5188C017FE0C72ED12CCC0EDD1EBA
:10142000C601B3014AE00E947719C801B6010E94C3
:10143000C118B7010E94A5187C018E010A5E1F4FDA
:10144000C801B2014AE00E947719C701B8010E94A1
:10145000C118BC01832D922D0E94F119C8010E9470
:10146000071AC6010E94071AC5010E940D1AC4017D
:101470000E94071A832D922DA2960FB6F894DEBF14
:101480000FBECDBFCF91DF911F910F91FF90EF90D5
:10149000DF90CF90BF90AF909F908F907F906F9094
:1014A0005F904F903F902F900895CF92DF92EF92F0
:1014B000FF920F931F93CF93DF936C01EB017A019F
:1014C0000091760210917702C80183589D4F99834D
:1014D00088836CE270E00E945303FC01D7018D9376
:1014E0009C93009771F488819981FC010190002000
:1014F000E9F73197E81B8E0F911DD7018D939C93CF
:1015000003C0EF5F8881E81BEE2341F00E0F111D31
:10151000109377020093760281E005C0C60168E06F
:101520000E94880780E0DF91CF911F910F91FF907B
:10153000EF90DF90CF900895AF92BF92CF92DF925D
:10154000EF92FF920F931F93DF93CF9300D000D0C1
:10155000CDB7DEB76B01ADB6BEB6BE016F5F7F4FD4
:10156000AE014D5F5F4F0E94550A8823D1F1FDB651
:10157000EEB62B813C8149815A81241B350BC90170
:1015800001966DB77EB7681B790B0FB6F8947EBFD6
:101590000FBE6DBF0DB71EB70F5F1F4FC801BA0159
:1015A000A9010E944A03EB81FC8189819A81E81B91
:1015B000F90BE00FF11F1082C8010E942503AA2732
:1015C00097FDA095BA2FF60180839183A283B38300
:1015D0002F2D3E2DC9010FB6F8949EBF0FBE8DBFB3
:1015E00081E00FB6F894BEBE0FBEADBE0F900F9057
:1015F0000F900F90CF91DF911F910F91FF90EF907F
:10160000DF90CF90BF90AF9008954F925F927F92FE
:101610008F929F92AF92BF92CF92DF92EF92FF9202
:101620000F931F93DF93CF93CDB7DEB7CB56D04048
:101630000FB6F894DEBF0FBECDBF2C0180917502AE
:10164000803909F4AAC18139C8F4833809F4C0C0CB
:10165000843850F4813809F45DC0823808F089C0BC
:10166000803809F0D7C327C0853809F4E0C0853831
:1016700008F40CC1863809F0CDC337C1843909F4A8
:10168000AEC2853958F4823909F4D8C120917A0262
:1016900030917B02833908F0F3C1ABC1863909F47C
:1016A00051C3863908F442C2873909F4F2C28C3931
:1016B00009F0B0C34BC180917A0290917B02892BD3
:1016C00009F0B7C10DE712E0C80168E670E00E94BA
:1016D0004303C80168E670E00E944303F8010190EB
:1016E0000020E9F73197E01BF10B2091780230914F
:1016F0007902A901400F511FBF01600F711F06C081
:10170000D8018D918D01DA018D93AD010617170770
:10171000B9F719C180917A0290917B02892B09F067
:1017200088C10DE712E0C80162E870E00E9443033F
:10173000C80162E870E00E944303F80101900020B4
:10174000E9F73197E01BF10B209178023091790293
:10175000A901400F511FBF01600F711F06C0D801C2
:101760008D918D01DA018D93AD0106171707B9F739
:10177000EAC080917A0290917B02892B09F059C1CD
:101780000DE712E0C80160EA70E00E944303C8015F
:1017900060EA70E00E944303F80101900020E9F73D
:1017A0003197E01BF10B2091780230917902A90169
:1017B000400F511FBF01600F711F06C0D8018D91EE
:1017C0008D01DA018D93AD0106171707B9F7BBC07C
:1017D00080917A0290917B02892B09F02AC10DE752
:1017E00012E0C80166E870E00E944303C80166E8A1
:1017F00070E00E944303F80101900020E9F731975F
:10180000E01BF10B2091780230917902A901400F81
:10181000511FBF01600F711F06C0D8018D918D014E
:10182000DA018D93AD0106171707B9F78CC08091C7
:101830007A0290917B02892B09F0FBC00DE712E040
:10184000C80161EC70E00E944303C80161EC70E0E4
:101850000E944303F80101900020E9F73197E01B53
:10186000F10B2091780230917902A901400F511FAC
:10187000BF01600F711F06C0D8018D918D01DA0183
:101880008D93AD0106171707B9F75DC080917A02F5
:1018900090917B02892B09F0CCC00DE712E0C801C2
:1018A0006DEB70E00E944303C8016DEB70E00E9495
:1018B0004303F80101900020E9F73197E01BF10B99
:1018C0002091780230917902A901400F511FBF0188
:1018D000600F711F06C0D8018D918D01DA018D93C3
:1018E000AD0106171707B9F72EC080917A029091C3
:1018F0007B02892B09F09DC00DE712E0C80165EC61
:1019000070E00E944303C80165EC70E00E9443034D
:10191000F80101900020E9F73197E01BF10B2091CD
:10192000780230917902A901400F511FBF01600F69
:10193000711F06C0D8018D918D01DA018D93AD0123
:1019400006171707B9F72E0F3F1F4EC0D201ED91B2
:10195000FC910484F585E02DC20109958823D9F016
:1019600080917A0290917B02019709F062C0809188
:10197000760290917702FC01E358FD4F2081019699
:10198000909377028093760260E0211161E0C201BA
:101990000E94CD074BC081E03BC280917A029091BA
:1019A0007B02029709F045C0809176029091770200
:1019B000FC01E358FD4F608171810296909377029C
:1019C00080937602D201ED91FC910480F581E02DA7
:1019D000C20109952091780230917902F901E3580A
:1019E000FD4F80832F5F3F4F309379022093780221
:1019F0001DC023303105E9F4809176029091770281
:101A0000FC01E358FD4F60817181FC01E158FD4FFD
:101A1000408103969093770280937602D201ED91F4
:101A2000FC910680F781E02DC2010995F20110A218
:101A3000F1C186E0D20190968C93ECC180917A023C
:101A400090917B02019709F0E2C1F20110A280910E
:101A5000760290917702FC01E358FD4F20810196B8
:101A60009093770280937602D201ED91FC9160E031
:101A7000211161E00088F189E02DC2010995CAC1F8
:101A80002230310509F0C3C180917602909177022E
:101A9000FC01E358FD4F80800196FC01E358FD4FA7
:101AA0009080019690937702809376025AE0A52E5B
:101AB000B12CAC0EBD1EC50162E071E00E9412198E
:101AC00043E0C42ED12CCC0EDD1EC601682D4AE0A9
:101AD0000E94A819C501B6010E94C1186BE071E00F
:101AE0000E94A5187C018E010F5E1F4FC801692D51
:101AF0004AE00E94A819C701B8010E94C1186EE00F
:101B000071E00E94A518BC0186ED93E00E94AC171D
:101B1000C8010E94071AC6010E94071AC5010E9447
:101B20000D1A882D692D0E9409146DC180917A02C9
:101B300090917B02029709F06AC1809176029091A0
:101B40007702FC01E358FD4F80800196FC01E358C9
:101B5000FD4F9080019690937702809376023FE14B
:101B6000A32EB12CAC0EBD1EC50160E171E00E9438
:101B7000121928E1C22ED12CCC0EDD1EC601682D13
:101B80004AE00E94A819C501B6010E94C1186BE085
:101B900071E00E94A5187C018E010A5D1F4FC801EB
:101BA000692D4AE00E94A819C701B8010E94C11816
:101BB0006EE071E00E94A518BC0186ED93E00E94E2
:101BC000AC17C8010E94071AC6010E94071AC50176
:101BD0000E940D1A882D692D0E94481414C180910D
:101BE0007A0290917B02019709F011C180917602EF
:101BF00090917702FC01E358FD4F1081019690937C
:101C0000770280937602812F0E949C14898394E34B
:101C1000A92EB12CAC0EBD1EC5016EE171E00E9473
:101C200012198DE2C82ED12CCC0EDD1EC601612FFB
:101C30004AE00E94A819C501B6010E94C1186BE2D2
:101C400071E00E94A5187C018E01055C1F4FC80140
:101C500069814AE00E94A819C701B8010E94C11811
:101C6000BC0186ED93E00E94AC17C8010E94071AE0
:101C7000C6010E94071AC5010E940D1A80917802C0
:101C800090917902FC01E358FD4F29812083019650
:101C9000B6C080917A0290917B02029709F0B7C09A
:101CA0008091760290917702FC01E358FD4F70809D
:101CB000FC01E258FD4F808091800396909377025B
:101CC0008093760209E4A02EB12CAC0EBD1EC50196
:101CD00060E371E00E94121912E4C12ED12CCC0EE7
:101CE000DD1EC601672D4AE00E94A819C501B60194
:101CF0000E94C1186BE071E00E94A5187C018E0162
:101D0000005B1F4FC801B4014AE00E947719C70168
:101D1000B8010E94C1186EE071E00E94A518BC01D4
:101D200086ED93E00E94AC17C8010E94071AC60115
:101D30000E94071AC5010E940D1A872DB4010E9446
:101D4000A91361C080917A0290917B02019709F0FA
:101D50005EC08091760290917702FC01E358FD4FBE
:101D6000108101969093770280937602812F0E94D2
:101D700087139A838983BEE5AB2EB12CAC0EBD1EB2
:101D8000C5016DE371E00E941219A7E5EA2EF12C5E
:101D9000EC0EFD1EC701612F4AE00E94A819C50183
:101DA000B7010E94C1186BE271E00E94A5186C0196
:101DB0008E010B591F4F69817A81C8014AE00E9448
:101DC0007719C601B8010E94C118BC0186ED93E0E5
:101DD0000E94AC17C8010E94071AC7010E94071A87
:101DE000C5010E940D1A8091780290917902FC0140
:101DF000E358FD4F298120832A8121830296909305
:101E0000790280937802D20190961C9203C086E0FA
:101E1000F20180A3C559DF4F0FB6F894DEBF0FBEA5
:101E2000CDBFCF91DF911F910F91FF90EF90DF9089
:101E3000CF90BF90AF909F908F907F905F904F908A
:101E4000089580EB91E00E943C04089580EB91E0BE
:101E50000E94350408950F931F93162F072F8DE7C7
:101E600092E069E471E00E946E03009759F08DE7FB
:101E700092E0612F702F0E945E039C0180E0232B73
:101E8000A1F530C08DE792E0612F702F0E946E03A4
:101E9000FC01009749F182E0ED37F80729F5DF01F1
:101EA0000D900020E9F71197AE1BBF0B3197EA0F99
:101EB000FB1F80818932C1F4A458BD4F1C92A12F11
:101EC000B02FFD0101900020E9F73197EA1BFB0BD1
:101ED00080917602909177028E0F9F1F90937702E8
:101EE0008093760281E001C080E01F910F910895F8
:101EF0000F931F93DF93CF9300D000D0CDB7DEB701
:101F00008C0181EE92E064E571E00E944303C80118
:101F100061EE72E00E942B0F882351F0D801ED9101
:101F2000FC910088F189E02DC80161E009950DC0A0
:101F300081EE92E06BE471E00E944303C80161EE20
:101F400072E00E942B0F882349F0D801ED91FC919B
:101F50000684F785E02DC801099568C081EE92E0FE
:101F60006AE371E00E944303C80161EE72E00E94DF
:101F70002B0F882371F0C801BE016F5F7F4F0E9455
:101F80009C0A882309F452C0C80169810E94310764
:101F90004DC081EE92E067E271E00E944303C80108
:101FA00061EE72E00E942B0F882381F0C801BE0110
:101FB0006F5F7F4F0E949C0A8823C1F149815A813B
:101FC0006B817C81C8010E94200830C0D801ED914E
:101FD000FC910484F585E02DC8010995882321F141
:101FE00081EE92E061E171E00E944303C80161EE7D
:101FF00072E00E942B0F8823B9F0C801BE016F5F09
:102000007F4F0E949C0A882389F060E089819A8131
:10201000AB81BC81181619061A061B060CF461E088
:10202000C8010E94CD0702C080E001C081E00F908E
:102030000F900F900F90CF91DF911F910F91089506
:102040008F929F92AF92BF92CF92DF92EF92FF92C8
:102050000F931F93DF93CF93CDB7DEB7C756D04012
:102060000FB6F894DEBF0FBECDBF4C018DE792E0F6
:1020700060EA70E00E94430317E0C12ED12CCC0E21
:10208000DD1EC6016DE772E00E94F818BEE0EB2E7F
:10209000F12CEC0EFD1EC701B6010E94FC19C70110
:1020A0006CE471E00E94A5185C018DE792E06DEB95
:1020B00070E00E9443038E010B5E1F4FC8016DE765
:1020C00072E00E94F818C501B8010E94C118BC0155
:1020D00086ED93E00E94AC17C8010E94071AC70161
:1020E0000E940D1AC6010E94071A81EE92E06DED62
:1020F00071E00E944303A3E2EA2EF12CEC0EFD1ED8
:10210000C70161EE72E00E9412198DE792E061EC66
:1021100070E00E9443038E01045E1F4FC8016DE70B
:1021200072E00E94F818C701B8010E94C118BC01F2
:1021300086ED93E00E94AC17C8010E94071AC70100
:102140000E940D1A8DE792E065EC70E00E94430357
:1021500086ED93E06DE772E00E94661781EE92E0F3
:1021600068EC71E00E944303CE01C19661EE72E01B
:102170000E941219C4010E949709DE01AE59BF4F97
:102180002C93FE01ED59FF4F3083FE01EC59FF4FB8
:102190004083FE01EB59FF4F5083FE01EA59FF4F88
:1021A0006083FE01E959FF4F70839E012F5F3F4F0F
:1021B000FD0186E00190D9010D929D018150D1F77A
:1021C000FAE2EF2EF12CEC0EFD1EC701B4010981DD
:1021D0001A812B813C814D815E810E94C9098E014B
:1021E0000F5C1F4FC801B7010E94C118BC0186EDEA
:1021F00093E00E94AC17C7010E94071AC8010E9411
:102200000D1A81EE92E06BEB71E00E944303EFE365
:10221000EE2EF12CEC0EFD1EC70161EE72E00E9465
:1022200012198E01085C1F4FC801F40160854AE055
:102230000E94A819C701B8010E94C118BC0186ED0F
:1022400093E00E94AC17C8010E94071AC7010E94C0
:102250000D1A81EE92E069EA71E00E9443037DE489
:10226000E72EF12CEC0EFD1EC70161EE72E00E941C
:1022700012198E010A5B1F4FC801D40119966C9187
:102280004AE00E94A819C701B8010E94C118BC0108
:1022900086ED93E00E94AC17C8010E94071AC7019F
:1022A0000E940D1A81EE92E06AE971E00E944303F8
:1022B0006BE5E62EF12CEC0EFD1EC70161EE72E01F
:1022C0000E9412198E010C5A1F4FF401428553854A
:1022D00064857585C8012AE00E944519C701B801C7
:1022E0000E94C118BC0186ED93E00E94AC17C801A2
:1022F0000E94071AC7010E940D1AD401ED91FC91AA
:102300000484F585E02DC4010995882329F081EE28
:1023100092E068E871E004C081EE92E065E771E068
:102320000E94430386ED93E061EE72E00E9466171F
:10233000C959DF4F0FB6F894DEBF0FBECDBFCF91A6
:10234000DF911F910F91FF90EF90DF90CF90BF90A2
:10235000AF909F908F90089586ED93E00E940016B5
:10236000892B11F480E0089586ED93E06AE04DE753
:1023700052E024E630E00E94EC17E82FF0E0E3584A
:10238000FD4F1082109277021092760281E008953C
:10239000CF93DF93EC010E94AC11882369F0E881B0
:1023A000F9810284F385E02DCE010995882321F47B
:1023B000CE0162E00E94880780917C028823E9F1C7
:1023C000109279021092780210927702109276029F
:1023D00081E08093740288A3E881F9810084F1850B
:1023E000E02DCE01099580917402882371F08091CF
:1023F000780290917902FC01E358FD4F28A12083D7
:102400000196909379028093780210927C02E88181
:10241000F9810484F585E02DCE010995882369F0C2
:10242000809175028C3949F468EE73E080E090E0A9
:102430000E94F312CE010E948608DF91CF91089589
:10244000CF93DF93EC01E881F9810484F585E02DD9
:102450000995882341F087E061E00E94481487E0F5
:1024600061E00E94091486ED93E040E052EC61E0E7
:1024700070E00E947915E881F9810088F189E02DEA
:10248000CE0160E00995E881F9810684F785E02DA9
:10249000CE0109958AEF91E069E572E10E94AE04F0
:1024A0008AEF91E063E772E10E94A904DF91CF9186
:1024B000089580917402882359F08AEF91E068E7CB
:1024C00072E042E050E00E94CA0410927402089543
:1024D00040917802509179028AEF91E06DE772E0C5
:1024E0000E94CA0408950F931F93CF93DF938C012A
:1024F0008AEF91E00E94510480937502C801019710
:1025000090937B0280937A028536910570F4CDE733
:10251000D2E08C010C0F1D1F05C08AEF91E00E94D4
:1025200051048993C017D107C1F781E080937C02E1
:10253000DF91CF911F910F9108951F920F920FB6C7
:102540000F9211242F933F938F939F93AF93BF9339
:102550008091490390914A03A0914B03B0914C03A1
:1025600030914D030196A11DB11D232F2D5F2D37F5
:1025700020F02D570196A11DB11D20934D0380938E
:10258000490390934A03A0934B03B0934C0380916B
:10259000450390914603A0914703B09148030196EB
:1025A000A11DB11D8093450390934603A09347035B
:1025B000B0934803BF91AF919F918F913F912F911D
:1025C0000F900FBE0F901F9018958FB7F894209121
:1025D000490330914A0340914B0350914C038FBF04
:1025E000B901CA0108959B01AC017FB7F8948091AD
:1025F000450390914603A0914703B091480366B507
:10260000A89B05C06F3F19F00196A11DB11D7FBFAA
:10261000BA2FA92F982F8827860F911DA11DB11DB4
:1026200062E0880F991FAA1FBB1F6A95D1F7BC01F2
:102630002DC0FFB7F8948091450390914603A09177
:102640004703B0914803E6B5A89B05C0EF3F19F0DA
:102650000196A11DB11DFFBFBA2FA92F982F882762
:102660008E0F911DA11DB11DE2E0880F991FAA1FB9
:10267000BB1FEA95D1F7861B970B885E9340C8F283
:10268000215030404040504068517C4F2115310569
:102690004105510571F60895789484B5826084BD32
:1026A00084B5816084BD85B5826085BD85B5816056
:1026B00085BDEEE6F0E0808181608083E1E8F0E0B6
:1026C0001082808182608083808181608083E0E8E5
:1026D000F0E0808181608083E1EBF0E080818460C4
:1026E0008083E0EBF0E0808181608083EAE7F0E0C6
:1026F000808184608083808182608083808181602A
:1027000080838081806880831092C1000895982F13
:102710008E3008F09E509770809155018295880FF9
:10272000880F807C892B80937C0080917A00806464
:1027300080937A0080917A0086FDFCCF209178000A
:1027400040917900942F80E030E0282B392BC9018B
:1027500008951F93CF93DF93182FEB0161E00E9440
:102760000914209709F44AC0CF3FD10509F449C0A4
:10277000E12FF0E0E25DFD4F84918330C1F08430C1
:1027800028F4813051F08230B1F50CC0863019F157
:10279000873049F1843079F514C084B5806884BDF0
:1027A000C7BD33C084B5806284BDC8BD2EC08091D2
:1027B0008000806880938000D0938900C093880057
:1027C00024C080918000806280938000D0938B0031
:1027D000C0938A001AC08091B00080688093B000D6
:1027E000C093B30012C08091B00080628093B000AB
:1027F000C093B4000AC0C038D1051CF4812F60E03A
:1028000002C0812F61E00E944814DF91CF911F9197
:102810000895CF93DF93482F50E0CA01865E9D4F05
:10282000FC0134914A5F5D4FFA018491882369F17C
:1028300090E0880F991FFC01E851FE4FA591B491DB
:10284000FC01EE50FE4FC591D491662351F42FB791
:10285000F8948C91932F909589238C938881892368
:102860000BC0623061F42FB7F8948C91932F909540
:1028700089238C938881832B88832FBF06C09FB7C1
:10288000F8948C91832B8C939FBFDF91CF91089507
:10289000482F50E0CA01825D9D4FFC012491CA017E
:1028A000865E9D4FFC0194914A5F5D4FFA01349121
:1028B000332309F440C0222351F1233071F0243036
:1028C00028F42130A1F0223011F514C02630B1F0E7
:1028D0002730C1F02430D9F404C0809180008F7774
:1028E00003C0809180008F7D8093800010C084B5EC
:1028F0008F7702C084B58F7D84BD09C08091B00000
:102900008F7703C08091B0008F7D8093B000E32F5C
:10291000F0E0EE0FFF1FEE50FE4FA591B4912FB7E0
:10292000F894662321F48C919095892302C08C91B0
:10293000892B8C932FBF0895682F70E0CB01825DA7
:102940009D4FFC012491CB01865E9D4FFC0144917B
:102950006A5F7D4FFB019491992319F420E030E0E8
:102960003CC0222351F1233071F0243028F421306F
:10297000A1F0223011F514C02630B1F02730C1F09B
:102980002430D9F404C0809180008F7703C08091F7
:1029900080008F7D8093800010C084B58F7702C047
:1029A00084B58F7D84BD09C08091B0008F7703C04E
:1029B0008091B0008F7D8093B000892F90E0880FC8
:1029C000991F84509E4FFC01A591B4918C9120E0F9
:1029D00030E0842311F021E030E0C901089508952A
:1029E0001F920F920FB60F9211242F933F934F9384
:1029F0008F939F93EF93FF938091C00082FD1DC042
:102A00004091C60020918E0330918F032F5F3F4F7E
:102A10002F7330708091900390919103281739079C
:102A200071F0E0918E03F0918F03E25BFC4F4083E5
:102A300030938F0320938E0302C08091C600FF91D4
:102A4000EF919F918F914F913F912F910F900FBEDA
:102A50000F901F901895E091E203F091E303E05C82
:102A6000FF4F8191919120813181821B930B8F7354
:102A70009070892B11F00E94EF1408951F920F920D
:102A80000FB60F9211242F933F938F939F93EF9341
:102A9000FF932091D2033091D3038091D40390917E
:102AA000D5032817390731F48091C1008F7D8093B9
:102AB000C10014C0E091D403F091D503EE56FC4F51
:102AC00020818091D4039091D50301968F739070EB
:102AD0009093D5038093D4032093C600FF91EF9188
:102AE0009F918F913F912F910F900FBE0F901F904C
:102AF0001895AF92BF92DF92EF92FF920F931F93C0
:102B0000CF93DF93EC017A018B01DD24403081EE1D
:102B1000580780E0680780E0780711F0DD24D3943F
:102B200091E0A92EB12CEC89FD89DD2069F0C50169
:102B300008A002C0880F991F0A94E2F7808360E022
:102B400079E08DE390E005C0108260E874E88EE1E2
:102B500090E0A80197010E94131A21503040404094
:102B60005040569547953795279580E12030380796
:102B700020F0DD2011F0DD24D6CFE889F9893083FB
:102B8000EA89FB89208319A2EE89FF89408121E02F
:102B900030E0C9010C8C02C0880F991F0A94E2F73B
:102BA000482B4083EE89FF894081C9010D8C02C00A
:102BB000880F991F0A94E2F7482B4083EE89FF891A
:102BC0004081C9010E8C02C0880F991F0A94E2F758
:102BD000482B4083EE89FF8980810F8C02C0220F31
:102BE000331F0A94E2F7209528232083DF91CF91A9
:102BF0001F910F91FF90EF90DF90BF90AF900895DD
:102C0000DC011C96ED91FC911D97E05CFF4F21913A
:102C1000319180819181281B390B2F733070C9014C
:102C20000895DC011C96ED91FC911D97E05CFF4F2F
:102C300020813181E054F040DF01AE5BBF4F8D91C8
:102C40009C9111972817390719F42FEF3FEF07C010
:102C50008D919C91E80FF91F8081282F30E0C901E8
:102C60000895DC011C96ED91FC911D97E05CFF4FEF
:102C700020813181E054F040DF01AE5BBF4F8D9188
:102C80009C9111972817390719F42FEF3FEF10C0C7
:102C90008D919C911197E80FF91F20818D919C9146
:102CA000119701968F73907011969C938E9330E0DC
:102CB000C9010895DC0191968C919197882339F090
:102CC0005496ED91FC915597808186FFF9CF9196AE
:102CD0001C920895CF93DF93EC01EE85FF85E05CB5
:102CE000FF4F20813181E054F0402F5F3F4F2F7321
:102CF0003070DF01AE5BBF4F8D919C91119728170B
:102D00003907D1F3E05CFF4F80819181E054F040BE
:102D1000E80FF91F6083EE85FF85E05CFF4F31838C
:102D20002083EE89FF89208181E090E00F8C02C032
:102D3000880F991F0A94E2F7282B208381E089A34A
:102D4000EC89FD8980818064808381E090E0DF915F
:102D5000CF9108951092D9031092D80388EE93E092
:102D6000A0E0B0E08093DA039093DB03A093DC0350
:102D7000B093DD0382E891E09093D7038093D6036C
:102D80008EE493E09093E3038093E20382E993E07F
:102D90009093E5038093E40385EC90E09093E70340
:102DA0008093E60384EC90E09093E9038093E8033A
:102DB00080EC90E09093EB038093EA0381EC90E049
:102DC0009093ED038093EC0382EC90E09093EF03FB
:102DD0008093EE0386EC90E09093F1038093F003F0
:102DE00084E08093F20383E08093F30387E0809391
:102DF000F40385E08093F50381E08093F603089562
:102E0000CF92DF92EF92FF920F931F93CF93DF93B6
:102E10007C016B018A01C0E0D0E00FC0D6016D914A
:102E20006D01D701ED91FC910190F081E02DC7017A
:102E30000995C80FD91F015010400115110571F7F0
:102E4000CE01DF91CF911F910F91FF90EF90DF9016
:102E5000CF900895EF92FF920F931F938C01DC01A6
:102E6000ED91FC910190F081E02D6DE009957C01E0
:102E7000D801ED91FC910190F081E02DC8016AE04C
:102E800009959C012E0D3F1DC9011F910F91FF90C7
:102E9000EF900895CF93DF93EC016115710519F45C
:102EA00020E030E00FC0DB010D900020E9F7119722
:102EB000A61BB70BE881F9810280F381E02DAD01FB
:102EC00009959C01C901DF91CF910895EF92FF927E
:102ED0000F931F937C010E944A178C01C7010E9427
:102EE0002A17080F191FC8011F910F91FF90EF902B
:102EF0000895AF92BF92CF92DF92EF92FF920F931D
:102F00001F93CF93DF935C016B01EE24FF24C0E09D
:102F1000D0E010C0D501ED91FC9100811181C60176
:102F2000BE010E941F18682FC501F8010995E80E1F
:102F3000F91E2196F60184819581C817D90750F3AF
:102F4000C701DF91CF911F910F91FF90EF90DF901C
:102F5000CF90BF90AF900895EF92FF920F931F9381
:102F60007C010E9479178C01C7010E942A179C01DD
:102F7000200F311FC9011F910F91FF90EF9008950D
:102F8000CF93DF93EC010E94E512688779878A87E7
:102F90009B87E881F9810680F781E02DCE010995B4
:102FA0009C0197FF15C00E94E512288539854A8546
:102FB0005B85621B730B840B950B2C813D814E81CD
:102FC0005F81621773078407950718F32FEF3FEFB0
:102FD000C901DF91CF910895AF92BF92CF92DF9256
:102FE000EF92FF920F931F93CF93DF935C017A01CF
:102FF00089012115310519F4C0E0D0E014C0C0E00A
:10300000D0E0C62EDD240CC0C5010E94C01797FD7C
:103010000AC08C159D0539F0F70181937F01219637
:10302000C017D10788F3CE01DF91CF911F910F9187
:10303000FF90EF90DF90CF90BF90AF900895FC018C
:10304000848195816817790748F40190F081E02D1B
:10305000309721F0E60FF71F8081089580E00895F2
:103060000F931F93CF93DF93EC018B016F5F7F4F23
:10307000888199810E945002009711F480E005C078
:10308000998388831B830A8381E0DF91CF911F910D
:103090000F910895CF93DF93EC0188819981892B5B
:1030A00029F08A819B818617970760F4CE010E94E0
:1030B0003018882341F08C819D81892B19F4E88197
:1030C000F981108281E0DF91CF910895EF92FF9214
:1030D0000F931F93CF93DF93EC017B016C817D8174
:1030E000E114F104C1F04115510599F08A01060F70
:1030F000171FB8010E944A18882369F088819981B6
:103100002C813D81820F931FB7010E9467031D83AD
:103110000C8381E001C080E0DF91CF911F910F917E
:10312000FF90EF900895CF93DF93EC018881998110
:10313000009711F00E94F801198218821D821C82EA
:103140001B821A82DF91CF9108950F931F93182F3E
:10315000092F6115710561F0DB010D900020E9F781
:103160001197A61BB70BAD010E946618882321F4A6
:10317000812F902F0E949318812F902F1F910F91D4
:1031800008950F931F93182F092FFB016081718100
:10319000448155810E946618882321F4812F902F45
:1031A0000E949318812F902F1F910F910895EF92F5
:1031B000FF920F931F93CF93DF93EC017B018A0162
:1031C000BA010E944A18882321F4CE010E94931864
:1031D00007C01D830C8388819981B7010E94670312
:1031E000CE01DF91CF911F910F91FF90EF90089545
:1031F000CF93DF93EC01198218821B821A821D8201
:103200001C821E826115710551F0DB010D900020BA
:10321000E9F71197A61BB70BAD010E94D718DF91F4
:10322000CF910895CF93DF93EC01198218821B820E
:103230001A821D821C821E826115710551F0DB010C
:103240000D900020E9F71197A61BB70BAD010E9466
:10325000D718DF91CF9108950F931F93182F092F3F
:103260006115710559F0DB010D900020E9F7119708
:10327000A61BB70BAD010E94D71802C00E9493187D
:10328000812F902F1F910F910895EF92FF920F932E
:103290001F93DF93CF93CDB7DEB7A1970FB6F89406
:1032A000DEBF0FBECDBF8C01FC01118210821382E4
:1032B0001282158214821682CB01BA017E01089413
:1032C000E11CF11CA70130E00E94C803C801B7014E
:1032D0000E942C19A1960FB6F894DEBF0FBECDBF89
:1032E000CF91DF911F910F91FF90EF900895EF9292
:1032F000FF920F931F93DF93CF93CDB7DEB7619704
:103300000FB6F894DEBF0FBECDBF8C01CB01F80124
:1033100011821082138212821582148216827E011B
:103320000894E11CF11CB70150E00E94ED03C801B4
:10333000B7010E942C1961960FB6F894DEBF0FBE3C
:10334000CDBFCF91DF911F910F91FF90EF90089526
:10335000EF92FF920F931F93DF93CF93CDB7DEB71A
:1033600029970FB6F894DEBF0FBECDBF8C01862F14
:10337000F801118210821382128215821482168241
:1033800090E07E010894E11CF11CB70150E00E941E
:10339000ED03C801B7010E942C1929960FB6F894C5
:1033A000DEBF0FBECDBFCF91DF911F910F91FF9078
:1033B000EF900895CF93DF93EC01FB0186179707F9
:1033C00061F0608171816115710529F04481558139
:1033D0000E94D71802C00E949318CE01DF91CF91AE
:1033E0000895FC01118210821382128215821482C8
:1033F00016820E94DA190895FC011182108213824C
:1034000012821582148216820E94DA190895FC0134
:10341000808191810E94F8010895FC018081918151
:103420000E94F8010895A1E21A2EAA1BBB1BFD0100
:103430000DC0AA1FBB1FEE1FFF1FA217B307E40793
:10344000F50720F0A21BB30BE40BF50B661F771FEB
:10345000881F991F1A9469F76095709580959095CB
:103460009B01AC01BD01CF010895EE0FFF1F059038
:10347000F491E02D0994AA1BBB1B51E107C0AA1FC0
:10348000BB1FA617B70710F0A61BB70B881F991F05
:103490005A95A9F780959095BC01CD0108952F927A
:1034A0003F924F925F926F927F928F929F92AF92D4
:1034B000BF92CF92DF92EF92FF920F931F93CF9321
:1034C000DF93CDB7DEB7CA1BDB0B0FB6F894DEBFB8
:1034D0000FBECDBF09942A88398848885F846E84DE
:1034E0007D848C849B84AA84B984C884DF80EE8028
:1034F000FD800C811B81AA81B981CE0FD11D0FB631
:10350000F894DEBF0FBECDBFED010895F894FFCF54
:103510002E0070696E4D6F646528002C2000290014
:103520006469676974616C577269746528006469BD
:10353000676974616C52656164280029203D200030
:10354000616E616C6F6757726974652800616E61A6
:103550006C6F67526561642800282900207600207E
:1035600000FC0300000100000000FB04CA04480442
:10357000510466047704000000002012C811260FD1
:10358000210F050B780F2F072010A0087A080000E4
:0E35900000006A1600170016311611165A16A2
:00000001FF
