:100000000C94BE010C94EB010C94EB010C94EB01ED
:100010000C94EB010C94EB010C94EB010C94EB01B0
:100020000C94EB010C94EB010C94EB010C94EB01A0
:100030000C94EB010C94EB010C94EB010C94EB0190
:100040000C94EB010C94EB010C94EB010C94EB0180
:100050000C944E070C94EB010C94EB010C944C3473
:100060000C94EB010C9476370C94BE380C94EB0195
:100070000C94EB010C9423070C94EB010C94EB0112
:100080000C94EB010C94EB010C94EB010C947E0AA4
:100090000C94B6370C94FD380C94EB010C946B0C5B
:1000A0000C94EB010C94EB010C94EB010C94EB0120
:1000B0000C94EB010C94EB010C94EB010C94EB0110
:1000C0000C94EB010C94EB010C94EB010C94F637BF
:1000D0000C943C390C94EB010C9436380C947B391D
:1000E0000C94EB01A016B8163E175B17EC172618F8
:1000F0003D1865188118AA18C118C81DC81DE9182F
:1001000023194F199C19FC19581AC01AD71A331BF6
:10011000591BD81C2B1D4C1DEE1C0A1D731D901D58
:10012000C81DC81DC81DC81DC81DC81DC81DC81DA7
:10013000C81DC81DC81DC81DC81DC81DC81DC81D97
:10014000C81DC81DC81DC81DC81DC81DC81DC81D87
:10015000C81DC81DC81DC81DC81DC81DC81DC81D77
:10016000C81DC81DC81DC81DC81DC81DC81DC81D67
:10017000C81DC81DC81DC81DC81DC81DC81DC81D57
:10018000C81DC81DC81DC81DC81DC81D9D1BAF1C8E
:10019000BE22F82232236C23E023A6231A247A24D9
:1001A000C0249D241325EC241626EF254726272757
:1001B000A926C6277F27072822283C285C288628CE
:1001C0005924BE28E128FF281C294E297629080039
:1001D0000000BE922449123EABAAAA2ABECDCCCCC6
:1001E0004C3E00000080BEABAAAAAA3E0000000060
:1001F000BF000000803F0000000000084178D3BB32
:100200004387D1133D190E3CC3BD4282AD2B3E68DE
:10021000EC8276BED98FE1A93E4C80EFFFBE01C4CF
:10022000FF7F3F000000000007634236B79BD8A75E
:100230001A39685618AEBAAB558C1D3CB7CC57630B
:10024000BD6DEDFD753EF6177231BF000000803FB9
:1002500000002100240027002A002D003000330078
:1002600001010000040107010A010000220025002D
:1002700028002B002E00310034000201000005018F
:1002800008010B01000020002300260029002C009B
:100290002F003200000100000301060109010505DD
:1002A0000505070508080808020202020A0A0808EC
:1002B000040404040101010101010101030303031A
:1002C00003030303040707070C0C0C0C0C0C0C0CA9
:1002D0000202020206060606060606060B0B0B0BBA
:1002E0000B0B0B0B010210202008081020401020DF
:1002F00040800201020108040201010204081020EA
:1003000040808040201008040201800402018040E7
:100310002010080402010804020101020408102050
:10032000408001020408102040800000090A0208F1
:100330000B0C0D0706030401000000000000000084
:1003400000000000000000000000000000000000AD
:1003500000000000000011100F000000000000006D
:10036000000000000000000000000000000000008D
:1003700020045807ED0AAA29EB3A190411241FBEDC
:10038000CFEFD1E2DEBFCDBF00E00CBF14E0A0E0B4
:10039000B2E0ECE2FAE800E00BBF02C007900D9279
:1003A000AA3BB107D9F71BBE11E1AAEBB4E001C02B
:1003B0001D92A234B107E1F713E0CAE7D3E004C00D
:1003C0002297FE010E94CE44C037D107C9F70E9490
:1003D000E3040C9409450C940000CF93DF93BC0117
:1003E0008230910510F462E070E0A0914011B0916C
:1003F0004111ED01E0E0F0E040E050E021C08881F3
:1004000099818617970769F48A819B81309719F043
:100410009383828304C09093411180934011FE0125
:1004200034C06817790738F44115510519F084175D
:10043000950708F4AC01FE018A819B819C01E901CA
:100440002097E9F641155105A9F1CA01861B970BC2
:10045000049708F4BA01E0E0F0E02AC08D919C9185
:10046000119784179507F9F46417750781F41296AC
:100470008D919C911397309719F09383828304C0D8
:100480009093411180934011FD0132964CC0CA01F6
:10049000861B970BFD01E80FF91F6193719302977B
:1004A0008D939C9340C0FD01828193819C01D90171
:1004B0001097A1F680913E1190913F11892B41F444
:1004C0008091CF039091D00390933F1180933E1180
:1004D0004091D1035091D2034115510541F44DB7DC
:1004E0005EB78091CD039091CE03481B590B2091AC
:1004F0003E1130913F11CA01821B930B861797075B
:1005000080F0AB014E5F5F4F8417950750F0420FAC
:10051000531F50933F1140933E11F9016193719322
:1005200002C0E0E0F0E0CF01DF91CF910895CF93DA
:10053000DF93009709F450C0EC0122971B821A82C6
:10054000A0914011B0914111109709F140E050E0A5
:10055000AC17BD0708F1BB83AA83FE01219131913D
:10056000E20FF31FAE17BF0779F48D919C9111979D
:10057000280F391F2E5F3F4F3983288312968D91A4
:100580009C9113979B838A834115510571F4D093F5
:100590004111C093401120C012968D919C911397E8
:1005A000AD01009711F0DC01D3CFFA01D383C283F0
:1005B00021913191E20FF31FCE17DF0769F4888193
:1005C0009981280F391F2E5F3F4FFA013183208315
:1005D0008A819B8193838283DF91CF910895A0E0EC
:1005E000B0E0E5EFF2E00C94D4446C01009729F4FC
:1005F000CB010E94ED016C01C1C08EEF882E8FEF00
:10060000982E8C0C9D1C8601060F171F08151905C6
:1006100008F4B2C0F401A081B181A617B707B8F001
:10062000A530B10508F4AAC0CD0104978617970735
:1006300008F4A4C01297A61BB70BF801A193B193BD
:10064000D4016D937C93CF010E94970297C07B01E8
:10065000EA1AFB0AEEEFFFEFEE0EFF1E36016A0EFE
:100660007B1EC0914011D091411144245524AA24ED
:10067000BB244AC0C615D705E1F5488159814E15FE
:100680005F05B8F1CA0104978E159F05B0F4129664
:10069000A40FB51FF401B183A0832A813B814114CB
:1006A000510431F0D20113963C932E93129766C0F9
:1006B000309341112093401161C08A819B81F801E0
:1006C00093838283425050404E195F095183408387
:1006D0004114510431F0D20113961C930E931297DA
:1006E00004C01093411100934011F40171836083A1
:1006F00045C088819981A816B90608F45C012E01CD
:100700008A819B819C01E901209709F0B3CF8091F8
:100710003E1190913F1186159705E9F4A616B7068C
:10072000D0F42091D1033091D2032115310541F449
:100730002DB73EB78091CD039091CE03281B390B86
:1007400002171307C8F410933F1100933E11D40110
:100750006D937C9313C0CB010E94ED01EC010097D7
:1007600059F0F40140815181B6010E94C403C601D1
:100770000E9497026E0102C0CC24DD24C601CDB7D1
:10078000DEB7E0E10C94F044FB01DC0102C0019013
:100790000D9241505040D8F70895FB01DC010190C3
:1007A0000D920020E1F70895FB019F01423074F0A3
:1007B000453264F4642F77270E949644805D8A3323
:1007C0000CF0895D8193CB010097A1F71082C901DC
:1007D0000C94EA03DC01FC01672F71917723E1F7A8
:1007E000329704C07C916D9370836291AE17BF07FE
:1007F000C8F308958091D3039091D4030196909308
:10080000D4038093D30308958130910541F46F5F41
:100810007F4F71F48AEB94E00E94F91D0895892BB3
:1008200039F46F5F7F4F21F48AEB94E00E94F01D52
:10083000089580E090E06FEF7FEF0E940404089538
:1008400081E090E06FEF7FEF0E940404089580E163
:10085000809391001092900085E080938F0D86E93F
:1008600098E990938E0D80938D0D909397008093CF
:10087000960085E1809391008AEF93E09093910D2B
:100880008093900D81E0809371008AEB94E00E9448
:10089000DC1386EB90E160E072E00E94CA3D6FEFEE
:1008A00071E26050724086EB90E14AE050E00E94B5
:1008B000AB3D86EB90E165E072E00E94CA3D6AEBD9
:1008C00074E06050724086EB90E14AE050E00E9494
:1008D000AB3D86EB90E16CE072E00E94CA3D62E4C1
:1008E00071E16A5B744086EB90E14AE050E00E945F
:1008F000AB3D86EB90E162E172E00E94CA3D6091FF
:100900003E1170913F116115710519F460E070E0BE
:1009100002C06254714186EB90E14AE050E00E94CF
:10092000AB3D86EB90E168E172E00E94CA3D8DB775
:100930009EB76FEF71E2681B790B86EB90E14AE09E
:1009400050E00E94AB3D86EB90E16FE172E00E94C7
:10095000CA3D80913E1190913F11009729F46DB7E7
:100960007EB76254714104C06DB77EB7681B790BC6
:1009700086EB90E14AE050E00E94AB3D08958AEB9F
:1009800094E00E9487208091D3039091D40369E181
:1009900070E00E949644892BA9F480910C0D882365
:1009A00059F080910D0D882329F48AEB94E00E9480
:1009B000150E02C010920D0D81E090E09093D403CB
:1009C0008093D3030895CF93DF930E941D350E9437
:1009D0002704C5E7D8E30E94BF042097E1F30E94F3
:1009E0007538F9CFEAE7F0E09081987F90839081A5
:1009F000982B9083089520917A0030E02770307012
:100A0000C9010895EF92FF920F931F937B018C0110
:100A100080E1809381001092800060E074E284E7BE
:100A200099E4A80197010E94D34020E030E040E023
:100A300051E40E94A9420E9440419B01AC01203038
:100A400080E0380781E0480780E0580728F481E01B
:100A500080938B0DB90155C0203080E0380788E0C5
:100A6000480780E0580768F482E080938B0DDA0134
:100A7000C901E3E0B695A79597958795EA95D1F7D3
:100A800014C0203080E0380780E4480780E0580731
:100A900070F483E080938B0DDA01C90176E0B6959E
:100AA000A795979587957A95D1F7BC012AC02030F4
:100AB00080E0380780E0480781E0580740F484E090
:100AC00080938B0DBB27A52F942F832FEECF203043
:100AD00080E0380780E0480784E0580768F485E044
:100AE00080938B0DDA01C9012AE0B695A7959795F9
:100AF00087952A95D1F7D9CF85E080938B0D6FEF3D
:100B00007FEF709387006093860091E090936F0071
:100B100080917B00887F80937B0080917B00866042
:100B200080937B009093750D80917A008062809312
:100B30007A00E0927F0DF092800D0093810D10936A
:100B4000820D1F910F91FF90EF900895882321F05F
:100B500080917C00806203C080917C008F7D8093B7
:100B60007C0008958093750D882321F080917A0090
:100B7000806203C080917A008F7D80937A0008950F
:100B800091E09093790D1092770D1092760D10925E
:100B90007A0D28E736E030937C0D20937B0D80930F
:100BA000780D90917C00907F90937C0020917C0048
:100BB000982F9770922B90937C00883020F0809132
:100BC0007B00886003C080917B00877F80937B00DF
:100BD00008958093780D90917C00907F90937C0095
:100BE00020917C00982F9770922B90937C008830F6
:100BF00020F080917B00886003C080917B00877F1C
:100C000080937B00089580917A0D8F5F80937A0D99
:100C10009091790D891711F410927A0D80917A0DC7
:100C2000E091760DF091770DE80FF11D2081209372
:100C3000780D80917C00807F80937C0090917C0077
:100C4000822F8770892B80937C00283020F0809140
:100C50007B00886003C080917B00877F80937B004E
:100C600050917800409179002091710D3091720D72
:100C70008091730D9091740D28173907C0F58091FC
:100C8000750D882329F480917A00806480937A001E
:100C9000942F80E0452F50E0482B592B80917C0009
:100CA00085FF11C08091710D9091720DE0916D0DD5
:100CB000F0916E0DE80FF91F508301969093720D1D
:100CC0008093710D08958091710D9091720D9C012A
:100CD000220F331FE0916F0DF091700DE20FF31FA3
:100CE0005183408301969093720D8093710D089506
:100CF00050917800409179002091710D3091720DE2
:100D00008091730D9091740D28173907C0F580916B
:100D1000750D882329F480917A00806480937A008D
:100D2000942F80E0452F50E0482B592B80917C0078
:100D300085FF11C08091710D9091720DE0916D0D44
:100D4000F0916E0DE80FF91F508301969093720D8C
:100D50008093710D08958091710D9091720D9C0199
:100D6000220F331FE0916F0DF091700DE20FF31F12
:100D70005183408301969093720D8093710D089575
:100D800050917A0D9091790D923050F1852F8F5FAF
:100D900080937A0D891711F410927A0D80917A0D53
:100DA000E091760DF091770DE80FF11D20812093F1
:100DB000780D80917C00807F80937C0090917C00F6
:100DC000822F8770892B80937C00283020F08091BF
:100DD0007B00886003C080917B00877F80937B00CD
:100DE00060917800409179002091710D3091720DE1
:100DF0008091730D9091740D2817390718F5809123
:100E0000750D882329F480917A00806480937A009C
:100E1000942F80E070E0682B792B80917C0085FF17
:100E200002C0672F7727E0917D0DF0917E0D852F11
:100E300019958091710D9091720D01969093720D9C
:100E40008093710D08951F920F920FB60F920BB6FB
:100E50000F9211242F933F934F935F936F937F9340
:100E60008F939F93AF93BF93EF93FF93E0917B0D8D
:100E7000F0917C0D1995FF91EF91BF91AF919F91EA
:100E80008F917F916F915F914F913F912F910F9033
:100E90000BBE0F900FBE0F901F9018951F920F92D0
:100EA0000FB60F9211240F900FBE0F901F90189540
:100EB000ECE7F0E080818F738083808180648083A1
:100EC00008950F931F9300917C0010917B008091F7
:100ED0007C00807E80937C0080917C008E6180937A
:100EE0007C0080917B00877F80937B0063E070E0D3
:100EF00080E090E00E94BA3480917A008064809310
:100F00007A0080917A0086FDFCCF20917800409194
:100F1000790000937C0010937B00742F60E030E038
:100F2000622B732B882777FD8095982F0E946E4146
:100F30009B01AC0160E070E889E894E40E94D34032
:100F40001F910F910895AF92BF92CF92DF92EF92CF
:100F5000FF920F931F930E9494345B016C01809168
:100F60007A00877D80937A0080917B00877086303D
:100F700029F480918100887F809381006091730DB6
:100F80007091740D80E090E00E946C4120E034E2AA
:100F900044E759E40E94A9427B018C018091870DAE
:100FA0009091880DA091890DB0918A0DA81AB90A67
:100FB000CA0ADB0AC601B5010E946C419B01AC0163
:100FC000C801B7010E94D3406093830D7093840DD4
:100FD0008093850D9093860D1F910F91FF90EF9058
:100FE000DF90CF90BF90AF9008951092720D109245
:100FF000710D8091750D882321F080917A008062B7
:1010000003C080917A008F7D80937A000E9494348F
:101010006093870D7093880D8093890D90938A0D4E
:1010200080917A00886C80937A0080917B00877031
:10103000863081F480918100887F809381001092B6
:101040008500109284008091810090918B0D892BF6
:10105000809381000895F999FECF72BD61BDF89A21
:1010600080B50895F999FECF1FBA72BD61BD40BD2C
:101070000FB6F894FA9AF99A0FBE0895FC011386F8
:101080001586148687E090E012863197009711F05C
:101090000197FACF0895DF92EF92FF920F931F937B
:1010A000FC01E08001811281F894F80181818E2990
:1010B00081838281DE2CD0948D21828383E090E035
:1010C0000E941335F80181818D2181838AE090E0AF
:1010D0000E941335F8010081789485E390E00E9426
:1010E000133580E010E0FF240E211F21012B09F0B1
:1010F00081E01F910F91FF90EF90DF900895EF92A4
:10110000FF920F931F93CF93DF937C0101E010E0D8
:10111000C0E0D0E0C7010E944B088111102B000FE6
:101120002196C830D105B1F7812FDF91CF911F9162
:101130000F91FF90EF9008951F93CF93DF93FC01E1
:101140001081C181D281912F909560FF12C0F894D7
:101150008A8189238A838981812B89838AE090E02F
:101160000E9413358A81812B8A83789487E390E0EB
:1011700011C0F8948A8189238A838981812B89838C
:1011800081E490E00E9413358A81812B8A837894D0
:1011900085E090E00E941335DF91CF911F91089573
:1011A000CF92DF92EF92FF920F931F93CF93DF9333
:1011B0008C01E42EFF24F394C0E0D0E0C62EDD24A1
:1011C00060E08F2D90E08C219D21892B09F061E05A
:1011D000C8010E949C08FF0C2196C830D10581F7F8
:1011E000EE20A9F4F894D8011196ED91FC91129794
:1011F00091818C918095982391831196ED91FC912A
:10120000129792818C918095982392837894DF91A4
:10121000CF911F910F91FF90EF90DF90CF900895A5
:10122000EF92FF920F931F93CF93DF938C017B017B
:1012300065E540E00E94D008C0E0D0E0F701EC0F87
:10124000FD1FC801608140E00E94D0082196C8308F
:10125000D105A1F7DF91CF911F910F91FF90EF90F2
:101260000895DF92EF92FF920F931F93CF93DF9336
:10127000FC010081C181D281F8948981D02ED09463
:101280008D21898378941DE7E02EFF24115059F1B8
:1012900082E090E00E941335888190E08E219F21AA
:1012A000892BA1F3F8948A818D218A838981802BEF
:1012B0008983789480EE91E00E941335F8948981B7
:1012C0008D21898386E490E00E941335888110E0A7
:1012D00090E0E822F922EF2809F411E078948AE9F5
:1012E00091E00E941335812FDF91CF911F910F91D3
:1012F000FF90EF90DF900895AF92BF92DF92EF9250
:10130000FF920F931F93CF93DF93EC015B018D85C9
:10131000882309F061C0CE010E943109882329F495
:101320001B861D861C8690E06BC0CE0160EF40E0FE
:101330000E94D00801E0DD24EE24FF24F394CE01C6
:101340000E944B08182FCE010E944B08113019F44F
:101350008130E1F439C0181709F58B85081770F44E
:1013600060E0FE01EE0DF11D838190E02F2D30E055
:1013700082239323181619064CF003C060E0081767
:1013800029F0093008F04CC00C874AC0FE01EE0D70
:10139000F11D83818F29838361E009C0612FFE01E4
:1013A000EE0DF11D9F2D9095838189238383CE01BE
:1013B0000E949C080F5FFF0C19F4E394FF24F39440
:1013C00087E08E1508F0BBCF013430F0DB86DD20DE
:1013D00011F581E08D871FC01B861D861C8690E05D
:1013E000DE0120E030E0F501E20FF31F13968C914F
:1013F000139780832F5F3F4F11962830310599F75F
:10140000892FDF91CF911F910F91FF90EF90DF9087
:10141000BF90AF9008958B818823F1F291E0E0CFE7
:10142000D02EBDCFFF920F931F938C01F62E862FE7
:1014300060E00E945F368F2D90E0FC01EC51FD4F83
:10144000E491D801EC9382569D4FFC016491E62F04
:10145000F0E0EE0FFF1FEC57FD4F8591949112962F
:101460009C938E9311971B961C921B971D961C9212
:101470001D971C961C92F80187E090E01286319728
:10148000009711F00197FACF1F910F91FF900895E7
:10149000882319F48CB5806202C08CB58F7D8CBD19
:1014A00008959CB5937F982B9CBD08952CB5382F3B
:1014B00033702C7F322B3CBD2DB590E095958795F0
:1014C0009595879581702E7F822B8DBD089585E33C
:1014D00061E00E94123785E361E00E945F368CB5BF
:1014E00080618CBD8CB580648CBD84E361E00E941A
:1014F0005F3683E361E00E945F3608951F920F928A
:101500000FB60F920BB60F9211242F933F934F9368
:101510005F936F937F938F939F93AF93BF93EF935B
:10152000FF93E091900DF091910D1995FF91EF913E
:10153000BF91AF919F918F917F916F915F914F91EB
:101540003F912F910F900BBE0F900FBE0F901F90E9
:10155000189581E08093D70D6093B40D1092D50D4E
:101560001092D60D089581E08093D70D6093B40D4D
:101570001092D50D1092D60D08952091B30D30E044
:101580008091B20D281B3109C90108954091B20D17
:101590008091B30D481718F02FEF3FEF0AC0E42FEA
:1015A000F0E0EE56F24F8081282F30E04F5F4093FD
:1015B000B20DC9010895E091B20D8091B30DE81705
:1015C00018F0EFEFFFEF06C0F0E0EE56F24F80812B
:1015D000E82FF0E0CF01089508951092DB0D1092EE
:1015E000DA0D88EE93E0A0E0B0E08093DC0D9093FC
:1015F000DD0DA093DE0DB093DF0D89ED93E09093A8
:10160000D90D8093D80D0895CF92DF92EF92FF927B
:101610000F931F93CF93DF937C016B018A0180911D
:10162000D70D8823A1F0C0E0D0E00DC0D701ED9127
:10163000FC91D601AC0FBD1F0190F081E02DC701D8
:101640006C9119952196C017D10780F304C0CB0186
:10165000642F0E94500CC801DF91CF911F910F9110
:10166000FF90EF90DF90CF900895DF93CF930F928C
:10167000CDB7DEB7FC0169838091D70D8823C9F00F
:101680008091D60D803238F081E090E093838283A0
:1016900020E030E015C08091D50DE82FF0E0EB544C
:1016A000F24F998190838F5F8093D50D8093D60DF3
:1016B00005C0CE01019661E00E94500C21E030E0AF
:1016C000C9010F90CF91DF9108950F93062F80915C
:1016D000B40D65EB7DE04091D60D21E00E94FB0B3F
:1016E0001092D50D1092D60D1092D70D0F9108952E
:1016F00061E00E94650B0895413208F040E2862FB8
:1017000062E97DE00E94B20B1092B20D8093B30D9E
:10171000089521E00E947C0B089521E00E947C0B3B
:1017200008951092B20D1092B30D1092D50D109233
:10173000D60D0E949C0B08951092E40D81E08093D9
:10174000E60D1092E70DE9EBF0E080818E7F80835B
:1017500080818D7F808388E48093B80085E48093C6
:10176000BC000895382F413210F040E042C0809113
:10177000E40D8823E1F791E09093E40D2093E60DCA
:101780008FEF8093510E10920C0E415040930D0E2E
:101790004F5F9093E50D8091E50D330F832B809380
:1017A000E50D8091E70D813041F41092E70D8091B5
:1017B000E50D8093BB0085EC01C085EE8093BC00F5
:1017C0008091E40D8130E1F380910C0E841710F4C8
:1017D00040910C0E20E030E00AC0FB01E20FF31F45
:1017E000D901A451B24F8C9180832F5F3F4F2417B2
:1017F000A0F3842F08950F931F93582F122F413277
:1018000010F081E04AC08091E40D8823E1F782E086
:101810008093E40D0093E60D8FEF8093510E1092AC
:101820000C0E40930D0EACEEBDE0FB0102C08191A9
:101830008D938E2F861B8417D0F31092E50D809127
:10184000E50D550F852B8093E50D8091E70D8130D7
:1018500041F41092E70D8091E50D8093BB0085EC7B
:1018600001C085EE8093BC00112321F08091E40D2E
:101870008230E1F38091510E8F3F11F480E00DC072
:101880008091510E803211F482E007C08091510E98
:10189000803311F084E001C083E01F910F9108951F
:1018A000482F613210F081E008958091E40D84307A
:1018B00011F082E0089560932F0EAEE0BEE0842F19
:1018C0009C01F90102C081918D938E2F841B861794
:1018D000D0F380E008951F920F920FB60F920BB6CF
:1018E0000F9211242F933F934F935F936F937F93A6
:1018F0008F939F93AF93BF93EF93FF938091B90022
:1019000090E0887F90708036910509F4F2C08136AE
:101910009105CCF58832910509F47BC08932910597
:10192000B4F48031910509F46FC0813191053CF424
:10193000009709F447C1089709F04FC165C0883185
:10194000910509F466C0809709F047C182C08034D0
:10195000910509F4A4C08134910544F480339105C4
:1019600009F482C0C89709F038C189C08035910553
:1019700009F489C08835910509F496C08834910529
:1019800009F02BC1AEC08839910509F413C189391A
:101990009105ECF48837910509F4ABC089379105BE
:1019A0004CF48836910509F4A4C08037910509F0FC
:1019B00014C19FC08838910509F4FCC08039910595
:1019C00009F49DC08038910509F007C198C0803B9B
:1019D000910509F4C6C0813B91054CF4803A91050C
:1019E00009F49FC0883A910509F0F7C0BAC0803C5D
:1019F000910509F4E3C0883C910509F4DFC0883BF8
:101A0000910509F0EAC0C2C08091E50D8093BB004A
:101A1000CFC090910C0E80910D0E981768F49091A4
:101A20000C0EE92FF0E0E451F24F80818093BB006F
:101A30009F5F90930C0EBCC08091E60D882309F443
:101A40004BC085ED8093BC008091BC0084FDFCCF31
:101A5000C2C080E28093510E85ED8093BC008091DE
:101A6000BC0084FDFCCFB7C080E38093510E85EDB0
:101A70008093BC008091BC0084FDFCCFACC088E3A7
:101A80008093510E9BC080910C0E9091BB00E82F6B
:101A9000F0E0E451F24F90838F5F80930C0E9091B1
:101AA0000C0E80910D0E82C080910C0E9091BB00A7
:101AB000E82FF0E0E451F24F90838F5F80930C0E9B
:101AC0008091E60D882341F085ED8093BC008091E4
:101AD000BC0084FDFCCF7FC081E08093E70D84EAE9
:101AE0006EC085ED8093BC008091BC0084FDFCCF6E
:101AF00072C083E08093E40D1092500E59C0809123
:101B0000500E803208F056C08091500E9091BB006C
:101B1000E82FF0E0E05DF14F90838F5F8093500EEF
:101B200047C08091500E803230F4E091500EF0E0CA
:101B3000E05DF14F108285ED8093BC008091BC0088
:101B400084FDFCCF1092E40D6091500EE091EA0DFF
:101B5000F091EB0D80E39EE070E019951092500E2D
:101B60002DC084E08093E40D10922E0E10922F0E63
:101B7000E091E80DF091E90D199580912F0E8823E1
:101B800029F481E080932F0E10920E0E90912E0E6C
:101B9000E92FF0E0E25FF14F80818093BB009F5F0F
:101BA00090932E0E90912E0E80912F0E981710F478
:101BB00085EC01C085E88093BC000FC085EC809364
:101BC000BC0009C01092510E85ED8093BC0080913D
:101BD000BC0084FDFCCF1092E40DFF91EF91BF910A
:101BE000AF919F918F917F916F915F914F913F91B5
:101BF0002F910F900BBE0F900FBE0F901F90189556
:101C000085EE93E008958AEF93E008958EEF93E0D8
:101C1000089585E194E008958FE294E0089585E3C6
:101C200094E008958CE292E008950F931F938C0145
:101C300088E061E00E9412370C5A174FF8011082B9
:101C40001F910F910895FF920F931F93F62E142F5B
:101C5000022F862F60E00E9412371EBD0DB407FED2
:101C6000FDCF8EB50EBD0DB407FEFDCF8EB58F2D09
:101C700061E00E9412371F910F91FF900895362F57
:101C8000242F643010F085E00895209565E3432FFC
:101C90000E94230E80E00895AF92BF92CF92DF9210
:101CA000EF92FF920F931F93CF93DF93EC015A01B2
:101CB0006B01C05AD74FE880F9800A811B81C0565A
:101CC000D840CB01BA0120E030E040E050E00E9473
:101CD000CF4087FD48C0FE01E155F74FC601B50171
:101CE00020813181428153810E9460421816DCF1CB
:101CF000C601B501A80197010E94D3409B01AC0128
:101D00000E94584023EF34E045EB5FE30E94A94274
:101D100020E030E040E85EE30E94A94220E030E0AD
:101D20004FE753E40E94A9427B018C0120E030E0A0
:101D30004FE753E40E9460421816ACF0C85AD74FE0
:101D4000A882B982CA82DB82C855D840C801B701CF
:101D50000E9440419B01AC01CE0163E0422F0E94F2
:101D60003F0E80E001C088E0DF91CF911F910F917D
:101D7000FF90EF90DF90CF90BF90AF900895FC015F
:101D8000E05AF74F408351836283738338974081D1
:101D9000518162817381E855F840CF0120E00E94B3
:101DA0004C0E08959F92AF92BF92CF92DF92EF9226
:101DB000FF920F931F93CF93DF93EC015A016B01B6
:101DC000FC01E955F74F608171818281938124EA9A
:101DD00030E74DE75FE30E94A9429B01AC01C601D9
:101DE000B5010E94604288230CF4B7C0FE01E5559E
:101DF000F74F60817181828193812EEA37E441E857
:101E00005FE30E94A9429B01AC01C601B5010E949B
:101E1000CF4018160CF4A1C0C601B50120E030E097
:101E200048E452E40E94A9427B018C0120E030E0AA
:101E30004AE754E40E94CF4087FD8FC0C801B70134
:101E400020E233EB41E85CE40E94604218160CF497
:101E500084C0C801B70120E030EE41E854E40E949C
:101E6000D3400E94694226EA3BE944E550E40E94DF
:101E7000A9422EE83DE543E150E40E94D3400E9490
:101E80004041962E70E0665F7F4F882777FD8095F2
:101E9000982F0E946E419B01AC0160E070E080E0F1
:101EA00090E40E940C439B01AC01CA01B90120E0FF
:101EB00030EE41E055EC0E94A942A80197010E9432
:101EC000D34020E030E040E055E40E9458407B01E0
:101ED0008C0120E030E040E050E00E946042882326
:101EE0004CF0C801B70120E030E040E05FE30E9421
:101EF000584008C0C801B70120E030E040E05FE38F
:101F00000E9457400E943B418B0188ED9DE067E1B4
:101F10000E94A90AC80126E0969587952A95E1F7BF
:101F2000929490EF9922982A88ED9DE0692D0E9465
:101F3000350B602F660F660F626088ED9DE00E9492
:101F4000350B88ED9DE00E94780BC45AD74FA882CC
:101F5000B982CA82DB8280E001C088E0DF91CF9144
:101F60001F910F91FF90EF90DF90CF90BF90AF90B7
:101F70009F900895BF92CF92DF92EF92FF920F93BE
:101F80001F93CF93DF93EC01B62E35E6E32E38E0B6
:101F9000F32EE80EF91E6C0100E010E0E881F981F3
:101FA000B8016C597F4F0088F189E02DC601199561
:101FB000F701E00FF11F80830F5F1F4F0E341105F3
:101FC00069F7CB59D74F88819981C556D840892B5D
:101FD00039F5C959D74F88819981C756D840892B7F
:101FE000F9F49E012759374FF90180819181892B9E
:101FF000B9F4FE01E256F74FC05AD74F8881998154
:10200000AA81BB81C056D84080839183A283B383C9
:1020100081E090E0F90191838083CE010E94AD11AF
:10202000CB59D74F88819981C556D840892BE1F487
:10203000C959D74F88819981C756D840892BA1F4B7
:10204000FE01E759F74F80819181019769F4C559E5
:10205000D74F80E28883CB56D84082E090E09183CE
:102060008083CE010E94AD11CB59D74F88819981D1
:10207000C556D840892B11F5C959D74F8881998108
:10208000C756D840892BD1F4FE01E759F74F80811C
:102090009181029799F4CE55D74F80E090E0A0EA65
:1020A000B0E488839983AA83BB83C25AD84083E073
:1020B00090E091838083CE010E94AD11CB59D74F20
:1020C00088819981C556D840892BD9F4C959D74FF1
:1020D00088819981C756D840892B99F4FE01E75928
:1020E000F74F80819181039761F4CA55D74F1882C9
:1020F000C65AD84084E090E091838083CE010E944C
:10210000AD11CB59D74F88819981C556D840892BBD
:1021100091F5C959D74F88819981C756D840892BE5
:1021200051F5FE01E759F74F80819181049719F528
:10213000C955D74F80E090E0A8ECB2E48993999319
:10214000A993B99380E090E4ACE9B6E489939993BC
:10215000A993B99380E090E0A8E4B3E488839983DD
:10216000AA83BB83CF5AD84085E090E091838083D7
:10217000CE010E94AD11CB59D74F88819981C556A8
:10218000D840892B99F4C959D74F88819981C7566E
:10219000D840892B59F4C759D74F88819981C9569E
:1021A000D840059719F4BB2009F49CC0CB59D74FF0
:1021B000199219921992199285E090E09983888377
:1021C00024968CE7888380E78A93229680E09CE7B8
:1021D000A2E9B8E489939993A993B99380E092E234
:1021E000A1EAB8E488839983AA83BB832C9680E014
:1021F00090E0AAE7B4E489939993A993B99380E016
:1022000090E4ACE1B6E489939993A993B99380E003
:1022100090E5A3ECB7E489939993A993B99380E0EF
:1022200094E2A4E7B9E488839983AA83BB83649783
:1022300080E090E0A0E0B0E089939993A993B993EE
:1022400088839983AA83BB8364968FEF96EEABE570
:10225000BEE289939993A993B99389939993A9938A
:10226000B99389939993A993B99388839983AA83FE
:10227000BB83CA59D840FE01E256F74FC05AD74F28
:1022800088819981AA81BB8180839183A283B38352
:102290002B9680E28883E79680E090E0A0EAB0E4A5
:1022A00089939993A993B993199280E090E0A8EC4F
:1022B000B2E489939993A993B99380E090E4ACE94F
:1022C000B6E489939993A993B99380E090E0A8E448
:1022D000B3E488839983AA83BB83CF5AD840CE01C5
:1022E0000E94AD11C256D74FE880F9800A811B8148
:1022F000CE59D840C801B70120E030E040E050E0BE
:102300000E94CF40FE01EC59F74F18161CF081E0F7
:10231000808309C0C05AD74FE882F9820A831B83A1
:10232000C056D8401082CA55D74F8881C65AD84067
:10233000882321F0CE0160E042E003C0CE0160E0DE
:1023400041E00E94FD33DF91CF911F910F91FF90EB
:10235000EF90DF90CF90BF900895CF92DF92EF92F1
:10236000FF920F931F93CF93DF938C0145E6E42EEA
:1023700048E0F42EE80EF91E6C01C0E0D0E0F70151
:10238000EC0FFD1FC601CC59DF4FBE0140810E94FA
:102390004F1FC356D040CE34D10589F7C80160E045
:1023A0000E94BA0FDF91CF911F910F91FF90EF9094
:1023B000DF90CF9008957F928F929F92AF92BF92BD
:1023C000CF92DF92EF92FF920F931F93DF93CF9301
:1023D0000F920F92CDB7DEB75C019B01742ECB013B
:1023E00068E270E00E949644862EC90168E270E0BF
:1023F0000E9496446C0163E0969587956A95E1F793
:10240000982E082D10E05BE6E52E58E0F52EEA0C3C
:10241000FB1CF7018081B801680F711D88ED9DE0FC
:102420000E94B30A692D70E0685F7F4F88ED9DE0E0
:102430000E94350B88ED9DE00E94780BF7018081AA
:10244000080F111D88ED9DE0B80141E050E00E94A9
:10245000890B88ED9DE00E94BD0A892B11F481E073
:102460003BC00C2D0770F8E09F0E998288ED9DE02F
:102470000E94C60A282F772071F481E090E0A0E046
:10248000B0E004C0880F991FAA1FBB1F0A95D2F79E
:10249000282B2A830EC081E090E0A0E0B0E004C0C9
:1024A000880F991FAA1FBB1F0A95D2F78095822318
:1024B0008A838BE698E0A80EB91EF501608185E954
:1024C00097EFA80EB91E680DC501AE014F5F5F4FB3
:1024D00022E00E94781F80E00F900F90CF91DF9153
:1024E0001F910F91FF90EF90DF90CF90BF90AF9032
:1024F0009F908F907F9008954F925F926F927F92FE
:102500008F929F92AF92BF92CF92DF92EF92FF9203
:102510000F931F93DF93CF930F920F92CDB7DEB738
:102520008C012C01EE24A5E58A2EA8E09A2E880EB7
:10253000991EF5E4CF2EF8E0DF2EC80ED91EEBE68B
:10254000AE2EE8E0BE2EA80EB91E3E010894611C16
:10255000711C33C078E0F72E30E040E050E0F60127
:1025600080819181F801E80FF91FE259FF4F208126
:102570000196F6019183808380E090E0222311F49C
:1025800081E090E0042E02C0880F991F0A94E2F7C0
:10259000380F4F5F5F4F4830510509F73A83F50117
:1025A00060816E0DF982C201A30122E00E94781FB2
:1025B000F394FDE0FF1681F6E3942E2D30E0F40154
:1025C0008081918168E270E00E9496442617370767
:1025D00008F20F900F90CF91DF911F910F91FF9014
:1025E000EF90DF90CF90BF90AF909F908F907F90B3
:1025F0006F905F904F90089588E060E00E941237DE
:1026000064EF71E080E090E00E94BA3408952F9268
:102610003F924F925F926F927F928F929F92AF9272
:10262000BF92CF92DF92EF92FF920F931F93DF93AF
:10263000CF930F920F92CDB7DEB78C010C5A174F84
:1026400081E0F801808304551840C8010E94FC1203
:10265000F801EB5AF74F118210822801AA24BB24FB
:1026600088E2882E912CBBE6CB2EB8E0DB2EC00E84
:10267000D11E3E010894611C711C1F01EA2CF8E177
:10268000F9838FEF8A83F60160816A0DC201A3018D
:1026900022E00E94781FF60160816A0DC201A30149
:1026A00021E00E94591F89818F3F09F04AC0FF2411
:1026B000F8E1FF0EF98288EEF80E1A82F6016081C9
:1026C0006E0DC201A30122E00E94781FF601608115
:1026D0006E0DC201A30121E00E94591F8981882348
:1026E00081F5F8E0FF0EF9828FEF8A83F6016081B1
:1026F0006E0DC201A30122E00E94781FF9EFFF0EC8
:1027000085E0F816A9F686EB90E160E372E00E949E
:10271000CA3D86EB90E1B5014AE050E00E94983D49
:1027200086EB90E16AE372E00E94C73E9401285272
:102730003040F101808191818217930711F49182D9
:1027400080820894A11CB11C88E290E0880E991E3A
:1027500098E0A916B10409F091CF0B5A174FF80170
:10276000608171810555184086EB90E14AE050E0A8
:102770000E94FA3C86EB90E166E472E00E94C73E5C
:10278000C80140E050E46CE176E40E94D20E0F9064
:102790000F90CF91DF911F910F91FF90EF90DF90FD
:1027A000CF90BF90AF909F908F907F906F905F90F1
:1027B0004F903F902F9008952F923F924F925F92AB
:1027C0006F927F928F929F92AF92BF92CF92DF9241
:1027D000EF92FF920F931F93DF93CF93CDB7DEB7A6
:1027E000AE970FB6F894DEBF0FBECDBF6C010E944E
:1027F000FE1F88E061E00E94123788E061E00E94DD
:102800005F3685E361E00E945F3689E061E00E9407
:102810005F3689E060E00E941237C60160E00E94E6
:10282000BA0FBDE6EB2EB8E0FB2EEC0CFD1CC6018A
:1028300061E0D7014C910E943F0EACE6AA2EA8E0C1
:10284000BA2EAC0CBD1CC60162E0F50140810E94AD
:102850003F0EC60163E040E00E943F0E80E698E034
:10286000C80ED91E80E090E0A6E9B3E4F6018083AB
:102870009183A283B38380EA97EFC80ED91ED60155
:10288000ED91FC910680F781E02DC6011995BC0100
:1028900086EB90E10E94CA3D86EB90E16BE572E029
:1028A0000E94CA3DD601ED91FC910484F585E02D8E
:1028B000C6011995BC0186EB90E10E94C73E86EBEC
:1028C00090E16EE572E00E94CA3DD601ED91FC9167
:1028D0000284F385E02DC6011995BC0186EB90E1D9
:1028E0000E94C73E86EB90E161E772E00E94CA3D1C
:1028F000E5E6F8E0CE0EDF1ED6016D917D916D010B
:1029000086EB90E14AE050E00E94FA3C86EB90E1D1
:1029100068E872E00E94CA3DF601619171916F0111
:1029200086EB90E14AE050E00E94FA3C86EB90E1B1
:1029300068E872E00E94CA3DD6016D917C91E7E99A
:10294000F7EFCE0EDF1E86EB90E14AE050E00E94EA
:102950000B3D86EB90E16AE872E00E94CA3D86EB8F
:1029600090E1D5016C914AE050E00E943A3D86EB3F
:1029700090E16AE972E00E94CA3D86EB90E1F701BE
:1029800060814AE050E00E943A3D00E0F8E02F2EDE
:10299000312C2C0E3D1E2E010894411C511CEFE0E1
:1029A0006E2E712C6C0E7D1E7DE1872E912C8C0E6F
:1029B0009D1E66E1E62EF12CEC0EFD1E54E2A52EC6
:1029C000B12CAC0EBD1ECCC0C10160EA72E00E9409
:1029D000E63FC201602F4AE00E941940C101B201E6
:1029E0000E94AF3F62EA72E00E94933F9EA78DA7CC
:1029F000C301612F4AE00E9419408DA59EA5B30135
:102A00000E94AF3F66EB72E00E94933FBC0186EBF1
:102A100090E10E94DA3EC3010E944B40C2010E9435
:102A20004B40C1010E945140002339F0013081F038
:102A300040E050E060E070E019C0E12FF0E0EE0F00
:102A4000FF1FEE0FFF1FEC0DFD1DE259F74F0AC0EF
:102A5000E12FF0E0EE0FFF1FEE0FFF1FEC0DFD1D4D
:102A6000E258F74F408151816281738186EB90E19A
:102A700022E030E00E94B43EC40160EA72E00E94AD
:102A8000E63FC701602F4AE00E941940C401B70128
:102A90000E94AF3F69EB72E00E94933F9CA78BA717
:102AA000C501612F4AE00E9419408BA59CA5B50184
:102AB0000E94AF3F66EB72E00E94933FBC0186EB41
:102AC00090E10E94DA3EC5010E944B40C7010E947E
:102AD0004B40C4010E945140002339F0013081F085
:102AE00060E070E080E090E019C0E12FF0E0EE0FD0
:102AF000FF1FEE0FFF1FEC0DFD1DEA58F74F0AC038
:102B0000E12FF0E0EE0FFF1FEE0FFF1FEC0DFD1D9C
:102B1000E257F74F608171818281938125EA34ED1C
:102B200048E653E50E94A942AB01BC0186EB90E167
:102B300022E030E00E94B13E86EB90E16EEC72E064
:102B40000E94C73E1F5F002321F0013031F484E072
:102B500001C082E0181708F437CF0F5F023011F080
:102B600010E0F1CF86EB90E162ED72E00E94CA3D89
:102B70008BE698E0C80ED91E86EB90E1D6016C91E9
:102B80004AE050E00E943A3D86EB90E16FEE72E041
:102B90000E94CA3DE3E3F0E0CE0EDF1ED6014D9168
:102BA0005D916D917D916D0186EB90E122E030E0C9
:102BB0000E94B43E86EB90E16FEF72E00E94CA3D46
:102BC000F60141915191619171916F0186EB90E114
:102BD00022E030E00E94B43E86EB90E162E173E0D7
:102BE0000E94CA3DD6016C9186EB90E170E04AE00C
:102BF00050E00E94AB3D86EB90E16BE273E00E94F7
:102C0000CA3DEEEBFFEFCE0EDF1ED6016C9186EBD8
:102C100090E170E04AE050E00E94AB3D86EB90E12D
:102C200067E473E00E94CA3DE3E4F0E0CE0EDF1EED
:102C3000D6014D915D916D917D916D0186EB90E195
:102C400022E030E00E94B43E86EB90E16FE573E055
:102C50000E94CA3DF60141915191619171916F01BC
:102C600086EB90E122E030E00E94B43E86EB90E1FA
:102C700067E773E00E94CA3DF6014081518162819D
:102C8000738186EB90E122E030E00E94B43EAE9684
:102C90000FB6F894DEBF0FBECDBFCF91DF911F916D
:102CA0000F91FF90EF90DF90CF90BF90AF909F90EB
:102CB0008F907F906F905F904F903F902F900895EE
:102CC0002F923F924F925F926F927F928F929F923C
:102CD000AF92BF92CF92DF92EF92FF920F931F932A
:102CE000DF93CF93CDB7DEB765970FB6F894DEBF0D
:102CF0000FBECDBF3C016B8B23E538E0620E731E27
:102D000081E0D3018D933D018C91ECEAF7EF6E0EDB
:102D10007F1E882319F4C3010E940713FB898F2F9C
:102D200090E0FC01E05AF040E635F10508F030C7CC
:102D3000EE58FF4FEE0FFF1F0590F491E02D199410
:102D400020E438E0620E731ED3018D919C91E0EC7B
:102D5000F7EF6E0E7F1E830104591F4F892B09F078
:102D6000DDC6B3016B5A774FC30142E050E02DC17D
:102D700020E438E0620E731ED3018D919C91E0EC4B
:102D8000F7EF6E0E7F1E830104591F4F892B09F048
:102D9000C5C6D8011C926C8A7D8ACC2485E5882E14
:102DA00088E0982E860C971CBBE62B2EB8E03B2EB5
:102DB000260C371C580154C0A8E0DA2E2901F10175
:102DC0008081B201680F711D88ED9DE00E94B30AF9
:102DD00088ED9DE06D2D0E94350B88ED9DE00E94F1
:102DE000780BD1018C91B201680F711D88ED9DE0C7
:102DF00041E050E00E94890B88ED9DE00E94BD0AF1
:102E0000892B21F188ED9DE00E94C60A00E010E0C8
:102E1000E82EFF24C701002E02C0959587950A94DD
:102E2000E2F7E1E0F0E08E279F27817089838C89AB
:102E30009D89BE016F5F7F4F41E050E00E94131EED
:102E40000F5F1F4F0830110529F704C0E1E0D501DD
:102E5000EC9305C0D394FDE0DF1609F0B0CFC39426
:102E60002C2D30E0D4018D919C9168E270E00E949D
:102E700096442617370708F49FCF8AC6F301E05C13
:102E8000F74F25E538E0620E731E20813181D301B2
:102E90008D919C91EBEAF7EF6E0E7F1E8301045932
:102EA0001F4F2817390709F039C6C3010E947C1249
:102EB000D8011C926DC620E438E0620E731ED30167
:102EC0008D919C91E0ECF7EF6E0E7F1E029709F05A
:102ED00054C6D301AB5BB74F8D919C91119782592A
:102EE0009F4FF301E80FF91F0190F081E02D8C5600
:102EF00090408D939C9325E538E0620E731ED301BC
:102F00008D919C912BEA37EF620E731EE817F9073B
:102F100030F04CE650E0640E751E85E033C6CF01FC
:102F200068E270E00E9496446C01CF0168E270E0B4
:102F30000E949644062F10E0FBE6EF2EF8E0FF2EED
:102F4000E60CF71CD7018C91B801680F711D88ED54
:102F50009DE00E94B30AB601E3E076956795EA9595
:102F6000E1F770E0685F7F4F88ED9DE00E94350BD0
:102F700088ED9DE00E94780BF7018081080F111DFC
:102F800088ED9DE0B80141E050E00E94890B88ED9A
:102F90009DE00E94BD0A830104591F4F892BC1F097
:102FA00088ED9DE00E94C60A90E02C2D277002C09B
:102FB000959587952A95E2F7809581708983C3015D
:102FC000BE016F5F7F4F41E050E00E94131E70CF43
:102FD00081E0F8018083DCC520E438E0620E731ED6
:102FE000D3018D919C91E0ECF7EF6E0E7F1E03975D
:102FF00009F0C3C5D301AB5BB74F8D919C9111977D
:10300000FC01E259FF4FE60DF71D60817181F3016C
:10301000E80FF91FE059FF4F408103968D939C9371
:1030200025E538E0620E731ED3018D919C91EBEA89
:10303000F7EF6E0E7F1E830104591F4F6817790743
:1030400008F09CC2C3010E94DB1123C520E438E0D4
:10305000620E731ED3018D919C91E0ECF7EF6E0E22
:103060007F1E830104591F4F892B09F057C5D801D2
:103070001C9289E00E944537AFC420E438E0620E1C
:10308000731ED3018D919C91E0ECF7EF6E0E7F1EC5
:10309000019709F072C5D301AB5BB74F8D919C913D
:1030A0001197F301E80FF91FE259FF4F6081019674
:1030B0008D939C93830104591F4F623020F489E063
:1030C0000E941237F5CE88E084CF20E438E0620E0B
:1030D000731ED3018D919C91E0ECF7EF6E0E7F1E75
:1030E000830104591F4F892B09F018C5D8011C9280
:1030F000B301685A774FC30144E050E00E94131EA9
:1031000047C520E438E0620E731ED3018D919C9177
:10311000E0ECF7EF6E0E7F1E830104591F4F0497FA
:1031200009F0FCC4D301AB5BB74F8D919C91119713
:1031300082599F4FF301E80FF91F4081518162814D
:1031400073818A5690408D939C93C30121E00E9425
:103150004C0E9FC420E438E0620E731ED3018D91A3
:103160009C91E0ECF7EF6E0E7F1E830104591F4F18
:10317000892B09F0D3C4D8011C92B301645A774F4C
:10318000BACF20E438E0620E731ED3018D919C917A
:10319000E0ECF7EF6E0E7F1E830104591F4F04977A
:1031A00009F0BCC4D301AB5BB74F8D919C911197D3
:1031B00082599F4FF301E80FF91F408151816281CD
:1031C00073818A5690408D939C93C3010E94D20EC6
:1031D00060C420E438E0620E731ED3018D919C918F
:1031E000E0ECF7EF6E0E7F1E019709F0C6C4D30125
:1031F000AB5BB74F8D919C911197F301E80FF91FCD
:10320000E259FF4F208101968D939C9383010459CD
:103210001F4F223008F0B2C130E08BE190E0289FD0
:10322000F001299FF00D389FF00D1124E95AF14F5C
:1032300081818983D8011C92C301BE016F5F7F4FDA
:1032400041E050E05BCF20E438E0620E731ED30112
:103250008D919C91E0ECF7EF6E0E7F1E8301045977
:103260001F4F029709F05AC4D301AB5BB74F2D91A2
:103270003C911197F301E20FF31FE259FF4F808158
:103280002F5F3F4FF301E20FF31FE259FF4F6081C1
:103290002F5F3F4F2D933C930E94D52DFAC320E41E
:1032A00038E0620E731ED3018D919C91E0ECF7EF34
:1032B0006E0E7F1E019709F060C4D301AB5BB74F60
:1032C0008D919C911197F301E80FF91FE259FF4F7F
:1032D000408101968D939C93830104591F4F423086
:1032E00008F04CC1D8011C92242F30E08BE190E013
:1032F000289FF001299FF00D389FF00D1124E95A05
:10330000F14FE181442321F0413009F0ACC00AC003
:10331000F0E0EE0FFF1FEE0FFF1FE60DF71DE25965
:10332000F74FB9C0F0E0EE0FFF1FEE0FFF1FE60DE5
:10333000F71DE258F74FAFC020E438E0620E731E6D
:10334000D3018D919C91E0ECF7EF6E0E7F1E83010F
:1033500004591F4F059709F09BC3A3014B5B574FBF
:10336000DA012D913C911197F301E20FF31FE2591D
:10337000FF4FE0812F5F3F4F2D933C932150304012
:10338000D8011C92EE2321F0E13009F0F7C01AC0F9
:10339000E091580EF0E021593F4FD301A20FB31F27
:1033A000ED90FD900D911C912A563040DA012D933D
:1033B0003C93EE0FFF1FEE0FFF1FE60DF71DE259C6
:1033C000F74FD4C0E091730EF0E021593F4FD30185
:1033D000A20FB31FED90FD900D911C912A56304025
:1033E000DA012D933C93EE0FFF1FEE0FFF1FE60D4A
:1033F000F71DE258F74FBAC0E0E4F8E06E0E7F1E0A
:10340000D3018D919C91E0ECF7EF6E0E7F1E01973A
:1034100009F0B3C3D301AB5BB74F8D919C9111976A
:10342000F301E80FF91FE259FF4F408101968D9398
:103430009C93830104591F4F423008F09FC0D8016C
:103440001C92242F30E08BE190E0289FF001299F0F
:10345000F00D389FF00D1124E95AF14FE18144231A
:1034600039F0413079F080E090E0A0E0B0E017C0A2
:10347000F0E0EE0FFF1FEE0FFF1FE60DF71DEA58FD
:10348000F74F09C0F0E0EE0FFF1FEE0FFF1FE60D34
:10349000F71DE257F74F80819181A281B381898323
:1034A0009A83AB83BC83C301BE016F5F7F4F24CE81
:1034B00020E438E0620E731ED3018D919C91E0EC04
:1034C000F7EF6E0E7F1E830104591F4F059709F019
:1034D000DFC2A3014B5B574FDA012D913C9111974D
:1034E000F301E20FF31FE259FF4FE0812F5F3F4FDF
:1034F0002D933C9321503040D8011C92EE2319F0BB
:10350000E130E1F51AC0E091580EF0E021593F4F4B
:10351000D301A20FB31FED90FD900D911C912A567F
:103520003040DA012D933C93EE0FFF1FEE0FFF1F8B
:10353000E60DF71DEA58F74F19C0E091730EF0E061
:1035400021593F4FD301A20FB31FED90FD900D9174
:103550001C912A563040DA012D933C93EE0FFF1F49
:10356000EE0FFF1FE60DF71DE257F74FE082F182E5
:1035700002831383C3010E94AD110AC385E029CDE4
:10358000E0E4F8E06E0E7F1ED3018D919C91E0EC9B
:10359000F7EF6E0E7F1E830104591F4F892B09F030
:1035A000BDC2D8011C92B301605A774FA4CD20E46C
:1035B00038E0620E731ED3018D919C91E0ECF7EF21
:1035C0006E0E7F1E049709F0D8C2F301EB5BF74F34
:1035D0008081918182599F4FD301A80FB91FED902F
:1035E000FD900D911C918A56904091838083C80173
:1035F000B70120E030E040E050E00E946042181641
:1036000064F5F301EC59F74F8081882379F020E6C7
:1036100038E0620E731ED301ED92FD920D931C9360
:103620001397E0EAF7EF6E0E7F1E12C02EE938E026
:10363000620E731ED301ED92FD920D931C931397AE
:1036400022E637EF620E731E1082C3010E94AD1195
:103650004CE650E0640E751E8DC22CE630E0620E22
:10366000731E88E08FC220E438E0620E731ED3011F
:103670008D919C91E0ECF7EF6E0E7F1E8301045953
:103680001F4F892B09F04AC2D8011C9210E0F301A8
:10369000E256F74F608171818281938120E030E0B2
:1036A00040E050E00E94CF4018160CF011E0198362
:1036B000C3CD20E438E0620E731ED3018D919C913E
:1036C000E0ECF7EF6E0E7F1E019709F056C2D301B2
:1036D000AB5BB74F8D919C911197F301E80FF91FE8
:1036E000E259FF4F208101968D939C93F301E2569E
:1036F000F74F222349F080E090E0A0E0B0E0808323
:103700009183A283B38311C020E638E0620E731E5A
:10371000D3012D913D914D915C9160EA77EF660E5A
:10372000771E2083318342835383C3010E94AD11EE
:103730008CE690E0680E791E1DC220E438E0620E2F
:10374000731ED3012D913C91E0ECF7EF6E0E7F1EBE
:103750002A30310508F411C2D301AB5BB74F8D910C
:103760009C911197FC01E259FF4FE60DF71D408136
:103770005181628173814F87588B698B7A8B049654
:1037800011969C938E930497FC01EE58FF4FE60D23
:10379000F71D608171817E876D87FC01EC58FF4FBA
:1037A000E60DF71D408151816281738149875A87F7
:1037B0006B877C87F301E80FF91FE858FF4F1081F2
:1037C0000B968D939C932B30310581F065E578E065
:1037D000660E771ED3018D919C91EBEAF7EF6E0E8A
:1037E0007F1E0B962817390709F0F5C12D853E85F8
:1037F0002B54314008F0ADC06F85788989899A894A
:1038000020E030E04AE754E40E94D34020E030E476
:103810004CE157E40E94A94220E030E040E855E442
:103820000E94CF4088230CF094C06CE670E0660ED6
:10383000771ED3011C92E4E9FFEF6E0E7F1EF301A9
:10384000E05CF74F25E538E0620E731ED3018D91E1
:103850009C912BEA37EF620E731E0B96208131810B
:103860002817390719F4C3010E947C12A12E0E9467
:1038700094341B012C014CE558E0640E751ED301F5
:10388000CD90DD90ED90FC90E4EAF7EF6E0E7F1E98
:10389000F0E010FDF1E0E0E0A1FCE1E06F85788967
:1038A00089899A894D855E8509851A852B853C8590
:1038B000AF2E8E2E0E94252E0E9494346219730919
:1038C000840995090E946C417B018C012D853E8500
:1038D000B90180E090E00E946C4120E030E04AE7CE
:1038E00054E40E94A9429B01AC01C801B7010E94A7
:1038F000D34069837A838B839C83C301BE016F5F4E
:103900007F4F44E050E00E94131EC3016EE67EE04C
:1039100044E050E00E94131EC30169E87EE044E0E9
:1039200050E00E94131E40E658E0640E751EF3013D
:1039300080819181A281B38120EA37EF620E731EEC
:103940008D839E83AF83B887C301BE016B5F7F4FBA
:10395000D3CB4CE650E0640E751E81E013C120E429
:1039600038E0620E731ED3018D919C91E0ECF7EF6D
:103970006E0E7F1E830104591F4F019709F0CEC0C0
:10398000D8011C92D301AB5BB74F8D919C911197DD
:10399000F301E80FF91FE259FF4F208101968D9343
:1039A0009C9360E0211161E0C3010E94BA0FF0C056
:1039B00020E438E0620E731ED3018D919C91E0ECFF
:1039C000F7EF6E0E7F1E830104591F4F892B09F0FC
:1039D000A5C0D8011C9288E089832ECC20E438E071
:1039E000620E731ED3018D919C91E0ECF7EF6E0E89
:1039F0007F1E830104591F4F892B09F049C0D8014C
:103A00001C92E2E5F8E06E0E7F1ED3018C91EEEA87
:103A1000F7EF3BC0E0E4F8E06E0E7F1ED3018D911E
:103A20009C91E0ECF7EF6E0E7F1E019709F0A5C0A8
:103A3000D301AB5BB74F8D919C911197F301E80FC8
:103A4000F91FE259FF4F208101968D939C93F3015A
:103A5000EE5AF74F41C020E438E0620E731ED301E6
:103A60008D919C91E0ECF7EF6E0E7F1E830104595F
:103A70001F4F892B69F4D8011C92E3E5F8E06E0E24
:103A80007F1ED3018C91EDEAF7EF6E0E7F1EA4CF5F
:103A900086E0D8018C937CC0E0E4F8E06E0E7F1ED7
:103AA000D3018D919C91E0ECF7EF6E0E7F1E019794
:103AB00009F063C0D301AB5BB74F8D919C91119717
:103AC000F301E80FF91FE259FF4F208101968D9312
:103AD0009C93F301ED5AF74F222319F081E0808384
:103AE00045C0108243C020E438E0620E731ED3014B
:103AF0008D919C91E0ECF7EF6E0E7F1E83010459CF
:103B00001F4F892B59F4D8011C9288E00E94453739
:103B10001982892B09F090CB81E05ECF86E059CAEB
:103B200020E438E0620E731ED3018D919C91E0EC8D
:103B3000F7EF6E0E7F1E019701F5D301AB5BB74F18
:103B40008D919C911197F301E80FF91FE259FF4FF6
:103B5000208101968D939C93222321F0C3010E9422
:103B6000FC1204C088E061E00E9412372CE630E0CD
:103B7000620E731ED3011C9207C02CE630E0620E69
:103B8000731E86E0D3018C93E4E9FFEF6E0E7F1E77
:103B9000C3016B890E9492222CE630E0620E731EF4
:103BA000D3018C9165960FB6F894DEBF0FBECDBFE2
:103BB000CF91DF911F910F91FF90EF90DF90CF9009
:103BC000BF90AF909F908F907F906F905F904F903D
:103BD0003F902F900895ECE6F0E06E0E7F1ED1CF5F
:103BE000FC018CE694E091838083CF010E940D1E3E
:103BF00008950F931F938C0161E00E949D208CE635
:103C000094E0F801918380830E5A174FF8011192C6
:103C100010821F910F9108950895FC0183E994E0AB
:103C20009183808308950F931F93CF93DF938C012B
:103C300020E030E0EC01C95BD74F10C0F801E20F83
:103C4000F31F88819981E80FF91FE259FF4FDB01CB
:103C5000A20FB31F8C9180832F5F3F4F241735072E
:103C600068F388819981840F951F99838883DF91F8
:103C7000CF911F910F910895CF93DF93DC01FC0149
:103C8000E359FF4F6081EC01C459DF4F67FF0EC05D
:103C90006058608382E08883ED91FC9111976058B1
:103CA0000488F589E02DCD0119950EC0FC01E05C7A
:103CB000F74F80819181A80FB91FA359BF4F2C9155
:103CC0002883019791838083DF91CF910895CF93CB
:103CD000DF93EC01FC01E75BF74F6D3719F481E0EE
:103CE0008083DAC09081992311F080E268276E37D3
:103CF00049F4992339F4CD5BD74F19821882C35404
:103D0000D840C4C0CD5BD74F28813981C354D84037
:103D100021153105A1F4C359DF4F6883C152D84F33
:103D20008881CC54D840882309F448C0C15BD74F60
:103D30008FEF9FEF99838883CF54D8403FC02130C5
:103D40003105B1F4DE01AE5BB74FFE01E05CF74F29
:103D500067FF09C083E08C93862F90E08F77907087
:103D6000108281832BC082E08C936083118226C0F5
:103D70002230310589F4CE5BD74F8881C254D840B8
:103D8000833051F4FE01E05CF74F80819181860F12
:103D9000911D9183808312C0CE5BD74F8881F9013A
:103DA000E81BF1099A918A91C054D840E817F907A5
:103DB00028F4EC0FFD1FE259FF4F6083C45BD74F1F
:103DC0008881CC54D8408823F1F0FE01E15BF74FA5
:103DD000808191818627282F22952827022E2695DB
:103DE00026952025022E269520252770082E892F1E
:103DF000269507942795902D822706942795902540
:103E0000822791838083FE01ED5BF74F40815181D2
:103E10004F5F5F4F51834083CE5BD74F88813A918C
:103E20002A91280F311D2C966881CC54D840862FBA
:103E300090E0880F991F280F391F4217530731F55B
:103E400011821082CB5BD74F199219921982188276
:103E5000C754D840662341F0C15BD74F8881998110
:103E6000CF54D840892B19F4CE010E943C1EFE018C
:103E7000E55BF74F9081992349F0C359DF4F905884
:103E80008881CD56D040891709F41082FE01E75B86
:103E9000F74F808181111082DF91CF9108958CE8D6
:103EA0009DE00E94320808958CE89DE00E942B0856
:103EB00008951F93CF93DF93EA0188ED9DE0422F91
:103EC0000E948D0B10E009C088ED9DE00E94C60A9B
:103ED000FE01E10FF11D80831F5F88ED9DE00E94D0
:103EE000BD0A892B89F7812FDF91CF911F9108950A
:103EF000FF920F931F93CF93DF93142F052FF22E72
:103F000088ED9DE00E94A90A212F302FC901EC0104
:103F100010E006C088ED9DE069910E94350B1F5F9F
:103F20001F15C0F388ED9DE00E94780BDF91CF91C3
:103F30001F910F91FF900895DF92EF92FF920F93E0
:103F40001F93DF93CF930F92CDB7DEB77C01D62EB0
:103F500088E089838701095B174F43C088ED9DE0A6
:103F60000E94A90A88ED9DE00E94780B8823B1F594
:103F7000DD2071F0F80180819181F701E80FF91FD0
:103F8000E259FF4F298120830196F80191838083B4
:103F900086EB90E16FE873E00E94CA3D86EB90E10A
:103FA00069814AE050E00E94283D86EB90E163EA97
:103FB00073E00E94CA3D86EB90E1698140E150E0E8
:103FC0000E94283D86EB90E168EA73E00E94C73EBC
:103FD00061E070E080E090E00E94BA3489818F5FF8
:103FE00089836981683708F4B9CF0F90CF91DF9149
:103FF0001F910F91FF90EF90DF900895AF92BF92C5
:10400000CF92DF92EF92FF920F931F93DF93CF93A4
:1040100000D00F92CDB7DEB77C016E010894C11CB1
:10402000D11C56010FE010E0D701ED91FC91008802
:10403000F189E02DC701B8011995F50181935F0160
:104040000F5F1F4F0331110579F789819A81AB8189
:10405000BC818F5F9F4FAF4FBF4FD9F480E092EC90
:10406000A1E0B0E089839A83AB83BC830FE010E0CA
:10407000D701ED91FC910288F389E02DC701B801C9
:10408000D6014D916D0119950F5F1F4F0331110539
:1040900079F749815A816B817C8186EB90E10E949E
:1040A000BA3988ED9DE00E94910B0E94670A0E9438
:1040B0006107870108591F4FF8016083718382836C
:1040C000938386EB90E16AEA73E00E94CA3DD801CF
:1040D0004D915D916D917C9186EB90E122E030E015
:1040E0000E94B13E86EB90E16CEB73E00E94C73E0C
:1040F0000F900F900F900F90CF91DF911F910F9124
:10410000FF90EF90DF90CF90BF90AF900895CF9346
:10411000DF93EC0108C086EB90E10E94723A682FB1
:10412000CE010E94671E86EB90E10E94413A18166C
:1041300019068CF3DF91CF9108957F928F929F9211
:10414000AF92BF92CF92DF92EF92FF920F931F93A5
:10415000CF93DF93FC0183E994E091838083E45B58
:10416000F74F608339971182108236961082399703
:1041700011821082359611921192118210823A9614
:104180001082AA24BB24882499248CE89DE0B501E0
:104190000E942B08182FB501695F7F4F8CE89DE0C6
:1041A0000E942B08E401EE24FF24C12EDD24C094DC
:1041B000D094082F10E000951095C633D105B4F4C3
:1041C000B6010E2C02C0759567950A94E2F76170EE
:1041D0008C2F0E945F36B8010E2C02C07595679532
:1041E0000A94E2F761708C2F0E9412370894E11C48
:1041F000F11C219688E0E816F104F9F60894A11C58
:10420000B11C88E090E0880E991E97E0A916B104D1
:1042100009F0BBCFDF91CF911F910F91FF90EF90ED
:10422000DF90CF90BF90AF909F908F907F90089538
:104230001F93162F862F8D57823050F486EB90E116
:104240006DE70E94AB3A60E2612786EB90E102C025
:1042500086EB90E10E94AB3A1F9108958F929F9256
:10426000AF92BF92CF92DF92EF92FF920F931F9384
:10427000CF93DF93EC01BEE6EB2EF12CE80EF91E96
:1042800000E010E0A0E48A2EA8E09A2E880E991E85
:10429000FCE4AF2EF8E0BF2EA80EB91EEDE4CE2E42
:1042A000E8E0DE2EC80ED91E2AC0F50180818823E1
:1042B000F1F0F7012081F601808191818227282F7A
:1042C00022952827022E269526952025022E269512
:1042D00020252770082E892F269507942795902D45
:1042E0008227069427959025822791838083CE018B
:1042F000F70161917F010E9418210F5F1F4FF401A8
:10430000808191810817190708F4CFCFF5018081CA
:10431000882369F08E01035B174FCE01F80160819D
:104320000E941821F8016181CE010E941821C05C11
:10433000D74F19821882279619821882DF91CF9160
:104340001F910F91FF90EF90DF90CF90BF90AF90B3
:104350009F908F9008950F931F93CF93DF93EC015D
:10436000062FFC01E05CF74FC95BD74F888199812C
:104370009183808386EB90E16EE70E94AB3A2596AD
:104380008881CC54D8408823F9F0C35BD74F8FEF96
:104390009FEF8027282F22952827022E26952695E5
:1043A0002025022E269520252770082E892F269558
:1043B00007942795902D822706942795902582278C
:1043C00099838883CD54D840CE01602F0E94182154
:1043D000DE01A05CB74F2D913C911197FE01E45B8B
:1043E000F74F2038310530F580818823F1F0FE0148
:1043F000E35BF74F808191818227282F2295282720
:10440000022E269526952025022E269520252770FA
:10441000082E892F269507942795902D822706949C
:1044200027959025822791838083CE01C05CD74F4A
:10443000688149C08081882309F437C03068FE0153
:10444000E35BF74F808191818327282F22952827CE
:10445000022E269526952025022E269520252770AA
:10446000082E892F269507942795902D822706944C
:104470002795902582272C918227282F229528275F
:10448000022E269526952025022E2695202527707A
:10449000082E892F269507942795902D822706941C
:1044A000279590258227918380838E01005C174F8A
:1044B000F801208131813068CE01632F0E941821DC
:1044C000CE01F80160810E941821DF91CF911F91E8
:1044D0000F9108950F931F93DF93CF930F92CDB752
:1044E000DEB78C016983DC01A95BB74F8D919C918C
:1044F0001197F801E80FF91FE259FF4F6083019609
:104500008D939C93F801E359FF4FC80160810E948D
:10451000AB21C8010E942E210F90CF91DF911F91F6
:104520000F9108956F927F929F92AF92BF92CF9218
:10453000DF92EF92FF920F931F93DF93CF93CDB74C
:10454000DEB76C970FB6F894DEBF0FBECDBF7C010F
:104550006DB67EB670E0CB01805890408F319105EA
:1045600008F0D5C688539F4FD701A05CB74FFC0118
:10457000EE0FFF1F0590F491E02D19948D919C9101
:10458000892B09F0F6C5D701ED91FC910280F381EA
:10459000E02DC70119958C01D701ED91FC910280A6
:1045A000F381E02DC7011995DC010D900020E9F79A
:1045B000AD0141505040481B590B20E030E0B7019D
:1045C000695B774F11C0F701E20FF31FDB018D919B
:1045D0009C91E80FF91FE259FF4FD801A20FB31FBA
:1045E0008C9180832F5F3F4F2417350760F35BC1A9
:1045F0008D919C91892B09F0BCC5D701ED91FC915F
:104600000480F581E02DC70119958C01D701ED914A
:10461000FC910480F581E02DC7011995DC010D9016
:104620000020E9F7AD0141505040481B590B20E0F4
:1046300030E0B701695B774F11C0F701E20FF31F5C
:10464000DB018D919C91E80FF91FE259FF4FD801D2
:10465000A20FB31F8C9180832F5F3F4F2417350724
:1046600060F321C18D919C91892B09F082C5D701FE
:10467000ED91FC910680F781E02DC70119958C0121
:10468000D701ED91FC910680F781E02DC7011995C6
:10469000DC010D900020E9F7AD0141505040481B6E
:1046A000590B20E030E0B701695B774F11C0F7018B
:1046B000E20FF31FDB018D919C91E80FF91FE25986
:1046C000FF4FD801A20FB31F8C9180832F5F3F4F04
:1046D0002417350760F3E7C08D919C91892B09F071
:1046E00048C5D701ED91FC910084F185E02DC7010B
:1046F00019958C01D701ED91FC910084F185E02D95
:10470000C7011995DC010D900020E9F7AD0141507A
:104710005040481B590B20E030E0B701695B774FF0
:1047200011C0F701E20FF31FDB018D919C91E80F9F
:10473000F91FE259FF4FD801A20FB31F8C9180835C
:104740002F5F3F4F2417350760F3ADC08D919C91CB
:10475000892B09F00EC5D701ED91FC910284F385F8
:10476000E02DC70119958C01D701ED91FC910284D0
:10477000F385E02DC7011995DC010D900020E9F7C4
:10478000AD0141505040481B590B20E030E0B701CB
:10479000695B774F11C0F701E20FF31FDB018D91C9
:1047A0009C91E80FF91FE259FF4FD801A20FB31FE8
:1047B0008C9180832F5F3F4F2417350760F373C0C0
:1047C0008D919C91892B09F0D4C4D701ED91FC9176
:1047D0000484F585E02DC70119958C01D701ED9171
:1047E000FC910484F585E02DC7011995DC010D903D
:1047F0000020E9F7AD0141505040481B590B20E023
:1048000030E0B701695B774F11C0F701E20FF31F8A
:10481000DB018D919C91E80FF91FE259FF4FD80100
:10482000A20FB31F8C9180832F5F3F4F2417350752
:1048300060F339C08D919C91892B09F09AC4D701FE
:10484000ED91FC910684F785E02DC70119958C0147
:10485000D701ED91FC910684F785E02DC7011995EC
:10486000DC010D900020E9F7AD0141505040481B9C
:10487000590B20E030E0B701695B774F11C0F701B9
:10488000E20FF31FDB018D919C91E80FF91FE259B4
:10489000FF4FD801A20FB31F8C9180832F5F3F4F32
:1048A0002417350760F3FB0180819181840F951FE8
:1048B0005DC48D919C91892B09F05BC420E030E0B0
:1048C000B701695B774FF701E20FF31FDB014D91F1
:1048D0005C91E40FF51FE259FF4FD901AC57BB4F74
:1048E0008C9180832F5F3F4F2A30310561F7465FFF
:1048F0005F4F1FC28D919C91870104591F4F0297F2
:1049000009F0D6C3D701AB5BB74F2D913C911197FE
:10491000F701E20FF31FE259FF4F80812F5F3F4FF6
:10492000F701E20FF31FE259FF4F60812F5F3F4F06
:104930002D933C930E945F36B8C38D919C91870163
:1049400004591F4F029709F0B3C3D701AB5BB74FB0
:104950002D913C911197F701E20FF31FE259FF4FA0
:1049600080812F5F3F4FF701E20FF31FE259FF4FA6
:1049700060812F5F3F4F2D933C930E94123795C368
:104980008D919C91870104591F4F019709F090C3A5
:10499000D701AB5BB74F2D913C911197F701E20F17
:1049A000F31FE259FF4F80812F5F3F4F2D933C93C0
:1049B0000E9445378983D701A95BB74F2D913C9160
:1049C0001197F701E20FF31FE259FF4F80832F5F2A
:1049D0003F4F2D933C9369C38D919C91870104595E
:1049E0001F4F029709F064C3D701AB5BB74F2D91FE
:1049F0003C911197F701E20FF31FE259FF4F8081BD
:104A00002F5F3F4F11963C932E9322593F4FF70152
:104A1000E20FF31F608171812C5630402D933C933F
:104A20000E947F3542C32CE630E0E20EF31E86E0A2
:104A3000F701808324E93FEFE20EF31E2D913C91B4
:104A40002230310508F463C4ADB69EB6D701AB5B26
:104A5000B74F8D919C911197F701E80FF91FE2591B
:104A6000FF4FB08001968D939C938DB79EB78B19A5
:104A700091090FB6F8949EBF0FBE8DBFCDB6DEB6BE
:104A80000894C11CD11C2230310519F491E0B916EB
:104A9000D9F08B2D90E003962817390709F096C0BE
:104AA00013C08D919C911197F701E80FF91FE259FE
:104AB000FF4F2081019611969C938E93F601E30F90
:104AC000F11D20833F5F04C030E0D701AB5BB74FDF
:104AD0003B1538F3A0E4B8E0EA0EFB1EF701808135
:104AE000918120EC37EFE20EF31E029701F1F701FE
:104AF000EB5BF74F8081918182599F4FD701A80FBF
:104B0000B91F0D911C918C5690409183808333E0A6
:104B1000093E130770F08CE690E0E80EF91E89E07C
:104B2000D7018C93E4E9FFEFEE0EFF1E4FC001E0CA
:104B300010E02CE630E0E20EF31ED7011C92109339
:104B4000740D0093730DE2E0F0E0EE0EFF1EF092A4
:104B5000700DE0926F0D22E93FEFE20EF31E80E050
:104B60000E94A60531E0B31629F4D6018C910E946B
:104B7000C00512C0D092770DC092760DB092790D1B
:104B800010927A0D83E096E090937C0D80937B0DDC
:104B9000F60180810E94E9050E94F5072091730DBE
:104BA0003091740D8091710D9091720D8217930761
:104BB000C9F70E94A307F701E95BF74F000F111F28
:104BC00080819181080F191F118300838A2D992DEF
:104BD0009C010FB6F8943EBF0FBE2DBF98C38D91B8
:104BE0009C91870104591F4F039709F08DC3D7018A
:104BF000AB5BB74F8D919C911197FC01E259FF4F30
:104C0000EE0DFF1D60817181F701E80FF91FE0597A
:104C1000FF4F408103968D939C93D701ED91FC91BA
:104C20000288F389E02DC70119956BC38D919C9182
:104C3000870104591F4F029709F066C3D701AB5B88
:104C4000B74F8D919C91119782599F4FF701E80FB3
:104C5000F91F608171818C5690408D939C93D70190
:104C6000ED91FC910088F189E02DC70119958983A8
:104C7000D701A95BB74F2D913C911197F701E20F36
:104C8000F31FE259FF4F80832F5F3F4F2CC38D915D
:104C90009C91029709F06DC2D701AB5BB74F8D9124
:104CA0009C911197F701E80FF91FE259FF4F6081BE
:104CB0000196F701E80FF91FE259FF4FA080019616
:104CC0008D939C938E01015F1F4FC8010E94120AB1
:104CD000C8010E943E08DD24B02EC12E8E01095F5E
:104CE0001F4F8B2D9C2DB8010E947C09D394AD14CD
:104CF000C0F7882341F120E030E0B701695B774FCE
:104D00008E01095F1F4FF701E20FF31FDB014D9189
:104D10005C91E40FF51FE259FF4FD801A20FB31FBA
:104D20008C9180832F5F3F4F2830310561F7485FBA
:104D30005F4FFB01518340832CE630E0E20EF31E0F
:104D4000D7011C92A6C22CE630E0E20EF31E85E0ED
:104D50009EC28D919C910B9709F00BC2D701AB5B62
:104D6000B74F8D919C911197F701E80FF91FE25908
:104D7000FF4F6081019611969C938E9347E0C42E5D
:104D8000D12CCC0EDD1EAD01C601BC2CA92E8E018E
:104D9000015F1F4FFA0180819181F701E80FF91F30
:104DA000E259FF4F20810196FA0191838083F60139
:104DB00021936F01E017F10769F78D919C9111978D
:104DC000F701E80FF91FE259FF4F10810196F70133
:104DD000E80FF91FE259FF4F008101968D939C93D4
:104DE000C6010E94120AC6010E943109C6016B2D3C
:104DF0007A2D0E941009C601612F40E00E94D00860
:104E000010E03FE0A32EB12CAC0EBD1E27E4C22E55
:104E100028E0D22ECE0CDF1C13C0C5010E947F08F3
:104E20008983D6012D913C911197F701E20FF31F71
:104E3000E259FF4F80832F5F3F4F2D933C931F5FBD
:104E4000101758F3ECE6F0E0EE0EFF1E79CF8D91CF
:104E50009C910B9709F08DC1D701AB5BB74F8D913A
:104E60009C911197F701E80FF91FE259FF4F6081FC
:104E7000019611969C938E9397E0C92ED12CCC0E5F
:104E8000DD1EAD01C601BC2CA92E8E01015F1F4F96
:104E9000FA0180819181F701E80FF91FE259FF4F74
:104EA00020810196FA0191838083F60121936F019D
:104EB000E017F10769F78D919C911197F701E80FC1
:104EC000F91FE259FF4F00810196F701E80FF91F22
:104ED000E259FF4F108101968D939C93C6010E9469
:104EE000120AC6010E943109C6016B2D7A2D0E945B
:104EF0001009C601602F412F0E94D0081DCF8D914F
:104F00009C91029709F0BEC1D701AB5BB74F8D9161
:104F10009C911197F701E80FF91FE259FF4F60814B
:104F20000196F701E80FF91FE259FF4FC080019683
:104F30008D939C9388ED9DE04C2D0E948D0BDD247C
:104F40008701095B174F14C088ED9DE00E94C60AD7
:104F50008983D8012D913C911197F701E20FF31F3E
:104F6000E259FF4F80832F5F3F4F2D933C93D394A3
:104F700088ED9DE00E94BD0A892B31F78701045915
:104F80001F4FDC1409F4BDC181E0BFC18D919C911C
:104F9000029708F4EEC087010B5B174FD8018D9183
:104FA0009C911197F701E80FF91FE259FF4F6081BB
:104FB00001968D939C9388ED9DE00E94A90ADD24C3
:104FC00080E4A82E88E0B82EAE0CBF1C12C0F801F9
:104FD00080819181F701E80FF91FE259FF4F60814D
:104FE0000196D8018D939C9388ED9DE00E94350B2E
:104FF000D3942D2D30E0F501808191810197281700
:10500000390728F388ED9DE00E94780B95CE8D91AD
:105010009C91870104591F4F019709F049C0D7019E
:10502000AB5BB74F2D913C911197F701E20FF31F46
:10503000E259FF4F80812F5F3F4F2D933C930E9499
:10504000480A33C08D919C91870104591F4F0197E5
:1050500079F5D701AB5BB74F2D913C911197F701D3
:10506000E20FF31FE259FF4F80812F5F3F4F2D93D7
:105070003C930E94560A19C08D919C918701045956
:105080001F4F0197A9F4D701AB5BB74F2D913C910E
:105090001197F701E20FF31FE259FF4F80812F5F55
:1050A0003F4F2D933C930E94510AD8011C922FC16F
:1050B00086E0F80180832BC18D919C91019709F0C6
:1050C00058C0D701AB5BB74F8D919C911197F701F9
:1050D000E80FF91FE259FF4F208101968D939C93B1
:1050E0002EBD0DB407FEFDCF2EB52983D701A95BD8
:1050F000B74F8D919C911197F701E80FF91FE25975
:10510000FF4F208301968D939C9316CE8D919C9199
:10511000892B79F526E630E0E20EF31ED7016D917A
:105120007C91EAE9FFEFEE0EFF1E870120E030E000
:10513000A701495B574F10C0F701E20FF31FDA01D7
:105140008D919C91E80FF91FE259FF4FD8011196FC
:105150008C9180832F5F3F4F0F5F1F4F26173707BC
:1051600058F3FA0180819181860F971F9183808384
:10517000E3CD2CE630E0E20EF31E88C08D919C91C9
:10518000870104591F4F892B09F0BEC080917F0D04
:105190009091800DA091810DB091820D8B839C83A5
:1051A000AD83BE83DE011396A701495B574FFA0119
:1051B00020813181F701E20FF31FE259FF4F8B810C
:1051C00083C08D919C91870104591F4F049709F06A
:1051D0009BC0D701AB5BB74F2D913C9111972259E2
:1051E0003F4FF701E20FF31F60817181828193814C
:1051F0002A5630402D933C930E94020582C08D9127
:105200009C91870104591F4F892B09F07DC00E9492
:10521000FB0489839A83D701A95BB74F2D913C91F9
:105220001197F701E20FF31FE259FF4F81938A8133
:1052300080832E5F3F4F57C08D919C91029711F54F
:10524000D701AB5BB74F8D919C91119782599F4FBE
:10525000F701E80FF91F0190F081E02D8C56904086
:105260008D939C93CF010297870104591F4F069796
:1052700038F48E2F0E94F20480E00E94B20541C0F3
:1052800085E043C0ECE6F0E0EE0EFF1E86E0D701BD
:105290008C93E4E9FFEFEE0EFF1E39C08D919C91D7
:1052A000870104591F4F892B79F5D701A859BF4FA2
:1052B000A701495B574FFA0120813181F701E20FC5
:1052C000F31FE259FF4F8C91819311968C911197A6
:1052D000819312968C911297819313968C9180836F
:1052E0002C5F3F4FDA012D933C930BC08D919C9125
:1052F000870104591F4F892B39F4C70161E00E94CF
:105300009C1FF801108203C086E0D8018C938701AE
:1053100004591F4FC701F80160810E946A22D80119
:105320008C910FB6F8947EBE0FBE6DBE6C960FB614
:10533000F894DEBF0FBECDBFCF91DF911F910F91CB
:10534000FF90EF90DF90CF90BF90AF909F907F90B5
:105350006F9008951092580E1092730E08952F9228
:105360003F924F925F926F927F928F929F92AF92F5
:10537000BF92CF92DF92EF92FF920F931F93DF9332
:10538000CF93CDB7DEB764970FB6F894DEBF0FBEEC
:10539000CDBF2F83388749875A87EB86FC860D87D8
:1053A0001E87D88ACF86BA8AA98A0E94A94220E09D
:1053B00030E04AE754E40E94D3409B01AC010E94D4
:1053C00058405B016C0120E030E040E050E00E947A
:1053D000604288234CF0C601B50120E030E040E097
:1053E0005FE30E94584008C0C601B50120E030E0EC
:1053F00040E05FE30E9457400E943B410E946E41A3
:1054000020E030E040E05FE30E94A9426B837C83B0
:105410008D839E836B817C818D819E812F813885D8
:1054200049855A850E94D3402B853C854D855E85F4
:105430000E94A9420E94BC400E9440417A83698335
:1054400084C329813A81B90180E090E00E946C41D7
:105450002B813C814D815E810E94D3402F81388514
:1054600049855A850E94A9423B014C01EF85F88984
:1054700060837183828393832B853C854D855E8514
:105480000E94604218160CF45BC3C401B3012F8163
:10549000388549855A850E94D3407B018C0160E0A4
:1054A00070E080E090E4A80197010E94D3405B0186
:1054B0006C0120E030E040E050E00E946042882330
:1054C0004CF0C601B50120E030E040E05FE30E940F
:1054D000584008C0C601B50120E030E040E05FE37D
:1054E0000E9457400E943B410E946E41A8019701D3
:1054F0000E94A9429B01AC0160E070E080E090E472
:105500000E94574020E030E040E050E00E946042BE
:105510001816A4F5C601B50120E030E040E050E0E7
:105520000E94604288234CF0C601B50120E030E0C3
:1055300040E05FE30E94584008C0C601B50120E08A
:1055400030E040E05FE30E9457400E943B410E94F0
:105550006E41A80197010E94A9429B01AC0160E045
:1055600070E080E090E40E9457402DEC3CEC4CEC65
:105570005DE30E94CF4087FDE3C234C0C601B501A0
:1055800020E030E040E050E00E94604288234CF090
:10559000C601B50120E030E040E05FE30E945840E2
:1055A00008C0C601B50120E030E040E05FE30E94A2
:1055B00057400E943B410E946E41A80197010E9402
:1055C000A9429B01AC0160E070E080E090E40E94A1
:1055D00057402DEC3CEC4CEC5DEB0E946042181601
:1055E0000CF4AEC26F81788589859A859B01AC01E8
:1055F0000E9458409B01AC01C401B3010E94CF40FE
:1056000088230CF079C16F81788589859A85A401FA
:1056100093010E94D3401B012C011C8A1B8A2B89F9
:105620003C89B90180E090E00E946C415B016C0113
:10563000C201B101A60195010E94574020E030E06F
:1056400040E05FE30E94CF40181634F48B899C89B8
:1056500001969C8B8B8BE3CFC601B501A40193010E
:105660000E94A9429B01AC016F81788589859A854A
:105670000E9457405B016C0120E030E040E050E0C8
:105680000E946042181624F0D7FAD094D7F8D0942C
:10569000C401B301A60195010E94D3403B014C0116
:1056A00060E070E080E090E4A40193010E94D340A8
:1056B0005B016C0120E030E040E050E00E9460427D
:1056C00088234CF0C601B50120E030E040E05FE304
:1056D0000E94584008C0C601B50120E030E040E01B
:1056E0005FE30E9457400E943B410E946E41A4012B
:1056F00093010E94A9429B01AC0160E070E080E050
:1057000090E40E94574020E030E040E050E00E94EA
:1057100060421816A4F5C601B50120E030E040E073
:1057200050E00E94604288234CF0C601B50120E0A1
:1057300030E040E05FE30E94584008C0C601B50178
:1057400020E030E040E05FE30E9457400E943B4190
:105750000E946E41A40193010E94A9429B01AC01E9
:1057600060E070E080E090E40E9457402DEC3CEC5B
:105770004CEC5DE30E94CF408823ACF5E1C1C6014B
:10578000B50120E030E040E050E00E946042882314
:105790004CF0C601B50120E030E040E05FE30E943C
:1057A000584008C0C601B50120E030E040E05FE3AA
:1057B0000E9457400E943B410E946E41A401930108
:1057C0000E94A9429B01AC0160E070E080E090E49F
:1057D0000E9457402DEC3CEC4CEC5DEB0E9460428B
:1057E00018160CF4ADC1C801B70120E030E040E06C
:1057F00050E00E94604288234CF0C801B70120E0CD
:1058000030E040E05FE30E94584008C0C801B701A3
:1058100020E030E040E05FE30E9457400E943B41BF
:105820000E946E419B01AC01C801B7010E94574024
:1058300020E030E040E050E00E946042181674F52D
:10584000C801B70120E030E040E050E00E94604233
:1058500088234CF0C801B70120E030E040E05FE36E
:105860000E94584008C0C801B70120E030E040E085
:105870005FE30E9457400E943B410E946E419B01A2
:10588000AC01C801B7010E94574027E137EB41ED59
:1058900058E30E94CF4088237CF552C1C801B7016C
:1058A00020E030E040E050E00E94604288234CF06D
:1058B000C801B70120E030E040E05FE30E945840BB
:1058C00008C0C801B70120E030E040E05FE30E947B
:1058D00057400E943B410E946E419B01AC01C801B0
:1058E000B7010E94574027E137EB41ED58EB0E948A
:1058F000604218160CF424C1C801B70120E030E062
:1059000040E251E40E94CF4088230CF089C0C801D6
:10591000B70120E030E040E050E00E946042882380
:105920004CF0C801B70120E030E040E05FE30E94A6
:10593000584008C0C801B70120E030E040E05FE314
:105940000E9457400E943B410E946E419B01AC0166
:10595000C801B7010E94574020E030E040E050E02D
:105960000E946042181674F5C801B70120E030E0CB
:1059700040E050E00E94604288234CF0C801B7012B
:1059800020E030E040E05FE30E94584008C0C801DA
:10599000B70120E030E040E05FE30E9457400E9402
:1059A0003B410E946E419B01AC01C801B7010E94BE
:1059B000574027E137EB41ED58E30E94CF40882361
:1059C0007CF5BEC0C801B70120E030E040E050E007
:1059D0000E94604288234CF0C801B70120E030E00B
:1059E00040E05FE30E94584008C0C801B70120E0D2
:1059F00030E040E05FE30E9457400E943B410E943C
:105A00006E419B01AC01C801B7010E94574027E1DC
:105A100037EB41ED58EB0E94604218160CF490C031
:105A2000C801B7012B813C814D815E810E94A94252
:105A30005B016C0120E030E040E050E00E946042F9
:105A400088234CF0C601B50120E030E040E05FE380
:105A50000E94584008C0C601B50120E030E040E097
:105A60005FE30E9457400E943B410E946E419B01B0
:105A7000AC01C601B5010E94574020E030E040E093
:105A800050E00E946042181674F5C601B50120E08E
:105A900030E040E050E00E94604288234CF0C601B4
:105AA000B50120E030E040E05FE30E94584008C0CC
:105AB000C601B50120E030E040E05FE30E945740BE
:105AC0000E943B410E946E419B01AC01C601B501A1
:105AD0000E94574027E137EB41ED58E30E94CF4049
