:100000000C9433070C945B070C945B070C945B0710
:100010000C945B070C945B070C945B070C945B07D8
:100020000C945B070C945B070C945B070C945B07C8
:100030000C945B070C945B070C945B070C945B07B8
:100040000C94B8230C945B070C940B260C94592643
:100050000C945B070C945B070C945B070C945B0798
:100060000C940B0D0C945B0708000000BE92244911
:10007000123EABAAAA2ABECDCCCC4C3E00000080DA
:10008000BEABAAAAAA3E00000000BF000000803F4D
:100090000000000000084178D3BB4387D1133D190D
:1000A0000E3CC3BD4282AD2B3E68EC8276BED98F3A
:1000B000E1A93E4C80EFFFBE01C4FF7F3F0000007E
:1000C000000007634236B79BD8A71A39685618AEA6
:1000D000BAAB558C1D3CB7CC5763BD6DEDFD753E7D
:1000E000F6177231BF000000803F457874656E736B
:1000F000696F6E206D6F64756C652070726F746FC0
:10010000636F6C00302E3100576865656C65722036
:100110004D6963726F666C756964696373204C61C5
:1001200062005369676E616C2047656E6572617429
:100130006F7220426F61726400312E3200302E33B4
:100140002E3000687474703A2F2F6D6963726F6679
:100150006C7569646963732E75746F726F6E746FFA
:100160002E63612F64726F70626F7400FFFFFFFF78
:10017000FBF7F2F9EAEFEDCBF2B9BABDA6CAA1924C
:10018000BC8A83C5EFB5857AD97199DEAB9FBB95E3
:100190009492968083BA67975E598D9B546473538B
:1001A00068938A806B6C4A6077524C5946627A4DEC
:1001B0004F464250495D433055375747393D4737E1
:1001C000464B582B37442F2840373D3024272125D4
:1001D000252C1D291B2833272E2125213131201EB6
:1001E0001D17191722282213212420132213131458
:1001F0001C111717131B101E161119171918171198
:10020000170F170E14110C130D0D0F0B0F0C0B14F1
:100210000C0B0C130C090D0A090A090D0E0B0D101D
:10022000090F0A0707070606090D08080A0B080741
:100230000608080505050705050606050606060560
:10024000080808050404050505060303030305055E
:10025000030304040404030303030303030303036A
:10026000030303030303040404020202FFFFFFFF6E
:10027000FBF6F2E3E9DCD6F1C3F6ECE0F6C3ECFB07
:10028000BCF7FBA180A3D6E17AE2A16B868B728AD0
:1002900086837B8B83599B669EA16256997C688B73
:1002A0006B494B4E5A56795A4662665467473754E3
:1002B0004F5658464A384B653752323B47403542D5
:1002C000322D2549372B3C44292E28313F384037E1
:1002D000352B3F2B3F291F27202B25281A19252690
:1002E000262E292B1C171A2D191618271524232002
:1002F000162319181C131F10151A1112101010159F
:100300000F160E160F11170E141310150F12130AD5
:1003100010110F090E120C0F100E0F0A090B09070E
:100320000C070A0E0D0D0E0E09060909070608092D
:100330000A07070B0A0A070909070708060606073E
:100340000404040607070505050407070707040456
:10035000060604040404050404040404040403035A
:10036000030303030303020202030303010808BF9C
:100370000302BF59060303AF6D06B206AA1705971D
:1003800018598C22DA0F57650A0F12090B0F5E19E4
:10039000159397430C0B0F24381B220C0E23BB45DF
:1003A00026F1112EB297771F6D2892596E4EDD14EB
:1003B0002181593DC7779320975986519F32165B0B
:1003C0001EC14723C1296159881B19211CC7B2D9F5
:1003D000A36B452557593FB36D29B893B25B302BBA
:1003E0007D251F556D9DEB2E6C3A59754F285FAAE0
:1003F0004D5F474A5B43445E6424B12D2E3A5B4017
:1004000093E740C8974727A786A1798537EECE9D09
:100410004B4CAD3CB5446548475E9E36A7C29B63D6
:100420006DC359B34469D752EF597AAB38ECA9433D
:100430004665CB6EA3D53C9163538781575B596862
:10044000DD4ADFADC7425D755C3F8951B2607341E3
:1004500041FBAA597DA1434D3E837BD3D1A3B5CEA9
:10046000EB574497D847895153BB45549E4CA4A39E
:10047000AED2AA50AD4EB245D5644A575F5986B840
:10048000817CBCB5644EEF68666365CD5C6EB36419
:100490009C61928D93D99A56A3D7F36B4D838EA40A
:1004A000FB7A76A986C5A15953828578ABB377B11B
:1004B000C8D59DA98B59987E696C9BB6B5C1889AA1
:1004C0006BA3978AC5AA5EA19EBCD8C9B3DCE8D944
:1004D00092FF67A3C787C3A6B2C3EBA288AA6086B0
:1004E0006B83A4C564D6B26084758E61679861A47D
:1004F000A9E5B9EFB2AA6377CBF5DC979C7A658959
:10050000D6A4C5B0C382777D87D999C2CD8D92C15B
:10051000B270B9F981AB99747ACA9E85C7F884AF75
:1005200095BDEE71B8DB7EDCCED0D2E7A0D5C07A27
:100530009DEEDEE2BBA674A3AA9475877DB1B8B523
:10054000DE8EEFC589C279B7F6859099D1D0A381A7
:10055000AA81B98EEBC6AECCE1F397B892C8ADF4E0
:100560008982C5DBB596D5C18A83C1DA9ED8D78486
:10057000CDD0CA8D91F9EDBE8F9798F1ADB1A2D7CC
:10058000BE9ADB9C9188ABF38BBEC6B197CDB2BE51
:10059000EDA7BEB0CCA98E93BD9CD7BDC8D3E597BF
:1005A000EFA4B3AF9198C6F2CAD5CDD7B8ADA79A8C
:1005B000A1ABF5DAE1B9C2B0B2A09BAAC4F8D9C028
:1005C0009AB3DDA7EA97D7CDA2B8D6B69A9EA5D999
:1005D000FBCBA4F9CDD4A3BFECEBBFC8D3D0C5BC33
:1005E000BFEEB2BFF2F1D3B5B7BFD0DED5F4DFD6E0
:1005F000EECDB1C2C7B9D5F2BFBBA9DADFC5EFAB4B
:10060000B8D0A9DFD2E7C4C8F0AFEAC1ECE6CDE8C4
:10061000BFCBB9C6F7EABFD8DFF6FFCEC5C8FFAF7C
:10062000BCCBADC7FAD0BCDCCEF9C9C4FAE7DCD28A
:10063000E8F1B1BAF6F5B2F7DDD3FFC5C7BFFFD019
:10064000C3C5FFC3CBCEC3FEEBD0D8C6BFC0E6BF89
:10065000F0BECEC0DDE7C0E0BFCFC5D8C8F8D6CE6B
:10066000C1D4C0FAF4D7EAFAD5C1C2F5CEEBFBD7B4
:10067000C2D2CDEEF3C4E5FEEBC5EFD2C5E6D2ECB7
:10068000CFF0EEEBCBEFCEEADCEFD7D1F1F6D9CD60
:10069000CAD7D2E0CBEDDDFEF7DBE7F1F7EBD0CD4B
:1006A000EEE9FADAEDE6D9D4EBF4DBF8D7D3F1FED4
:1006B000D9D4DEE2DAF3D7EAF5D6EFF7F4DFD9F7EB
:1006C000F4E1EBD6F4E3DCD7E1E5DDDFE3EDF8D9E7
:1006D000F2DDDFF5F1DEF7DBE9FAE2F4FCFAF7F33D
:1006E000DFE2E5E9FCF9E6F1E1F9E7FEFBF9F5FE09
:1006F000FBE7F4E2FBF8EDE3E6F8E3E4E7EBFFFE0B
:10070000E8ECFFE6E9EEFFE7EAF0E7FEFAE8E8FEEC
:10071000FAFFFFFEFAFFFFEBEFEBEBFEF1ECECFE76
:10072000F9FFFFFEF7EEEEEFEFEFEFFEFFFFFFFE4C
:10073000F1F1F1F2FFFFFFF3FFFFFFFEF4F4F4FE2F
:10074000F5F5F5F6F6F6F6FEFFFFFFF8FFFFFFFE04
:10075000F9F9F9FAFFFFFFFEFFFFFFFCFCFCFCFFCD
:10076000FFFFFFFFFFFFFFFFFFFFFFFF010810017B
:10077000559F020555BFD404078A059F062FE5083B
:10078000350F0A2B076A1311B27B6ADBB98C175934
:100790006D101025D4EDB24C326A56F9DA59112F8A
:1007A000570ECA4C14181F7923611B2D253513D5FC
:1007B0008322324A172720952037253E2067ED3ABD
:1007C000B21C4D9E1D8A3B412BDBEFB7DA1F231D68
:1007D000273C5EB14C4B6B263FA92630284F97AA89
:1007E0003BC9F259463121AA49895A4567CD57314B
:1007F0006D5978745F82815E59F933CAC79F6692DA
:10080000402995304089FB3B4A3E534CB92B32423C
:100810008B8A3DB13B9E6B979A7546CE433A49739E
:10082000693B8241AC70379132876347DA3449B90A
:10083000B27C3E734E3CD659839D616698929681F8
:100840003DB73D4F45D1957798DF67AF50957DDE39
:10085000DF3A56A5765CDEC2F2737B48495E554BA3
:1008600042B3E66849DF74C5C156EAC167D764651B
:100870005F4F62D161D85FF650ABE8C6B6C3825F06
:10088000888E5E62B2E54BADB1B7B459C7A767B900
:1008900077C0808580577BDD75594FB4FB9489778D
:1008A0004EA1A77594657CE1F29B98A97772AC7410
:1008B0006761847B96EB8AA7C9C48975766F9E8C25
:1008C000CA85909E6F81EA898C76676F7D666168C4
:1008D0009B59DD8C73AA768B82776390AC8AF5B0D6
:1008E000DDB59179EF7087FBB7CFABFBEDA1FD963E
:1008F000926C86688C93FDD37C6773A8A3D1FDBBF3
:10090000789D839385C8DBD1C279AC8881BCB68AD7
:1009100096EF916CD19EB1EADF87ADCE8A6FD19E02
:10092000BA9375F79880DF808988877BB28695EBCC
:10093000B77982809BAFFBB3ACC6FBDAECA7A1A46E
:1009400086D27D98DB9BF9A57BE4D3C79293BCEE5E
:10095000B5EFA7DA849DB3998B81D0ABD89EB782CF
:10096000E8F5A292B1D697A7EAF7A895CE9798F89E
:10097000A09EA3EAE4858CAFE9DDDC8BC2BED09DEE
:10098000B2DC9BDAEBFBC88DF7B5AEC3E5A9C3B704
:1009900093D1B8C7ACD0F8F0BBE3A5BCB2A99CED2D
:1009A00096DBC9CEF9EEB796B4ABB2AAC7D4DCEFEA
:1009B000E5D897AAA5C9C0D4D2EAF2DDC098AEC5E1
:1009C000F6D4ACE4A3FDB2BBEDD1B4D4FBF5EBB3EC
:1009D0009BC0EE9DBFB9F1CEA7A8CFC6BCBFCAD4FD
:1009E000D1A8E1D2A6A7BFDFDDD4C3B7BFA7B7BFE9
:1009F000ACC8E8D4CFDFC2ABD9DEF6BFBBD4AFF50D
:100A0000E4CAF9BDC9B7D8D4B1F3B6DDB5BAD1B926
:100A1000E1D4E9DAAFB9E3C9C3B1ABD4DEDBACFBF7
:100A2000EAD9FFDEB1D5ECCAD8B3DEE4B3C2CCD686
:100A3000C2BBFFF3B8B9FFB8CED8B3E8E6F0B4DD77
:100A4000ECEAB5EDE4E1EEB7C6E0D8ECF5F4CCF6AF
:100A5000C4F8E5F6D6CDF7D4F9E6F2DDEFC1E0E96A
:100A6000F9E3FBC1C6E1CFC2E4FCFBC7EDD0C3E4B0
:100A7000FDEAF0CFCBFCD8C3D3FCD0EDFDD9EED44A
:100A8000F2D1D3D6F8D3F5D8E6D4ECF3D3CFEBF943
:100A9000FDEEF4E5FDD9E9CBD1ECE0D7D2DDFAFEED
:100AA000DBE0D1F0DDE4F2F8E0D8F1D5F6FBDCD103
:100AB000F5FBF0ECF5DCF9E5DBFBE1DADDF2F9DB87
:100AC000DEF1E7FEDFF0F8FEF3EFF8F6F2E8DEFE27
:100AD000E4FAF8E2E6FAE1FEEFDFF7E5DEE0E3E76D
:100AE000FCF9F6F2E0E3F6EBFCE4F6E0E3E5E9E13D
:100AF000E4F8EBFEE5E8F3FEFBE9FFFEFBF7E4E5D7
:100B0000FBF7E5FEFBF6E6FEFBF5FFE8ECFFFFE991
:100B1000EDE9E9EAEEEAEAFEFAFFFFECF9FFFFEDA4
:100B2000F2EDEDEEF5FFFFFEFFFFFFF0F0F0F0F16C
:100B3000FFFFFFFEF2F2F2FEF3F3F3F4FFFFFFF527
:100B4000FFFFFFFEFFFFFFF7F7F7F7FEF8F8F8F9F2
:100B5000FFFFFFFEFAFAFAFBFBFBFBFEFFFFFFFDC8
:100B6000FDFDFDFEFEFEFEFFFFFFFFFF766F7574CD
:100B70005F706B5F706B28293D0068665F616D7008
:100B80006C69747564655F636F7272656374696FB5
:100B90006E3D0077617665666F726D5F6672657136
:100BA00075656E63793D00696E6465783D007761B7
:100BB0007665666F726D5F766F6C746167653D0018
:100BC00029204572726F723A204241445F56414C6F
:100BD0005545007365745F77617665666F726D5F0A
:100BE000766F6C746167652800706F745B002028F5
:100BF0007361766520746F20454550524F4D290032
:100C0000706F745B00766F75745F706B5F706B28CC
:100C100029007365745F77617665666F726D5F76C4
:100C20006F6C7461676528007365745F77617665C2
:100C3000666F726D5F6672657175656E63792800A7
:100C40007365745F706F7428007365745F68665FA6
:100C5000616D706C69747564655F636F72726563F2
:100C600074696F6E28006D61785F766F6C74616770
:100C7000655F726D733D0068665F616D706C69746D
:100C80007564655F636F7272656374696F6E3D0052
:100C9000706F745B00636F6E6669675F7665727311
:100CA000696F6E3D0066726565206D656D6F727966
:100CB0003D00737461636B3D00686561703D002E9B
:100CC0006273733D002E646174613D0072616D3D1D
:100CD000006932635F616464726573733D007365BC
:100CE0007269616C5F6E756D6265723D004572720E
:100CF0006F7220007365745F70726F6772616D6DE3
:100D0000696E675F6D6F646528007365745F7365F6
:100D10007269616C5F6E756D6265722800736574CF
:100D20005F6932635F616464726573732800636F27
:100D30006E66696728290072657365745F636F6EFC
:100D400066696728290070726F6772616D6D696EE0
:100D5000675F6D6F64653D00737570706F7274735B
:100D60005F4953503D66616C736500737570706FB9
:100D70007274735F4953503D747275650073657288
:100D800069616C5F6E756D6265723D0070726F6750
:100D900072616D6D696E675F6D6F64653D0069328C
:100DA000635F616464726573733D00626173655F64
:100DB000636F6E6669675F76657273696F6E3D001B
:100DC0004669726D7761726520760000000000242C
:100DD0000027002A0000000000250028002B00004A
:100DE0000000002300260029000404040404040475
:100DF00004020202020202030303030303010204CA
:100E0000081020408001020408102001020408108C
:100E1000200000000700020100000304060000009B
:100E20000000000000494E46494E4954594E414E7B
:100E3000CDCCCC3D0AD7233C17B7D13877CC2B3259
:100E40009595E6241FB14F0A000020410000C842DA
:100E500000401C4620BCBE4CCA1B0E5AAEC59D7439
:100E6000350C060FC52711241FBECFEFD8E0DEBF1B
:100E7000CDBF11E0A0E0B1E0EAEFF2E602C00590DC
:100E80000D92A63AB107D9F714E0A6EAB1E001C085
:100E90001D92A833B107E1F71EE0C6E6DEE004C00C
:100EA0002297FE010E942131C036D107C9F70E9466
:100EB000A80B0C947B310C940000CF93DF93BC0102
:100EC0008230910510F462E070E0A0913404B0919A
:100ED0003504ED01E0E0F0E040E050E021C0888121
:100EE00099818617970769F48A819B81309719F059
:100EF0009383828304C09093350480933404FE016D
:100F000034C06817790738F44115510519F0841772
:100F1000950708F4AC01FE018A819B819C01E901DF
:100F20002097E9F641155105A9F1CA01861B970BD7
:100F3000049708F4BA01E0E0F0E02AC08D919C919A
:100F4000119784179507F9F46417750781F41296C1
:100F50008D919C911397309719F09383828304C0ED
:100F60009093350480933404FD0132964CC0CA013D
:100F7000861B970BFD01E80FF91F61937193029790
:100F80008D939C9340C0FD01828193819C01D90186
:100F90001097A1F68091320490913304892B41F48B
:100FA0008091680190916901909333048093320499
:100FB00040916A0150916B014115510541F44DB7C3
:100FC0005EB78091660190916701481B590B209193
:100FD000320430913304CA01821B930B86179707A2
:100FE00080F0AB014E5F5F4F8417950750F0420FC2
:100FF000531F5093330440933204F901619371936A
:1010000002C0E0E0F0E0CF01DF91CF910895CF93EF
:10101000DF93009709F450C0EC0122971B821A82DB
:10102000A0913404B0913504109709F140E050E0EC
:10103000AC17BD0708F1BB83AA83FE012191319152
:10104000E20FF31FAE17BF0779F48D919C911197B2
:10105000280F391F2E5F3F4F3983288312968D91B9
:101060009C9113979B838A834115510571F4D0930A
:101070003504C093340420C012968D919C9113972F
:10108000AD01009711F0DC01D3CFFA01D383C28305
:1010900021913191E20FF31FCE17DF0769F48881A8
:1010A0009981280F391F2E5F3F4FFA01318320832A
:1010B0008A819B8193838283DF91CF910895A0E001
:1010C000B0E0E5E6F8E00C9446316C01009729F4B5
:1010D000CB010E945D076C01C1C08EEF882E8FEF9F
:1010E000982E8C0C9D1C8601060F171F08151905DC
:1010F00008F4B2C0F401A081B181A617B707B8F017
:10110000A530B10508F4AAC0CD010497861797074A
:1011100008F4A4C01297A61BB70BF801A193B193D2
:10112000D4016D937C93CF010E94070897C07B0187
:10113000EA1AFB0AEEEFFFEFEE0EFF1E36016A0E13
:101140007B1EC0913404D091350444245524AA2434
:10115000BB244AC0C615D705E1F5488159814E1513
:101160005F05B8F1CA0104978E159F05B0F4129679
:10117000A40FB51FF401B183A0832A813B814114E0
:10118000510431F0D20113963C932E93129766C00E
:10119000309335042093340461C08A819B81F80127
:1011A00093838283425050404E195F09518340839C
:1011B0004114510431F0D20113961C930E931297EF
:1011C00004C01093350400933404F40171836083E8
:1011D00045C088819981A816B90608F45C012E01E2
:1011E0008A819B819C01E901209709F0B3CF80910E
:1011F00032049091330486159705E9F4A616B706D4
:10120000D0F420916A0130916B012115310541F430
:101210002DB73EB78091660190916701281B390B6D
:1012200002171307C8F41093330400933204D40157
:101230006D937C9313C0CB010E945D07EC01009776
:1012400059F0F40140815181B6010E945D09C60147
:101250000E9407086E0102C0CC24DD24C601CDB770
:10126000DEB7E0E10C946231662777270C94160A0A
:10127000FC0188279927E89421912032E9F329304D
:1012800010F02E30C8F32B3241F02D3239F468942F
:1012900004C00E94D309820F911D219120532A304E
:1012A000C0F31EF4909581959F4F0895FB01DC01DA
:1012B00005900D920020E1F70895FB01DC0102C0CA
:1012C00001900D9241505040D8F70895FC01819152
:1012D000861721F08823D9F7992708953197CF01F0
:1012E0000895FB01DC018D91019080190110D9F363
:1012F000990B0895FB01DC0101900D920020E1F7AC
:101300000895FB0151915523A9F0BF01DC014D91D6
:1013100045174111E1F759F4CD010190002049F042
:101320004D9140154111C9F3FB014111EFCF81E00F
:1013300090E001970895A0E0B0E0E1EAF9E00C94B4
:101340004E317C01EB018A01690109C0CE01219671
:10135000F6010995F70181937F01015010400115B5
:101360001105A1F7CDB7DEB7E8E00C946A31A0E033
:10137000B0E0EDEBF9E00C944E31EC017B018A0119
:10138000690109C0CE012196F70161917F01F60143
:1013900009950150104001151105A1F7CDB7DEB731
:1013A000E8E00C946A317AE0979F902D879F802D1A
:1013B000910D11240895FA01CF93FF93EF932230FA
:1013C000CCF02532BCF4C22F2C2F332744275527CD
:1013D000FF93EF930E94FD30EF91FF91605D6A33C0
:1013E0000CF0695D6193B901CA01605070408040A2
:1013F000904051F710828F919F91CF910C948E0B5A
:10140000FB019F01423074F0453264F4642F77276A
:101410000E943031805D8A330CF0895D8193CB016D
:101420000097A1F71082C9010C948E0BA0E0B0E0E8
:10143000ECE1FAE00C944A31EC015B0161157105B5
:1014400019F0FB0191838083F9908F2D90E00E9429
:101450002531892BC9F7FDE2FF1621F4F990EE241E
:10146000E39405C02BE2F21609F4F990EE248E0104
:1014700001501040C80165E27EE043E050E00E9468
:10148000760B892B01F58E010E5F1F4FC80168E2B4
:101490007EE045E050E00E94760B892B19F48E0126
:1014A000095F1F4FA114B10419F0F50111830083E6
:1014B000E0FC04C070E090E080E814C070E090E0D0
:1014C00080E86FEF08C1C8016DE27EE043E050E0C4
:1014D0000E94760B892B69F4A114B10429F470E001
:1014E00090E080EC6FE7F7C02296F501D183C083CE
:1014F000F6CF8824992440E050E060E070E0EF2DC2
:10150000E053EA30A0F5F2E0EF2A8E2D90E09C0146
:1015100028703070E2FE06C0232B79F50894811CF8
:10152000911C2BC0232B19F0089481089108DB0132
:10153000CA0112E0880F991FAA1FBB1F1A95D1F785
:10154000480F591F6A1F7B1F440F551F661F771FC7
:101550004E0F511D611D711D483929E9520729E9B6
:10156000620729E1720748F084E0E82A06C0EE3FEE
:1015700031F4E3FC39C098E0E92AF990C0CFE533B3
:1015800011F0E53189F529912D3219F4E0E1EE2AC7
:1015900005C02B3219F081E090E003C0299182E070
:1015A00090E0E22FE053EA3018F0C81BD90B1CC0C2
:1015B00020E030E0FCE020383F075CF4C901880FF0
:1015C000991F880F991F280F391F220F331F2E0FC5
:1015D000311DE991E053EA3068F3E4FE03C0309531
:1015E00021953F4F820E931ECE2CDD24E1FE07C0D5
:1015F000A114B10421F02197F501D183C083CB015F
:10160000BA010E94FF2D7B018C01F3E0CF22DD2483
:1016100023E0C216D10421F417FB109517F9109599
:1016200057016801C801B70120E030E040E050E018
:101630000E94622D882309F44AC097FE0DC024E45D
:10164000E22E2EE0F22E9094819491089394C0E2C1
:10165000D0E000E010E012C09CE5E92E9EE0F92EFB
:10166000F6CFF7012591359145915491C601B50109
:101670000E94002F5B016C018C1A9D0A8C169D063E
:1016800084F7D595C7950F5F1F4F0630110529F0D8
:101690008CEF9FEFE80EF91EF1CFC501D6017C015A
:1016A0008D018C2D880F8D2D881F8F3F51F0C60125
:1016B000B50120E030E040E050E00E94622D882338
:1016C00031F482E290E090933704809336047E2DCB
:1016D0009F2D802F612F272F392F482F562FB9018B
:1016E000CA01CDB7DEB7ECE00C946631FB01DC013A
:1016F0004150504088F08D9181341CF08B350CF4B2
:10170000805E659161341CF06B350CF4605E861B65
:10171000611171F3990B0895881BFCCFDC01FC016A
:10172000672F71917723E1F7329704C07C916D9315
:1017300070836291AE17BF07C8F308958AE692E0FE
:101740000E94E32208958AE692E00E94D616089548
:10175000CF93DF930E9467240E94A30BC6E4D6E2D6
:101760000E949E0B2097E1F30E944626F9CFF9993B
:10177000FECF72BD61BDF89A80B50895F999FECF8C
:101780001FBA72BD61BD40BD0FB6F894FA9AF99ABE
:101790000FBE08952091C80130E08091C701281B39
:1017A0003109C90108954091C7018091C8014817C6
:1017B00018F02FEF3FEF0AC0E42FF0E0E955FE4F9D
:1017C0008081282F30E04F5F4093C701C901089501
:1017D000E091C7018091C801E81718F0EFEFFFEF23
:1017E00006C0F0E0E955FE4F8081E82FF0E0CF0120
:1017F00008950895AC012091EE013091EF0121157B
:101800003105E1F09091C7018091C8019817B0F0BF
:1018100090E008C0FA01EA0FFB1F8081A955BE4F76
:101820008C939F5FA92FB0E0A617B7079CF3109287
:10183000C7016093C801CB01F90109950895E091B2
:10184000EC01F091ED01309729F01092E90110922E
:10185000EA01099508957093EF016093EE010895F0
:101860007093ED016093EC0108951092F3011092D2
:10187000F20188EE93E0A0E0B0E08093F401909351
:10188000F501A093F601B093F70181E791E0909301
:10189000F1018093F0010895CF92DF92EF92FF92D1
:1018A0000F931F93CF93DF937C016B018A0180918B
:1018B000EB018823A1F0C0E0D0E00DC0D701ED918D
:1018C000FC91D601AC0FBD1F0190F081E02DC70146
:1018D0006C9109952196C017D10780F304C0CB0104
:1018E000642F0E94E60CC801DF91CF911F910F91E8
:1018F000FF90EF90DF90CF900895DF93CF930F92FA
:10190000CDB7DEB7FC0169838091EB018823C9F074
:101910008091EA01803238F081E090E09383828305
:1019200020E030E015C08091E901E82FF0E0E753B6
:10193000FE4F998190838F5F8093E9018093EA0144
:1019400005C0CE01019661E00E94E60C21E030E086
:10195000C9010F90CF91DF9108951092C7011092A5
:10196000C8011092E9011092EA010E94CC0C08957E
:101970000F931F938C01862F0E94E20C8FE19CE055
:101980000E94060D8AEF9BE00E94010DC8010E9493
:10199000AD0C1F910F9108951092FC0181E080938E
:1019A000FE011092FF01E9EBF0E080818E7F8083E1
:1019B00080818D7F808388E48093B80085E4809364
:1019C000BC000895880F8093BA000895482F6132B3
:1019D00010F081E008958091FC01843011F082E0E4
:1019E000089560934702A6E2B2E0842F9C01F901BA
:1019F00002C081918D938E2F841B8617D0F380E0D7
:101A00000895909303028093020208959093010237
:101A10008093000208951F920F920FB60F92112427
:101A20002F933F934F935F936F937F938F939F93E6
:101A3000AF93BF93EF93FF938091B90090E0887FBD
:101A400090708036910509F4F2C081369105CCF58D
:101A50008832910509F47BC089329105B4F4803154
:101A6000910509F46FC0813191053CF4009709F4A8
:101A700047C1089709F04FC165C08831910509F445
:101A800066C0809709F047C182C08034910509F48F
:101A9000A4C08134910544F48033910509F482C0D7
:101AA000C89709F038C189C08035910509F489C00B
:101AB0008835910509F496C08834910509F02BC149
:101AC000AEC08839910509F413C189399105ECF448
:101AD0008837910509F4ABC0893791054CF48836F5
:101AE000910509F4A4C08037910509F014C19FC085
:101AF0008838910509F4FCC08039910509F49DC02E
:101B00008038910509F007C198C0803B910509F420
:101B1000C6C0813B91054CF4803A910509F49FC001
:101B2000883A910509F0F7C0BAC0803C910509F4E4
:101B3000E3C0883C910509F4DFC0883B910509F0BA
:101B4000EAC0C2C08091FD018093BB00CFC09091DC
:101B5000240280912502981768F490912402E92FBD
:101B6000F0E0EC5FFD4F80818093BB009F5F90931E
:101B70002402BCC08091FE01882309F44BC085ED8E
:101B80008093BC008091BC0084FDFCCFC2C080E289
:101B90008093690285ED8093BC008091BC0084FD38
:101BA000FCCFB7C080E38093690285ED8093BC00D1
:101BB0008091BC0084FDFCCFACC088E380936902B7
:101BC0009BC0809124029091BB00E82FF0E0EC5F75
:101BD000FD4F90838F5F8093240290912402809127
:101BE000250282C0809124029091BB00E82FF0E092
:101BF000EC5FFD4F90838F5F809324028091FE0104
:101C0000882341F085ED8093BC008091BC0084FD69
:101C1000FCCF7FC081E08093FF0184EA6EC085ED38
:101C20008093BC008091BC0084FDFCCF72C083E037
:101C30008093FC011092680259C080916802803242
:101C400008F056C0809168029091BB00E82FF0E048
:101C5000E85BFD4F90838F5F8093680247C080915F
:101C60006802803230F4E0916802F0E0E85BFD4FFA
:101C7000108285ED8093BC008091BC0084FDFCCF78
:101C80001092FC0160916802E0910202F09103025F
:101C900088E492E070E00995109268022DC084E01B
:101CA0008093FC011092460210924702E0910002DC
:101CB000F0910102099580914702882329F481E07F
:101CC000809347021092260290914602E92FF0E09D
:101CD000EA5DFD4F80818093BB009F5F9093460239
:101CE0009091460280914702981710F485EC01C04C
:101CF00085E88093BC000FC085EC8093BC0009C0D0
:101D00001092690285ED8093BC008091BC0084FD37
:101D1000FCCF1092FC01FF91EF91BF91AF919F9189
:101D20008F917F916F915F914F913F912F910F9084
:101D30000FBE0F901F901895CF93DF9390E0FC019A
:101D4000E751F24FE491F0E0EE0FFF1FEB52F24F3C
:101D5000C591D49170E0FB01E751F24FE491F0E0BE
:101D6000EE0FFF1FEB52F24FA591B4918350924FAB
:101D7000FC0154916350724FFB016491E62FE09592
:101D8000752F70954423A9F498E030E020FF03C03C
:101D90008881852B02C08881872388838C91862B3C
:101DA0008C938C918E238C939150B1F0359527951F
:101DB000ECCF98E027FF03C08881852B02C0888183
:101DC000872388838C91862B8C938C918E238C9384
:101DD000915011F0220FEECFDF91CF91089581E065
:101DE00008959C01F999FECF32BD21BDF89A80B5C6
:101DF00008959C01F999FECF1FBA32BD21BD60BD87
:101E00000FB6F894FA9AF99A0FBE089510928B02C1
:101E100081E891E090936B0280936A020895EF92BB
:101E2000FF920F931F93CF93DF936FEFE62E63E044
:101E3000F62EC0E0D0E000E010E080E00E94A22496
:101E40009C018E159F0508F47C01C217D30708F486
:101E5000E9010F5F1F4F83E0083E180771F7CE19A5
:101E6000DF09BE0180E090E00E94FF2D2AE038E209
:101E700040EA5BE30E94002F7B018C018BE193E041
:101E80006CE67BE00E94560980E194E06BE173E030
:101E90000E94532980E194E0A701B80122E030E0DC
:101EA0000E943D2AB701C801DF91CF911F910F9188
:101EB000FF90EF9008959F92AF92BF92CF92DF92E2
:101EC000EF92FF920F931F93DF93CF93CDB7DEB7BF
:101ED000AA970FB6F894DEBF0FBECDBF7C01162FB8
:101EE000942EC22E83E060E00E94632586E065E0C8
:101EF00041E0212F0E949C0E86E065E041E0292D03
:101F00000E949C0E83E061E00E946325F701E10FCF
:101F1000F11D96AECC2049F090A6D701ED91FC9131
:101F20000288F389E02DC7010995002309F483C0D5
:101F3000CC2009F443C08BE193E060E07CE00E9498
:101F40005609A8E0AA2EB12CAC0EBD1EC5016BE14E
:101F500073E00E94FC2B6E010894C11CD11CC601C9
:101F6000612F4AE00E94922CC501B6010E94AB2B62
:101F700060E071E00E948F2B8C01FFE0EF2EF12CCE
:101F8000EC0EFD1EC701692D4AE00E94922CC8018B
:101F9000B7010E94AB2B8C018BE193E06EEE7BE0EE
:101FA0000E945609C8016BE173E00E948F2BBC01AF
:101FB00080E194E00E94962AC70135C08BE193E04E
:101FC00069EE7BE00E945609EDE1AE2EB12CAC0E1D
:101FD000BD1EC5016BE173E00E94FC2B76E1C72EAC
:101FE000D12CCC0EDD1EC601612F4AE00E94922C3E
:101FF000C501B6010E94AB2B60E071E00E948F2BFF
:102000007C018E010C5D1F4FC801692D4AE00E94C2
:10201000922CC701B8010E94AB2BBC0180E194E077
:102020000E94962AC8010E94F12CC6010E94F12C40
:10203000C5010E94F72CAA960FB6F894DEBF0FBE1A
:10204000CDBFCF91DF911F910F91FF90EF90DF9067
:10205000CF90BF90AF909F9008952F923F924F9254
:102060005F926F927F928F929F92AF92BF92CF9228
:10207000DF92EF92FF920F931F93DF93CF93CDB731
:10208000DEB72A970FB6F894DEBF0FBECDBF9A8792
:1020900089875A016B01DC01D6964D935D936D9350
:1020A0007C93D9978BE193E063E97BE00E9456092A
:1020B00080E194E06BE173E00E945329E985FA85A1
:1020C00046A957A960AD71AD80E194E022E030E00F
:1020D0000E943D2AC601B50120E030E040E052E414
:1020E0000E94002F7B018C0120E030EE41E854E497
:1020F0000E94662D0E94C02E26EA3BE944E550E48A
:102100000E94002F2EE83DE543E150E40E94662D39
:102110000E94D32D662E70E0665F7F4F882777FD83
:102120008095982F0E94012E9B01AC0160E070E029
:1021300080E090E40E94632F9B01AC01CA01B901C9
:1021400020E030EE41E055EC0E94002FA8019701FD
:102150000E94662D20E030E040E055E40E94FE2C15
:102160007B018C0120E030E040E050E00E94B12E85
:1021700088234CF0C801B70120E030E040E05FE385
:102180000E94FE2C08C0C801B70120E030E040E00A
:102190005FE30E94FD2C0E94CE2D8B0182E060E067
:1021A0000E946325C80116E0969587951A95E1F778
:1021B0006294B0EF6B22682A86E065E041E0262D4C
:1021C0000E949C0E202F220F220F226086E065E0E5
:1021D00041E00E949C0E82E061E00E946325C601FE
:1021E000B50120E030E04AE754E40E94622D181661
:1021F0008CF084E061E00E94632580E090E0A0E83C
:10220000BFE38D839E83AF83B88789839A83AB8333
:10221000BC8318C0A985BA859E968D919D910D901D
:10222000BC91A02D89839A83AB83BC8384E060E05A
:102230000E94632580E090E0A0E2B1E48D839E835C
:10224000AF83B887C601B5010E94B52E7B018C0112
:102250006D817E818F81988520E030E048EC52E4EA
:102260000E94002F0E94B52E9B01AC01C801B7014E
:102270000E94FD2C21E830E840E05CE30E94662DDE
:102280000E94D32DE62EFF24F701E459FE4F14914E
:1022900089859A8561E0412F20E001E00E945B0F73
:1022A000ACE6B2E0EA0EFB1EF701F49089859A8550
:1022B00062E04F2D20E00E945B0F612F70E080E014
:1022C00090E00E94FF2D20E030E04FE753E40E94B1
:1022D000662D20E030E543EC57E40E94002F1B01FF
:1022E0002C016F2D70E080E090E00E94FF2D20E037
:1022F00030E04FE753E40E94662D20E030E543ECE8
:1023000057E40E94002F3B014C01C601B5012BEDA3
:102310003FE049EC50E40E94002F5B016C012D81ED
:102320003E814F8158850E94662D9B01AC010E9421
:10233000002F9B01AC01CA01A20191010E94002F54
:10234000A40193010E94002F2CE03DED49E453E3EA
:102350000E94002F2FE635EA49EE51EB0E94002F34
:1023600020E030E040E85FE30E94FE2C9B01AC01DE
:102370000E94002F7B018C01C601B5012FE635EAD2
:1023800049EE51E30E94002F2D813E814F815885F7
:102390000E94662D5B016C01C201B101A401930191
:1023A0000E94FE2C9B01AC01C601B5010E94002FCA
:1023B0009B01AC010E94002F9B01AC01C801B70139
:1023C0000E94FE2C0E94B32F9B01AC0160E070E0E4
:1023D00080E89FE30E94662D7B018C0180E194E000
:1023E00063E071E00E94532980E194E0B801A70105
:1023F00022E030E00E943D2A60E070E080E093E45B
:10240000A80197010E94662D29813A814B815C8148
:102410000E94002F7B018C0120E030E040E050E082
:102420000E94B12E88234CF0C801B70120E030E0B3
:1024300040E05FE30E94FE2C08C0C801B70120E025
:1024400030E040E05FE30E94FD2C0E94CE2D462F3D
:1024500089859A8560E020E001E00E945B0F2A9662
:102460000FB6F894DEBF0FBECDBFCF91DF911F91A5
:102470000F91FF90EF90DF90CF90BF90AF909F9023
:102480008F907F906F905F904F903F902F90089526
:10249000CF92DF92EF92FF920F931F938C01DC019A
:1024A0009E964D935D936D937C93D1979BE1C92E3E
:1024B00093E0D92EC6016AE77BE00E94560980E1CD
:1024C000E82E84E0F82EC701B6010E945329F801D6
:1024D00046A557A560A971A9C70122E030E00E9476
:1024E0003D2AD801ED91FC910288F389E02DC801C5
:1024F0000995F80146A957A960AD71ADC8010E94C0
:102500002D101F910F91FF90EF90DF90CF900895C5
:10251000AF92BF92CF92DF92EF92FF920F931F93F1
:10252000DF93CF93CDB7DEB72E970FB6F894DEBF0B
:102530000FBECDBF6C017A018B01CB01BA0120E047
:1025400030E040E050E00E94622D87FD0DC0C801E0
:10255000B701D601D2962D913D914D915C91D597C1
:102560000E94B12E181614F58BE193E063ED7BE029
:102570000E94560980E194E06BE173E00E945329C8
:1025800080E194E0B801A70122E030E00E943A2AFD
:102590008BE193E060EC7BE00E94560980E194E0DF
:1025A0006BE173E00E94502A88E0B8C0F601E2AE09
:1025B000F3AE04AF15AF8BE193E06EEA7BE00E94CF
:1025C000560980E194E06BE173E00E945329D60143
:1025D000DA964D915D916D917C91DD9780E194E06B
:1025E00022E030E00E943D2AC801B701F60122A98D
:1025F00033A944A955A90E94662D20E030EC4FE78D
:1026000054E40E94002F7B018C0120E030E040E088
:1026100050E00E94B12E88234CF0C801B70120E0A1
:1026200030E040E05FE30E94FE2C08C0C801B70123
:1026300020E030E040E05FE30E94FD2C0E94CE2DC0
:102640005B018BE193E067EA7BE00E94560938E08A
:10265000E32EF12CEC0EFD1EC7016BE173E00E942E
:10266000FC2B8E010F5F1F4FC801B5014AE00E948D
:10267000612CC701B8010E94AB2BBC0180E194E042
:102680000E94962AC8010E94F12CC7010E94F72CD3
:1026900022E430E0C20ED31ED6019C91EEEBFFEF98
:1026A000CE0EDF1E950124593C4FF90184919817F5
:1026B00081F4F501E459F84FE49143E450E0C40E8D
:1026C000D51ED6018C914DEB5FEFC40ED51E8E1733
:1026D00021F1F90114912CE6E22E27E0F22EEA0C0A
:1026E000FB1C911760F4F7014491C60165E020E0FE
:1026F00001E00E945B0FC60164E0412F0BC0C601E0
:1027000064E0412F20E001E00E945B0FF70144915B
:10271000C60165E020E00E945B0F80E02E960FB6B8
:10272000F894DEBF0FBECDBFCF91DF911F910F9107
:10273000FF90EF90DF90CF90BF90AF9008950F93F0
:102740001F938C010E9430190E5D1F4F8EE190E0A7
:10275000B80144E150E029EF3EE00E94B7091F9123
:102760000F9108951F93CF93DF93EC01162F0E94D2
:102770005619CE0182966EE170E044E150E021EFFF
:102780003EE00E949B098AA19BA1892B51F48CA158
:102790009DA1892B31F48EA19FA1892B11F41123C6
:1027A00029F11BA21AA21DA21CA21FA21EA280E830
:1027B00088A789A78AA780EA8BA71CA61DA686E6FC
:1027C00096E6A6EABFE38EA79FA7A8ABB9AB80E0C9
:1027D00090E0A0EEB0E48AAB9BABACABBDABE881C4
:1027E000F9810288F389E02DCE010995DF91CF911F
:1027F0001F9108950F931F93DF93CF93CDB7DEB74B
:102800002C970FB6F894DEBF0FBECDBF8E010F5FC1
:102810001F4FC8016EE170E046E050E021EF3EE05E
:102820000E949B09DE011796F80186E001900D9247
:102830008150E1F72F81388549855A856B857C85E4
:1028400090E02C960FB6F894DEBF0FBECDBFCF91AF
:10285000DF911F910F910895EF92FF920F93DF93F5
:10286000CF9300D000D0CDB7DEB77C011092B30279
:102870001092B2021092B1021092B00281E08093E5
:10288000AE02F70180A38091AF028A3A01F18B3A40
:1028900048F4883A09F43FC0893A70F4873A09F05D
:1028A00099C02DC0883B09F464C0893B09F476C007
:1028B000873B09F08FC047C08091B4029091B50268
:1028C000892B09F083C0B7016A5C7F4F22C08091D9
:1028D000B4029091B5028430910509F077C040911F
:1028E000B7025091B8026091B9027091BA02909308
:1028F000B1028093B002C7010E942D1064C0809184
:10290000B4029091B502892B09F060C0B701665CF2
:102910007F4FC70154C08091B4029091B5028430BA
:10292000910509F053C04091B7025091B8026091EF
:10293000B9027091BA029093B1028093B002C701BC
:102940000E94881244C08091B4029091B5028130F7
:102950009105E1F56091B7029093B1028093B002C6
:1029600070E0625C7F4F6E0D7F1DC70141E050E05B
:1029700028C08091B4029091B5028230910531F562
:102980006091B7024091B8029093B1028093B00277
:10299000C70120E001E00E945B0F15C08091B402E6
:1029A0009091B502892B91F4C7010E940F0F6983A2
:1029B0007A838B839C83C701BE016F5F7F4F44E0A6
:1029C00050E00E94C817F70110A207C086E0F70187
:1029D00080A303C0C7010E94201C0F900F900F908E
:1029E0000F90CF91DF910F91FF90EF900895CF92CC
:1029F000DF92EF92FF920F931F93DF93CF93CDB7A8
:102A0000DEB760970FB6F894DEBF0FBECDBFD82EED
:102A1000C92E0E949320882309F0CBC08BE193E05C
:102A200069E47CE00E9456098D2D9C2D6BE173E0DA
:102A30000E944620882391F08D2D9C2DBE01635F5E
:102A40007F4F0E94521B882349F04D855E856F851C
:102A500078898D2D9C2D0E944812ABC08BE193E0AC
:102A600060E47CE00E9456098D2D9C2D6BE173E0A3
:102A70000E944620882309F444C019861A861B86C2
:102A80001C868D2D9C2DBE016F5F7F4F0E94B71B52
:102A90008823B9F18D2D9C2DBE016B5F7F4F0E9465
:102AA000B71B882371F18D2D9C2DBE01675F7F4F71
:102AB0000E94B71BE980FA800B811C8186E0E81632
:102AC000F10401051105E8F42D813E814F815885FF
:102AD0002F3F31054105510509F098F470E08985D3
:102AE0009A85AB85BC850097A105B10509F071E019
:102AF0008D2D9C2D6E2D422F272F01E00E945B0F04
:102B000058C08BE193E068E27CE00E9456098D2D6D
:102B10009C2D6BE173E00E944620882391F08D2D5F
:102B20009C2DBE01635F7F4F0E94521B882349F09A
:102B30004D855E856F8578898D2D9C2D0E942D1089
:102B400038C08BE193E062E17CE00E9456098D2D54
:102B50009C2D6BE173E00E944620882391F08D2D1F
:102B60009C2DBE01635F7F4F0E94521B882349F05A
:102B70004D855E856F8578898D2D9C2D0E948812EC
:102B800018C08BE193E065E07CE00E94560987EB7A
:102B900092E06BE173E00E947109009729F48D2D9A
:102BA0009C2D0E940F0F05C08D2D9C2D61E00E9471
:102BB0003E1881E060960FB6F894DEBF0FBECDBF21
:102BC000CF91DF911F910F91FF90EF90DF90CF9009
:102BD00008954F925F926F927F928F929F92AF92E1
:102BE000BF92CF92DF92EF92FF920F931F93DF93EA
:102BF000CF93CDB7DEB7AF970FB6F894DEBF0FBE59
:102C0000CDBF6C01182F0D2D0E943B218BE193E06D
:102C100065E97CE00E945609CE010E966BE173E0F7
:102C20000E94FC2BC6010E94FA132AA73BA74CA7BF
:102C30005DA76EA77FA7DE011196FE01BA9686E01A
:102C400001900D928150E1F7E7E0EE2EF12CEC0EB1
:102C5000FD1EC701612F702F09811A812B813C81D4
:102C60004D815E810E947F1A8E01025F1F4FC80155
:102C7000B7010E94AB2BBC0180E194E00E94962A30
:102C8000C7010E94F12CC8010E94F72C78E2472E60
:102C9000512C4C0C5D1CEE246CE1662E712C6C0EDC
:102CA0007D1E55E1852E912C8C0E9D1E43E2A42E97
:102CB000B12CAC0EBD1E8BE193E060E97CE00E947C
:102CC0005609C3016BE173E00E94FC2BC4016E2D19
:102CD0004AE00E94922CC301B4010E94AB2B60E039
:102CE00071E00E948F2B8C01C501F20161912F01CF
:102CF0004AE00E94922CC801B5010E94AB2BBC0196
:102D000080E194E00E94962AC5010E94F12CC40142
:102D10000E94F12CC3010E94F72CE394F6E0EF1619
:102D200051F68BE193E067E77CE00E94560980E171
:102D300094E06BE173E00E945329F60146A557A584
:102D400060A971A980E194E022E030E00E943D2A70
:102D50008BE193E066E67CE00E94560980E194E016
:102D60006BE173E00E945329F60142A953A964A9BB
:102D700075A980E194E022E030E00E943D2AAF9600
:102D80000FB6F894DEBF0FBECDBFCF91DF911F917C
:102D90000F91FF90EF90DF90CF90BF90AF909F90FA
:102DA0008F907F906F905F904F900895EF92FF9279
:102DB0000F931F93CF93DF93EC010E943B2382E09C
:102DC00061E00E94242583E061E00E94242584E0E4
:102DD00061E00E94242585E061E00E94242586E0D0
:102DE00061E00E942425F8E2EF2EF12CEC0EFD1E8E
:102DF00010E0CE01612FF70141917F0120E000E05A
:102E00000E945B0F1F5F1630A1F7CE0140E050E03B
:102E10006AE774E40E942D10CE0140E050E060E0CB
:102E200070E00E9488128BE193E06CEC7CE00E94E1
:102E3000560980E194E06BE173E00E9453296FEF43
:102E400078E06050714080E194E04AE050E00E94F8
:102E500034298BE193E065EC7CE00E94560980E127
:102E600094E06BE173E00E94532966EA71E06050E0
:102E7000714080E194E04AE050E00E9434298BE107
:102E800093E06FEB7CE00E94560980E194E06BE1F7
:102E900073E00E94532968E374E0665A714080E150
:102EA00094E04AE050E00E9434298BE193E069EB22
:102EB0007CE00E94560980E194E06BE173E00E949F
:102EC000532960913204709133046115710519F42E
:102ED00060E070E002C06853744080E194E04AE032
:102EE00050E00E9434298BE193E062EB7CE00E9489
:102EF000560980E194E06BE173E00E9453298DB79D
:102F00009EB76FEF78E0681B790B80E194E04AE0B0
:102F100050E00E9434298BE193E065EA7CE00E9456
:102F2000560980E194E06BE173E00E94532980919F
:102F3000320490913304009729F46DB77EB768533B
:102F4000744004C06DB77EB7681B790B80E194E0D4
:102F50004AE050E00E943429DF91CF911F910F91F8
:102F6000FF90EF9008959C01F999FECF32BD21BDED
:102F7000F89A80B508959C01F999FECF1FBA32BD29
:102F800021BD60BD0FB6F894FA9AF99A0FBE089564
:102F9000CF93DF93A091B202B091B302ED01C95477
:102FA000DD4F20E030E007C0FB01E20FF31F80811E
:102FB00089932F5F3F4F24173507B0F3A40FB51F38
:102FC000B093B302A093B202DF91CF910895CF9254
:102FD000DF92EF92FF920F931F93DF93CF93CDB7C2
:102FE000DEB72E970FB6F894DEBF0FBECDBF6C01D3
:102FF000DC0118966C9380EF91E00E94B80C0BE115
:1030000013E0C80161ED7CE00E94560988E0E82EDB
:10301000F12CEC0EFD1EC701B8010E94FC2B8E01A5
:103020000F5F1F4FC801F60160854AE00E94922C95
:10303000C701B8010E94AB2BBC0180E194E00E9463
:10304000962AC8010E94F12CC7010E94F72CD601D4
:10305000ED91FC910288F389E02DC60109952E9629
:103060000FB6F894DEBF0FBECDBFCF91DF911F9199
:103070000F91FF90EF90DF90CF900895DF92EF9245
:10308000FF920F931F93DF93CF93CDB7DEB72E97A9
:103090000FB6F894DEBF0FBECDBFD62E0BE113E006
:1030A000C8016DEE7CE00E94560998E0E92EF12CF3
:1030B000EC0EFD1EC701B8010E94FC2B8E010F5FB4
:1030C0001F4FC8016D2D4AE00E94922CC701B80124
:1030D0000E94AB2BBC0180E194E00E94962AC801BB
:1030E0000E94F12CC7010E94F72C2E960FB6F8947F
:1030F000DEBF0FBECDBFCF91DF911F910F91FF902B
:10310000EF90DF900895CF92DF92EF92FF920F93AE
:103110001F93DF93CF93CDB7DEB72E970FB6F894FA
:10312000DEBF0FBECDBF6C01DC0119966C930BE1C5
:1031300013E0C80166E47DE00E94560928E0E22E13
:10314000F12CEC0EFD1EC701B8010E94FC2B8E0174
:103150000F5F1F4FC801F60161854AE00E94922C63
:10316000C701B8010E94AB2BBC0180E194E00E9432
:10317000962AC8010E94F12CC7010E94F72CD601A3
:10318000ED91FC910288F389E02DC60109952E96F8
:103190000FB6F894DEBF0FBECDBFCF91DF911F9168
:1031A0000F91FF90EF90DF90CF900895CF92DF9234
:1031B000EF92FF920F931F93DF93CF93CDB7DEB7BC
:1031C0002E970FB6F894DEBF0FBECDBF6C01DC01A9
:1031D0001A964D935D936D937C931D970BE113E0CD
:1031E000C8016EED7CE00E94560938E0E32EF12C18
:1031F000EC0EFD1EC701B8010E94FC2BF6014285B2
:103200005385648575858E010F5F1F4FC8012AE0C5
:103210000E942F2CC701B8010E94AB2BBC0180E19A
:1032200094E00E94962AC8010E94F12CC7010E94D6
:10323000F72CD601ED91FC910288F389E02DC601AF
:1032400009952E960FB6F894DEBF0FBECDBFCF9175
:10325000DF911F910F91FF90EF90DF90CF90089535
:10326000BC016E5F7F4F80E090E04EE150E02BEBC1
:1032700037E10E94B7090895FC018185882369F42C
:1032800083E161E00E94242583E160E00E946325E0
:1032900083E160E00E942425089587E060E00E94B9
:1032A000632587E061E00E94632508956F927F9215
:1032B0008F929F92BF92CF92DF92EF92FF920F93E5
:1032C0001F93CF93DF93EC01062F029660E070E02E
:1032D0004EE150E023EB37E10E949B098A819B81FC
:1032E000892BD9F48C819D81892BB9F48E819F81A2
:1032F000892B99F48FEF9FEFAFEFBFEF8A879B8702
:10330000AC87BD8781E090E09F838E83E881F9815F
:103310000288F389E02DCE0109958A819B81892B52
:1033200009F58C819D81892BE9F48E819F8101971C
:10333000C9F4CE010E9629E0DC01822F1D928A95F8
:10334000E9F7CE014796DC011D922A95E9F782E064
:1033500090E09F838E83E881F9810288F389E02DD4
:10336000CE0109958A819B81892B51F48C819D81A5
:10337000892B31F48E819F81029711F4002341F152
:103380001B821A821D821C8282E090E09F838E83C2
:103390008AE0888719868FEF9FEFAFEFBFEF8A87AC
:1033A0009B87AC87BD87CE010E9629E0DC01822F7A
:1033B0001D928A95E9F7CE014796DC011D922A9568
:1033C000E9F7E881F9810288F389E02DCE010995BA
:1033D000BB242AC0B4E1EB16F104DCF4F301008154
:1033E00010E00C2C02C0159507950A94E2F70170C5
:1033F000D4016C9170E00C2C02C0759567950A940D
:10340000E2F761708E2D0E9424258E2D602F0E9480
:1034100063250894C11CD11C0894E11CF11CB8E080
:10342000CB16D104B9F6B3948B2D90E0E3E0BE1631
:10343000A9F07C0163E0EE0CFF1C6A95E1F7CC2457
:10344000DD248C0F9D1F57E1652E712C680E791EAF
:103450004EE0842E912C880E991EBCCFE881F98114
:103460000484F585E02DCE010995882319F0CE015D
:103470000E943C1980EF91E068850E94B80CDF91B2
:10348000CF911F910F91FF90EF90DF90CF90BF9061
:103490009F908F907F906F9008950F931F93DF936D
:1034A000CF93CDB7DEB72C970FB6F894DEBF0FBE23
:1034B000CDBF8E010F5F1F4FC80160E070E046E096
:1034C00050E023EB37E10E949B09DE011796F801DB
:1034D00086E001900D928150E1F72F813885498572
:1034E0005A856B857C8590E02C960FB6F894DEBFEC
:1034F0000FBECDBFCF91DF911F910F9108952F92F5
:103500003F924F925F926F927F928F929F92AF9273
:10351000BF92CF92DF92EF92FF920F931F93DF93B0
:10352000CF93CDB7DEB7A2970FB6F894DEBF0FBE2C
:10353000CDBF382E292E0D8F1E8F2F8F38A349A374
:103540005AA36F8C78A049A05AA06D8D7E8D4E0134
:103550000894811C911CC4014AE00E94612CF8E08F
:10356000AF2EB12CAC0EBD1EC501B4010E94E62CDD
:10357000E9E0EE2EE1E0FE2EC501B7010E948F2B9F
:103580008C017FE0C72ED12CCC0EDD1EC601B3010D
:103590004AE00E94612CC801B6010E94AB2BB70122
:1035A0000E948F2B7C018E010A5E1F4FC801B20161
:1035B0004AE00E94612CC701B8010E94AB2BBC01FC
:1035C000832D922D0E94DB2CC8010E94F12CC60194
:1035D0000E94F12CC5010E94F72CC4010E94F12C1D
:1035E000832D922DA2960FB6F894DEBF0FBECDBFED
:1035F000CF91DF911F910F91FF90EF90DF90CF90CF
:10360000BF90AF909F908F907F906F905F904F9002
:103610003F902F900895CF92DF92EF92FF920F93F9
:103620001F93CF93DF936C01EB017A010091B002FD
:103630001091B102C80189549D4F998388836CE22F
:1036400070E00E946609FC01D7018D939C9300975E
:1036500071F488819981FC0101900020E9F731978C
:10366000E81B8E0F911DD7018D939C9303C0EF5FD4
:103670008881E81BEE2341F00E0F111D1093B1025B
:103680000093B00281E005C0C60168E00E943E18C8
:1036900080E0DF91CF911F910F91FF90EF90DF902D
:1036A000CF900895AF92BF92CF92DF92EF92FF92A8
:1036B0000F931F93DF93CF9300D000D0CDB7DEB729
:1036C0006B01ADB6BEB6BE016F5F7F4FAE014D5F01
:1036D0005F4F0E940B1B8823B1F1FDB6EEB62B8124
:1036E0003C8149815A81241B350BC90101966DB774
:1036F0007EB7681B790B0FB6F8947EBF0FBE6DBF07
:103700000DB71EB70F5F1F4FC801BA01A9010E9474
:103710005D09EB81FC8189819A81E81BF90BE00F3F
:10372000F11F1082C8010E943409F6016083718381
:10373000828393832F2D3E2DC9010FB6F8949EBF2F
:103740000FBE8DBF81E00FB6F894BEBE0FBEADBEFA
:103750000F900F900F900F90CF91DF911F910F91CD
:10376000FF90EF90DF90CF90BF90AF900895AF9211
:10377000BF92CF92DF92EF92FF920F931F93DF934E
:10378000CF9300D000D0CDB7DEB76B01ADB6BEB6DB
:10379000BE016F5F7F4FAE014D5F5F4F0E940B1BFD
:1037A0008823D1F1FDB6EEB62B813C8149815A8147
:1037B000241B350BC90101966DB77EB7681B790BC9
:1037C0000FB6F8947EBF0FBE6DBF0DB71EB70F5F6B
:1037D0001F4FC801BA01A9010E945D09EB81FC815C
:1037E00089819A81E81BF90BE00FF11F1082C80153
:1037F0000E943809AA2797FDA095BA2FF601808369
:103800009183A283B3832F2D3E2DC9010FB6F89467
:103810009EBF0FBE8DBF81E00FB6F894BEBE0FBE37
:10382000ADBE0F900F900F900F90CF91DF911F9131
:103830000F91FF90EF90DF90CF90BF90AF900895E1
:103840004F925F927F928F929F92AF92BF92CF9250
:10385000DF92EF92FF920F931F93DF93CF93CDB739
:10386000DEB7CB56D0400FB6F894DEBF0FBECDBF4B
:103870002C018091AF02803909F4AAC18139C8F4C2
:10388000833809F4C0C0843850F4813809F45DC02D
:10389000823808F089C0803809F0D7C327C085383E
:1038A00009F4E0C0853808F40CC1863809F0CDC3AE
:1038B00037C1843909F4AEC2853958F4823909F424
:1038C000D8C12091B4023091B502833908F0F3C118
:1038D000ABC1863909F451C3863908F442C287392D
:1038E00009F4F2C28C3909F0B0C34BC18091B40223
:1038F0009091B502892B09F0B7C107EB12E0C8011E
:103900006AEE70E00E945609C8016AEE70E00E94FB
:103910005609F80101900020E9F73197E01BF10BFF
:103920002091B2023091B302A901400F511FBF0193
:10393000600F711F06C0D8018D918D01DA018D9342
:10394000AD0106171707B9F719C18091B40290911C
:10395000B502892B09F088C107EB12E0C80164E0C9
:1039600071E00E945609C80164E071E00E945609A6
:10397000F80101900020E9F73197E01BF10B20914D
:10398000B2023091B302A901400F511FBF01600F75
:10399000711F06C0D8018D918D01DA018D93AD01A3
:1039A00006171707B9F7EAC08091B4029091B502E3
:1039B000892B09F059C107EB12E0C80162E271E0FE
:1039C0000E945609C80162E271E00E945609F8019E
:1039D00001900020E9F73197E01BF10B2091B20232
:1039E0003091B302A901400F511FBF01600F711F39
:1039F00006C0D8018D918D01DA018D93AD010617B6
:103A00001707B9F7BBC08091B4029091B502892B1A
:103A100009F02AC107EB12E0C80168E071E00E94DA
:103A20005609C80168E071E00E945609F80101904A
:103A30000020E9F73197E01BF10B2091B2023091A1
:103A4000B302A901400F511FBF01600F711F06C0D3
:103A5000D8018D918D01DA018D93AD0106171707FD
:103A6000B9F78CC08091B4029091B502892B09F00E
:103A7000FBC007EB12E0C8016DE371E00E9456093C
:103A8000C8016DE371E00E945609F8010190002021
:103A9000E9F73197E01BF10B2091B2023091B302AC
:103AA000A901400F511FBF01600F711F06C0D8014F
:103AB0008D918D01DA018D93AD0106171707B9F7C6
:103AC0005DC08091B4029091B502892B09F0CCC001
:103AD00007EB12E0C80169E371E00E945609C801D2
:103AE00069E371E00E945609F80101900020E9F7AE
:103AF0003197E01BF10B2091B2023091B302A90182
:103B0000400F511FBF01600F711F06C0D8018D917A
:103B10008D01DA018D93AD0106171707B9F72EC095
:103B20008091B4029091B502892B09F09DC007EBFA
:103B300012E0C80163E471E00E945609C80163E421
:103B400071E00E945609F80101900020E9F73197D1
:103B5000E01BF10B2091B2023091B302A901400F9A
:103B6000511FBF01600F711F06C0D8018D918D01DB
:103B7000DA018D93AD0106171707B9F72E0F3F1F16
:103B80004EC0D201ED91FC910484F585E02DC20177
:103B900009958823D9F08091B4029091B5020197DC
:103BA00009F062C08091B0029091B102FC01E95429
:103BB000FD4F208101969093B1028093B00260E0A6
:103BC000211161E0C2010E9483184BC081E03BC219
:103BD0008091B4029091B502029709F045C080919E
:103BE000B0029091B102FC01E954FD4F60817181F6
:103BF00002969093B1028093B002D201ED91FC91B4
:103C00000480F581E02DC20109952091B202309126
:103C1000B302F901E954FD4F80832F5F3F4F30938A
:103C2000B3022093B2021DC023303105E9F4809124
:103C3000B0029091B102FC01E954FD4F60817181A5
:103C4000FC01E754FD4F408103969093B1028093AD
:103C5000B002D201ED91FC910680F781E02DC20106
:103C60000995F20110A2F1C186E0D20190968C93E1
:103C7000ECC18091B4029091B502019709F0E2C1C4
:103C8000F20110A28091B0029091B102FC01E954BE
:103C9000FD4F208101969093B1028093B002D20132
:103CA000ED91FC9160E0211161E00088F189E02D47
:103CB000C2010995CAC12230310509F0C3C1809102
:103CC000B0029091B102FC01E954FD4F8080019651
:103CD000FC01E954FD4F908001969093B1028093CE
:103CE000B0025AE0A52EB12CAC0EBD1EC5016BE092
:103CF00071E00E94FC2B43E0C42ED12CCC0EDD1EC3
:103D0000C601682D4AE00E94922CC501B6010E94AE
:103D1000AB2B64E171E00E948F2B7C018E010F5E62
:103D20001F4FC801692D4AE00E94922CC701B801BB
:103D30000E94AB2B67E171E00E948F2BBC0180E1F8
:103D400094E00E94962AC8010E94F12CC6010E94AC
:103D5000F12CC5010E94F72C882D692D0E94242585
:103D60006DC18091B4029091B502029709F06AC1C9
:103D70008091B0029091B102FC01E954FD4F808026
:103D80000196FC01E954FD4F908001969093B10299
:103D90008093B0023FE1A32EB12CAC0EBD1EC50135
:103DA00069E171E00E94FC2B28E1C22ED12CCC0EDF
:103DB000DD1EC601682D4AE00E94922CC501B601A5
:103DC0000E94AB2B64E171E00E948F2B7C018E017D
:103DD0000A5D1F4FC801692D4AE00E94922CC7015D
:103DE000B8010E94AB2B67E171E00E948F2BBC01F0
:103DF00080E194E00E94962AC8010E94F12CC6013D
:103E00000E94F12CC5010E94F72C882D692D0E947B
:103E1000632514C18091B4029091B502019709F015
:103E200011C18091B0029091B102FC01E954FD4FA3
:103E3000108101969093B1028093B002812F0E946D
:103E4000B725898394E3A92EB12CAC0EBD1EC50104
:103E500067E271E00E94FC2B8DE2C82ED12CCC0EC3
:103E6000DD1EC601612F4AE00E94922CC501B601F9
:103E70000E94AB2B64E371E00E948F2B7C018E01CA
:103E8000055C1F4FC80169814AE00E94922CC7015E
:103E9000B8010E94AB2BBC0180E194E00E94962AFD
:103EA000C8010E94F12CC6010E94F12CC5010E949C
:103EB000F72C8091B2029091B302FC01E954FD4FBE
:103EC000298120830196B6C08091B4029091B502F9
:103ED000029709F0B7C08091B0029091B102FC0145
:103EE000E954FD4F7080FC01E854FD4F80809180C3
:103EF00003969093B1028093B00209E4A02EB12CF6
:103F0000AC0EBD1EC50169E371E00E94FC2B12E4FA
:103F1000C12ED12CCC0EDD1EC601672D4AE00E94B9
:103F2000922CC501B6010E94AB2B64E171E00E94A6
:103F30008F2B7C018E01005B1F4FC801B4014AE04A
:103F40000E94612CC701B8010E94AB2B67E171E0B0
:103F50000E948F2BBC0180E194E00E94962AC80148
:103F60000E94F12CC6010E94F12CC5010E94F72C81
:103F7000872DB4010E94C42461C08091B402909145
:103F8000B502019709F05EC08091B0029091B10234
:103F9000FC01E954FD4F108101969093B10280938A
:103FA000B002812F0E94A2249A838983BEE5AB2EA2
:103FB000B12CAC0EBD1EC50166E471E00E94FC2B65
:103FC000A7E5EA2EF12CEC0EFD1EC701612F4AE099
:103FD0000E94922CC501B7010E94AB2B64E371E0F3
:103FE0000E948F2B6C018E010B591F4F69817A81C2
:103FF000C8014AE00E94612CC601B8010E94AB2BA7
:10400000BC0180E194E00E94962AC8010E94F12C34
:10401000C7010E94F12CC5010E94F72C8091B202C9
:104020009091B302FC01E954FD4F298120832A813C
:10403000218302969093B3028093B202D2019096AC
:104040001C9203C086E0F20180A3C559DF4F0FB672
:10405000F894DEBF0FBECDBFCF91DF911F910F91BE
:10406000FF90EF90DF90CF90BF90AF909F908F9098
:104070007F905F904F90089586EA91E00E94BE0B7A
:10408000089586EA91E00E94B70B08950F931F935D
:10409000162F072F87EB92E062E571E00E948109FD
:1040A000009759F087EB92E0612F702F0E94710901
:1040B0009C0180E0232BA1F530C087EB92E0612FBB
:1040C000702F0E948109FC01009749F182E0E73BD3
:1040D000F80729F5DF010D900020E9F71197AE1BD5
:1040E000BF0B3197EA0FFB1F80818932C1F4AA54BC
:1040F000BD4F1C92A12FB02FFD0101900020E9F7C8
:104100003197EA1BFB0B8091B0029091B1028E0FA8
:104110009F1F9093B1028093B00281E001C080E0C4
:104120001F910F9108950F931F93DF93CF9300D0AA
:1041300000D0CDB7DEB78C018BE193E067E37DE083
:104140000E945609C8016BE173E00E944620882353
:1041500051F0D801ED91FC910088F189E02DC80162
:1041600061E009950DC08BE193E06EE27DE00E9475
:104170005609C8016BE173E00E944620882349F08C
:10418000D801ED91FC910684F785E02DC8010995D1
:1041900068C08BE193E06DE17DE00E945609C801A3
:1041A0006BE173E00E944620882371F0C801BE01D4
:1041B0006F5F7F4F0E94B71B882309F452C0C8016C
:1041C00069810E94E7174DC08BE193E06AE07DE0D2
:1041D0000E945609C8016BE173E00E9446208823C3
:1041E00081F0C801BE016F5F7F4F0E94B71B88231B
:1041F000C1F149815A816B817C81C8010E94D61826
:1042000030C0D801ED91FC910484F585E02DC80102
:104210000995882321F18BE193E064EF7CE00E9413
:104220005609C8016BE173E00E9446208823B9F06B
:10423000C801BE016F5F7F4F0E94B71B882389F0C2
:1042400060E089819A81AB81BC81181619061A0633
:104250001B060CF461E0C8010E94831802C080E0D4
:1042600001C081E00F900F900F900F90CF91DF91E0
:104270001F910F9108958F929F92AF92BF92CF920C
:10428000DF92EF92FF920F931F93DF93CF93CDB7FF
:10429000DEB7C756D0400FB6F894DEBF0FBECDBF15
:1042A0004C0187EB92E062E271E00E94560917E050
:1042B000C12ED12CCC0EDD1EC60167EB72E00E9430
:1042C000E22BBEE0EB2EF12CEC0EFD1EC701B60179
:1042D0000E94E62CC70165E571E00E948F2B5C010E
:1042E00087EB92E069E371E00E9456098E010B5E54
:1042F0001F4FC80167EB72E00E94E22BC501B801B5
:104300000E94AB2BBC0180E194E00E94962AC80178
:104310000E94F12CC7010E94F72CC6010E94F12CCB
:104320008BE193E060EC7DE00E945609A3E2EA2E67
:10433000F12CEC0EFD1EC7016BE173E00E94FC2B1B
:1043400087EB92E06DE371E00E9456098E01045EF6
:104350001F4FC80167EB72E00E94E22BC701B80152
:104360000E94AB2BBC0180E194E00E94962AC80118
:104370000E94F12CC7010E94F72C87EB92E063E4C6
:1043800071E00E94560980E194E067EB72E00E94C0
:10439000502A8BE193E06BEA7DE00E945609CE0142
:1043A000C1966BE173E00E94FC2BC4010E944D1A80
:1043B000DE01AE59BF4F2C93FE01ED59FF4F308304
:1043C000FE01EC59FF4F4083FE01EB59FF4F508334
:1043D000FE01EA59FF4F6083FE01E959FF4F7083E8
:1043E0009E012F5F3F4FFD0186E00190D9010D92A4
:1043F0009D018150D1F7FAE2EF2EF12CEC0EFD1E5B
:10440000C701B40109811A812B813C814D815E81F4
:104410000E947F1A8E010F5C1F4FC801B7010E94D6
:10442000AB2BBC0180E194E00E94962AC7010E9458
:10443000F12CC8010E94F72C8BE193E06EE97DE03E
:104440000E945609EFE3EE2EF12CEC0EFD1EC70183
:104450006BE173E00E94FC2B8E01085C1F4FC801CA
:10446000F40160854AE00E94922CC701B8010E94C5
:10447000AB2BBC0180E194E00E94962AC8010E9407
:10448000F12CC7010E94F72C8BE193E06CE87DE0F2
:104490000E9456097DE4E72EF12CEC0EFD1EC701AB
:1044A0006BE173E00E94FC2B8E010A5B1F4FC80179
:1044B000D40119966C914AE00E94922CC701B80170
:1044C0000E94AB2BBC0180E194E00E94962AC801B7
:1044D0000E94F12CC7010E94F72C8BE193E06DE75D
:1044E0007DE00E9456096BE5E62EF12CEC0EFD1ED8
:1044F000C7016BE173E00E94FC2B8E010C5A1F4F29
:10450000F4014285538564857585C8012AE00E94BF
:104510002F2CC701B8010E94AB2BBC0180E194E0B5
:104520000E94962AC8010E94F12CC7010E94F72C14
:10453000D401ED91FC910484F585E02DC401099529
:10454000882329F08BE193E06BE67DE004C08BE1EA
:1045500093E068E57DE00E94560980E194E06BE11C
:1045600073E00E94502AC959DF4F0FB6F894DEBF9E
:104570000FBECDBFCF91DF911F910F91FF90EF90B4
:10458000DF90CF90BF90AF909F908F90089580E183
:1045900094E00E941B27892B11F480E0089580E1AC
:1045A00094E06AE047EB52E024E630E00E94D62A2D
:1045B000E82FF0E0E954FD4F10821092B102109202
:1045C000B00281E00895CF93DF93EC010E94C722EF
:1045D000882369F0E881F9810284F385E02DCE011A
:1045E0000995882321F4CE0162E00E943E18809153
:1045F000B6028823E9F11092B3021092B20210922F
:10460000B1021092B00281E08093AE0288A3E881EB
:10461000F9810084F185E02DCE0109958091AE02EB
:10462000882371F08091B2029091B302FC01E954A9
:10463000FD4F28A1208301969093B3028093B2028C
:104640001092B602E881F9810484F585E02DCE014F
:104650000995882369F08091AF028C3949F468EE9E
:1046600073E080E090E00E940E24CE010E943C198D
:10467000DF91CF910895CF93DF93EC01E881F98129
:104680000484F585E02D0995882341F087E061E0F9
:104690000E94632587E061E00E94242580E194E088
:1046A00040E052EC61E070E00E949426E881F981DC
:1046B0000088F189E02DCE0160E00995E881F9815B
:1046C0000684F785E02DCE01099580EF91E064E73F
:1046D00073E20E94300C80EF91E06EE873E20E947A
:1046E0002B0CDF91CF9108958091AE02882359F071
:1046F00080EF91E062EB72E042E050E00E944C0CEF
:104700001092AE0208954091B2025091B30280EF30
:1047100091E067EB72E00E944C0C08950F931F9399
:10472000CF93DF938C0180EF91E00E94D30B8093B5
:10473000AF02C80101979093B5028093B402853609
:10474000910570F4C7EBD2E08C010C0F1D1F05C062
:1047500080EF91E00E94D30B8993C017D107C1F776
:1047600081E08093B602DF91CF911F910F91089560
:104770001F920F920FB60F9211242F933F938F9396
:104780009F93AF93BF938091830390918403A091F3
:104790008503B0918603309187030196A11DB11D59
:1047A000232F2D5F2D3720F02D570196A11DB11D10
:1047B000209387038093830390938403A0938503BE
:1047C000B093860380917F0390918003A091810331
:1047D000B09182030196A11DB11D80937F03909338
:1047E0008003A0938103B0938203BF91AF919F9107
:1047F0008F913F912F910F900FBE0F901F901895A2
:104800008FB7F894209183033091840340918503FE
:10481000509186038FBFB901CA0108959B01AC0175
:104820007FB7F89480917F0390918003A0918103DA
:10483000B091820366B5A89B05C06F3F19F0019641
:10484000A11DB11D7FBFBA2FA92F982F8827860FD2
:10485000911DA11DB11D62E0880F991FAA1FBB1FEA
:104860006A95D1F7BC012DC0FFB7F89480917F0302
:1048700090918003A0918103B0918203E6B5A89B3B
:1048800005C0EF3F19F00196A11DB11DFFBFBA2F62
:10489000A92F982F88278E0F911DA11DB11DE2E031
:1048A000880F991FAA1FBB1FEA95D1F7861B970B8C
:1048B000885E9340C8F221503040404050406851DB
:1048C0007C4F211531054105510571F60895789405
:1048D00084B5826084BD84B5816084BD85B5826005
:1048E00085BD85B5816085BDEEE6F0E080818160A3
:1048F0008083E1E8F0E010828081826080838081A3
:1049000081608083E0E8F0E0808181608083E1EB7A
:10491000F0E0808184608083E0EBF0E08081816062
:104920008083EAE7F0E08081846080838081826018
:104930008083808181608083808180688083109201
:10494000C1000895982F8E3008F09E509770809186
:104950006C018295880F880F807C892B80937C0066
:1049600080917A00806480937A0080917A0086FD3D
:10497000FCCF2091780040917900942F80E030E0C6
:10498000282B392BC90108951F93CF93DF93182F3C
:10499000EB0161E00E942425209709F44AC0CF3F33
:1049A000D10509F449C0E12FF0E0EF5EF14F8491A9
:1049B0008330C1F0843028F4813051F08230B1F579
:1049C0000CC0863019F1873049F1843079F514C074
:1049D00084B5806884BDC7BD33C084B5806284BDA2
:1049E000C8BD2EC080918000806880938000D093E5
:1049F0008900C093880024C08091800080628093E9
:104A00008000D0938B00C0938A001AC08091B000C0
:104A100080688093B000C093B30012C08091B00052
:104A200080628093B000C093B4000AC0C038D10542
:104A30001CF4812F60E002C0812F61E00E94632599
:104A4000DF91CF911F910895CF93DF93482F50E0CE
:104A5000CA018350924FFC0134914751524FFA01E1
:104A60008491882369F190E0880F991FFC01E55338
:104A7000F24FA591B491FC01EB52F24FC591D49144
:104A8000662351F42FB7F8948C91932F9095892336
:104A90008C93888189230BC0623061F42FB7F8941E
:104AA0008C91932F909589238C938881832B888375
:104AB0002FBF06C09FB7F8948C91832B8C939FBF18
:104AC000DF91CF910895482F50E0CA018F5E914F3A
:104AD000FC012491CA018350924FFC0194914751EB
:104AE000524FFA013491332309F440C0222351F18B
:104AF000233071F0243028F42130A1F0223011F558
:104B000014C02630B1F02730C1F02430D9F404C0ED
:104B1000809180008F7703C0809180008F7D80938B
:104B2000800010C084B58F7702C084B58F7D84BDAE
:104B300009C08091B0008F7703C08091B0008F7D55
:104B40008093B000E32FF0E0EE0FFF1FEB52F24F27
:104B5000A591B4912FB7F894662321F48C91909588
:104B6000892302C08C91892B8C932FBF0895682FC5
:104B700070E0CB018F5E914FFC012491CB018350FB
:104B8000924FFC0144916751724FFB01949199231C
:104B900019F420E030E03CC0222351F1233071F0C1
:104BA000243028F42130A1F0223011F514C0263031
:104BB000B1F02730C1F02430D9F404C080918000D6
:104BC0008F7703C0809180008F7D8093800010C01C
:104BD00084B58F7702C084B58F7D84BD09C0809174
:104BE000B0008F7703C08091B0008F7D8093B000BC
:104BF000892F90E0880F991F8152924FFC01A59157
:104C0000B4918C9120E030E0842311F021E030E079
:104C1000C901089508951F920F920FB60F921124A3
:104C20002F933F934F938F939F93EF93FF93809195
:104C3000C00082FD1DC04091C6002091C803309184
:104C4000C9032F5F3F4F2F7330708091CA0390913B
:104C5000CB032817390771F0E091C803F091C9031D
:104C6000E857FC4F40833093C9032093C80302C028
:104C70008091C600FF91EF919F918F914F913F914D
:104C80002F910F900FBE0F901F901895E0911C046C
:104C9000F0911D04E05CFF4F819191912081318161
:104CA000821B930B8F739070892B11F00E940A2640
:104CB00008951F920F920FB60F9211242F933F93D6
:104CC0008F939F93EF93FF9320910C0430910D04E9
:104CD00080910E0490910F042817390731F48091C8
:104CE000C1008F7D8093C10014C0E0910E04F0914B
:104CF0000F04E453FC4F208180910E0490910F0427
:104D000001968F73907090930F0480930E042093FC
:104D1000C600FF91EF919F918F913F912F910F903E
:104D20000FBE0F901F901895AF92BF92DF92EF9237
:104D3000FF920F931F93CF93DF93EC017A018B01C6
:104D4000DD24403081EE580780E0680780E0780776
:104D500011F0DD24D39491E0A92EB12CEC89FD89CA
:104D6000DD2069F0C50108A002C0880F991F0A94D0
:104D7000E2F7808360E079E08DE390E005C0108287
:104D800060E874E88EE190E0A80197010E94FD3090
:104D900021503040404050405695479537952795D3
:104DA00080E12030380720F0DD2011F0DD24D6CF5F
:104DB000E889F9893083EA89FB89208319A2EE8981
:104DC000FF89408121E030E0C9010C8C02C0880FCE
:104DD000991F0A94E2F7482B4083EE89FF894081AE
:104DE000C9010D8C02C0880F991F0A94E2F7482B65
:104DF0004083EE89FF894081C9010E8C02C0880F73
:104E0000991F0A94E2F7482B4083EE89FF8980813D
:104E10000F8C02C0220F331F0A94E2F7209528233B
:104E20002083DF91CF911F910F91FF90EF90DF9042
:104E3000BF90AF900895DC011C96ED91FC911D97F9
:104E4000E05CFF4F2191319180819181281B390BCA
:104E50002F733070C9010895DC011C96ED91FC910F
:104E60001D97E05CFF4F20813181E054F040DF016D
:104E7000AE5BBF4F8D919C9111972817390719F49C
:104E80002FEF3FEF07C08D919C91E80FF91F8081B4
:104E9000282F30E0C9010895DC011C96ED91FC91AA
:104EA0001D97E05CFF4F20813181E054F040DF012D
:104EB000AE5BBF4F8D919C9111972817390719F45C
:104EC0002FEF3FEF10C08D919C911197E80FF91FC4
:104ED00020818D919C91119701968F7390701196FE
:104EE0009C938E9330E0C9010895DC0191968C91DA
:104EF0009197882339F05496ED91FC9155978081D4
:104F000086FFF9CF91961C920895CF93DF93EC0121
:104F1000EE85FF85E05CFF4F20813181E054F04059
:104F20002F5F3F4F2F733070DF01AE5BBF4F8D910E
:104F30009C91119728173907D1F3E05CFF4F8081CE
:104F40009181E054F040E80FF91F6083EE85FF8502
:104F5000E05CFF4F31832083EE89FF89208181E06F
:104F600090E00F8C02C0880F991F0A94E2F7282B5B
:104F7000208381E089A3EC89FD898081806480831E
:104F800081E090E0DF91CF91089510921304109288
:104F9000120488EE93E0A0E0B0E0809314049093B4
:104FA0001504A0931604B093170489E991E0909337
:104FB00011048093100488E893E090931D0480937B
:104FC0001C048CEC93E090931F0480931E0485ECEA
:104FD00090E0909321048093200484EC90E09093DF
:104FE00023048093220480EC90E090932504809326
:104FF000240481EC90E0909327048093260482ECB3
:1050000090E0909329048093280486EC90E090939C
:105010002B0480932A0484E080932C0483E0809303
:105020002D0487E080932E0485E080932F0481E097
:10503000809330040895CF92DF92EF92FF920F9306
:105040001F93CF93DF937C016B018A01C0E0D0E016
:105050000FC0D6016D916D01D701ED91FC910190CA
:10506000F081E02DC7010995C80FD91F01501040EC
:105070000115110571F7CE01DF91CF911F910F91AD
:10508000FF90EF90DF90CF900895EF92FF920F93F3
:105090001F938C01DC01ED91FC910190F081E02DDA
:1050A0006DE009957C01D801ED91FC910190F081B2
:1050B000E02DC8016AE009959C012E0D3F1DC90134
:1050C0001F910F91FF90EF900895CF93DF93EC0124
:1050D0006115710519F420E030E00FC0DB010D907F
:1050E0000020E9F71197A61BB70BE881F981028030
:1050F000F381E02DAD0109959C01C901DF91CF91AC
:1051000008954F925F927F928F929F92AF92BF923B
:10511000CF92DF92EF92FF920F931F93DF93CF9383
:10512000CDB7DEB7A1970FB6F894DEBF0FBECDBFE7
:105130002C01742ECB01223008F42AE019A231E2AE
:10514000C32ED12CCC0EDD1E822E9924AA24BB2482
:10515000672D752FA50194010E94FD3079018A0108
:10516000C801B701A50194010E94DE30472D461BFE
:105170000894C108D1084A3010F4405D01C0495C70
:10518000F6014083E114F1040105110521F07E2CA4
:105190005F2DC801DDCFC201B6010E946528A1962E
:1051A0000FB6F894DEBF0FBECDBFCF91DF911F9138
:1051B0000F91FF90EF90DF90CF90BF90AF909F90B6
:1051C0008F907F905F904F900895DC0121153105FD
:1051D00041F4ED91FC910190F081E02D642F09954F
:1051E00008950E9481280895CF92DF92EF92FF9256
:1051F0000F931F93CF93DF93EC016A017B0121157D
:10520000310541F4E881F9810190F081E02D642FAE
:1052100009951FC02A303105D1F477FF17C0E88106
:10522000F9810190F081E02D6DE209958C01442710
:105230005527BA014C195D096E097F09CE012AE094
:105240000E9481289801280F391F04C02AE00E947B
:1052500081289C01C901DF91CF911F910F91FF908F
:10526000EF90DF90CF900895CF92DF92EF92FF9270
:105270000F931F936C017B019A010027F7FC0095A7
:10528000102FB801A7010E94F4288C01C6010E94CA
:105290004528080F191FC8011F910F91FF90EF902B
:1052A000DF90CF9008950E94652808957F928F9295
:1052B0009F92AF92BF92CF92DF92EF92FF920F93A5
:1052C0001F93CF93DF934C017A018B01722ECB0198
:1052D000BA01A80197010E94FD2F882321F0C40183
:1052E00068E571E021C0C0E0D0E057016801E894B2
:1052F000D7F8C601B5012FEF3FEF4FE75FE70E94F8
:10530000FD2F882351F4C601B5012FEF3FEF4FE782
:105310005FE70E94622D181614F0C1E0D0E02197DB
:1053200039F0C4016CE571E00E946528EC0193C07E
:10533000C801B7012FEF3FEF4FE75FE40E94B12EA6
:10534000181654F0C801B7012FEF3FEF4FE75FEC9D
:105350000E94622D882324F4C40160E671E0E4CF4A
:10536000C801B70120E030E040E050E00E94622D2B
:1053700087FD03C0C0E0D0E00EC0D401ED91FC91E8
:105380000190F081E02DC4016DE20995EC0117FB5D
:10539000109517F9109520E030E040E05FE3DD2440
:1053A0000BC0CA01B90120E030E040E251E40E94A4
:1053B000662D9B01AC01D394D71498F3C801B701B3
:1053C0000E94FE2C5B016C010E94D32D7B018C019D
:1053D000C401B801A7012AE030E00E94E528C80F07
:1053E000D91F772039F0C40164E671E00E94652876
:1053F000C80FD91FC801B7010E94FF2D9B01AC0146
:10540000C601B5010E94FD2C24C020E030E040E23E
:1054100051E40E94002F7B018C010E94CE2D5B0184
:105420006C01CC24B7FCC094DC2CC401B601A501EE
:105430002AE030E00E94F428C80FD91FC601B50148
:105440000E94012E9B01AC01C801B7010E94FD2CF6
:105450007A947720D1F6CE01DF91CF911F910F91F1
:10546000FF90EF90DF90CF90BF90AF909F908F9084
:105470007F9008950E9456290895EF92FF920F930E
:105480001F937C010E9456298C01C7010E94452868
:10549000080F191FC8011F910F91FF90EF900895F9
:1054A000EF92FF920F931F937C010E9465288C015D
:1054B000C7010E944528080F191FC8011F910F91AD
:1054C000FF90EF900895AF92BF92CF92DF92EF924C
:1054D000FF920F931F93CF93DF935C016B01EE2438
:1054E000FF24C0E0D0E010C0D501ED91FC91008117
:1054F0001181C601BE010E94092B682FC501F80168
:105500000995E80EF91E2196F60184819581C81748
:10551000D90750F3C701DF91CF911F910F91FF90F1
:10552000EF90DF90CF90BF90AF900895EF92FF92F1
:105530000F931F937C010E94632A8C01C7010E9474
:1055400045289C01200F311FC9011F910F91FF9029
:10555000EF900895CF93DF93EC010E9400246887B9
:1055600079878A879B87E881F9810680F781E02D1A
:10557000CE0109959C0197FF15C00E940024288543
:1055800039854A855B85621B730B840B950B2C81D7
:105590003D814E815F81621773078407950718F379
:1055A0002FEF3FEFC901DF91CF910895AF92BF92E6
:1055B000CF92DF92EF92FF920F931F93CF93DF93DF
:1055C0005C017A0189012115310519F4C0E0D0E0B0
:1055D00014C0C0E0D0E0C62EDD240CC0C5010E947E
:1055E000AA2A97FD0AC08C159D0539F0F701819311
:1055F0007F012196C017D10788F3CE01DF91CF91AB
:105600001F910F91FF90EF90DF90CF90BF90AF90E0
:105610000895FC01848195816817790748F4019009
:10562000F081E02D309721F0E60FF71F808108957B
:1056300080E008950F931F93CF93DF93EC018B01CC
:105640006F5F7F4F888199810E945F08009711F4F6
:1056500080E005C0998388831B830A8381E0DF9102
:10566000CF911F910F910895CF93DF93EC01888123
:105670009981892B29F08A819B818617970760F48D
:10568000CE010E941A2B882341F08C819D81892BA9
:1056900019F4E881F981108281E0DF91CF910895BA
:1056A000EF92FF920F931F93CF93DF93EC017B0157
:1056B0006C817D81E114F104C1F04115510599F02F
:1056C0008A01060F171FB8010E94342B882369F046
:1056D000888199812C813D81820F931FB7010E949F
:1056E0007A091D830C8381E001C080E0DF91CF91B6
:1056F0001F910F91FF90EF900895CF93DF93EC01EE
:1057000088819981009711F00E94070819821882F8
:105710001D821C821B821A82DF91CF9108950F9304
:105720001F93182F092F6115710561F0DB010D9092
:105730000020E9F71197A61BB70BAD010E94502B73
:10574000882321F4812F902F0E947D2B812F902F71
:105750001F910F9108950F931F93182F092FFB018D
:1057600060817181448155810E94502B882321F4EE
:10577000812F902F0E947D2B812F902F1F910F91B1
:105780000895EF92FF920F931F93CF93DF93EC0155
:105790007B018A01BA010E94342B882321F4CE01B7
:1057A0000E947D2B07C01D830C8388819981B701DE
:1057B0000E947A09CE01DF91CF911F910F91FF9046
:1057C000EF900895CF93DF93EC01198218821B822A
:1057D0001A821D821C821E826115710551F0DB0147
:1057E0000D900020E9F71197A61BB70BAD010E94A1
:1057F000C12BDF91CF910895CF93DF93EC011982F4
:1058000018821B821A821D821C821E8261157105FC
:1058100051F0DB010D900020E9F71197A61BB70BA3
:10582000AD010E94C12BDF91CF9108950F931F937B
:10583000182F092F6115710559F0DB010D9000201B
:10584000E9F71197A61BB70BAD010E94C12B02C04F
:105850000E947D2B812F902F1F910F910895EF9221
:10586000FF920F931F93DF93CF93CDB7DEB7A1972E
:105870000FB6F894DEBF0FBECDBF8C01FC011182C4
:10588000108213821282158214821682CB01BA0111
:105890007E010894E11CF11CA70130E00E94DB09A5
:1058A000C801B7010E94162CA1960FB6F894DEBF6E
:1058B0000FBECDBFCF91DF911F910F91FF90EF9061
:1058C0000895EF92FF920F931F93DF93CF93CDB77D
:1058D000DEB761970FB6F894DEBF0FBECDBF8C0167
:1058E000CB01F80111821082138212821582148278
:1058F00016827E010894E11CF11CB70150E00E9461
:10590000000AC801B7010E94162C61960FB6F894E0
:10591000DEBF0FBECDBFCF91DF911F910F91FF90E2
:10592000EF900895EF92FF920F931F93DF93CF9321
:10593000CDB7DEB729970FB6F894DEBF0FBECDBF47
:105940008C01862FF8011182108213821282158237
:105950001482168290E07E010894E11CF11CB701CC
:1059600050E00E94000AC801B7010E94162C299637
:105970000FB6F894DEBF0FBECDBFCF91DF911F9160
:105980000F91FF90EF900895CF93DF93EC01FB010F
:105990008617970761F0608171816115710529F0A3
:1059A000448155810E94C12B02C00E947D2BCE01F3
:1059B000DF91CF910895FC0111821082138212822F
:1059C0001582148216820E94C42C0895FC01118253
:1059D0001082138212821582148216820E94C42CB5
:1059E0000895FC01808191810E9407080895FC01BF
:1059F000808191810E94070808955058BB27AA27EB
:105A00000ED075C166D130F06BD120F031F49F3FDC
:105A100011F41EF45BC10EF4E095E7FB51C1E92FD0
:105A200077D180F3BA17620773078407950718F0D8
:105A300071F49EF58FC10EF4E0950B2EBA2FA02DB8
:105A40000B01B90190010C01CA01A0011124FF272B
:105A5000591B99F0593F50F4503E68F11A16F04026
:105A6000A22F232F342F4427585FF3CF4695379525
:105A70002795A795F0405395C9F77EF41F16BA0BEA
:105A8000620B730B840BBAF09150A1F0FF0FBB1F98
:105A9000661F771F881FC2F70EC0BA0F621F731FE1
:105AA000841F48F4879577956795B795F7959E3F3E
:105AB00008F0B3CF9395880F08F09927EE0F9795CC
:105AC00087950895D9D008F481E008950CD00FC1CE
:105AD00007D140F0FED030F021F45F3F19F0F0C064
