:100000000C9427010C9454010C9454010C94540149
:100010000C9454010C9454010C9454010C9454010C
:100020000C9454010C9454010C9454010C945401FC
:100030000C9454010C9454010C9454010C945401EC
:100040000C9454010C9454010C9454010C945401DC
:100050000C94530A0C9454010C9454010C94953450
:100060000C9454010C94BF370C9407390C94540130
:100070000C9454010C94280A0C9454010C945401CF
:100080000C9454010C9454010C9454010C943A0DAA
:100090000C94FF370C9446390C9454010C9444068C
:1000A0000C9454010C9454010C9454010C9454017C
:1000B0000C9454010C9454010C9454010C9454016C
:1000C0000C9454010C9454010C9454010C943F383A
:1000D0000C9485390C9454010C947F380C94C439D9
:1000E0000C945401EE22282362239C231024D6234F
:1000F0004A24AA24F024CD2443251C2546261F2665
:1001000077265727D926F627AF27372852286C2875
:100110008C28B6288924EE2811292F294C297E29DC
:10012000A62900002100240027002A002D0030000D
:10013000330001010000040107010A010000220050
:10014000250028002B002E003100340002010000A1
:10015000050108010B0100002000230026002900F2
:100160002C002F00320000010000030106010901EC
:1001700005050505070508080808020202020A0A23
:100180000808040404040101010101010101030341
:10019000030303030303040707070C0C0C0C0C0CEC
:1001A0000C0C0202020206060606060606060B0BE9
:1001B0000B0B0B0B0B0B010210202008081020402A
:1001C000102040800201020108040201010204081B
:1001D00010204080804020100804020180040201A9
:1001E00080402010080402010804020101020408F2
:1001F0001020408001020408102040800000090AFD
:1002000002080B0C0D0706030401000000000000AB
:1002100000000000000000000000000000000000DE
:10022000000000000000000011100F00000000009E
:1002300000000000000000000000000000000000BE
:1002400000008903DC045D0ADA29343B82031124AF
:100250001FBECFEFD1E2DEBFCDBF00E00CBF14E088
:10026000A0E0B2E0E0E1F8E800E00BBF02C00790D8
:100270000D92AC3CB107D9F71BBE11E1ACECB4E078
:1002800001C01D92A436B107E1F712E0CCE4D2E040
:1002900004C02297FE010E94C043C234D107C9F7AF
:1002A0000E9440040C94FB430C940000CF93DF9316
:1002B000BC018230910510F462E070E0A0916211FF
:1002C000B0916311ED01E0E0F0E040E050E021C0CA
:1002D000888199818617970769F48A819B81309775
:1002E00019F09383828304C0909363118093621109
:1002F000FE0134C06817790738F44115510519F02B
:100300008417950708F4AC01FE018A819B819C014A
:10031000E9012097E9F641155105A9F1CA01861BAB
:10032000970B049708F4BA01E0E0F0E02AC08D9141
:100330009C91119784179507F9F46417750781F458
:1003400012968D919C911397309719F09383828325
:1003500004C09093631180936211FD0132964CC0EA
:10036000CA01861B970BFD01E80FF91F619371937A
:1003700002978D939C9340C0FD01828193819C01E3
:10038000D9011097A1F68091601190916111892B8C
:1003900041F48091DD039091DE039093611180938D
:1003A00060114091DF035091E0034115510541F484
:1003B0004DB75EB78091DB039091DC03481B590B6E
:1003C0002091601130916111CA01821B930B861735
:1003D000970780F0AB014E5F5F4F8417950750F091
:1003E000420F531F5093611140936011F9016193C3
:1003F000719302C0E0E0F0E0CF01DF91CF9108956A
:10040000CF93DF93009709F450C0EC0122971B8231
:100410001A82A0916211B0916311109709F140E026
:1004200050E0AC17BD0708F1BB83AA83FE01219100
:100430003191E20FF31FAE17BF0779F48D919C91B4
:100440001197280F391F2E5F3F4F3983288312964B
:100450008D919C9113979B838A834115510571F46B
:10046000D0936311C093621120C012968D919C911C
:100470001397AD01009711F0DC01D3CFFA01D383BC
:10048000C28321913191E20FF31FCE17DF0769F488
:1004900088819981280F391F2E5F3F4FFA013183E0
:1004A00020838A819B8193838283DF91CF910895FA
:1004B000A0E0B0E0EEE5F2E00C94C6436C010097DA
:1004C00029F4CB010E9456016C01C1C08EEF882E29
:1004D0008FEF982E8C0C9D1C8601060F171F081598
:1004E000190508F4B2C0F401A081B181A617B707BD
:1004F000B8F0A530B10508F4AAC0CD01049786175D
:10050000970708F4A4C01297A61BB70BF801A19394
:10051000B193D4016D937C93CF010E94000297C0E8
:100520007B01EA1AFB0AEEEFFFEFEE0EFF1E36012B
:100530006A0E7B1EC0916211D09163114424552430
:10054000AA24BB244AC0C615D705E1F548815981C4
:100550004E155F05B8F1CA0104978E159F05B0F4DA
:100560001296A40FB51FF401B183A0832A813B81A9
:100570004114510431F0D20113963C932E931297FB
:1005800066C0309363112093621161C08A819B81A0
:10059000F80193838283425050404E195F09518382
:1005A00040834114510431F0D20113961C930E93F1
:1005B000129704C01093631100936211F4017183C8
:1005C000608345C088819981A816B90608F45C014A
:1005D0002E018A819B819C01E901209709F0B3CF0C
:1005E000809160119091611186159705E9F4A61626
:1005F000B706D0F42091DF033091E00321153105D7
:1006000041F42DB73EB78091DB039091DC03281BAA
:10061000390B02171307C8F410936111009360118E
:10062000D4016D937C9313C0CB010E945601EC0161
:10063000009759F0F40140815181B6010E942D03C9
:10064000C6010E9400026E0102C0CC24DD24C60156
:10065000CDB7DEB7E0E10C94E243FB01DC0102C060
:1006600001900D9241505040D8F70895FB01DC01F4
:1006700001900D920020E1F70895FB019F014230A7
:1006800074F0453264F4642F77270E948843805DBC
:100690008A330CF0895D8193CB010097A1F710821A
:1006A000C9010C945303DC01FC01672F719177237E
:1006B000E1F7329704C07C916D9370836291AE171D
:1006C000BF07C8F308958091E1039091E20301967A
:1006D0009093E2038093E10308958130910541F402
:1006E0006F5F7F4F71F48CEC94E00E94A015089529
:1006F000892B39F46F5F7F4F21F48CEC94E00E94DA
:100700009715089580E090E06FEF7FEF0E946D03F2
:10071000089581E090E06FEF7FEF0E946D030895F0
:100720008EE69EE040E45BE46CE470E00E94D40D51
:100730008EE69EE063E673E02FEF3FEF4FEF5FEF53
:100740000E94DC0D8CEC94E00E94561388ED90E141
:1007500060E072E00E94133E6FEF71E26050724001
:1007600088ED90E14AE050E00E94F43D88ED90E190
:1007700065E072E00E94133E6CEC74E060507240E1
:1007800088ED90E14AE050E00E94F43D88ED90E170
:100790006CE072E00E94133E64E671E16C5C7440B0
:1007A00088ED90E14AE050E00E94F43D88ED90E150
:1007B00062E172E00E94133E6091601170916111DC
:1007C0006115710519F460E070E002C06456714172
:1007D00088ED90E14AE050E00E94F43D88ED90E120
:1007E00068E172E00E94133E8DB79EB76FEF71E231
:1007F000681B790B88ED90E14AE050E00E94F43DDF
:1008000088ED90E16FE172E00E94133E80916011EB
:1008100090916111009729F46DB77EB764567141CC
:1008200004C06DB77EB7681B790B88ED90E14AE094
:1008300050E00E94F43D08958CEC94E00E94B720B3
:100840008091E1039091E20369E170E00E948843A6
:10085000892BA9F480911E0D882359F080911F0DDA
:10086000882329F48CEC94E00E94110E02C01092AF
:100870001F0D81E090E09093E2038093E1030895DF
:10088000CF93DF930E9466350E949003CEEBD8E3AE
:100890000E941C042097E1F30E94BE38F9CFF99919
:1008A000FECF72BD61BDF89A80B50895F999FECF6B
:1008B0001FBA72BD61BD40BD0FB6F894FA9AF99A9D
:1008C0000FBE0895882319F48CB5806202C08CB5E0
:1008D0008F7D8CBD08959CB5937F982B9CBD08950A
:1008E0002CB5382F33702C7F322B3CBD2DB590E0CA
:1008F000959587959595879581702E7F822B8DBDD7
:10090000089585E361E00E945B3785E361E00E9422
:10091000A8368CB580618CBD8CB580648CBD84E3B9
:1009200061E00E94A83683E361E00E94A836089542
:1009300081E08093D40D6093B10D1092D20D10928E
:10094000D30D089581E08093D40D6093B10D109282
:10095000D20D1092D30D08952091B00D30E080910A
:10096000AF0D281B3109C90108954091AF0D809149
:10097000B00D481718F02FEF3FEF0AC0E42FF0E05A
:10098000E157F24F8081282F30E04F5F4093AF0D49
:10099000C9010895E091AF0D8091B00DE81718F0EE
:1009A000EFEFFFEF06C0F0E0E157F24F8081E82F54
:1009B000F0E0CF01089508951092D80D1092D70D50
:1009C00088EE93E0A0E0B0E08093D90D9093DA0D2B
:1009D000A093DB0DB093DC0D87EE93E09093D60DE2
:1009E0008093D50D0895CF92DF92EF92FF920F93EF
:1009F0001F93CF93DF937C016B018A018091D40D0B
:100A00008823A1F0C0E0D0E00DC0D701ED91FC91AA
:100A1000D601AC0FBD1F0190F081E02DC7016C9194
:100A200019952196C017D10780F304C0CB01642F1C
:100A30000E942906C801DF91CF911F910F91FF906D
:100A4000EF90DF90CF900895DF93CF930F92CDB7C3
:100A5000DEB7FC0169838091D40D8823C9F08091B1
:100A6000D30D803238F081E090E09383828320E0E0
:100A700030E015C08091D20DE82FF0E0EE54F24F37
:100A8000998190838F5F8093D20D8093D30D05C0A1
:100A9000CE01019661E00E94290621E030E0C90103
:100AA0000F90CF91DF9108950F93062F8091B10D94
:100AB00062EB7DE04091D30D21E00E94D4051092BD
:100AC000D20D1092D30D1092D40D0F91089561E0C4
:100AD0000E9454050895413208F040E2862F6FE8E5
:100AE0007DE00E948B051092AF0D8093B00D0895AC
:100AF00021E00E946B05089521E00E946B05089596
:100B00001092AF0D1092B00D1092D20D1092D30D25
:100B10000E94D9070895382F413210F040E042C0BA
:100B20008091E10D8823E1F791E09093E10D20930E
:100B3000E30D8FEF80934E0E1092090E41504093BB
:100B40000A0E4F5F9093E20D8091E20D330F832BDD
:100B50008093E20D8091E40D813041F41092E40D18
:100B60008091E20D8093BB0085EC01C085EE8093FF
:100B7000BC008091E10D8130E1F38091090E841772
:100B800010F44091090E20E030E00AC0FB01E20FB2
:100B9000F31FD901A751B24F8C9180832F5F3F4F34
:100BA0002417A0F3842F08950F931F93582F122F0B
:100BB000413210F081E04AC08091E10D8823E1F7D5
:100BC00082E08093E10D0093E30D8FEF80934E0E52
:100BD0001092090E40930A0EA9EEBDE0FB0102C07F
:100BE00081918D938E2F861B8417D0F31092E20D86
:100BF0008091E20D550F852B8093E20D8091E40DDD
:100C0000813041F41092E40D8091E20D8093BB009D
:100C100085EC01C085EE8093BC00112321F080910A
:100C2000E10D8230E1F380914E0E8F3F11F480E0B0
:100C30000DC080914E0E803211F482E007C0809189
:100C40004E0E803311F084E001C083E01F910F91BC
:100C50000895482F613210F081E008958091E10DF0
:100C6000843011F082E0089560932C0EABE0BEE07A
:100C7000842F9C01F90102C081918D938E2F841BDA
:100C80008617D0F380E008951F920F920FB60F924F
:100C90000BB60F9211242F933F934F935F936F9353
:100CA0007F938F939F93AF93BF93EF93FF93809125
:100CB000B90090E0887F90708036910509F4F2C009
:100CC00081369105CCF58832910509F47BC08932D3
:100CD0009105B4F48031910509F46FC0813191051B
:100CE0003CF4009709F447C1089709F04FC165C06B
:100CF0008831910509F466C0809709F047C182C028
:100D00008034910509F4A4C08134910544F4803302
:100D1000910509F482C0C89709F038C189C08035AF
:100D2000910509F489C08835910509F496C0883485
:100D3000910509F02BC1AEC08839910509F413C1A2
:100D400089399105ECF48837910509F4ABC08937EE
:100D500091054CF48836910509F4A4C080379105BB
:100D600009F014C19FC08838910509F4FCC080398E
:100D7000910509F49DC08038910509F007C198C01C
:100D8000803B910509F4C6C0813B91054CF4803A43
:100D9000910509F49FC0883A910509F0F7C0BAC0DF
:100DA000803C910509F4E3C0883C910509F4DFC05B
:100DB000883B910509F0EAC0C2C08091E20D8093A2
:100DC000BB00CFC09091090E80910A0E981768F46D
:100DD0009091090EE92FF0E0E751F24F8081809366
:100DE000BB009F5F9093090EBCC08091E30D8823E8
:100DF00009F44BC085ED8093BC008091BC0084FD5C
:100E0000FCCFC2C080E280934E0E85ED8093BC0083
:100E10008091BC0084FDFCCFB7C080E380934E0E70
:100E200085ED8093BC008091BC0084FDFCCFACC0FC
:100E300088E380934E0E9BC08091090E9091BB0079
:100E4000E82FF0E0E751F24F90838F5F8093090E17
:100E50009091090E80910A0E82C08091090E9091A6
:100E6000BB00E82FF0E0E751F24F90838F5F809353
:100E7000090E8091E30D882341F085ED8093BC003D
:100E80008091BC0084FDFCCF7FC081E08093E40DA5
:100E900084EA6EC085ED8093BC008091BC0084FD27
:100EA000FCCF72C083E08093E10D10924D0E59C0CB
:100EB00080914D0E803208F056C080914D0E909179
:100EC000BB00E82FF0E0E35DF14F90838F5F8093EC
:100ED0004D0E47C080914D0E803230F4E0914D0EA2
:100EE000F0E0E35DF14F108285ED8093BC008091CE
:100EF000BC0084FDFCCF1092E10D60914D0EE0919D
:100F0000E70DF091E80D8DE29EE070E019951092EA
:100F10004D0E2DC084E08093E10D10922B0E1092A7
:100F20002C0EE091E50DF091E60D199580912C0EB7
:100F3000882329F481E080932C0E10920B0E90915F
:100F40002B0EE92FF0E0E55FF14F80818093BB002D
:100F50009F5F90932B0E90912B0E80912C0E9817E3
:100F600010F485EC01C085E88093BC000FC085ECCF
:100F70008093BC0009C010924E0E85ED8093BC009A
:100F80008091BC0084FDFCCF1092E10DFF91EF91A8
:100F9000BF91AF919F918F917F916F915F914F9191
:100FA0003F912F910F900BBE0F900FBE0F901F908F
:100FB00018951092E10D81E08093E30D1092E40DFD
:100FC00084E161E00E945B3785E161E00E945B376C
:100FD000E9EBF0E080818E7F808380818D7F80834C
:100FE00088E48093B80085E48093BC000895EAE724
:100FF000F0E09081987F90839081982B9083089562
:1010000020917A0030E027703070C9010895EF9286
:10101000FF920F931F937B018C0180E180938100ED
:101020001092800060E074E284E799E4A8019701DF
:101030000E941C4120E030E040E051E40E94AD42BB
:101040000E9489419B01AC01203080E0380781E09B
:10105000480780E0580728F481E080936D0EB901BD
:1010600055C0203080E0380788E0480780E0580706
:1010700068F482E080936D0EDA01C901E3E0B69571
:10108000A79597958795EA95D1F714C0203080E011
:10109000380780E4480780E0580770F483E08093C5
:1010A0006D0EDA01C90176E0B695A79597958795FB
:1010B0007A95D1F7BC012AC0203080E0380780E063
:1010C000480781E0580740F484E080936D0EBB2709
:1010D000A52F942F832FEECF203080E0380780E0BB
:1010E000480784E0580768F485E080936D0EDA01C4
:1010F000C9012AE0B695A795979587952A95D1F7C6
:10110000D9CF85E080936D0E6FEF7FEF70938700EE
:101110006093860091E090936F0080917B00887FC0
:1011200080937B0080917B00866080937B0090930E
:10113000570E80917A00806280937A00E092610E6F
:10114000F092620E0093630E1093640E1F910F9144
:10115000FF90EF900895882321F080917C008062B9
:1011600003C080917C008F7D80937C0008958093E4
:10117000570E882321F080917A00806203C080910D
:101180007A008F7D80937A00089591E090935B0EB2
:101190001092590E1092580E10925C0E2DE739E005
:1011A00030935E0E20935D0E80935A0E90917C00DA
:1011B000907F90937C0020917C00982F9770922BC9
:1011C00090937C00883020F080917B00886003C081
:1011D00080917B00877F80937B00089580935A0ED7
:1011E00090917C00907F90937C0020917C00982FC0
:1011F0009770922B90937C00883020F080917B0038
:10120000886003C080917B00877F80937B00089576
:1012100080915C0E8F5F80935C0E90915B0E8917BE
:1012200011F410925C0E80915C0EE091580EF091DA
:10123000590EE80FF11D208120935A0E80917C00F9
:10124000807F80937C0090917C00822F8770892B17
:1012500080937C00283020F080917B00886003C060
:1012600080917B00877F80937B0050917800409134
:1012700079002091530E3091540E8091550E90912B
:10128000560E28173907C0F58091570E882329F488
:1012900080917A00806480937A00942F80E0452FBB
:1012A00050E0482B592B80917C0085FF11C0809124
:1012B000530E9091540EE0914F0EF091500EE80FA6
:1012C000F91F508301969093540E8093530E089506
:1012D0008091530E9091540E9C01220F331FE09188
:1012E000510EF091520EE20FF31F5183408301968D
:1012F0009093540E8093530E08955091780040912E
:1013000079002091530E3091540E8091550E90919A
:10131000560E28173907C0F58091570E882329F4F7
:1013200080917A00806480937A00942F80E0452F2A
:1013300050E0482B592B80917C0085FF11C0809193
:10134000530E9091540EE0914F0EF091500EE80F15
:10135000F91F508301969093540E8093530E089575
:101360008091530E9091540E9C01220F331FE091F7
:10137000510EF091520EE20FF31F518340830196FC
:101380009093540E8093530E089550915C0E90915B
:101390005B0E923050F1852F8F5F80935C0E891722
:1013A00011F410925C0E80915C0EE091580EF09159
:1013B000590EE80FF11D208120935A0E80917C0078
:1013C000807F80937C0090917C00822F8770892B96
:1013D00080937C00283020F080917B00886003C0DF
:1013E00080917B00877F80937B00609178004091A3
:1013F00079002091530E3091540E8091550E9091AA
:10140000560E2817390718F58091570E882329F4AE
:1014100080917A00806480937A00942F80E070E05D
:10142000682B792B80917C0085FF02C0672F77277E
:10143000E0915F0EF091600E852F19958091530E0B
:101440009091540E01969093540E8093530E0895EC
:101450001F920F920FB60F920BB60F9211242F937B
:101460003F934F935F936F937F938F939F93AF932C
:10147000BF93EF93FF93E0915D0EF0915E0E19958F
:10148000FF91EF91BF91AF919F918F917F916F915C
:101490005F914F913F912F910F900BBE0F900FBE18
:1014A0000F901F9018951F920F920FB60F92112454
:1014B0000F900FBE0F901F901895ECE7F0E0808121
:1014C0008F73808380818064808308950F931F933E
:1014D00000917C0010917B0080917C00807E809345
:1014E0007C0080917C008E6180937C0080917B00E9
:1014F000877F80937B0063E070E080E090E00E9453
:10150000033580917A00806480937A0080917A001C
:1015100086FDFCCF209178004091790000937C00FB
:1015200010937B00742F60E030E0622B732B8827D0
:1015300077FD8095982F0E94B7419B01AC0160E038
:1015400070E889E894E40E941C411F910F9108956E
:10155000AF92BF92CF92DF92EF92FF920F931F93C1
:101560000E94DD345B016C0180917A00877D80935D
:101570007A0080917B008770863029F48091810009
:10158000887F809381006091550E7091560E80E0A7
:1015900090E00E94B54120E034E244E759E40E9423
:1015A000AD427B018C018091690E90916A0EA091F1
:1015B0006B0EB0916C0EA81AB90ACA0ADB0AC601F2
:1015C000B5010E94B5419B01AC01C801B7010E9461
:1015D0001C416093650E7093660E8093670E909326
:1015E000680E1F910F91FF90EF90DF90CF90BF900A
:1015F000AF9008951092540E1092530E8091570E92
:10160000882321F080917A00806203C080917A0063
:101610008F7D80937A000E94DD346093690E709311
:101620006A0E80936B0E90936C0E80917A00886C9A
:1016300080937A0080917B008770863081F480915E
:101640008100887F80938100109285001092840031
:101650008091810090916D0E892B80938100089577
:10166000FC0113861586148687E090E01286319778
:10167000009711F00197FACF0895DF92EF92FF9251
:101680000F931F93FC01E08001811281F894F8010F
:1016900081818E2981838281DE2CD0948D21828369
:1016A00083E090E00E945C35F80181818D21818387
:1016B0008AE090E00E945C35F8010081789485E32F
:1016C00090E00E945C3580E010E0FF240E211F2195
:1016D000012B09F081E01F910F91FF90EF90DF90B7
:1016E0000895EF92FF920F931F93CF93DF937C01A6
:1016F00001E010E0C0E0D0E0C7010E943D0B811185
:10170000102B000F2196C830D105B1F7812FDF9142
:10171000CF911F910F91FF90EF9008951F93CF935A
:10172000DF93FC011081C181D281912F909560FFE0
:1017300012C0F8948A8189238A838981812B8983C5
:101740008AE090E00E945C358A81812B8A837894BC
:1017500087E390E011C0F8948A8189238A83898184
:10176000812B898381E490E00E945C358A81812B02
:101770008A83789485E090E00E945C35DF91CF9178
:101780001F910895CF92DF92EF92FF920F931F93D4
:10179000CF93DF938C01E42EFF24F394C0E0D0E0DC
:1017A000C62EDD2460E08F2D90E08C219D21892BB9
:1017B00009F061E0C8010E948E0BFF0C2196C83031
:1017C000D10581F7EE20A9F4F894D8011196ED9196
:1017D000FC91129791818C91809598239183119619
:1017E000ED91FC91129792818C9180959823928330
:1017F0007894DF91CF911F910F91FF90EF90DF9040
:10180000CF900895EF92FF920F931F93CF93DF93A2
:101810008C017B0165E540E00E94C20BC0E0D0E096
:10182000F701EC0FFD1FC801608140E00E94C20B70
:101830002196C830D105A1F7DF91CF911F910F916B
:10184000FF90EF900895DF92EF92FF920F931F9316
:10185000CF93DF93FC010081C181D281F89489810B
:10186000D02ED0948D21898378941DE7E02EFF241B
:10187000115059F182E090E00E945C35888190E03F
:101880008E219F21892BA1F3F8948A818D218A834F
:101890008981802B8983789480EE91E00E945C3569
:1018A000F89489818D21898386E490E00E945C35DB
:1018B000888110E090E0E822F922EF2809F411E095
:1018C00078948AE991E00E945C35812FDF91CF9175
:1018D0001F910F91FF90EF90DF900895AF92BF920C
:1018E000DF92EF92FF920F931F93CF93DF93EC0160
:1018F0005B018D85882309F061C0CE010E94230C15
:10190000882329F41B861D861C8690E06BC0CE01BF
:1019100060EF40E00E94C20B01E0DD24EE24FF24D2
:10192000F394CE010E943D0B182FCE010E943D0B77
:10193000113019F48130E1F439C0181709F58B859D
:10194000081770F460E0FE01EE0DF11D838190E058
:101950002F2D30E082239323181619064CF003C074
:1019600060E0081729F0093008F04CC00C874AC025
:10197000FE01EE0DF11D83818F29838361E009C093
:10198000612FFE01EE0DF11D9F2D9095838189231E
:101990008383CE010E948E0B0F5FFF0C19F4E3943A
:1019A000FF24F39487E08E1508F0BBCF013430F0AC
:1019B000DB86DD2011F581E08D871FC01B861D862B
:1019C0001C8690E0DE0120E030E0F501E20FF31F1D
:1019D00013968C91139780832F5F3F4F1196283079
:1019E000310599F7892FDF91CF911F910F91FF90CA
:1019F000EF90DF90BF90AF9008958B818823F1F234
:101A000091E0E0CFD02EBDCFFF920F931F938C01BA
:101A1000F62E862F60E00E94A8368F2D90E0FC0104
:101A2000EA54FE4FE491D801EC9380599E4FFC019B
:101A30006491E62FF0E0EE0FFF1FEA5AFE4F85910A
:101A4000949112969C938E9311971B961C921B97C0
:101A50001D961C921D971C961C92F80187E090E041
:101A600012863197009711F00197FACF1F910F91CD
:101A7000FF9008951F920F920FB60F920BB60F9220
:101A800011242F933F934F935F936F937F938F9383
:101A90009F93AF93BF93EF93FF93E091710EF091FB
:101AA000720E1995FF91EF91BF91AF919F918F9118
:101AB0007F916F915F914F913F912F910F900BBE4E
:101AC0000F900FBE0F901F901895FC01A3E0440FDC
:101AD000551F661F771FAA95D1F7403080E0580741
:101AE00081E0680780E0780714F481E010C033E0FB
:101AF00075956795579547953A95D1F7403080E0B1
:101B0000580781E0680780E078071CF482E0828350
:101B100039C023E075956795579547952A95D1F774
:101B2000403080E0580781E0680780E0780714F4CF
:101B300083E0EDCF92E075956795579547959A9517
:101B4000D1F7403080E0580781E0680780E07807EF
:101B500014F484E0DCCF82E075956795579547953E
:101B60008A95D1F7403080E0580781E0680780E02F
:101B7000780714F485E0CBCF85E082834FEF5FEFE9
:101B800060E070E05183408350939700409396004B
:101B900080919100887F8093910080919100928143
:101BA000892B8093910008951092900020E120935A
:101BB00091000E94650D08950F931F93CF93DF93BB
:101BC000EC018B01121613061406150624F4BA0153
:101BD000A9010E94650D1C830B8381E08093710035
:101BE0007894809191009A81892B80939100DF9164
:101BF000CF911F910F91089583EF93E0089588E0AE
:101C000094E008958CE094E0089583E294E00895D0
:101C10008DE394E0089588E494E008958CE292E0E6
:101C200008950F931F938C0182E061E00E945B375F
:101C30000C5A174FF80110821F910F9108957F924F
:101C40008F929F92AF92BF92CF92DF92EF92FF92CC
:101C50000F931F93DF93CF930F920F92CDB7DEB701
:101C60004C0100E035E5C32E38E0D32EC80ED91E56
:101C70002BE6E22E28E0F22EE80EF91E5E01089413
:101C8000A11CB11C77247A940FC018E019837A82C2
:101C9000F7016081600FC401A50122E00E94941F3A
:101CA0001F5F1D3099F70F5F202F30E0F601808114
:101CB000918168E270E00E9488432617370728F375
:101CC0000F900F90CF91DF911F910F91FF90EF90A8
:101CD000DF90CF90BF90AF909F908F907F900895AE
:101CE0004F925F926F927F928F929F92AF92BF922C
:101CF000CF92DF92EF92FF920F931F93DF93CF93D8
:101D00000F920F92CDB7DEB78C012C01EE2475E552
:101D1000872E78E0972E880E991E65E4C62E68E01F
:101D2000D62EC80ED91E5BE6A52E58E0B52EA80EFD
:101D3000B91E3E010894611C711C33C048E0F42EAA
:101D400030E040E050E0F60180819181F801E80F39
:101D5000F91FE259FF4F20810196F601918380839C
:101D600080E090E0222311F481E090E0042E02C094
:101D7000880F991F0A94E2F7380F4F5F5F4F483082
:101D8000510509F73A83F50160816E0DF982C201B0
:101D9000A30122E00E94941FF394FDE0FF1681F658
:101DA000E3942E2D30E0F4018081918168E270E0AF
:101DB0000E9488432617370708F20F900F90CF91A3
:101DC000DF911F910F91FF90EF90DF90CF90BF9028
:101DD000AF909F908F907F906F905F904F900895FD
:101DE00082E060E00E945B3764EF71E080E090E0A9
:101DF0000E9403350895CF92DF92EF92FF920F93E6
:101E00001F93DF93CF93CDB7DEB72A970FB6F89421
:101E1000DEBF0FBECDBF8C014F83588769877A879D
:101E20006A017B01FC01EA54F74F60817181828174
:101E3000938124EA30E74DE75FE30E94AD429B01C6
:101E4000AC01C701B6010E94A94288230CF451C01D
:101E5000F801E654F74F60817181828193812EEA07
:101E600037E441E85FE30E94AD429B01AC01C7014A
:101E7000B6010E9418411816E4F18AEA8A838F811C
:101E80009885A985BA858B839C83AD83BE83ECE658
:101E9000EE2EE8E0FE2EE00EF11EC801F701608193
:101EA000AE014E5F5F4F25E00E94941F64E670E034
:101EB00080E090E00E94033585ED9DE0F7016081B0
:101EC00041E00E947C0585ED9DE00E94AC04892BD9
:101ED00091F085ED9DE00E94B504813061F4C80168
:101EE000F7016081AE014F5F5F4F21E00E94751FD7
:101EF00002C088E089832981222359F4045A174FAC
:101F00008F819885A985BA85F80180839183A28302
:101F1000B383822F2A960FB6F894DEBF0FBECDBFD3
:101F2000CF91DF911F910F91FF90EF90DF90CF90B5
:101F300008959F92AF92BF92CF92DF92EF92FF925D
:101F40000F931F93DF93CF93CDB7DEB72A970FB6CA
:101F5000F894DEBF0FBECDBF8C015A016B01922EEB
:101F60001982FC01E254F74FCB01BA012081318183
:101F7000428153810E94184118160CF44DC0F8019B
:101F8000E05AF74FC601B50120813181428153816A
:101F90000E941C416A837B838C839D8388EA8E83A5
:101FA0008A819B81AC81BD818F839887A987BA87FD
:101FB000FCE6EF2EF8E0FF2EE00EF11EC801F7015F
:101FC0006081AE014A5F5F4F25E00E94941F992017
:101FD00029F164E670E080E090E00E94033585ED31
:101FE0009DE0F701608141E00E947C0585ED9DE068
:101FF0000E94AC04892B91F085ED9DE00E94B50410
:10200000813061F4C801F7016081AE014F5F5F4F1D
:1020100021E00E94751F02C088E08983898188239E
:1020200039F4085A174FF801A082B182C282D382D4
:102030002A960FB6F894DEBF0FBECDBFCF91DF91C9
:102040001F910F91FF90EF90DF90CF90BF90AF90D6
:102050009F900895FC01E05AF74F408351836283BB
:10206000738338974081518162817381E855F840CC
:10207000CF0120E00E94990F08956F927F928F9276
:102080009F92AF92BF92CF92DF92EF92FF920F9307
:102090001F93CF93DF93EC01D62EA5E6EA2EA8E09E
:1020A000FA2EE80EF91E682EAD2E00E010E0E88151
:1020B000F981B8016C597F4F0088F189E02D862D98
:1020C0009A2D1995F701E00FF11F80830F5F1F4FC5
:1020D0000D35110561F7CB59D74F88819981C556C8
:1020E000D840892B39F5C959D74F88819981C7566E
:1020F000D840892BF9F49E012759374FF901808187
:102100009181892BB9F4FE01E355F74FC05AD74F9F
:1021100088819981AA81BB81C056D84080839183F0
:10212000A283B38381E090E0F90191838083CE01A3
:102130000E945312CB59D74F88819981C556D840F8
:10214000892BE1F4C959D74F88819981C756D84066
:10215000892BA1F4FE01E759F74F80819181019706
:1021600069F4C559D74F80E28883CB56D84082E0C6
:1021700090E091838083CE010E945312CB59D74FB8
:1021800088819981C556D840892B11F5C959D74FF7
:1021900088819981C756D840892BD1F4FE01E7592F
:1021A000F74F80819181029799F4CF54D74F80E007
:1021B00090E0A0EAB0E488839983AA83BB83C15BE3
:1021C000D84083E090E091838083CE010E94531237
:1021D000CB59D74F88819981C556D840892BD9F4DE
:1021E000C959D74F88819981C756D840892B99F40E
:1021F000FE01E759F74F80819181039761F4CB5439
:10220000D74F1882C55BD84084E090E091838083EB
:10221000CE010E945312CB59D74F88819981C55660
:10222000D840892B91F5C959D74F88819981C756D4
:10223000D840892B51F5FE01E759F74F80819181F4
:10224000049719F5CA54D74F80E090E0A8ECB2E4A7
:1022500089939993A993B99380E090E4ACE9B6E4AB
:1022600089939993A993B99380E090E0A8E4B3E4AB
:1022700088839983AA83BB83CE5BD84085E090E0B6
:1022800091838083CE010E945312CB59D74F88810E
:102290009981C556D840892B99F4C959D74F88815F
:1022A0009981C756D840892B59F4C759D74F88818F
:1022B0009981C956D840059719F4DD2009F4B3C0B7
:1022C000CB59D74F199219921992199285E090E043
:1022D0009983888324960F2EF0E0AF2EF0E4BF2E72
:1022E000FCE9CF2EF6E4DF2EF02DA992B992C99227
:1022F000D9920F2EF0E0EF2EF0E5FF2EF3E40F2F32
:10230000F8E41F2FF02DE992F9920993199320E038
:1023100034E244EF59E4288339834A835B8360962F
:102320000F2EF0E06F2EF0E07F2EF8E48F2EF3E416
:102330009F2EF02D699279928992999280E090E097
:10234000AAEFB4E489939993A993B993A992B99206
:10235000C992D992E992F992099319932883398302
:102360004A835B8364972FEF36EE4BE55EE228836A
:1023700039834A835B83A896288339834A835B83A6
:10238000ED978AE088832D9680E090E0A0E0B0E0B1
:1023900089939993A993B99388839983AA83BB83DB
:1023A0006C96299339934993599329933993499377
:1023B00059932993399349935993288339834A83AD
:1023C0005B83C55AD840FE01E355F74FC05AD74F3B
:1023D00088819981AA81BB8180839183A283B38301
:1023E0002B9680E28883CA5BDF4F80E090E0A0EA12
:1023F000B0E489939993A993B993199280E090E0FE
:10240000A8ECB2E489939993A993B993A992B9924C
:10241000C992D992688279828A829B82CE5BD840A7
:10242000CE010E945312C355D74FE880F9800A812C
:102430001B81CD5AD840C801B70120E030E040E010
:1024400050E00E941841FE01EC59F74F18161CF09D
:1024500081E0808309C0C05AD74FE882F9820A839D
:102460001B83C056D8401082CB54D74F8881C55BA0
:10247000D840882321F0CE0160E042E003C0CE01C5
:1024800060E041E00E943E34DF91CF911F910F91B7
:10249000FF90EF90DF90CF90BF90AF909F908F9084
:1024A0007F906F900895CF92DF92EF92FF920F93FB
:1024B0001F93CF93DF938C01B5E6EB2EB8E0FB2E94
:1024C000E80EF91E6C01C0E0D0E0F701EC0FFD1F33
:1024D000C601CC59DF4FBE0140810E946B1FC3561D
:1024E000D040CD35D10589F7C80160E00E943D108C
:1024F000DF91CF911F910F91FF90EF90DF90CF90E0
:1025000008952F923F924F925F926F927F928F9297
:102510009F92AF92BF92CF92DF92EF92FF920F9372
:102520001F93DF93CF930F920F92CDB7DEB78C013D
:102530000C5A174F81E0F801808304551840C801F8
:102540000E94F00EF801EB5AF74F11821082280119
:10255000AA24BB2498E2892E912C8BE6C82E88E011
:10256000D82EC00ED11E3E010894611C711C1F01A3
:10257000EA2CF8E1F9838FEF8A83F60160816A0D16
:10258000C201A30122E00E94941FF60160816A0D3E
:10259000C201A30121E00E94751F89818F3F09F0CC
:1025A0004AC0FF24F8E1FF0EF98288EEF80E1A8285
:1025B000F60160816E0DC201A30122E00E94941F0A
:1025C000F60160816E0DC201A30121E00E94751F1A
:1025D0008981882381F5F8E0FF0EF9828FEF8A83E5
:1025E000F60160816E0DC201A30122E00E94941FDA
:1025F000F9EFFF0E85E0F816A9F688ED90E160E3AB
:1026000072E00E94133E88ED90E1B5014AE050E08F
:102610000E94E13D88ED90E16AE372E00E94103F84
:10262000940128523040F1018081918182179307F3
:1026300011F4918280820894A11CB11C88E290E080
:10264000880E991E98E0A916B10409F091CF0B5A93
:10265000174FF801608171810555184088ED90E1B0
:102660004AE050E00E94433D88ED90E166E472E06C
:102670000E94103FC80140E050E46CE176E40E9403
:10268000FB0E0F900F90CF91DF911F910F91FF9054
:10269000EF90DF90CF90BF90AF909F908F907F9002
:1026A0006F905F904F903F902F9008952F923F92A0
:1026B0004F925F926F927F928F929F92AF92BF9252
:1026C000CF92DF92EF92FF920F931F93DF93CF93FE
:1026D000CDB7DEB7AA970FB6F894DEBF0FBECDBF59
:1026E0007C010E942E2082E061E00E945B3782E044
:1026F00061E00E94A83680E698E0E80EF91E80E0CE
:1027000090E0A6E9B3E4F70180839183A283B383C9
:1027100080EA97EFE80EF91EC70160E00E943D10C5
:10272000D701ED91FC910680F781E02DC701199545
:10273000BC0188ED90E10E94133E88ED90E16BE5CD
:1027400072E00E94133ED701ED91FC910484F5855F
:10275000E02DC7011995BC0188ED90E10E94103F62
:1027600088ED90E16EE572E00E94133ED701ED9195
:10277000FC910284F385E02DC7011995BC0188ED19
:1027800090E10E94103F88ED90E161E772E00E94C5
:10279000133EE5E6F8E0EE0EFF1ED7016D917D9148
:1027A0007D0188ED90E14AE050E00E94433D88EDD4
:1027B00090E168E872E00E94133EF7016191719127
:1027C0007F0188ED90E14AE050E00E94433D88EDB2
:1027D00090E168E872E00E94133ED7016D917C9110
:1027E000E7E9F7EFEE0EFF1E88ED90E14AE050E0DA
:1027F0000E94543D88ED90E16AE872E00E94133E29
:10280000F701E459F74F88ED90E160814AE050E02C
:102810000E94833DDD241E010894211C311C7FE0B1
:10282000472E512C4C0E5D1E6DE1662E712C6C0EE8
:102830007D1E56E1852E912C8C0E9D1E44E2A42E09
:10284000B12CAC0EBD1EC3C0CE0108966EEA72E07C
:102850000E942F40C1016D2D4AE00E946240CE01CE
:102860000896B1010E94F83F60EB72E00E94DC3FE5
:102870008C01C2016C2D4AE00E946240C801B20185
:102880000E94F83F64EC72E00E94DC3FBC0188EDDE
:1028900090E10E94233FC2010E949440C1010E9426
:1028A0009440CE0108960E949A40DD2041F0F1E06C
:1028B000DF1649F040E050E060E070E013C0EC2D1E
:1028C000F0E0329603C0EC2DF0E03896EE0FFF1FDB
:1028D000EE0FFF1FEE0DFF1DEB59F74F40815181A9
:1028E0006281738188ED90E122E030E00E94FD3E3C
:1028F000C3016EEA72E00E942F40C4016D2D4AE0D0
:102900000E946240C301B4010E94F83F67EC72E08C
:102910000E94DC3F8C01C5016C2D4AE00E946240A0
:10292000C801B5010E94F83F64EC72E00E94DC3FF0
:10293000BC0188ED90E10E94233FC5010E949440B4
:10294000C4010E949440C3010E949A40DD2041F0DE
:1029500081E0D81649F060E070E080E090E013C0BC
:10296000EC2DF0E0359603C0EC2DF0E03D96EE0F37
:10297000FF1FEE0FFF1FEE0DFF1DEB59F74F60819C
:1029800071818281938125EA34ED48E653E50E9406
:10299000AD42AB01BC0188ED90E122E030E00E9445
:1029A000FA3E88ED90E16CED72E00E94103FC39416
:1029B000DD2029F091E0D91631F485E001C083E0F3
:1029C000C81608F441CFD394A2E0DA1611F0CC2453
:1029D000EFCF88ED90E160EE72E00E94133EEBE6EF
:1029E000F8E0EE0EFF1E88ED90E1D7016C914AE011
:1029F00050E00E94833D88ED90E16DEF72E00E940F
:102A0000133EE2E4F0E0EE0EFF1ED7014D915D9122
:102A10006D917D917D0188ED90E122E030E00E9492
:102A2000FD3E88ED90E16DE073E00E94133EF701FA
:102A300041915191619171917F0188ED90E122E086
:102A400030E00E94FD3E88ED90E160E273E00E947C
:102A5000133ED7016C9188ED90E170E04AE050E0C0
:102A60000E94F43D88ED90E169E373E00E94133E1B
:102A7000EFEAFFEFEE0EFF1ED7016C9188ED90E1BB
:102A800070E04AE050E00E94F43D88ED90E165E599
:102A900073E00E94133EE2E5F0E0EE0EFF1ED70168
:102AA0004D915D916D917D917D0188ED90E122E0E8
:102AB00030E00E94FD3E88ED90E16DE673E00E94FB
:102AC000133EF70141915191619171917F0188ED20
:102AD00090E122E030E00E94FD3E88ED90E165E863
:102AE00073E00E94133EF70140815181628173813E
:102AF00088ED90E122E030E00E94FD3EAA960FB6FC
:102B0000F894DEBF0FBECDBFCF91DF911F910F9123
:102B1000FF90EF90DF90CF90BF90AF909F908F90FD
:102B20007F906F905F904F903F902F900895FC01A1
:102B30008FE794E091838083CF010E94291E08953E
:102B40000F931F938C0161E00E94CD208FE794E0EA
:102B5000F801918380830E5A174FF8011192108269
:102B60001F910F9108957F928F929F92AF92BF9283
:102B7000CF92DF92EF92FF920F931F93DF93CF9349
:102B80000F920F92CDB7DEB75C019B01742ECB0183
:102B900068E270E00E948843862EC90168E270E016
:102BA0000E9488436C01A3E096958795AA95E1F76A
:102BB000982E082D10E0FBE6EF2EF8E0FF2EEA0C31
:102BC000FB1CF7018081B801680F711D85ED9DE048
:102BD0000E94A204692D70E0685F7F4F85ED9DE043
:102BE0000E94240585ED9DE00E946705F701808124
:102BF000080F111D85ED9DE0B80141E050E00E94F5
:102C0000780585ED9DE00E94AC04892B11F481E0EC
:102C10003BC00C2D0770F8E09F0E998285ED9DE07A
:102C20000E94B504282F772071F481E090E0A0E0A5
:102C3000B0E004C0880F991FAA1FBB1F0A95D2F7E6
:102C4000282B2A830EC081E090E0A0E0B0E004C011
:102C5000880F991FAA1FBB1F0A95D2F78095822360
:102C60008A838BE698E0A80EB91EF501608185E99C
:102C700097EFA80EB91E680DC501AE014F5F5F4FFB
:102C800022E00E94941F80E00F900F90CF91DF917F
:102C90001F910F91FF90EF90DF90CF90BF90AF907A
:102CA0009F908F907F9008952F923F924F925F92C6
:102CB0006F927F928F929F92AF92BF92CF92DF924C
:102CC000EF92FF920F931F93DF93CF93CDB7DEB7B1
:102CD0006A970FB6F894DEBF0FBECDBF3C01B62E8B
:102CE00023E538E0620E731E81E0D3018D933D0130
:102CF0008C91ECEAF7EF6E0E7F1E882319F4C30166
:102D00000E948112F1EBBF1609F4B2C3FB15D8F192
:102D100028EAB21609F412C22B15D8F032EAB3161B
:102D200009F40DC13B1548F040EAB41609F469C036
:102D300051EAB51609F064C77CC064EAB61609F416
:102D4000A9C1B61608F418C177EAB71609F058C732
:102D5000DEC18DEAB81609F4A4C28B1548F099EAD1
:102D6000B91609F414C2AAEABA1609F049C76FC223
:102D7000BFEABB1609F4ECC2F301E05CF74FBB15E8
:102D800008F425C3C2C2E8EBBE1609F49DC6EB15D4
:102D9000D0F0F4EBBF1609F452C4FB1548F022EB57
:102DA000B21609F4BBC333EBB31609F029C72FC41D
:102DB00046EBB41609F4BCC4F301E05CF74F4B15C5
:102DC00008F442C698C45CEBB51609F4BEC65B15A0
:102DD00058F06AEBB61609F443C6F301E05CF74F0E
:102DE0006B1508F459C68FC674EFB71609F4E4C41E
:102DF00085EFB81609F4FFC59DEBB91609F000C7B9
:102E0000C7C6A0E4B8E06A0E7B1EF3018081918101
:102E100020EC37EF620E731E830104591F4F892B7C
:102E200009F0B4C6B3016B5A774FC30142E050E0DA
:102E30002CC120E438E0620E731ED3018D919C9169
:102E4000E0ECF7EF6E0E7F1E830104591F4F892BB4
:102E500009F09CC6D8011C92688EA72CCC24F301E3
:102E6000EB5AF74FFA8FE98F5BE6252E58E0352EA7
:102E7000260C371C480154C048E0D42E2901D1014A
:102E80008C91B201680F711D85ED9DE00E94A20436
:102E900085ED9DE06D2D0E94240585ED9DE00E944D
:102EA0006705F1018081B201680F711D85ED9DE01C
:102EB00041E050E00E94780585ED9DE00E94AC0461
:102EC000892B21F185ED9DE00E94B50400E010E022
:102ED000E82EFF24C701002E02C0959587950A941D
:102EE000E2F721E030E08227932781708983888D83
:102EF0009A2DBE016F5F7F4F41E050E00E942F1E70
:102F00000F5F1F4F0830110529F704C0E1E0D4011D
:102F1000EC9305C0D394FDE0DF1609F0B0CFC39465
:102F20002C2D30E0A98DBA8D8D919C9168E270E0D6
:102F30000E9488432617370708F49ECF61C6F30125
:102F4000E05CF74F25E538E0620E731E2081318189
:102F5000D3018D919C91EBEAF7EF6E0E7F1E8301FA
:102F600004591F4F2817390709F010C6C3010E94E2
:102F7000700ED8011C9244C620E438E0620E731E25
:102F8000D3018D919C91E0ECF7EF6E0E7F1E0297BE
:102F900009F02BC6D301AB5BB74F8D919C91119774
:102FA00082599F4FF301E80FF91F0190F081E02D46
:102FB0008C5690408D939C9325E538E0620E731EED
:102FC000D3018D919C912BEA37EF620E731EE817A7
:102FD000F90728F04CE650E0640E751E16C3CF01C9
:102FE00068E270E00E9488436C01CF0168E270E003
:102FF0000E948843062F10E03BE6E32E38E0F32ED4
:10300000E60CF71CD7018C91B801680F711D85ED96
:103010009DE00E94A204B60123E0769567952A956B
:10302000E1F770E0685F7F4F85ED9DE00E94240529
:1030300085ED9DE00E946705F7018081080F111D55
:1030400085ED9DE0B80141E050E00E94780585EDF6
:103050009DE00E94AC04830104591F4F892BC1F0ED
:1030600085ED9DE00E94B50490E02C2D277002C0F4
:10307000959587952A95E2F7809581708983C3019C
:10308000BE016F5F7F4F41E050E00E942F1E71CF65
:1030900081E03AC020E438E0620E731ED3018D91C6
:1030A0009C91E0ECF7EF6E0E7F1E039709F09DC533
:1030B000D301AB5BB74F8D919C911197FC01E25905
:1030C000FF4FE60DF71D60817181F301E80FF91FD5
:1030D000E059FF4F408103968D939C9325E538E09E
:1030E000620E731ED3018D919C91EBEAF7EF6E0E89
:1030F0007F1E830104591F4F6817790720F4C3010D
:103100000E94B315CBC085E0F801808379C520E427
:1031100038E0620E731ED3018D919C91E0ECF7EFC5
:103120006E0E7F1E830104591F4F892B09F02EC597
:10313000D8011C92B301685A774F7FC220E438E06F
:10314000620E731ED3018D919C91E0ECF7EF6E0E31
:103150007F1E830104591F4F049709F017C5D3013F
:10316000AB5BB74F8D919C91119782599F4FF301A3
:10317000E80FF91F40815181628173818A56904026
:103180008D939C93C30121E00E94990F87C020E496
:1031900038E0620E731ED3018D919C91E0ECF7EF45
:1031A0006E0E7F1E892B09F020C5F62CE72C8301BB
:1031B0000459174FC301D8016C9149EA0E94B81F06
:1031C00064E670E080E090E00E94033585ED9DE0CC
:1031D000F801608141E00E947C0585ED9DE00E9440
:1031E000AC04892B09F40CC585ED9DE00E94B50463
:1031F000853009F005C538018F2D9E2DD8016C91C1
:10320000AE01475F5F4F25E00E94751F8D85E0E0AE
:10321000F8EF6E0E7F1ED3018C93E4E9FFEF6E0E84
:103220007F1E882309F0ECC4F301E45AF74F898527
:103230009A85AB85BC8580839183A283B3838F2DD0
:103240009E2DBF0144E050E00E942F1ED9C420E40F
:1032500038E0620E731ED3018D919C91E0ECF7EF84
:103260006E0E7F1E830104591F4F049709F08EC410
:10327000D301AB5BB74F8D919C91119782599F4FB2
:10328000F301E80FF91F40815181628173818A56F1
:1032900090408D939C93C3010E94FB0ED8018C93A8
:1032A000AFC420E438E0620E731ED3018D919C916F
:1032B000E0ECF7EF6E0E7F1E019709F096C4D30184
:1032C000AB5BB74F8D919C911197F301E80FF91FFC
:1032D000E259FF4F208101968D939C9383010459FD
:1032E0001F4F223008F00FCF30E08BE190E0289F95
:1032F000F001299FF00D389FF00D1124E758F14F90
:1033000081818983D8011C923AC480819181830193
:1033100004591F4F029709F039C4D301AB5BB74F73
:103320002D913C911197F301E20FF31FE259FF4FEA
:1033300080812F5F3F4FF301E20FF31FE259FF4FF0
:1033400060812F5F3F4F2D933C930E94052EA6CFA7
:1033500020E438E0620E731ED3018D919C91E0EC65
:10336000F7EF6E0E7F1E019709F03FC4D301AB5BF0
:10337000B74F8D919C911197F301E80FF91FE25916
:10338000FF4F408101968D939C93830104591F4FF9
:10339000423008F0B8CED8011C92242F30E08BE1E7
:1033A00090E0289FF001299FF00D389FF00D112427
:1033B000E758F14FE181442321F0413009F08FC0FB
:1033C00003C0F0E0329695C0F0E0389692C080815C
:1033D0009181830104591F4F059709F092C3D301CE
:1033E000AB5BB74F8D919C911197F301E80FF91FDB
:1033F000E259FF4FE08101968D939C93D8011C9276
:10340000EE2321F0E13009F0FCC019C0E0917A0E02
:10341000F0E0B3016B5B774FDB018D919C9182599A
:103420009F4FD301A80FB91F2D913D914D915C91F4
:103430008A569040DB018D939C933296D2C0E091E6
:10344000950EF0E0B3016B5B774FDB018D919C91A2
:1034500082599F4FD301A80FB91F2D913D914D91D6
:103460005C918A569040DB018D939C933896B9C04D
:10347000E0E4F8E06E0E7F1ED3018D919C91E0ECAC
:10348000F7EF6E0E7F1E019709F0AFC3D301AB5B60
:10349000B74F8D919C911197F301E80FF91FE259F5
:1034A000FF4F408101968D939C93830104591F4FD8
:1034B000423008F028CED8011C92242F30E08BE156
:1034C00090E0289FF001299FF00D389FF00D112406
:1034D000E758F14FE181442339F0413041F080E079
:1034E00090E0A0E0B0E011C0F0E0359602C0F0E05E
:1034F0003D96EE0FFF1FEE0FFF1FE60DF71DEB5978
:10350000F74F80819181A281B38189839A83AB83B4
:10351000BC83C301BE016F5F7F4F94CE20E438E0CF
:10352000620E731ED3018D919C91E0ECF7EF6E0E4D
:103530007F1E830104591F4F059709F0E2C2A301C2
:103540004B5B574FDA012D913C911197F301E20F3C
:10355000F31FE259FF4FE0812F5F3F4F2D933C93C4
:1035600021503040D8011C92EE2321F0E13009F0C7
:1035700048C01FC0E0917A0EF0E021593F4FD301BF
:10358000A20FB31FED90FD900D911C912A56304073
:10359000DA012D933C933596EE0FFF1FEE0FFF1FC0
:1035A000E60DF71DEB59F74FE082F182028313839A
:1035B00024C0E091950EF0E0B3016B5B774FDB0127
:1035C0008D919C9182599F4FD301A80FB91F2D91C6
:1035D0003D914D915C918A569040DB018D939C9377
:1035E0003D96EE0FFF1FEE0FFF1FE60DF71DEB5987
:1035F000F74F2083318342835383C3010E945312C8
:10360000FFC2ECE6F0E06E0E7F1E85E0F3C2E0E460
:10361000F8E06E0E7F1ED3018D919C91E0ECF7EFE8
:103620006E0E7F1E830104591F4F892B09F0AEC215
:10363000D8011C92B301605A774FC30103CE20E436
:1036400038E0620E731ED3018D919C91E0ECF7EF90
:103650006E0E7F1E049709F0C8C2F301EB5BF74FB3
:103660008081918182599F4FD301A80FB91FED909E
:10367000FD900D911C918A56904091838083C801E2
:10368000B70120E030E040E050E00E94A942181667
:1036900064F5F301EC59F74F8081882379F020E637
:1036A00038E0620E731ED301ED92FD920D931C93D0
:1036B0001397E0EAF7EF6E0E7F1E12C02DEA38E096
:1036C000620E731ED301ED92FD920D931C9313971E
:1036D00023E537EF620E731E1082C3010E9453125E
:1036E0004CE650E0640E751E7DC22CE630E0620EA2
:1036F000731E88E07FC280819181830104591F4F2E
:10370000892B09F043C2D8011C9210E0F301E35564
:10371000F74F608171818281938120E030E040E049
:1037200050E00E94184118160CF011E0198327C2CE
:1037300020E438E0620E731ED3018D919C91E0EC81
:10374000F7EF6E0E7F1E019709F04FC2D301AB5BFE
:10375000B74F8D919C911197F301E80FF91FE25932
:10376000FF4F208101968D939C93F301E355F74F12
:10377000222349F080E090E0A0E0B0E080839183D4
:10378000A283B38311C020E638E0620E731ED3011A
:103790002D913D914D915C9160EA77EF660E771E19
:1037A0002083318342835383C3010E9453128CE6EA
:1037B00090E0680E791E16C220E438E0620E731E97
:1037C000D3012D913C91E0ECF7EF6E0E7F1E2A3075
:1037D000310508F40AC2D301AB5BB74F8D919C91C0
:1037E0001197FC01E259FF4FE60DF71D4081518111
:1037F000628173814C8B5D8B6E8B7F8B04961196EF
:103800009C938E930497FC01EE58FF4FE60DF71D35
:10381000608171817B8B6A8BFC01EC58FF4FE60D58
:10382000F71D40815181628173814E875F87688B6C
:10383000798BF301E80FF91FE858FF4F10810B96C1
:103840008D939C932B30310581F065E578E0660E11
:10385000771ED3018D919C91EBEAF7EF6E0E7F1EE0
:103860000B962817390709F0EEC12A893B892B549A
:10387000314008F0BAC06C897D898E899F8920E02B
:1038800030E04AE754E40E941C4120E030E44CE17F
:1038900057E40E94AD4220E030E040E855E40E9449
:1038A000184188230CF0A1C06CE670E0660E771E0C
:1038B000D3011C92E4E9FFEF6E0E7F1EF301E05C82
:1038C000F74F25E538E0620E731ED3018D919C9170
:1038D0002BEA37EF620E731E0B9620813181281779
:1038E000390719F4C3010E94700EA12E0E94DD3425
:1038F0001B012C014CE558E0640E751ED301CD90E0
:10390000DD90ED90FC90E4EAF7EF6E0E7F1EF0E0A4
:1039100010FDF1E0E0E0A1FCE1E06C897D898E8999
:103920009F894A895B890E851F8528893989AF2E31
:103930008E2E0E947D2E2CE630E0620E731ED30187
:103940008C93E4E9FFEF6E0E7F1E882309F058C1C7
:103950000E94DD3462197309840995090E94B541FA
:103960007B018C012A893B89B90180E090E00E94AB
:10397000B54120E030E04AE754E40E94AD429B01AB
:10398000AC01C801B7010E941C4169837A838B8313
:103990009C83C301BE016F5F7F4F44E050E00E94F3
:1039A0002F1EC30160E97EE044E050E00E942F1E1C
:1039B000C3016BEA7EE044E050E00E942F1E40E627
:1039C00058E0640E751EF30180819181A281B3815C
:1039D00020EA37EF620E731E8D839E83AF83B88714
:1039E000C301BE016B5F7F4F2DCC4CE650E0640EEF
:1039F000751E81E0FFC020E438E0620E731ED30123
:103A00008D919C91E0ECF7EF6E0E7F1E83010459BF
:103A10001F4F019709F0BAC0D8011C92D301AB5BCC
:103A2000B74F8D919C911197F301E80FF91FE2595F
:103A3000FF4F208101968D939C9360E0211161E0FE
:103A4000C3010E943D10DCC0808191818301045933
:103A50001F4F892B09F09AC0D8011C9282E08EC0BA
:103A600020E438E0620E731ED3018D919C91E0EC4E
:103A7000F7EF6E0E7F1E830104591F4F892B09F04B
:103A800040C0D8011C92E2E5F8E06E0E7F1ED30123
:103A90008C91EEEAF7EF32C080819181019709F0B5
:103AA000A4C0D301AB5BB74F8D919C911197F301EB
:103AB000E80FF91FE259FF4F208101968D939C93E7
:103AC000F301EE5AF74F36C020E438E0620E731E61
:103AD000D3018D919C91E0ECF7EF6E0E7F1E830178
:103AE00004591F4F892B69F4D8011C92E3E5F8E0D3
:103AF0006E0E7F1ED3018C91EDEAF7EF6E0E7F1EE6
:103B00003DC086E0CBCB80819181019709F06DC0EB
:103B1000D301AB5BB74F8D919C911197F301E80FE7
:103B2000F91FE259FF4F208101968D939C93F30179
:103B3000ED5AF74F222319F081E0808301C01082F3
:103B4000ECE6F0E06E0E7F1E4DC020E438E0620E21
:103B5000731ED3018D919C91E0ECF7EF6E0E7F1EEA
:103B6000830104591F4F892B89F4D8011C9282E0EC
:103B70000E948E371982892B11F481E08983C30159
:103B8000BE016F5F7F4F41E050E05ECB86E0BCCA74
:103B900020E438E0620E731ED3018D919C91E0EC1D
:103BA000F7EF6E0E7F1E019701F5D301AB5BB74FA8
:103BB0008D919C911197F301E80FF91FE259FF4F86
:103BC000208101968D939C93222321F0C3010E94B2
:103BD000F00E04C082E061E00E945B372CE630E02A
:103BE000620E731ED3011C9207C02CE630E0620EF9
:103BF000731E86E0D3018C93E4E9FFEF6E0E7F1E07
:103C0000C3016B2D0E94C2222CE630E0620E731EAF
:103C1000D3018C916A960FB6F894DEBF0FBECDBF6C
:103C2000CF91DF911F910F91FF90EF90DF90CF9098
:103C3000BF90AF909F908F907F906F905F904F90CC
:103C40003F902F900895ECE6F0E06E0E7F1ED1CFEE
:103C50000895FC0186EA94E09183808308950F9390
:103C60001F93CF93DF938C0120E030E0EC01C95B20
:103C7000D74F10C0F801E20FF31F88819981E80F38
:103C8000F91FE259FF4FDB01A20FB31F8C91808314
:103C90002F5F3F4F2417350768F388819981840F80
:103CA000951F99838883DF91CF911F910F9108957C
:103CB000CF93DF93DC01FC01E359FF4F6081EC01FE
:103CC000C459DF4F67FF0EC06058608382E088836D
:103CD000ED91FC91119760580488F589E02DCD0194
:103CE00019950EC0FC01E05CF74F80819181A80F0F
:103CF000B91FA359BF4F2C912883019791838083CB
:103D0000DF91CF910895CF93DF93EC01FC01E75B46
:103D1000F74F6D3719F481E08083DAC090819923E1
:103D200011F080E268276E3749F4992339F4CD5BAE
:103D3000D74F19821882C354D840C4C0CD5BD74F27
:103D400028813981C354D84021153105A1F4C359C4
:103D5000DF4F6883C152D84F8881CC54D840882324
:103D600009F448C0C15BD74F8FEF9FEF99838883D9
:103D7000CF54D8403FC021303105B1F4DE01AE5BF5
:103D8000B74FFE01E05CF74F67FF09C083E08C93FB
:103D9000862F90E08F779070108281832BC082E015
:103DA0008C936083118226C02230310589F4CE5B6A
:103DB000D74F8881C254D840833051F4FE01E05C73
:103DC000F74F80819181860F911D9183808312C06E
:103DD000CE5BD74F8881F901E81BF1099A918A914E
:103DE000C054D840E817F90728F4EC0FFD1FE2593A
:103DF000FF4F6083C45BD74F8881CC54D840882361
:103E0000F1F0FE01E15BF74F808191818627282F39
:103E100022952827022E269526952025022E2695C6
:103E200020252770082E892F269507942795902DF9
:103E30008227069427959025822791838083FE010F
:103E4000ED5BF74F408151814F5F5F4F518340835E
:103E5000CE5BD74F88813A912A91280F311D2C963D
:103E60006881CC54D840862F90E0880F991F280F86
:103E7000391F4217530731F511821082CB5BD74FA0
:103E80001992199219821882C754D840662341F0BA
:103E9000C15BD74F88819981CF54D840892B19F4C1
:103EA000CE010E94581EFE01E55BF74F90819923D9
:103EB00049F0C359DF4F90588881CD56D0408917BB
:103EC00009F41082FE01E75BF74F808181111082B7
:103ED000DF91CF9108958EE89DE00E9456040895E9
:103EE0008EE89DE00E944F0408951F93CF93DF93C7
:103EF000EA0185ED9DE0422F0E947C0510E009C09B
:103F000085ED9DE00E94B504FE01E10FF11D808367
:103F10001F5F85ED9DE00E94AC04892B89F7812FFE
:103F2000DF91CF911F910895FF920F931F93CF932D
:103F3000DF93142F052FF22E85ED9DE00E9498044B
:103F4000212F302FC901EC0110E006C085ED9DE066
:103F500069910E9424051F5F1F15C0F385ED9DE048
:103F60000E946705DF91CF911F910F91FF900895F7
:103F7000FF920F931F93F42E05ED1DE0C8010E94E0
:103F80009804C8016F2D0E942405C8010E9467058E
:103F90001F910F91FF900895DF92EF92FF920F9380
:103FA0001F93DF93CF930F92CDB7DEB77C01D62E50
:103FB00088E089838701095B174F43C085ED9DE049
:103FC0000E94980485ED9DE00E9467058823B1F565
:103FD000DD2071F0F80180819181F701E80FF91F70
:103FE000E259FF4F298120830196F8019183808354
:103FF00088ED90E16DE973E00E94133E88ED90E159
:1040000069814AE050E00E94713D88ED90E161EBEA
:1040100073E00E94133E88ED90E1698140E150E039
:104020000E94713D88ED90E166EB73E00E94103FC5
:1040300061E070E080E090E00E94033589818F5F4D
:1040400089836981683708F4B9CF0F90CF91DF91E8
:104050001F910F91FF90EF90DF900895AF92BF9264
:10406000CF92DF92EF92FF920F931F93DF93CF9344
:1040700000D00F92CDB7DEB77C016E010894C11C51
:10408000D11C56010FE010E0D701ED91FC910088A2
:10409000F189E02DC701B8011995F50181935F0100
:1040A0000F5F1F4F0331110579F789819A81AB8129
:1040B000BC818F5F9F4FAF4FBF4FD9F480E092EC30
:1040C000A1E0B0E089839A83AB83BC830FE010E06A
:1040D000D701ED91FC910288F389E02DC701B80169
:1040E000D6014D916D0119950F5F1F4F03311105D9
:1040F00079F749815A816B817C8188ED90E10E943A
:10410000033A85ED9DE00E9480050E9481040E9493
:10411000660A870108591F4FF80160837183828303
:10412000938388ED90E168EB73E00E94133ED80121
:104130004D915D916D917C9188ED90E122E030E0B0
:104140000E94FA3E88ED90E16AEC73E00E94103F15
:104150000F900F900F900F90CF91DF911F910F91C3
:10416000FF90EF90DF90CF90BF90AF900895CF93E6
:10417000DF93EC0108C088ED90E10E94BB3A682F04
:10418000CE010E94831E88ED90E10E948A3A1816A3
:1041900019068CF3DF91CF9108957F928F929F92B1
:1041A000AF92BF92CF92DF92EF92FF920F931F9345
:1041B000CF93DF93FC0186EA94E091838083E45BF4
:1041C000F74F6083399711821082369610823997A3
:1041D00011821082359611921192118210823A96B4
:1041E0001082AA24BB24882499248EE89DE0B5017E
:1041F0000E944F04182FB501695F7F4F8EE89DE044
:104200000E944F04E401EE24FF24C12EDD24C0945B
:10421000D094082F10E000951095C633D105B4F462
:10422000B6010E2C02C0759567950A94E2F761708D
:104230008C2F0E94A836B8010E2C02C07595679588
:104240000A94E2F761708C2F0E945B370894E11C9E
:10425000F11C219688E0E816F104F9F60894A11CF7
:10426000B11C88E090E0880E991E97E0A916B10471
:1042700009F0BBCFDF91CF911F910F91FF90EF908D
:10428000DF90CF90BF90AF909F908F907F900895D8
:104290001F93162F862F8D57823050F488ED90E1B2
:1042A0006DE70E94F43A60E2612788ED90E102C078
:1042B00088ED90E10E94F43A1F9108958F929F92A9
:1042C000AF92BF92CF92DF92EF92FF920F931F9324
:1042D000CF93DF93EC01BEE6EB2EF12CE80EF91E36
:1042E00000E010E0A0E48A2EA8E09A2E880E991E25
:1042F000FCE4AF2EF8E0BF2EA80EB91EEDE4CE2EE2
:10430000E8E0DE2EC80ED91E2AC0F5018081882380
:10431000F1F0F7012081F601808191818227282F19
:1043200022952827022E269526952025022E2695B1
:1043300020252770082E892F269507942795902DE4
:104340008227069427959025822791838083CE012A
:10435000F70161917F010E9448210F5F1F4FF40117
:10436000808191810817190708F4CFCFF50180816A
:10437000882369F08E01035B174FCE01F80160813D
:104380000E944821F8016181CE010E944821C05C51
:10439000D74F19821882279619821882DF91CF9100
:1043A0001F910F91FF90EF90DF90CF90BF90AF9053
:1043B0009F908F9008950F931F93CF93DF93EC01FD
:1043C000062FFC01E05CF74FC95BD74F88819981CC
:1043D0009183808388ED90E16EE70E94F43A259600
:1043E0008881CC54D8408823F9F0C35BD74F8FEF36
:1043F0009FEF8027282F22952827022E2695269585
:104400002025022E269520252770082E892F2695F7
:1044100007942795902D822706942795902582272B
:1044200099838883CD54D840CE01602F0E944821C3
:10443000DE01A05CB74F2D913C911197FE01E45B2A
:10444000F74F2038310530F580818823F1F0FE01E7
:10445000E35BF74F808191818227282F22952827BF
:10446000022E269526952025022E2695202527709A
:10447000082E892F269507942795902D822706943C
:1044800027959025822791838083CE01C05CD74FEA
:10449000688149C08081882309F437C03068FE01F3
:1044A000E35BF74F808191818327282F229528276E
:1044B000022E269526952025022E2695202527704A
:1044C000082E892F269507942795902D82270694EC
:1044D0002795902582272C918227282F22952827FF
:1044E000022E269526952025022E2695202527701A
:1044F000082E892F269507942795902D82270694BC
:10450000279590258227918380838E01005C174F29
:10451000F801208131813068CE01632F0E9448214B
:10452000CE01F80160810E944821DF91CF911F9157
:104530000F9108950F931F93DF93CF930F92CDB7F1
:10454000DEB78C016983DC01A95BB74F8D919C912B
:104550001197F801E80FF91FE259FF4F60830196A8
:104560008D939C93F801E359FF4FC80160810E942D
:10457000DB21C8010E945E210F90CF91DF911F9136
:104580000F9108956F927F929F92AF92BF92CF92B8
:10459000DF92EF92FF920F931F93DF93CF93CDB7EC
:1045A000DEB76C970FB6F894DEBF0FBECDBF7C01AF
:1045B0006DB67EB670E0CB01805890408F3191058A
:1045C00008F0D5C68E589F4FD701A05CB74FFC01AD
:1045D000EE0FFF1F0590F491E02D19948D919C91A1
:1045E000892B09F0F6C5D701ED91FC910280F3818A
:1045F000E02DC70119958C01D701ED91FC91028046
:10460000F381E02DC7011995DC010D900020E9F739
:10461000AD0141505040481B590B20E030E0B7013C
:10462000695B774F11C0F701E20FF31FDB018D913A
:104630009C91E80FF91FE259FF4FD801A20FB31F59
:104640008C9180832F5F3F4F2417350760F35BC148
:104650008D919C91892B09F0BCC5D701ED91FC91FE
:104660000480F581E02DC70119958C01D701ED91EA
:10467000FC910480F581E02DC7011995DC010D90B6
:104680000020E9F7AD0141505040481B590B20E094
:1046900030E0B701695B774F11C0F701E20FF31FFC
:1046A000DB018D919C91E80FF91FE259FF4FD80172
:1046B000A20FB31F8C9180832F5F3F4F24173507C4
:1046C00060F321C18D919C91892B09F082C5D7019E
:1046D000ED91FC910680F781E02DC70119958C01C1
:1046E000D701ED91FC910680F781E02DC701199566
:1046F000DC010D900020E9F7AD0141505040481B0E
:10470000590B20E030E0B701695B774F11C0F7012A
:10471000E20FF31FDB018D919C91E80FF91FE25925
:10472000FF4FD801A20FB31F8C9180832F5F3F4FA3
:104730002417350760F3E7C08D919C91892B09F010
:1047400048C5D701ED91FC910084F185E02DC701AA
:1047500019958C01D701ED91FC910084F185E02D34
:10476000C7011995DC010D900020E9F7AD0141501A
:104770005040481B590B20E030E0B701695B774F90
:1047800011C0F701E20FF31FDB018D919C91E80F3F
:10479000F91FE259FF4FD801A20FB31F8C918083FC
:1047A0002F5F3F4F2417350760F3ADC08D919C916B
:1047B000892B09F00EC5D701ED91FC910284F38598
:1047C000E02DC70119958C01D701ED91FC91028470
:1047D000F385E02DC7011995DC010D900020E9F764
:1047E000AD0141505040481B590B20E030E0B7016B
:1047F000695B774F11C0F701E20FF31FDB018D9169
:104800009C91E80FF91FE259FF4FD801A20FB31F87
:104810008C9180832F5F3F4F2417350760F373C05F
:104820008D919C91892B09F0D4C4D701ED91FC9115
:104830000484F585E02DC70119958C01D701ED9110
:10484000FC910484F585E02DC7011995DC010D90DC
:104850000020E9F7AD0141505040481B590B20E0C2
:1048600030E0B701695B774F11C0F701E20FF31F2A
:10487000DB018D919C91E80FF91FE259FF4FD801A0
:10488000A20FB31F8C9180832F5F3F4F24173507F2
:1048900060F339C08D919C91892B09F09AC4D7019E
:1048A000ED91FC910684F785E02DC70119958C01E7
:1048B000D701ED91FC910684F785E02DC70119958C
:1048C000DC010D900020E9F7AD0141505040481B3C
:1048D000590B20E030E0B701695B774F11C0F70159
:1048E000E20FF31FDB018D919C91E80FF91FE25954
:1048F000FF4FD801A20FB31F8C9180832F5F3F4FD2
:104900002417350760F3FB0180819181840F951F87
:104910005DC48D919C91892B09F05BC420E030E04F
:10492000B701695B774FF701E20FF31FDB014D9190
:104930005C91E40FF51FE259FF4FD901A956BB4F17
:104940008C9180832F5F3F4F2A30310561F7465F9E
:104950005F4F1FC28D919C91870104591F4F029791
:1049600009F0D6C3D701AB5BB74F2D913C9111979E
:10497000F701E20FF31FE259FF4F80812F5F3F4F96
:10498000F701E20FF31FE259FF4F60812F5F3F4FA6
:104990002D933C930E94A836B8C38D919C918701BA
:1049A00004591F4F029709F0B3C3D701AB5BB74F50
:1049B0002D913C911197F701E20FF31FE259FF4F40
:1049C00080812F5F3F4FF701E20FF31FE259FF4F46
:1049D00060812F5F3F4F2D933C930E945B3795C3BF
:1049E0008D919C91870104591F4F019709F090C345
:1049F000D701AB5BB74F2D913C911197F701E20FB7
:104A0000F31FE259FF4F80812F5F3F4F2D933C935F
:104A10000E948E378983D701A95BB74F2D913C91B6
:104A20001197F701E20FF31FE259FF4F80832F5FC9
:104A30003F4F2D933C9369C38D919C9187010459FD
:104A40001F4F029709F064C3D701AB5BB74F2D919D
:104A50003C911197F701E20FF31FE259FF4F80815C
:104A60002F5F3F4F11963C932E9322593F4FF701F2
:104A7000E20FF31F608171812C5630402D933C93DF
:104A80000E94C83542C32CE630E0E20EF31E86E0F9
:104A9000F701808324E93FEFE20EF31E2D913C9154
:104AA0002230310508F463C4ADB69EB6D701AB5BC6
:104AB000B74F8D919C911197F701E80FF91FE259BB
:104AC000FF4FB08001968D939C938DB79EB78B1945
:104AD00091090FB6F8949EBF0FBE8DBFCDB6DEB65E
:104AE0000894C11CD11C2230310519F491E0B9168B
:104AF000D9F08B2D90E003962817390709F096C05E
:104B000013C08D919C911197F701E80FF91FE2599D
:104B1000FF4F2081019611969C938E93F601E30F2F
:104B2000F11D20833F5F04C030E0D701AB5BB74F7E
:104B30003B1538F3A0E4B8E0EA0EFB1EF7018081D4
:104B4000918120EC37EFE20EF31E029701F1F7019D
:104B5000EB5BF74F8081918182599F4FD701A80F5E
:104B6000B91F0D911C918C5690409183808333E046
:104B7000093E130770F08CE690E0E80EF91E89E01C
:104B8000D7018C93E4E9FFEFEE0EFF1E4FC001E06A
:104B900010E02CE630E0E20EF31ED7011C921093D9
:104BA000560E0093550EE2E0F0E0EE0EFF1EF0927E
:104BB000520EE092510E22E93FEFE20EF31E80E02A
:104BC0000E94AB0831E0B31629F4D6018C910E9403
:104BD000C50812C0D092590EC092580EB0925B0E0A
:104BE00010925C0E88E099E090935E0E80935D0ECB
:104BF000F60180810E94EE080E94FA0A2091550E6B
:104C00003091560E8091530E9091540E8217930757
:104C1000C9F70E94A80AF701E95BF74F000F111FBF
:104C200080819181080F191F118300838A2D992D8E
:104C30009C010FB6F8943EBF0FBE2DBF98C38D9157
:104C40009C91870104591F4F039709F08DC3D70129
:104C5000AB5BB74F8D919C911197FC01E259FF4FCF
:104C6000EE0DFF1D60817181F701E80FF91FE0591A
:104C7000FF4F408103968D939C93D701ED91FC915A
:104C80000288F389E02DC70119956BC38D919C9122
:104C9000870104591F4F029709F066C3D701AB5B28
:104CA000B74F8D919C91119782599F4FF701E80F53
:104CB000F91F608171818C5690408D939C93D70130
:104CC000ED91FC910088F189E02DC7011995898348
:104CD000D701A95BB74F2D913C911197F701E20FD6
:104CE000F31FE259FF4F80832F5F3F4F2CC38D91FD
:104CF0009C91029709F06DC2D701AB5BB74F8D91C4
:104D00009C911197F701E80FF91FE259FF4F60815D
:104D10000196F701E80FF91FE259FF4FA0800196B5
:104D20008D939C938E01015F1F4FC8010E94040D5B
:104D3000C8010E94300BDD24B02EC12E8E01095F08
:104D40001F4F8B2D9C2DB8010E946E0CD394AD1477
:104D5000C0F7882341F120E030E0B701695B774F6D
:104D60008E01095F1F4FF701E20FF31FDB014D9129
:104D70005C91E40FF51FE259FF4FD801A20FB31F5A
:104D80008C9180832F5F3F4F2830310561F7485F5A
:104D90005F4FFB01518340832CE630E0E20EF31EAF
:104DA000D7011C92A6C22CE630E0E20EF31E85E08D
:104DB0009EC28D919C910B9709F00BC2D701AB5B02
:104DC000B74F8D919C911197F701E80FF91FE259A8
:104DD000FF4F6081019611969C938E9347E0C42EFD
:104DE000D12CCC0EDD1EAD01C601BC2CA92E8E012E
:104DF000015F1F4FFA0180819181F701E80FF91FD0
:104E0000E259FF4F20810196FA0191838083F601D8
:104E100021936F01E017F10769F78D919C9111972C
:104E2000F701E80FF91FE259FF4F10810196F701D2
:104E3000E80FF91FE259FF4F008101968D939C9373
:104E4000C6010E94040DC6010E94230CC6016B2DF1
:104E50007A2D0E94020CC601612F40E00E94C20B15
:104E600010E03FE0A32EB12CAC0EBD1E27E4C22EF5
:104E700028E0D22ECE0CDF1C13C0C5010E94710B9E
:104E80008983D6012D913C911197F701E20FF31F11
:104E9000E259FF4F80832F5F3F4F2D933C931F5F5D
:104EA000101758F3ECE6F0E0EE0EFF1E79CF8D916F
:104EB0009C910B9709F08DC1D701AB5BB74F8D91DA
:104EC0009C911197F701E80FF91FE259FF4F60819C
:104ED000019611969C938E9397E0C92ED12CCC0EFF
:104EE000DD1EAD01C601BC2CA92E8E01015F1F4F36
:104EF000FA0180819181F701E80FF91FE259FF4F14
:104F000020810196FA0191838083F60121936F013C
:104F1000E017F10769F78D919C911197F701E80F60
:104F2000F91FE259FF4F00810196F701E80FF91FC1
:104F3000E259FF4F108101968D939C93C6010E9408
:104F4000040DC6010E94230CC6016B2D7A2D0E9410
:104F5000020CC601602F412F0E94C20B1DCF8D9104
:104F60009C91029709F0BEC1D701AB5BB74F8D9101
:104F70009C911197F701E80FF91FE259FF4F6081EB
:104F80000196F701E80FF91FE259FF4FC080019623
:104F90008D939C9385ED9DE04C2D0E947C05DD2436
:104FA0008701095B174F14C085ED9DE00E94B50491
:104FB0008983D8012D913C911197F701E20FF31FDE
:104FC000E259FF4F80832F5F3F4F2D933C93D39443
:104FD00085ED9DE00E94AC04892B31F787010459CF
:104FE0001F4FDC1409F4BDC181E0BFC18D919C91BC
:104FF000029708F4EEC087010B5B174FD8018D9123
:105000009C911197F701E80FF91FE259FF4F60815A
:1050100001968D939C9385ED9DE00E949804DD247C
:1050200080E4A82E88E0B82EAE0CBF1C12C0F80198
:1050300080819181F701E80FF91FE259FF4F6081EC
:105040000196D8018D939C9385ED9DE00E942405E7
:10505000D3942D2D30E0F50180819181019728179F
:10506000390728F385ED9DE00E94670595CE8D9167
:105070009C91870104591F4F019709F049C0D7013E
:10508000AB5BB74F2D913C911197F701E20FF31FE6
:10509000E259FF4F80812F5F3F4F2D933C930E9439
:1050A000620433C08D919C91870104591F4F019771
:1050B00079F5D701AB5BB74F2D913C911197F70173
:1050C000E20FF31FE259FF4F80812F5F3F4F2D9377
:1050D0003C930E94700419C08D919C9187010459E2
:1050E0001F4F0197A9F4D701AB5BB74F2D913C91AE
:1050F0001197F701E20FF31FE259FF4F80812F5FF5
:105100003F4F2D933C930E946B04D8011C922FC1FA
:1051100086E0F80180832BC18D919C91019709F065
:1051200058C0D701AB5BB74F8D919C911197F70198
:10513000E80FF91FE259FF4F208101968D939C9350
:105140002EBD0DB407FEFDCF2EB52983D701A95B77
:10515000B74F8D919C911197F701E80FF91FE25914
:10516000FF4F208301968D939C9316CE8D919C9139
:10517000892B79F526E630E0E20EF31ED7016D911A
:105180007C91EAE9FFEFEE0EFF1E870120E030E0A0
:10519000A701495B574F10C0F701E20FF31FDA0177
:1051A0008D919C91E80FF91FE259FF4FD80111969C
:1051B0008C9180832F5F3F4F0F5F1F4F261737075C
:1051C00058F3FA0180819181860F971F9183808324
:1051D000E3CD2CE630E0E20EF31E88C08D919C9169
:1051E000870104591F4F892B09F0BEC08091610EC1
:1051F0009091620EA091630EB091640E8B839C839C
:10520000AD83BE83DE011396A701495B574FFA01B8
:1052100020813181F701E20FF31FE259FF4F8B81AB
:1052200083C08D919C91870104591F4F049709F009
:105230009BC0D701AB5BB74F2D913C911197225981
:105240003F4FF701E20FF31F6081718182819381EB
:105250002A5630402D933C930E94070882C08D91BE
:105260009C91870104591F4F892B09F07DC00E9432
:10527000000889839A83D701A95BB74F2D913C9190
:105280001197F701E20FF31FE259FF4F81938A81D3
:1052900080832E5F3F4F57C08D919C91029711F5EF
:1052A000D701AB5BB74F8D919C91119782599F4F5E
:1052B000F701E80FF91F0190F081E02D8C56904026
:1052C0008D939C93CF010297870104591F4F069736
:1052D00038F48E2F0E94F70780E00E94B70841C083
:1052E00085E043C0ECE6F0E0EE0EFF1E86E0D7015D
:1052F0008C93E4E9FFEFEE0EFF1E39C08D919C9177
:10530000870104591F4F892B79F5D701A859BF4F41
:10531000A701495B574FFA0120813181F701E20F64
:10532000F31FE259FF4F8C91819311968C91119745
:10533000819312968C911297819313968C9180830E
:105340002C5F3F4FDA012D933C930BC08D919C91C4
:10535000870104591F4F892B39F4C70161E00E946E
:10536000CC1FF801108203C086E0D8018C9387011E
:1053700004591F4FC701F80160810E949A22D80189
:105380008C910FB6F8947EBE0FBE6DBE6C960FB6B4
:10539000F894DEBF0FBECDBFCF91DF911F910F916B
:1053A000FF90EF90DF90CF90BF90AF909F907F9055
:1053B0006F90089510927A0E1092950E08952F9284
:1053C0003F924F925F926F927F928F929F92AF9295
:1053D000BF92CF92DF92EF92FF920F931F93DF93D2
:1053E000CF93CDB7DEB764970FB6F894DEBF0FBE8C
:1053F000CDBF2F83388749875A87EB86FC860D8778
:105400001E87D88ACF86BA8AA98A0E94AD4220E038
:1054100030E04AE754E40E941C419B01AC010E9429
:10542000A1405B016C0120E030E040E050E00E94D0
:10543000A94288234CF0C601B50120E030E040E0ED
:105440005FE30E94A14008C0C601B50120E030E042
:1054500040E05FE30E94A0400E9484410E94B74167
:1054600020E030E040E05FE30E94AD426B837C834C
:105470008D839E836B817C818D819E812F81388578
:1054800049855A850E941C412B853C854D855E854A
:105490000E94AD420E9405410E9489417A8369833E
:1054A00084C329813A81B90180E090E00E94B5412E
:1054B0002B813C814D815E810E941C412F8138856A
:1054C00049855A850E94AD423B014C01EF85F88920
:1054D00060837183828393832B853C854D855E85B4
:1054E0000E94A94218160CF45BC3C401B3012F81BA
:1054F000388549855A850E941C417B018C0160E0FA
:1055000070E080E090E4A80197010E941C415B01DB
:105510006C0120E030E040E050E00E94A942882386
:105520004CF0C601B50120E030E040E05FE30E94AE
:10553000A14008C0C601B50120E030E040E05FE3D3
:105540000E94A0400E9484410E94B741A801970197
:105550000E94AD429B01AC0160E070E080E090E40D
:105560000E94A04020E030E040E050E00E94A942CC
:105570001816A4F5C601B50120E030E040E050E087
:105580000E94A94288234CF0C601B50120E030E01A
:1055900040E05FE30E94A14008C0C601B50120E0E1
:1055A00030E040E05FE30E94A0400E9484410E94FE
:1055B000B741A80197010E94AD429B01AC0160E098
:1055C00070E080E090E40E94A0402DEC3CEC4CECBC
:1055D0005DE30E94184187FDE3C234C0C601B501F6
:1055E00020E030E040E050E00E94A94288234CF0E7
:1055F000C601B50120E030E040E05FE30E94A14039
:1056000008C0C601B50120E030E040E05FE30E9441
:10561000A0400E9484410E94B741A80197010E94C6
:10562000AD429B01AC0160E070E080E090E40E943C
:10563000A0402DEC3CEC4CEC5DEB0E94A94218160E
:105640000CF4AEC26F81788589859A859B01AC0187
:105650000E94A1409B01AC01C401B3010E9418410A
:1056600088230CF079C16F81788589859A85A4019A
:1056700093010E941C411B012C011C8A1B8A2B894F
:105680003C89B90180E090E00E94B5415B016C016A
:10569000C201B101A60195010E94A04020E030E0C6
:1056A00040E05FE30E941841181634F48B899C890E
:1056B00001969C8B8B8BE3CFC601B501A4019301AE
:1056C0000E94AD429B01AC016F81788589859A85E6
:1056D0000E94A0405B016C0120E030E040E050E01F
:1056E0000E94A942181624F0D7FAD094D7F8D09483
:1056F000C401B301A60195010E941C413B014C016C
:1057000060E070E080E090E4A40193010E941C41FD
:105710005B016C0120E030E040E050E00E94A942D3
:1057200088234CF0C601B50120E030E040E05FE3A3
:105730000E94A14008C0C601B50120E030E040E071
:105740005FE30E94A0400E9484410E94B741A401EF
:1057500093010E94AD429B01AC0160E070E080E0EB
:1057600090E40E94A04020E030E040E050E00E9441
:10577000A9421816A4F5C601B50120E030E040E0CA
:1057800050E00E94A94288234CF0C601B50120E0F8
:1057900030E040E05FE30E94A14008C0C601B501CF
:1057A00020E030E040E05FE30E94A0400E9484419E
:1057B0000E94B741A40193010E94AD429B01AC013C
:1057C00060E070E080E090E40E94A0402DEC3CECB2
:1057D0004CEC5DE30E9418418823ACF5E1C1C601A1
:1057E000B50120E030E040E050E00E94A94288236B
:1057F0004CF0C601B50120E030E040E05FE30E94DC
:10580000A14008C0C601B50120E030E040E05FE300
:105810000E94A0400E9484410E94B741A4019301CC
:105820000E94AD429B01AC0160E070E080E090E43A
:105830000E94A0402DEC3CEC4CEC5DEB0E94A94298
:1058400018160CF4ADC1C801B70120E030E040E00B
:1058500050E00E94A94288234CF0C801B70120E023
:1058600030E040E05FE30E94A14008C0C801B701FA
:1058700020E030E040E05FE30E94A0400E948441CD
:105880000E94B7419B01AC01C801B7010E94A04032
:1058900020E030E040E050E00E94A942181674F584
:1058A000C801B70120E030E040E050E00E94A9428A
:1058B00088234CF0C801B70120E030E040E05FE30E
:1058C0000E94A14008C0C801B70120E030E040E0DC
:1058D0005FE30E94A0400E9484410E94B7419B0167
:1058E000AC01C801B7010E94A04027E137EB41EDB0
:1058F00058E30E94184188237CF552C1C801B701C2
:1059000020E030E040E050E00E94A94288234CF0C3
:10591000C801B70120E030E040E05FE30E94A14011
:1059200008C0C801B70120E030E040E05FE30E941A
:10593000A0400E9484410E94B7419B01AC01C80174
:10594000B7010E94A04027E137EB41ED58EB0E94E0
:10595000A94218160CF424C1C801B70120E030E0B8
:1059600040E251E40E94184188230CF089C0C8012C
:10597000B70120E030E040E050E00E94A9428823D7
:105980004CF0C801B70120E030E040E05FE30E9446
:10599000A14008C0C801B70120E030E040E05FE36B
:1059A0000E94A0400E9484410E94B7419B01AC012B
:1059B000C801B7010E94A04020E030E040E050E084
:1059C0000E94A942181674F5C801B70120E030E022
:1059D00040E050E00E94A94288234CF0C801B70182
:1059E00020E030E040E05FE30E94A14008C0C80131
:1059F000B70120E030E040E05FE30E94A0400E9459
:105A000084410E94B7419B01AC01C801B7010E94CB
:105A1000A04027E137EB41ED58E30E94184188236D
:105A20007CF5BEC0C801B70120E030E040E050E0A6
:105A30000E94A94288234CF0C801B70120E030E061
:105A400040E05FE30E94A14008C0C801B70120E028
:105A500030E040E05FE30E94A0400E9484410E9449
:105A6000B7419B01AC01C801B7010E94A04027E1EA
:105A700037EB41ED58EB0E94A94218160CF490C088
:105A8000C801B7012B813C814D815E810E94AD42EE
:105A90005B016C0120E030E040E050E00E94A94250
:105AA00088234CF0C601B50120E030E040E05FE320
:105AB0000E94A14008C0C601B50120E030E040E0EE
:105AC0005FE30E94A0400E9484410E94B7419B0175
:105AD000AC01C601B5010E94A04020E030E040E0EA
